{
  "_format": "hh-sol-artifact-1",
  "contractName": "RouletteV0_0_2",
  "sourceName": "contracts/RouletteV0_0_2.sol",
  "abi": [
    {
      "inputs": [],
      "stateMutability": "nonpayable",
      "type": "constructor"
    },
    {
      "inputs": [
        {
          "internalType": "uint256",
          "name": "_requestId",
          "type": "uint256"
        }
      ],
      "name": "AlreadyFilled",
      "type": "error"
    },
    {
      "inputs": [],
      "name": "InvalidInitialization",
      "type": "error"
    },
    {
      "inputs": [],
      "name": "NotInitializing",
      "type": "error"
    },
    {
      "inputs": [
        {
          "internalType": "address",
          "name": "have",
          "type": "address"
        },
        {
          "internalType": "address",
          "name": "want",
          "type": "address"
        }
      ],
      "name": "OnlyVRFWrapperCanFulfill",
      "type": "error"
    },
    {
      "inputs": [
        {
          "internalType": "address",
          "name": "owner",
          "type": "address"
        }
      ],
      "name": "OwnableInvalidOwner",
      "type": "error"
    },
    {
      "inputs": [
        {
          "internalType": "address",
          "name": "account",
          "type": "address"
        }
      ],
      "name": "OwnableUnauthorizedAccount",
      "type": "error"
    },
    {
      "anonymous": false,
      "inputs": [
        {
          "indexed": false,
          "internalType": "uint256",
          "name": "requestId",
          "type": "uint256"
        },
        {
          "indexed": false,
          "internalType": "uint256",
          "name": "feePrice",
          "type": "uint256"
        }
      ],
      "name": "BetsCreated",
      "type": "event"
    },
    {
      "anonymous": false,
      "inputs": [
        {
          "indexed": false,
          "internalType": "uint256",
          "name": "requestId",
          "type": "uint256"
        },
        {
          "indexed": false,
          "internalType": "uint8",
          "name": "result",
          "type": "uint8"
        },
        {
          "indexed": false,
          "internalType": "uint256",
          "name": "wonAmount",
          "type": "uint256"
        }
      ],
      "name": "BetsResult",
      "type": "event"
    },
    {
      "anonymous": false,
      "inputs": [
        {
          "indexed": false,
          "internalType": "address",
          "name": "by",
          "type": "address"
        },
        {
          "indexed": false,
          "internalType": "address",
          "name": "token",
          "type": "address"
        },
        {
          "indexed": false,
          "internalType": "uint256",
          "name": "amount",
          "type": "uint256"
        }
      ],
      "name": "EmergencyWithdrawn",
      "type": "event"
    },
    {
      "anonymous": false,
      "inputs": [
        {
          "indexed": false,
          "internalType": "uint8",
          "name": "newFeeBps",
          "type": "uint8"
        }
      ],
      "name": "FeeChanged",
      "type": "event"
    },
    {
      "anonymous": false,
      "inputs": [
        {
          "indexed": false,
          "internalType": "uint256",
          "name": "amount",
          "type": "uint256"
        }
      ],
      "name": "FeeCharge",
      "type": "event"
    },
    {
      "anonymous": false,
      "inputs": [
        {
          "indexed": false,
          "internalType": "address",
          "name": "by",
          "type": "address"
        },
        {
          "indexed": false,
          "internalType": "uint256",
          "name": "amount",
          "type": "uint256"
        }
      ],
      "name": "FeeWithdrawn",
      "type": "event"
    },
    {
      "anonymous": false,
      "inputs": [
        {
          "indexed": false,
          "internalType": "uint64",
          "name": "version",
          "type": "uint64"
        }
      ],
      "name": "Initialized",
      "type": "event"
    },
    {
      "anonymous": false,
      "inputs": [
        {
          "indexed": true,
          "internalType": "address",
          "name": "previousOwner",
          "type": "address"
        },
        {
          "indexed": true,
          "internalType": "address",
          "name": "newOwner",
          "type": "address"
        }
      ],
      "name": "OwnershipTransferred",
      "type": "event"
    },
    {
      "stateMutability": "payable",
      "type": "fallback"
    },
    {
      "inputs": [
        {
          "internalType": "uint256",
          "name": "",
          "type": "uint256"
        },
        {
          "internalType": "uint256",
          "name": "",
          "type": "uint256"
        }
      ],
      "name": "bets",
      "outputs": [
        {
          "internalType": "uint256",
          "name": "amount",
          "type": "uint256"
        },
        {
          "internalType": "enum RouletteV0_0_2.BetType",
          "name": "betType",
          "type": "uint8"
        }
      ],
      "stateMutability": "view",
      "type": "function"
    },
    {
      "inputs": [
        {
          "internalType": "uint256",
          "name": "",
          "type": "uint256"
        }
      ],
      "name": "betsOwner",
      "outputs": [
        {
          "internalType": "address",
          "name": "",
          "type": "address"
        }
      ],
      "stateMutability": "view",
      "type": "function"
    },
    {
      "inputs": [
        {
          "internalType": "uint256",
          "name": "",
          "type": "uint256"
        }
      ],
      "name": "black",
      "outputs": [
        {
          "internalType": "uint8",
          "name": "",
          "type": "uint8"
        }
      ],
      "stateMutability": "view",
      "type": "function"
    },
    {
      "inputs": [
        {
          "internalType": "uint8",
          "name": "_newFeeBps",
          "type": "uint8"
        }
      ],
      "name": "changeFeeBps",
      "outputs": [],
      "stateMutability": "nonpayable",
      "type": "function"
    },
    {
      "inputs": [],
      "name": "feeAmount",
      "outputs": [
        {
          "internalType": "uint256",
          "name": "",
          "type": "uint256"
        }
      ],
      "stateMutability": "view",
      "type": "function"
    },
    {
      "inputs": [],
      "name": "feeBps",
      "outputs": [
        {
          "internalType": "uint8",
          "name": "",
          "type": "uint8"
        }
      ],
      "stateMutability": "view",
      "type": "function"
    },
    {
      "inputs": [
        {
          "internalType": "uint256",
          "name": "",
          "type": "uint256"
        }
      ],
      "name": "fulfilled",
      "outputs": [
        {
          "internalType": "bool",
          "name": "",
          "type": "bool"
        }
      ],
      "stateMutability": "view",
      "type": "function"
    },
    {
      "inputs": [],
      "name": "i_vrfV2PlusWrapper",
      "outputs": [
        {
          "internalType": "contract IVRFV2PlusWrapper",
          "name": "",
          "type": "address"
        }
      ],
      "stateMutability": "view",
      "type": "function"
    },
    {
      "inputs": [
        {
          "internalType": "contract IERC20",
          "name": "_token",
          "type": "address"
        },
        {
          "internalType": "address",
          "name": "_vrfV2PlusWrapper",
          "type": "address"
        }
      ],
      "name": "initialize",
      "outputs": [],
      "stateMutability": "nonpayable",
      "type": "function"
    },
    {
      "inputs": [
        {
          "internalType": "uint8[]",
          "name": "numbers",
          "type": "uint8[]"
        }
      ],
      "name": "isCornerBet",
      "outputs": [
        {
          "internalType": "bool",
          "name": "",
          "type": "bool"
        }
      ],
      "stateMutability": "pure",
      "type": "function"
    },
    {
      "inputs": [
        {
          "internalType": "uint8[]",
          "name": "numbers",
          "type": "uint8[]"
        }
      ],
      "name": "isDoubleStreetBet",
      "outputs": [
        {
          "internalType": "bool",
          "name": "",
          "type": "bool"
        }
      ],
      "stateMutability": "pure",
      "type": "function"
    },
    {
      "inputs": [
        {
          "internalType": "uint8",
          "name": "num1",
          "type": "uint8"
        },
        {
          "internalType": "uint8",
          "name": "num2",
          "type": "uint8"
        }
      ],
      "name": "isSplitBet",
      "outputs": [
        {
          "internalType": "bool",
          "name": "",
          "type": "bool"
        }
      ],
      "stateMutability": "pure",
      "type": "function"
    },
    {
      "inputs": [
        {
          "internalType": "uint8",
          "name": "num1",
          "type": "uint8"
        },
        {
          "internalType": "uint8",
          "name": "num2",
          "type": "uint8"
        },
        {
          "internalType": "uint8",
          "name": "num3",
          "type": "uint8"
        }
      ],
      "name": "isStreetBet",
      "outputs": [
        {
          "internalType": "bool",
          "name": "",
          "type": "bool"
        }
      ],
      "stateMutability": "view",
      "type": "function"
    },
    {
      "inputs": [
        {
          "components": [
            {
              "internalType": "uint256",
              "name": "amount",
              "type": "uint256"
            },
            {
              "internalType": "uint8[]",
              "name": "numbers",
              "type": "uint8[]"
            },
            {
              "internalType": "enum RouletteV0_0_2.BetType",
              "name": "betType",
              "type": "uint8"
            }
          ],
          "internalType": "struct RouletteV0_0_2.Bet[]",
          "name": "_bets",
          "type": "tuple[]"
        }
      ],
      "name": "newBet",
      "outputs": [
        {
          "internalType": "uint256",
          "name": "",
          "type": "uint256"
        }
      ],
      "stateMutability": "nonpayable",
      "type": "function"
    },
    {
      "inputs": [],
      "name": "owner",
      "outputs": [
        {
          "internalType": "address",
          "name": "",
          "type": "address"
        }
      ],
      "stateMutability": "view",
      "type": "function"
    },
    {
      "inputs": [
        {
          "internalType": "uint256",
          "name": "_requestId",
          "type": "uint256"
        },
        {
          "internalType": "uint256[]",
          "name": "_randomWords",
          "type": "uint256[]"
        }
      ],
      "name": "rawFulfillRandomWords",
      "outputs": [],
      "stateMutability": "nonpayable",
      "type": "function"
    },
    {
      "inputs": [
        {
          "internalType": "uint256",
          "name": "",
          "type": "uint256"
        }
      ],
      "name": "red",
      "outputs": [
        {
          "internalType": "uint8",
          "name": "",
          "type": "uint8"
        }
      ],
      "stateMutability": "view",
      "type": "function"
    },
    {
      "inputs": [],
      "name": "renounceOwnership",
      "outputs": [],
      "stateMutability": "nonpayable",
      "type": "function"
    },
    {
      "inputs": [
        {
          "internalType": "uint256",
          "name": "",
          "type": "uint256"
        },
        {
          "internalType": "uint256",
          "name": "",
          "type": "uint256"
        }
      ],
      "name": "streets",
      "outputs": [
        {
          "internalType": "uint8",
          "name": "",
          "type": "uint8"
        }
      ],
      "stateMutability": "view",
      "type": "function"
    },
    {
      "inputs": [],
      "name": "token",
      "outputs": [
        {
          "internalType": "contract IERC20",
          "name": "",
          "type": "address"
        }
      ],
      "stateMutability": "view",
      "type": "function"
    },
    {
      "inputs": [
        {
          "internalType": "address",
          "name": "newOwner",
          "type": "address"
        }
      ],
      "name": "transferOwnership",
      "outputs": [],
      "stateMutability": "nonpayable",
      "type": "function"
    },
    {
      "inputs": [],
      "name": "withdrawFee",
      "outputs": [],
      "stateMutability": "nonpayable",
      "type": "function"
    },
    {
      "inputs": [
        {
          "internalType": "address",
          "name": "_token",
          "type": "address"
        },
        {
          "internalType": "uint256",
          "name": "_amount",
          "type": "uint256"
        }
      ],
      "name": "withdrawFunds",
      "outputs": [],
      "stateMutability": "nonpayable",
      "type": "function"
    },
    {
      "stateMutability": "payable",
      "type": "receive"
    }
  ],
  "bytecode": "0x608060405234801561001057600080fd5b5061001f61002460201b60201c565b61018e565b600061003461012860201b60201c565b90508060000160089054906101000a900460ff161561007f576040517ff92ee8a900000000000000000000000000000000000000000000000000000000815260040160405180910390fd5b67ffffffffffffffff80168160000160009054906101000a900467ffffffffffffffff1667ffffffffffffffff16146101255767ffffffffffffffff8160000160006101000a81548167ffffffffffffffff021916908367ffffffffffffffff1602179055507fc7f505b2f371ae2175ee4913f4499e1f2633a7b5936321eed1cdaeb6115181d267ffffffffffffffff60405161011c9190610173565b60405180910390a15b50565b60007ff0c57e16840df040f15088dc2f81fe391c3923bec73e23a9662efc9c229c6a00905090565b600067ffffffffffffffff82169050919050565b61016d81610150565b82525050565b60006020820190506101886000830184610164565b92915050565b615fdb8061019d6000396000f3fe6080604052600436106101445760003560e01c80637d5e45d5116100b6578063c10753291161006f578063c1075329146104ab578063e4f8ceea146104d4578063e941fa7814610511578063f2fde38b14610528578063fba4d7bf14610551578063fc0c546a1461058e57610145565b80637d5e45d51461036157806383cd79801461039e57806388f2c720146103db5780638da5cb5b146104185780639ed0868d14610443578063a285ad791461046e57610145565b806347aa1a101161010857806347aa1a101461023e578063485cc9551461027b57806369e15404146102a45780636a09f6be146102cf578063715018a61461030d578063768d26891461032457610145565b80631bc404d6146101475780631fe543e31461018457806324a9d853146101ad5780632edd6797146101d85780633f9e06c91461020157610145565b5b005b34801561015357600080fd5b5061016e60048036038101906101699190614928565b6105b9565b60405161017b9190614970565b60405180910390f35b34801561019057600080fd5b506101ab60048036038101906101a69190614ae4565b6105d9565b005b3480156101b957600080fd5b506101c2610681565b6040516101cf9190614b5c565b60405180910390f35b3480156101e457600080fd5b506101ff60048036038101906101fa9190614ba3565b610694565b005b34801561020d57600080fd5b5061022860048036038101906102239190614c93565b6106f1565b6040516102359190614970565b60405180910390f35b34801561024a57600080fd5b5061026560048036038101906102609190614cdc565b61096c565b6040516102729190614970565b60405180910390f35b34801561028757600080fd5b506102a2600480360381019061029d9190614db8565b610a2f565b005b3480156102b057600080fd5b506102b9610bc0565b6040516102c69190614e07565b60405180910390f35b3480156102db57600080fd5b506102f660048036038101906102f19190614e22565b610bc6565b604051610304929190614ed9565b60405180910390f35b34801561031957600080fd5b50610322610c14565b005b34801561033057600080fd5b5061034b60048036038101906103469190614928565b610c28565b6040516103589190614b5c565b60405180910390f35b34801561036d57600080fd5b5061038860048036038101906103839190614c93565b610c52565b6040516103959190614970565b60405180910390f35b3480156103aa57600080fd5b506103c560048036038101906103c09190614928565b610dc8565b6040516103d29190614b5c565b60405180910390f35b3480156103e757600080fd5b5061040260048036038101906103fd9190614e22565b610df2565b60405161040f9190614b5c565b60405180910390f35b34801561042457600080fd5b5061042d610e37565b60405161043a9190614f11565b60405180910390f35b34801561044f57600080fd5b50610458610e6f565b6040516104659190614f8b565b60405180910390f35b34801561047a57600080fd5b5061049560048036038101906104909190615001565b610e95565b6040516104a29190614e07565b60405180910390f35b3480156104b757600080fd5b506104d260048036038101906104cd919061504e565b6122d5565b005b3480156104e057600080fd5b506104fb60048036038101906104f6919061508e565b61242a565b6040516105089190614970565b60405180910390f35b34801561051d57600080fd5b50610526612ab8565b005b34801561053457600080fd5b5061054f600480360381019061054a91906150e1565b612bb3565b005b34801561055d57600080fd5b5061057860048036038101906105739190614928565b612c39565b6040516105859190614f11565b60405180910390f35b34801561059a57600080fd5b506105a3612c6c565b6040516105b0919061512f565b60405180910390f35b60086020528060005260406000206000915054906101000a900460ff1681565b6000600160009054906101000a900473ffffffffffffffffffffffffffffffffffffffff1690508073ffffffffffffffffffffffffffffffffffffffff163373ffffffffffffffffffffffffffffffffffffffff16146106725733816040517f8ba9316e00000000000000000000000000000000000000000000000000000000815260040161066992919061514a565b60405180910390fd5b61067c8383612c92565b505050565b600260149054906101000a900460ff1681565b61069c612fb3565b80600260146101000a81548160ff021916908360ff1602179055507f8b3c6011cf1540f834b7142ff37e905118131ec885ed9c7d34fb314ba864f815816040516106e69190614b5c565b60405180910390a150565b6000806107a48360008151811061070b5761070a615173565b5b60200260200101518460018151811061072757610726615173565b5b60200260200101518560028151811061074357610742615173565b5b60200260200101518660038151811061075f5761075e615173565b5b60200260200101518760048151811061077b5761077a615173565b5b60200260200101518860058151811061079757610796615173565b5b602002602001015161303a565b905060016003826000600681106107be576107bd615173565b5b60200201516107cd91906151d1565b60ff1614801561081e57506001816000600681106107ee576107ed615173565b5b60200201516107fd9190615231565b60ff168160016006811061081457610813615173565b5b602002015160ff16145b801561086b575060028160006006811061083b5761083a615173565b5b602002015161084a9190615231565b60ff168160026006811061086157610860615173565b5b602002015160ff16145b80156108b8575060038160006006811061088857610887615173565b5b60200201516108979190615231565b60ff16816003600681106108ae576108ad615173565b5b602002015160ff16145b801561090557506004816000600681106108d5576108d4615173565b5b60200201516108e49190615231565b60ff16816004600681106108fb576108fa615173565b5b602002015160ff16145b8015610952575060058160006006811061092257610921615173565b5b60200201516109319190615231565b60ff168160056006811061094857610947615173565b5b602002015160ff16145b15610961576001915050610967565b60009150505b919050565b600060018261097b9190615266565b60ff168360ff1614801561099f5750600060038461099991906151d1565b60ff1614155b806109d757506001836109b29190615266565b60ff168260ff161480156109d6575060006003836109d091906151d1565b60ff1614155b5b156109e55760019050610a29565b6003826109f29190615266565b60ff168360ff161480610a165750600383610a0d9190615266565b60ff168260ff16145b15610a245760019050610a29565b600090505b92915050565b6000610a396131bb565b905060008160000160089054906101000a900460ff1615905060008260000160009054906101000a900467ffffffffffffffff1690506000808267ffffffffffffffff16148015610a875750825b9050600060018367ffffffffffffffff16148015610abc575060003073ffffffffffffffffffffffffffffffffffffffff163b145b905081158015610aca575080155b15610b01576040517ff92ee8a900000000000000000000000000000000000000000000000000000000815260040160405180910390fd5b60018560000160006101000a81548167ffffffffffffffff021916908367ffffffffffffffff1602179055508315610b515760018560000160086101000a81548160ff0219169083151502179055505b610b5b87876131e3565b8315610bb75760008560000160086101000a81548160ff0219169083151502179055507fc7f505b2f371ae2175ee4913f4499e1f2633a7b5936321eed1cdaeb6115181d26001604051610bae91906152ea565b60405180910390a15b50505050505050565b60095481565b60066020528160005260406000208181548110610be257600080fd5b9060005260206000209060030201600091509150508060000154908060020160009054906101000a900460ff16905082565b610c1c612fb3565b610c266000613713565b565b60048160128110610c3857600080fd5b60209182820401919006915054906101000a900460ff1681565b600080610ccd83600081518110610c6c57610c6b615173565b5b602002602001015184600181518110610c8857610c87615173565b5b602002602001015185600281518110610ca457610ca3615173565b5b602002602001015186600381518110610cc057610cbf615173565b5b60200260200101516137ea565b9050600181600060048110610ce557610ce4615173565b5b6020020151610cf49190615231565b60ff1681600160048110610d0b57610d0a615173565b5b602002015160ff16148015610d615750600381600060048110610d3157610d30615173565b5b6020020151610d409190615231565b60ff1681600260048110610d5757610d56615173565b5b602002015160ff16145b8015610dae5750600481600060048110610d7e57610d7d615173565b5b6020020151610d8d9190615231565b60ff1681600360048110610da457610da3615173565b5b602002015160ff16145b15610dbd576001915050610dc3565b60009150505b919050565b60058160128110610dd857600080fd5b60209182820401919006915054906101000a900460ff1681565b60038281548110610e0257600080fd5b906000526020600020018160038110610e1a57600080fd5b60209182820401919006915091509054906101000a900460ff1681565b600080610e42613951565b90508060000160009054906101000a900473ffffffffffffffffffffffffffffffffffffffff1691505090565b600160009054906101000a900473ffffffffffffffffffffffffffffffffffffffff1681565b6000806000905060005b84849050811015611f5d5760006014811115610ebe57610ebd614e62565b5b858583818110610ed157610ed0615173565b5b9050602002810190610ee39190615314565b6040016020810190610ef59190615361565b6014811115610f0757610f06614e62565b5b1480610f6d575060016014811115610f2257610f21614e62565b5b858583818110610f3557610f34615173565b5b9050602002810190610f479190615314565b6040016020810190610f599190615361565b6014811115610f6b57610f6a614e62565b5b145b80610fd2575060096014811115610f8757610f86614e62565b5b858583818110610f9a57610f99615173565b5b9050602002810190610fac9190615314565b6040016020810190610fbe9190615361565b6014811115610fd057610fcf614e62565b5b145b806110375750600a6014811115610fec57610feb614e62565b5b858583818110610fff57610ffe615173565b5b90506020028101906110119190615314565b60400160208101906110239190615361565b601481111561103557611034614e62565b5b145b8061109c5750600b601481111561105157611050614e62565b5b85858381811061106457611063615173565b5b90506020028101906110769190615314565b60400160208101906110889190615361565b601481111561109a57611099614e62565b5b145b806111015750600c60148111156110b6576110b5614e62565b5b8585838181106110c9576110c8615173565b5b90506020028101906110db9190615314565b60400160208101906110ed9190615361565b60148111156110ff576110fe614e62565b5b145b806111665750600d601481111561111b5761111a614e62565b5b85858381811061112e5761112d615173565b5b90506020028101906111409190615314565b60400160208101906111529190615361565b601481111561116457611163614e62565b5b145b806111cb5750600e60148111156111805761117f614e62565b5b85858381811061119357611192615173565b5b90506020028101906111a59190615314565b60400160208101906111b79190615361565b60148111156111c9576111c8614e62565b5b145b806112305750600f60148111156111e5576111e4614e62565b5b8585838181106111f8576111f7615173565b5b905060200281019061120a9190615314565b604001602081019061121c9190615361565b601481111561122e5761122d614e62565b5b145b8061129557506010601481111561124a57611249614e62565b5b85858381811061125d5761125c615173565b5b905060200281019061126f9190615314565b60400160208101906112819190615361565b601481111561129357611292614e62565b5b145b806112fa5750601160148111156112af576112ae614e62565b5b8585838181106112c2576112c1615173565b5b90506020028101906112d49190615314565b60400160208101906112e69190615361565b60148111156112f8576112f7614e62565b5b145b8061135f57506012601481111561131457611313614e62565b5b85858381811061132757611326615173565b5b90506020028101906113399190615314565b604001602081019061134b9190615361565b601481111561135d5761135c614e62565b5b145b806113c457506013601481111561137957611378614e62565b5b85858381811061138c5761138b615173565b5b905060200281019061139e9190615314565b60400160208101906113b09190615361565b60148111156113c2576113c1614e62565b5b145b8061142857506014808111156113dd576113dc614e62565b5b8585838181106113f0576113ef615173565b5b90506020028101906114029190615314565b60400160208101906114149190615361565b601481111561142657611425614e62565b5b145b156114a657600085858381811061144257611441615173565b5b90506020028101906114549190615314565b8060200190611463919061538e565b9050146114a5576040517f08c379a000000000000000000000000000000000000000000000000000000000815260040161149c90615474565b60405180910390fd5b5b600260148111156114ba576114b9614e62565b5b8585838181106114cd576114cc615173565b5b90506020028101906114df9190615314565b60400160208101906114f19190615361565b601481111561150357611502614e62565b5b036116e057600385858381811061151d5761151c615173565b5b905060200281019061152f9190615314565b806020019061153e919061538e565b905014611580576040517f08c379a0000000000000000000000000000000000000000000000000000000008152600401611577906154e0565b60405180910390fd5b6001151561169d86868481811061159a57611599615173565b5b90506020028101906115ac9190615314565b80602001906115bb919061538e565b60008181106115cd576115cc615173565b5b90506020020160208101906115e29190614ba3565b8787858181106115f5576115f4615173565b5b90506020028101906116079190615314565b8060200190611616919061538e565b600181811061162857611627615173565b5b905060200201602081019061163d9190614ba3565b8888868181106116505761164f615173565b5b90506020028101906116629190615314565b8060200190611671919061538e565b600281811061168357611682615173565b5b90506020020160208101906116989190614ba3565b61242a565b1515146116df576040517f08c379a00000000000000000000000000000000000000000000000000000000081526004016116d69061554c565b60405180910390fd5b5b600360148111156116f4576116f3614e62565b5b85858381811061170757611706615173565b5b90506020028101906117199190615314565b604001602081019061172b9190615361565b601481111561173d5761173c614e62565b5b0361180357600c85858381811061175757611756615173565b5b90506020028101906117699190615314565b8060200190611778919061538e565b9050146117ba576040517f08c379a00000000000000000000000000000000000000000000000000000000081526004016117b1906154e0565b60405180910390fd5b600015156001151514611802576040517f08c379a00000000000000000000000000000000000000000000000000000000081526004016117f9906155b8565b60405180910390fd5b5b6004601481111561181757611816614e62565b5b85858381811061182a57611829615173565b5b905060200281019061183c9190615314565b604001602081019061184e9190615361565b60148111156118605761185f614e62565b5b0361192657600585858381811061187a57611879615173565b5b905060200281019061188c9190615314565b806020019061189b919061538e565b9050146118dd576040517f08c379a00000000000000000000000000000000000000000000000000000000081526004016118d4906154e0565b60405180910390fd5b600015156001151514611925576040517f08c379a000000000000000000000000000000000000000000000000000000000815260040161191c906155b8565b60405180910390fd5b5b6005601481111561193a57611939614e62565b5b85858381811061194d5761194c615173565b5b905060200281019061195f9190615314565b60400160208101906119719190615361565b601481111561198357611982614e62565b5b03611b0557600285858381811061199d5761199c615173565b5b90506020028101906119af9190615314565b80602001906119be919061538e565b905014611a00576040517f08c379a00000000000000000000000000000000000000000000000000000000081526004016119f7906154e0565b60405180910390fd5b60011515611ac2868684818110611a1a57611a19615173565b5b9050602002810190611a2c9190615314565b8060200190611a3b919061538e565b6000818110611a4d57611a4c615173565b5b9050602002016020810190611a629190614ba3565b878785818110611a7557611a74615173565b5b9050602002810190611a879190615314565b8060200190611a96919061538e565b6001818110611aa857611aa7615173565b5b9050602002016020810190611abd9190614ba3565b61096c565b151514611b04576040517f08c379a0000000000000000000000000000000000000000000000000000000008152600401611afb9061554c565b60405180910390fd5b5b60066014811115611b1957611b18614e62565b5b858583818110611b2c57611b2b615173565b5b9050602002810190611b3e9190615314565b6040016020810190611b509190615361565b6014811115611b6257611b61614e62565b5b03611ca2576004858583818110611b7c57611b7b615173565b5b9050602002810190611b8e9190615314565b8060200190611b9d919061538e565b905014611bdf576040517f08c379a0000000000000000000000000000000000000000000000000000000008152600401611bd6906154e0565b60405180910390fd5b60011515611c5f868684818110611bf957611bf8615173565b5b9050602002810190611c0b9190615314565b8060200190611c1a919061538e565b80806020026020016040519081016040528093929190818152602001838360200280828437600081840152601f19601f82011690508083019250505050505050610c52565b151514611ca1576040517f08c379a0000000000000000000000000000000000000000000000000000000008152600401611c989061554c565b60405180910390fd5b5b60076014811115611cb657611cb5614e62565b5b858583818110611cc957611cc8615173565b5b9050602002810190611cdb9190615314565b6040016020810190611ced9190615361565b6014811115611cff57611cfe614e62565b5b03611e3f576006858583818110611d1957611d18615173565b5b9050602002810190611d2b9190615314565b8060200190611d3a919061538e565b905014611d7c576040517f08c379a0000000000000000000000000000000000000000000000000000000008152600401611d73906154e0565b60405180910390fd5b60011515611dfc868684818110611d9657611d95615173565b5b9050602002810190611da89190615314565b8060200190611db7919061538e565b80806020026020016040519081016040528093929190818152602001838360200280828437600081840152601f19601f820116905080830192505050505050506106f1565b151514611e3e576040517f08c379a0000000000000000000000000000000000000000000000000000000008152600401611e359061554c565b60405180910390fd5b5b60086014811115611e5357611e52614e62565b5b858583818110611e6657611e65615173565b5b9050602002810190611e789190615314565b6040016020810190611e8a9190615361565b6014811115611e9c57611e9b614e62565b5b03611f1a576001858583818110611eb657611eb5615173565b5b9050602002810190611ec89190615314565b8060200190611ed7919061538e565b905014611f19576040517f08c379a0000000000000000000000000000000000000000000000000000000008152600401611f10906154e0565b60405180910390fd5b5b848482818110611f2d57611f2c615173565b5b9050602002810190611f3f9190615314565b6000013582611f4e91906155d8565b91508080600101915050610e9f565b506000612710600260149054906101000a900460ff1660ff1683611f81919061560c565b611f8b919061564e565b90508060096000828254611f9f91906155d8565b92505081905550602482611fb3919061560c565b600954600260009054906101000a900473ffffffffffffffffffffffffffffffffffffffff1673ffffffffffffffffffffffffffffffffffffffff166370a08231306040518263ffffffff1660e01b81526004016120119190614f11565b602060405180830381865afa15801561202e573d6000803e3d6000fd5b505050506040513d601f19601f820116820180604052508101906120529190615694565b61205c91906156c1565b101561209d576040517f08c379a000000000000000000000000000000000000000000000000000000000815260040161209490615767565b60405180910390fd5b600260009054906101000a900473ffffffffffffffffffffffffffffffffffffffff1673ffffffffffffffffffffffffffffffffffffffff166323b872dd3330856040518463ffffffff1660e01b81526004016120fc93929190615787565b6020604051808303816000875af115801561211b573d6000803e3d6000fd5b505050506040513d601f19601f8201168201806040525081019061213f91906157ea565b50600061215c604051806020016040528060011515815250613979565b9050600080612172620186a06003600186613a11565b809250819350505060005b8888905081101561220457600660008481526020019081526020016000208989838181106121ae576121ad615173565b5b90506020028101906121c09190615314565b908060018154018082558091505060019003906000526020600020906003020160009091909190915081816121f59190615cfc565b5050808060010191505061217d565b50336007600084815260200190815260200160002060006101000a81548173ffffffffffffffffffffffffffffffffffffffff021916908373ffffffffffffffffffffffffffffffffffffffff1602179055507fa1e65b062e40809f80439a4691be6294420cac1c300e5430fa259aad2a0d53fc8282604051612288929190615d0a565b60405180910390a17f77444cd969f2b804ea091b5f3c08bb5a20d3c97ed9c8660cfa9b1ea050ff6e1a846040516122bf9190614e07565b60405180910390a1819550505050505092915050565b6122dd612fb3565b7f457e4fe0c9f161a0c6f3bfb8d7809a4ac19f6291bd81b03b86b0d00f9af3717b33838360405161231093929190615787565b60405180910390a1600073ffffffffffffffffffffffffffffffffffffffff168273ffffffffffffffffffffffffffffffffffffffff160361239f57612354610e37565b73ffffffffffffffffffffffffffffffffffffffff166108fc829081150290604051600060405180830381858888f19350505050158015612399573d6000803e3d6000fd5b50612426565b8173ffffffffffffffffffffffffffffffffffffffff1663a9059cbb6123c3610e37565b836040518363ffffffff1660e01b81526004016123e1929190615d33565b6020604051808303816000875af1158015612400573d6000803e3d6000fd5b505050506040513d601f19601f8201168201806040525081019061242491906157ea565b505b5050565b600080600090505b6003805490508160ff161015612aab5760038160ff168154811061245957612458615173565b5b9060005260206000200160006003811061247657612475615173565b5b602091828204019190069054906101000a900460ff1660ff168560ff161480156124ee575060038160ff16815481106124b2576124b1615173565b5b906000526020600020016001600381106124cf576124ce615173565b5b602091828204019190069054906101000a900460ff1660ff168460ff16145b8015612548575060038160ff168154811061250c5761250b615173565b5b9060005260206000200160026003811061252957612528615173565b5b602091828204019190069054906101000a900460ff1660ff168360ff16145b80612655575060038160ff168154811061256557612564615173565b5b9060005260206000200160006003811061258257612581615173565b5b602091828204019190069054906101000a900460ff1660ff168560ff161480156125fa575060038160ff16815481106125be576125bd615173565b5b906000526020600020016001600381106125db576125da615173565b5b602091828204019190069054906101000a900460ff1660ff168360ff16145b8015612654575060038160ff168154811061261857612617615173565b5b9060005260206000200160026003811061263557612634615173565b5b602091828204019190069054906101000a900460ff1660ff168460ff16145b5b80612762575060038160ff168154811061267257612671615173565b5b9060005260206000200160006003811061268f5761268e615173565b5b602091828204019190069054906101000a900460ff1660ff168460ff16148015612707575060038160ff16815481106126cb576126ca615173565b5b906000526020600020016001600381106126e8576126e7615173565b5b602091828204019190069054906101000a900460ff1660ff168560ff16145b8015612761575060038160ff168154811061272557612724615173565b5b9060005260206000200160026003811061274257612741615173565b5b602091828204019190069054906101000a900460ff1660ff168360ff16145b5b8061286f575060038160ff168154811061277f5761277e615173565b5b9060005260206000200160006003811061279c5761279b615173565b5b602091828204019190069054906101000a900460ff1660ff168460ff16148015612814575060038160ff16815481106127d8576127d7615173565b5b906000526020600020016001600381106127f5576127f4615173565b5b602091828204019190069054906101000a900460ff1660ff168360ff16145b801561286e575060038160ff168154811061283257612831615173565b5b9060005260206000200160026003811061284f5761284e615173565b5b602091828204019190069054906101000a900460ff1660ff168560ff16145b5b8061297c575060038160ff168154811061288c5761288b615173565b5b906000526020600020016000600381106128a9576128a8615173565b5b602091828204019190069054906101000a900460ff1660ff168360ff16148015612921575060038160ff16815481106128e5576128e4615173565b5b9060005260206000200160016003811061290257612901615173565b5b602091828204019190069054906101000a900460ff1660ff168560ff16145b801561297b575060038160ff168154811061293f5761293e615173565b5b9060005260206000200160026003811061295c5761295b615173565b5b602091828204019190069054906101000a900460ff1660ff168460ff16145b5b80612a89575060038160ff168154811061299957612998615173565b5b906000526020600020016000600381106129b6576129b5615173565b5b602091828204019190069054906101000a900460ff1660ff168360ff16148015612a2e575060038160ff16815481106129f2576129f1615173565b5b90600052602060002001600160038110612a0f57612a0e615173565b5b602091828204019190069054906101000a900460ff1660ff168460ff16145b8015612a88575060038160ff1681548110612a4c57612a4b615173565b5b90600052602060002001600260038110612a6957612a68615173565b5b602091828204019190069054906101000a900460ff1660ff168560ff16145b5b15612a98576001915050612ab1565b8080612aa390615d5c565b915050612432565b50600090505b9392505050565b612ac0612fb3565b6000600954905060006009819055507f78473f3f373f7673597f4f0fa5873cb4d375fea6d4339ad6b56dbd411513cb3f3382604051612b00929190615d33565b60405180910390a1600260009054906101000a900473ffffffffffffffffffffffffffffffffffffffff1673ffffffffffffffffffffffffffffffffffffffff1663a9059cbb612b4e610e37565b836040518363ffffffff1660e01b8152600401612b6c929190615d33565b6020604051808303816000875af1158015612b8b573d6000803e3d6000fd5b505050506040513d601f19601f82011682018060405250810190612baf91906157ea565b5050565b612bbb612fb3565b600073ffffffffffffffffffffffffffffffffffffffff168173ffffffffffffffffffffffffffffffffffffffff1603612c2d5760006040517f1e4fbdf7000000000000000000000000000000000000000000000000000000008152600401612c249190614f11565b60405180910390fd5b612c3681613713565b50565b60076020528060005260406000206000915054906101000a900473ffffffffffffffffffffffffffffffffffffffff1681565b600260009054906101000a900473ffffffffffffffffffffffffffffffffffffffff1681565b6008600083815260200190815260200160002060009054906101000a900460ff1615612cf557816040517fc85492ea000000000000000000000000000000000000000000000000000000008152600401612cec9190614e07565b60405180910390fd5b6000602682600081518110612d0d57612d0c615173565b5b6020026020010151612d1f9190615d85565b905060016008600085815260200190815260200160002060006101000a81548160ff0219169083151502179055506000805b6006600086815260200190815260200160002080549050811015612e9357612e79600660008781526020019081526020016000208281548110612d9757612d96615173565b5b90600052602060002090600302016040518060600160405290816000820154815260200160018201805480602002602001604051908101604052809291908181526020018280548015612e2f57602002820191906000526020600020906000905b82829054906101000a900460ff1660ff1681526020019060010190602082600001049283019260010382029150808411612df85790505b505050505081526020016002820160009054906101000a900460ff166014811115612e5d57612e5c614e62565b5b6014811115612e6f57612e6e614e62565b5b8152505084613b64565b82612e8491906155d8565b91508080600101915050612d51565b506000811115612f7257600260009054906101000a900473ffffffffffffffffffffffffffffffffffffffff1673ffffffffffffffffffffffffffffffffffffffff1663a9059cbb6007600087815260200190815260200160002060009054906101000a900473ffffffffffffffffffffffffffffffffffffffff16836040518363ffffffff1660e01b8152600401612f2d929190615d33565b6020604051808303816000875af1158015612f4c573d6000803e3d6000fd5b505050506040513d601f19601f82011682018060405250810190612f7091906157ea565b505b7f7dcdf51466f65224ce20b5f622c0d7f5fcbb55baea0e66d592e149db90d63b49848383604051612fa593929190615db6565b60405180910390a150505050565b612fbb6145c1565b73ffffffffffffffffffffffffffffffffffffffff16612fd9610e37565b73ffffffffffffffffffffffffffffffffffffffff161461303857612ffc6145c1565b6040517f118cdaa700000000000000000000000000000000000000000000000000000000815260040161302f9190614f11565b60405180910390fd5b565b6130426146c3565b60006040518060c001604052808960ff1660ff1681526020018860ff1660ff1681526020018760ff1660ff1681526020018660ff1660ff1681526020018560ff1660ff1681526020018460ff1660ff16815250905060005b60068160ff1610156131ac5760006001826130b59190615231565b90505b60068160ff16101561319e57828160ff16600681106130da576130d9615173565b5b602002015160ff16838360ff16600681106130f8576130f7615173565b5b602002015160ff161115613191576000838360ff166006811061311e5761311d615173565b5b60200201519050838260ff166006811061313b5761313a615173565b5b6020020151848460ff166006811061315657613155615173565b5b602002019060ff16908160ff168152505080848360ff166006811061317e5761317d615173565b5b602002019060ff16908160ff1681525050505b80806001019150506130b8565b50808060010191505061309a565b50809150509695505050505050565b60007ff0c57e16840df040f15088dc2f81fe391c3923bec73e23a9662efc9c229c6a00905090565b81600260006101000a81548173ffffffffffffffffffffffffffffffffffffffff021916908373ffffffffffffffffffffffffffffffffffffffff160217905550600081905060006009819055506000600260146101000a81548160ff021916908360ff1602179055508073ffffffffffffffffffffffffffffffffffffffff16631c4695f46040518163ffffffff1660e01b8152600401602060405180830381865afa158015613298573d6000803e3d6000fd5b505050506040513d601f19601f820116820180604052508101906132bc9190615e02565b6000806101000a81548173ffffffffffffffffffffffffffffffffffffffff021916908373ffffffffffffffffffffffffffffffffffffffff16021790555080600160006101000a81548173ffffffffffffffffffffffffffffffffffffffff021916908373ffffffffffffffffffffffffffffffffffffffff160217905550613345336145c9565b6040518061018001604052806040518060600160405280600160ff168152602001600260ff168152602001600360ff1681525081526020016040518060600160405280600460ff168152602001600560ff168152602001600660ff1681525081526020016040518060600160405280600760ff168152602001600860ff168152602001600960ff1681525081526020016040518060600160405280600a60ff168152602001600b60ff168152602001600c60ff1681525081526020016040518060600160405280600d60ff168152602001600e60ff168152602001600f60ff1681525081526020016040518060600160405280601060ff168152602001601160ff168152602001601260ff1681525081526020016040518060600160405280601360ff168152602001601460ff168152602001601560ff1681525081526020016040518060600160405280601660ff168152602001601760ff168152602001601860ff1681525081526020016040518060600160405280601960ff168152602001601a60ff168152602001601b60ff1681525081526020016040518060600160405280601c60ff168152602001601d60ff168152602001601e60ff1681525081526020016040518060600160405280601f60ff168152602001602060ff168152602001602160ff1681525081526020016040518060600160405280602260ff168152602001602360ff168152602001602460ff16815250815250600390600c61356f9291906146e5565b50604051806102400160405280600160ff168152602001600360ff168152602001600560ff168152602001600760ff168152602001600960ff168152602001600c60ff168152602001600e60ff168152602001601060ff168152602001601260ff168152602001601360ff168152602001601560ff168152602001601760ff168152602001601960ff168152602001601b60ff168152602001601e60ff168152602001602060ff168152602001602260ff168152602001602460ff16815250600490601261363e929190614740565b50604051806102400160405280600260ff168152602001600460ff168152602001600660ff168152602001600860ff168152602001600a60ff168152602001600b60ff168152602001600d60ff168152602001600f60ff168152602001601160ff168152602001601460ff168152602001601660ff168152602001601860ff168152602001601a60ff168152602001601c60ff168152602001601d60ff168152602001601f60ff168152602001602160ff168152602001602360ff16815250600590601261370d929190614740565b50505050565b600061371d613951565b905060008160000160009054906101000a900473ffffffffffffffffffffffffffffffffffffffff169050828260000160006101000a81548173ffffffffffffffffffffffffffffffffffffffff021916908373ffffffffffffffffffffffffffffffffffffffff1602179055508273ffffffffffffffffffffffffffffffffffffffff168173ffffffffffffffffffffffffffffffffffffffff167f8be0079c531659141344cd1fd0a4f28419497f9722a3daafe3b4186f6b6457e060405160405180910390a3505050565b6137f26147da565b600060405180608001604052808760ff1660ff1681526020018660ff1660ff1681526020018560ff1660ff1681526020018460ff1660ff16815250905060005b60048160ff16101561394457600060018261384d9190615231565b90505b60048160ff16101561393657828160ff166004811061387257613871615173565b5b602002015160ff16838360ff16600481106138905761388f615173565b5b602002015160ff161115613929576000838360ff16600481106138b6576138b5615173565b5b60200201519050838260ff16600481106138d3576138d2615173565b5b6020020151848460ff16600481106138ee576138ed615173565b5b602002019060ff16908160ff168152505080848360ff166004811061391657613915615173565b5b602002019060ff16908160ff1681525050505b8080600101915050613850565b508080600101915050613832565b5080915050949350505050565b60007f9016d09d72d40fdae2fd8ceac6b6234c7706214fd39c1cd1e609a0528c199300905090565b60607f92fd13387c7fe7befbc38d303d6468778fb9731bc4583f17d92989c6fcfdeaaa826040516024016139ad9190615e5a565b604051602081830303815290604052907bffffffffffffffffffffffffffffffffffffffffffffffffffffffff19166020820180517bffffffffffffffffffffffffffffffffffffffffffffffffffffffff83818316178352505050509050919050565b600080600160009054906101000a900473ffffffffffffffffffffffffffffffffffffffff1673ffffffffffffffffffffffffffffffffffffffff166313c34b7f87866040518363ffffffff1660e01b8152600401613a71929190615e94565b602060405180830381865afa158015613a8e573d6000803e3d6000fd5b505050506040513d601f19601f82011682018060405250810190613ab29190615694565b9050600160009054906101000a900473ffffffffffffffffffffffffffffffffffffffff1673ffffffffffffffffffffffffffffffffffffffff16639cfc058e82888888886040518663ffffffff1660e01b8152600401613b169493929190615f59565b60206040518083038185885af1158015613b34573d6000803e3d6000fd5b50505050506040513d601f19601f82011682018060405250810190613b599190615694565b915094509492505050565b6000806014811115613b7957613b78614e62565b5b83604001516014811115613b9057613b8f614e62565b5b03613bb55760008260ff1603613bb45760248360000151613bb1919061560c565b90505b5b60016014811115613bc957613bc8614e62565b5b83604001516014811115613be057613bdf614e62565b5b03613c055760258260ff1603613c045760248360000151613c01919061560c565b90505b5b60026014811115613c1957613c18614e62565b5b83604001516014811115613c3057613c2f614e62565b5b03613c975760005b836020015151811015613c95578260ff1684602001518281518110613c6057613c5f615173565b5b602002602001015160ff1603613c8857600c8460000151613c81919061560c565b9150613c95565b8080600101915050613c38565b505b60056014811115613cab57613caa614e62565b5b83604001516014811115613cc257613cc1614e62565b5b03613d295760005b836020015151811015613d27578260ff1684602001518281518110613cf257613cf1615173565b5b602002602001015160ff1603613d1a5760128460000151613d13919061560c565b9150613d27565b8080600101915050613cca565b505b60066014811115613d3d57613d3c614e62565b5b83604001516014811115613d5457613d53614e62565b5b03613dbb5760005b836020015151811015613db9578260ff1684602001518281518110613d8457613d83615173565b5b602002602001015160ff1603613dac5760098460000151613da5919061560c565b9150613db9565b8080600101915050613d5c565b505b60076014811115613dcf57613dce614e62565b5b83604001516014811115613de657613de5614e62565b5b03613e4d5760005b836020015151811015613e4b578260ff1684602001518281518110613e1657613e15615173565b5b602002602001015160ff1603613e3e5760068460000151613e37919061560c565b9150613e4b565b8080600101915050613dee565b505b60086014811115613e6157613e60614e62565b5b83604001516014811115613e7857613e77614e62565b5b03613ebe578160ff168360200151600081518110613e9957613e98615173565b5b602002602001015160ff1603613ebd5760248360000151613eba919061560c565b90505b5b60096014811115613ed257613ed1614e62565b5b83604001516014811115613ee957613ee8614e62565b5b03613fcc576000604051806101800160405280600160ff168152602001600460ff168152602001600760ff168152602001600a60ff168152602001600d60ff168152602001601060ff168152602001601360ff168152602001601660ff168152602001601960ff168152602001601c60ff168152602001601f60ff168152602001602260ff16815250905060005b600c811015613fc9578360ff168282600c8110613f9757613f96615173565b5b602002015160ff1603613fbc5760038560000151613fb5919061560c565b9250613fc9565b8080600101915050613f77565b50505b600a6014811115613fe057613fdf614e62565b5b83604001516014811115613ff757613ff6614e62565b5b036140da576000604051806101800160405280600260ff168152602001600560ff168152602001600860ff168152602001600b60ff168152602001600e60ff168152602001601160ff168152602001601460ff168152602001601760ff168152602001601a60ff168152602001601d60ff168152602001602060ff168152602001602360ff16815250905060005b600c8110156140d7578360ff168282600c81106140a5576140a4615173565b5b602002015160ff16036140ca57600385600001516140c3919061560c565b92506140d7565b8080600101915050614085565b50505b600b60148111156140ee576140ed614e62565b5b8360400151601481111561410557614104614e62565b5b036141e8576000604051806101800160405280600360ff168152602001600660ff168152602001600960ff168152602001600c60ff168152602001600f60ff168152602001601260ff168152602001601560ff168152602001601860ff168152602001601b60ff168152602001601e60ff168152602001602160ff168152602001602460ff16815250905060005b600c8110156141e5578360ff168282600c81106141b3576141b2615173565b5b602002015160ff16036141d857600385600001516141d1919061560c565b92506141e5565b8080600101915050614193565b50505b600c60148111156141fc576141fb614e62565b5b8360400151601481111561421357614212614e62565b5b0361424a5760018260ff16101580156142305750600c8260ff1611155b156142495760038360000151614246919061560c565b90505b5b600d601481111561425e5761425d614e62565b5b8360400151601481111561427557614274614e62565b5b036142ac57600d8260ff1610158015614292575060188260ff1611155b156142ab57600383600001516142a8919061560c565b90505b5b600e60148111156142c0576142bf614e62565b5b836040015160148111156142d7576142d6614e62565b5b0361430e5760198260ff16101580156142f4575060248260ff1611155b1561430d576003836000015161430a919061560c565b90505b5b600f601481111561432257614321614e62565b5b8360400151601481111561433957614338614e62565b5b036143705760018260ff1610158015614356575060128260ff1611155b1561436f576002836000015161436c919061560c565b90505b5b6010601481111561438457614383614e62565b5b8360400151601481111561439b5761439a614e62565b5b036143d25760138260ff16101580156143b8575060248260ff1611155b156143d157600283600001516143ce919061560c565b90505b5b601160148111156143e6576143e5614e62565b5b836040015160148111156143fd576143fc614e62565b5b0361442e57600060028361441191906151d1565b60ff160361442d576002836000015161442a919061560c565b90505b5b6012601481111561444257614441614e62565b5b8360400151601481111561445957614458614e62565b5b0361448a57600160028361446d91906151d1565b60ff16036144895760028360000151614486919061560c565b90505b5b6013601481111561449e5761449d614e62565b5b836040015160148111156144b5576144b4614e62565b5b036145235760005b6012811015614521578260ff16600482601281106144de576144dd615173565b5b602091828204019190069054906101000a900460ff1660ff1603614514576002846000015161450d919061560c565b9150614521565b80806001019150506144bd565b505b60148081111561453657614535614e62565b5b8360400151601481111561454d5761454c614e62565b5b036145bb5760005b60128110156145b9578260ff166005826012811061457657614575615173565b5b602091828204019190069054906101000a900460ff1660ff16036145ac57600284600001516145a5919061560c565b91506145b9565b8080600101915050614555565b505b92915050565b600033905090565b6145d16145dd565b6145da8161461d565b50565b6145e56146a3565b61461b576040517fd7e6bcf800000000000000000000000000000000000000000000000000000000815260040160405180910390fd5b565b6146256145dd565b600073ffffffffffffffffffffffffffffffffffffffff168173ffffffffffffffffffffffffffffffffffffffff16036146975760006040517f1e4fbdf700000000000000000000000000000000000000000000000000000000815260040161468e9190614f11565b60405180910390fd5b6146a081613713565b50565b60006146ad6131bb565b60000160089054906101000a900460ff16905090565b6040518060c00160405280600690602082028036833780820191505090505090565b82805482825590600052602060002090810192821561472f579160200282015b8281111561472e5782518290600361471e9291906147fc565b5091602001919060010190614705565b5b50905061473c9190614896565b5090565b826012601f016020900481019282156147c95791602002820160005b8382111561479a57835183826101000a81548160ff021916908360ff160217905550926020019260010160208160000104928301926001030261475c565b80156147c75782816101000a81549060ff021916905560010160208160000104928301926001030261479a565b505b5090506147d691906148ba565b5090565b6040518060800160405280600490602082028036833780820191505090505090565b826003601f016020900481019282156148855791602002820160005b8382111561485657835183826101000a81548160ff021916908360ff1602179055509260200192600101602081600001049283019260010302614818565b80156148835782816101000a81549060ff0219169055600101602081600001049283019260010302614856565b505b50905061489291906148ba565b5090565b5b808211156148b657600081816148ad91906148d7565b50600101614897565b5090565b5b808211156148d35760008160009055506001016148bb565b5090565b5060009055565b6000604051905090565b600080fd5b600080fd5b6000819050919050565b614905816148f2565b811461491057600080fd5b50565b600081359050614922816148fc565b92915050565b60006020828403121561493e5761493d6148e8565b5b600061494c84828501614913565b91505092915050565b60008115159050919050565b61496a81614955565b82525050565b60006020820190506149856000830184614961565b92915050565b600080fd5b6000601f19601f8301169050919050565b7f4e487b7100000000000000000000000000000000000000000000000000000000600052604160045260246000fd5b6149d982614990565b810181811067ffffffffffffffff821117156149f8576149f76149a1565b5b80604052505050565b6000614a0b6148de565b9050614a1782826149d0565b919050565b600067ffffffffffffffff821115614a3757614a366149a1565b5b602082029050602081019050919050565b600080fd5b6000614a60614a5b84614a1c565b614a01565b90508083825260208201905060208402830185811115614a8357614a82614a48565b5b835b81811015614aac5780614a988882614913565b845260208401935050602081019050614a85565b5050509392505050565b600082601f830112614acb57614aca61498b565b5b8135614adb848260208601614a4d565b91505092915050565b60008060408385031215614afb57614afa6148e8565b5b6000614b0985828601614913565b925050602083013567ffffffffffffffff811115614b2a57614b296148ed565b5b614b3685828601614ab6565b9150509250929050565b600060ff82169050919050565b614b5681614b40565b82525050565b6000602082019050614b716000830184614b4d565b92915050565b614b8081614b40565b8114614b8b57600080fd5b50565b600081359050614b9d81614b77565b92915050565b600060208284031215614bb957614bb86148e8565b5b6000614bc784828501614b8e565b91505092915050565b600067ffffffffffffffff821115614beb57614bea6149a1565b5b602082029050602081019050919050565b6000614c0f614c0a84614bd0565b614a01565b90508083825260208201905060208402830185811115614c3257614c31614a48565b5b835b81811015614c5b5780614c478882614b8e565b845260208401935050602081019050614c34565b5050509392505050565b600082601f830112614c7a57614c7961498b565b5b8135614c8a848260208601614bfc565b91505092915050565b600060208284031215614ca957614ca86148e8565b5b600082013567ffffffffffffffff811115614cc757614cc66148ed565b5b614cd384828501614c65565b91505092915050565b60008060408385031215614cf357614cf26148e8565b5b6000614d0185828601614b8e565b9250506020614d1285828601614b8e565b9150509250929050565b600073ffffffffffffffffffffffffffffffffffffffff82169050919050565b6000614d4782614d1c565b9050919050565b6000614d5982614d3c565b9050919050565b614d6981614d4e565b8114614d7457600080fd5b50565b600081359050614d8681614d60565b92915050565b614d9581614d3c565b8114614da057600080fd5b50565b600081359050614db281614d8c565b92915050565b60008060408385031215614dcf57614dce6148e8565b5b6000614ddd85828601614d77565b9250506020614dee85828601614da3565b9150509250929050565b614e01816148f2565b82525050565b6000602082019050614e1c6000830184614df8565b92915050565b60008060408385031215614e3957614e386148e8565b5b6000614e4785828601614913565b9250506020614e5885828601614913565b9150509250929050565b7f4e487b7100000000000000000000000000000000000000000000000000000000600052602160045260246000fd5b60158110614ea257614ea1614e62565b5b50565b6000819050614eb382614e91565b919050565b6000614ec382614ea5565b9050919050565b614ed381614eb8565b82525050565b6000604082019050614eee6000830185614df8565b614efb6020830184614eca565b9392505050565b614f0b81614d3c565b82525050565b6000602082019050614f266000830184614f02565b92915050565b6000819050919050565b6000614f51614f4c614f4784614d1c565b614f2c565b614d1c565b9050919050565b6000614f6382614f36565b9050919050565b6000614f7582614f58565b9050919050565b614f8581614f6a565b82525050565b6000602082019050614fa06000830184614f7c565b92915050565b600080fd5b60008083601f840112614fc157614fc061498b565b5b8235905067ffffffffffffffff811115614fde57614fdd614fa6565b5b602083019150836020820283011115614ffa57614ff9614a48565b5b9250929050565b60008060208385031215615018576150176148e8565b5b600083013567ffffffffffffffff811115615036576150356148ed565b5b61504285828601614fab565b92509250509250929050565b60008060408385031215615065576150646148e8565b5b600061507385828601614da3565b925050602061508485828601614913565b9150509250929050565b6000806000606084860312156150a7576150a66148e8565b5b60006150b586828701614b8e565b93505060206150c686828701614b8e565b92505060406150d786828701614b8e565b9150509250925092565b6000602082840312156150f7576150f66148e8565b5b600061510584828501614da3565b91505092915050565b600061511982614f58565b9050919050565b6151298161510e565b82525050565b60006020820190506151446000830184615120565b92915050565b600060408201905061515f6000830185614f02565b61516c6020830184614f02565b9392505050565b7f4e487b7100000000000000000000000000000000000000000000000000000000600052603260045260246000fd5b7f4e487b7100000000000000000000000000000000000000000000000000000000600052601260045260246000fd5b60006151dc82614b40565b91506151e783614b40565b9250826151f7576151f66151a2565b5b828206905092915050565b7f4e487b7100000000000000000000000000000000000000000000000000000000600052601160045260246000fd5b600061523c82614b40565b915061524783614b40565b9250828201905060ff8111156152605761525f615202565b5b92915050565b600061527182614b40565b915061527c83614b40565b9250828203905060ff81111561529557615294615202565b5b92915050565b6000819050919050565b600067ffffffffffffffff82169050919050565b60006152d46152cf6152ca8461529b565b614f2c565b6152a5565b9050919050565b6152e4816152b9565b82525050565b60006020820190506152ff60008301846152db565b92915050565b600080fd5b600080fd5b600080fd5b6000823560016060038336030381126153305761532f615305565b5b80830191505092915050565b6015811061534957600080fd5b50565b60008135905061535b8161533c565b92915050565b600060208284031215615377576153766148e8565b5b60006153858482850161534c565b91505092915050565b600080833560016020038436030381126153ab576153aa615305565b5b80840192508235915067ffffffffffffffff8211156153cd576153cc61530a565b5b6020830192506020820236038313156153e9576153e861530f565b5b509250929050565b600082825260208201905092915050565b7f4e756d62657273206e6f7420726571756972656420666f72207468697320747960008201527f7065000000000000000000000000000000000000000000000000000000000000602082015250565b600061545e6022836153f1565b915061546982615402565b604082019050919050565b6000602082019050818103600083015261548d81615451565b9050919050565b7f496e76616c6964206e756d62657273206c656e67746800000000000000000000600082015250565b60006154ca6016836153f1565b91506154d582615494565b602082019050919050565b600060208201905081810360008301526154f9816154bd565b9050919050565b7f496e76616c696420636f6d62696e6174696f6e00000000000000000000000000600082015250565b60006155366013836153f1565b915061554182615500565b602082019050919050565b6000602082019050818103600083015261556581615529565b9050919050565b7f4e6f7420696d706c656d656e7465640000000000000000000000000000000000600082015250565b60006155a2600f836153f1565b91506155ad8261556c565b602082019050919050565b600060208201905081810360008301526155d181615595565b9050919050565b60006155e3826148f2565b91506155ee836148f2565b925082820190508082111561560657615605615202565b5b92915050565b6000615617826148f2565b9150615622836148f2565b9250828202615630816148f2565b9150828204841483151761564757615646615202565b5b5092915050565b6000615659826148f2565b9150615664836148f2565b925082615674576156736151a2565b5b828204905092915050565b60008151905061568e816148fc565b92915050565b6000602082840312156156aa576156a96148e8565b5b60006156b88482850161567f565b91505092915050565b60006156cc826148f2565b91506156d7836148f2565b92508282039050818111156156ef576156ee615202565b5b92915050565b7f546f6f20686967682073756d206f66206269647320746f20776974686472617760008201527f2072657761726473000000000000000000000000000000000000000000000000602082015250565b60006157516028836153f1565b915061575c826156f5565b604082019050919050565b6000602082019050818103600083015261578081615744565b9050919050565b600060608201905061579c6000830186614f02565b6157a96020830185614f02565b6157b66040830184614df8565b949350505050565b6157c781614955565b81146157d257600080fd5b50565b6000815190506157e4816157be565b92915050565b600060208284031215615800576157ff6148e8565b5b600061580e848285016157d5565b91505092915050565b60008135615824816148fc565b80915050919050565b60008160001b9050919050565b60007fffffffffffffffffffffffffffffffffffffffffffffffffffffffffffffffff6158668461582d565b9350801983169250808416831791505092915050565b600061589761589261588d846148f2565b614f2c565b6148f2565b9050919050565b6000819050919050565b6158b18261587c565b6158c46158bd8261589e565b835461583a565b8255505050565b600081549050919050565b6000819050602060016020038301049050919050565b60008190508160005260206000209050919050565b600082821b905092915050565b60006008830261593e7fffffffffffffffffffffffffffffffffffffffffffffffffffffffffffffffff82615901565b6159488683615901565b95508019841693508086168417925050509392505050565b6159698361587c565b61597d6159758261589e565b84845461590e565b825550505050565b600090565b615992615985565b61599d818484615960565b505050565b5b818110156159c1576159b660008261598a565b6001810190506159a3565b5050565b600082821c905092915050565b615a027fffffffffffffffffffffffffffffffffffffffffffffffffffffffffffffffff836020036008026159c5565b815481168255505050565b81831015615a6557615a1e826158d6565b615a27846158d6565b615a30836158ec565b818101838201600160208906026000811115615a5457615a5381600185036159d2565b5b615a5e82846159a2565b5050505050505b505050565b68010000000000000000821115615a8457615a836149a1565b5b615a8d816158cb565b828255615a9b838284615a0d565b505050565b600082905092915050565b60008135615ab881614b77565b80915050919050565b6000819050919050565b600060088302615adc60ff82615901565b615ae68683615901565b95508019841693508086168417925050509392505050565b6000819050919050565b615b128383615aa0565b67ffffffffffffffff811115615b2b57615b2a6149a1565b5b615b358183615a6a565b615b3e83615ac1565b615b47836158ec565b6020830460005b81811015615baa576000805b6020811015615b9857615b6c86615aab565b615b7581615afe565b615b83818460010286615acb565b93506020880197505050600181019050615b5a565b50808285015550600181019050615b4e565b506020810284036000811115615c03576000805b82811015615bfb57615bcf86615aab565b615bd881615afe565b615be6818460010286615acb565b93506020880197505050600181019050615bbe565b508083850155505b5050505050505050565b615c18838383615b08565b505050565b60008135615c2a8161533c565b80915050919050565b600060ff615c408461582d565b9350801983169250808416831791505092915050565b6000615c6182614ea5565b9050919050565b6000819050919050565b615c7b82615c56565b615c8e615c8782615c68565b8354615c33565b8255505050565b600081016000830180615ca781615817565b9050615cb381846158a8565b5050506001810160208301615cc8818561538e565b615cd3818386615c0d565b50505050600281016040830180615ce981615c1d565b9050615cf58184615c72565b5050505050565b615d068282615c95565b5050565b6000604082019050615d1f6000830185614df8565b615d2c6020830184614df8565b9392505050565b6000604082019050615d486000830185614f02565b615d556020830184614df8565b9392505050565b6000615d6782614b40565b915060ff8203615d7a57615d79615202565b5b600182019050919050565b6000615d90826148f2565b9150615d9b836148f2565b925082615dab57615daa6151a2565b5b828206905092915050565b6000606082019050615dcb6000830186614df8565b615dd86020830185614b4d565b615de56040830184614df8565b949350505050565b600081519050615dfc81614d8c565b92915050565b600060208284031215615e1857615e176148e8565b5b6000615e2684828501615ded565b91505092915050565b615e3881614955565b82525050565b602082016000820151615e546000850182615e2f565b50505050565b6000602082019050615e6f6000830184615e3e565b92915050565b600063ffffffff82169050919050565b615e8e81615e75565b82525050565b6000604082019050615ea96000830185615e85565b615eb66020830184615e85565b9392505050565b600061ffff82169050919050565b615ed481615ebd565b82525050565b600081519050919050565b600082825260208201905092915050565b60005b83811015615f14578082015181840152602081019050615ef9565b60008484015250505050565b6000615f2b82615eda565b615f358185615ee5565b9350615f45818560208601615ef6565b615f4e81614990565b840191505092915050565b6000608082019050615f6e6000830187615e85565b615f7b6020830186615ecb565b615f886040830185615e85565b8181036060830152615f9a8184615f20565b90509594505050505056fea2646970667358221220754e55b286ca036d684ff0c5641e7277ab1a959b3e20e1801bba67764e9c40af64736f6c634300081b0033",
  "linkReferences": {},
  "deployedLinkReferences": {}
}