{
  "contracts/RouletteV0_0_2.sol": {
    "RouletteV0_0_2": {
      "abi": [
        {
          "inputs": [],
          "stateMutability": "nonpayable",
          "type": "constructor"
        },
        {
          "inputs": [
            {
              "internalType": "uint256",
              "name": "_requestId",
              "type": "uint256"
            }
          ],
          "name": "AlreadyFilled",
          "type": "error"
        },
        {
          "inputs": [],
          "name": "InvalidInitialization",
          "type": "error"
        },
        {
          "inputs": [],
          "name": "NotInitializing",
          "type": "error"
        },
        {
          "inputs": [
            {
              "internalType": "address",
              "name": "have",
              "type": "address"
            },
            {
              "internalType": "address",
              "name": "want",
              "type": "address"
            }
          ],
          "name": "OnlyVRFWrapperCanFulfill",
          "type": "error"
        },
        {
          "inputs": [
            {
              "internalType": "address",
              "name": "owner",
              "type": "address"
            }
          ],
          "name": "OwnableInvalidOwner",
          "type": "error"
        },
        {
          "inputs": [
            {
              "internalType": "address",
              "name": "account",
              "type": "address"
            }
          ],
          "name": "OwnableUnauthorizedAccount",
          "type": "error"
        },
        {
          "anonymous": false,
          "inputs": [
            {
              "indexed": false,
              "internalType": "uint256",
              "name": "requestId",
              "type": "uint256"
            },
            {
              "indexed": false,
              "internalType": "uint256",
              "name": "feePrice",
              "type": "uint256"
            }
          ],
          "name": "BetsCreated",
          "type": "event"
        },
        {
          "anonymous": false,
          "inputs": [
            {
              "indexed": false,
              "internalType": "uint256",
              "name": "requestId",
              "type": "uint256"
            },
            {
              "indexed": false,
              "internalType": "uint8",
              "name": "result",
              "type": "uint8"
            },
            {
              "indexed": false,
              "internalType": "uint256",
              "name": "wonAmount",
              "type": "uint256"
            }
          ],
          "name": "BetsResult",
          "type": "event"
        },
        {
          "anonymous": false,
          "inputs": [
            {
              "indexed": false,
              "internalType": "address",
              "name": "by",
              "type": "address"
            },
            {
              "indexed": false,
              "internalType": "address",
              "name": "token",
              "type": "address"
            },
            {
              "indexed": false,
              "internalType": "uint256",
              "name": "amount",
              "type": "uint256"
            }
          ],
          "name": "EmergencyWithdrawn",
          "type": "event"
        },
        {
          "anonymous": false,
          "inputs": [
            {
              "indexed": false,
              "internalType": "uint8",
              "name": "newFeeBps",
              "type": "uint8"
            }
          ],
          "name": "FeeChanged",
          "type": "event"
        },
        {
          "anonymous": false,
          "inputs": [
            {
              "indexed": false,
              "internalType": "uint256",
              "name": "amount",
              "type": "uint256"
            }
          ],
          "name": "FeeCharge",
          "type": "event"
        },
        {
          "anonymous": false,
          "inputs": [
            {
              "indexed": false,
              "internalType": "address",
              "name": "by",
              "type": "address"
            },
            {
              "indexed": false,
              "internalType": "uint256",
              "name": "amount",
              "type": "uint256"
            }
          ],
          "name": "FeeWithdrawn",
          "type": "event"
        },
        {
          "anonymous": false,
          "inputs": [
            {
              "indexed": false,
              "internalType": "uint64",
              "name": "version",
              "type": "uint64"
            }
          ],
          "name": "Initialized",
          "type": "event"
        },
        {
          "anonymous": false,
          "inputs": [
            {
              "indexed": true,
              "internalType": "address",
              "name": "previousOwner",
              "type": "address"
            },
            {
              "indexed": true,
              "internalType": "address",
              "name": "newOwner",
              "type": "address"
            }
          ],
          "name": "OwnershipTransferred",
          "type": "event"
        },
        {
          "stateMutability": "payable",
          "type": "fallback"
        },
        {
          "inputs": [
            {
              "internalType": "uint256",
              "name": "",
              "type": "uint256"
            },
            {
              "internalType": "uint256",
              "name": "",
              "type": "uint256"
            }
          ],
          "name": "bets",
          "outputs": [
            {
              "internalType": "uint256",
              "name": "amount",
              "type": "uint256"
            },
            {
              "internalType": "enum RouletteV0_0_2.BetType",
              "name": "betType",
              "type": "uint8"
            }
          ],
          "stateMutability": "view",
          "type": "function"
        },
        {
          "inputs": [
            {
              "internalType": "uint256",
              "name": "",
              "type": "uint256"
            }
          ],
          "name": "betsOwner",
          "outputs": [
            {
              "internalType": "address",
              "name": "",
              "type": "address"
            }
          ],
          "stateMutability": "view",
          "type": "function"
        },
        {
          "inputs": [
            {
              "internalType": "uint256",
              "name": "",
              "type": "uint256"
            }
          ],
          "name": "black",
          "outputs": [
            {
              "internalType": "uint8",
              "name": "",
              "type": "uint8"
            }
          ],
          "stateMutability": "view",
          "type": "function"
        },
        {
          "inputs": [
            {
              "internalType": "uint8",
              "name": "_newFeeBps",
              "type": "uint8"
            }
          ],
          "name": "changeFeeBps",
          "outputs": [],
          "stateMutability": "nonpayable",
          "type": "function"
        },
        {
          "inputs": [],
          "name": "feeAmount",
          "outputs": [
            {
              "internalType": "uint256",
              "name": "",
              "type": "uint256"
            }
          ],
          "stateMutability": "view",
          "type": "function"
        },
        {
          "inputs": [],
          "name": "feeBps",
          "outputs": [
            {
              "internalType": "uint8",
              "name": "",
              "type": "uint8"
            }
          ],
          "stateMutability": "view",
          "type": "function"
        },
        {
          "inputs": [
            {
              "internalType": "uint256",
              "name": "",
              "type": "uint256"
            }
          ],
          "name": "fulfilled",
          "outputs": [
            {
              "internalType": "bool",
              "name": "",
              "type": "bool"
            }
          ],
          "stateMutability": "view",
          "type": "function"
        },
        {
          "inputs": [],
          "name": "i_vrfV2PlusWrapper",
          "outputs": [
            {
              "internalType": "contract IVRFV2PlusWrapper",
              "name": "",
              "type": "address"
            }
          ],
          "stateMutability": "view",
          "type": "function"
        },
        {
          "inputs": [
            {
              "internalType": "contract IERC20",
              "name": "_token",
              "type": "address"
            },
            {
              "internalType": "address",
              "name": "_vrfV2PlusWrapper",
              "type": "address"
            }
          ],
          "name": "initialize",
          "outputs": [],
          "stateMutability": "nonpayable",
          "type": "function"
        },
        {
          "inputs": [
            {
              "internalType": "uint8[]",
              "name": "numbers",
              "type": "uint8[]"
            }
          ],
          "name": "isCornerBet",
          "outputs": [
            {
              "internalType": "bool",
              "name": "",
              "type": "bool"
            }
          ],
          "stateMutability": "pure",
          "type": "function"
        },
        {
          "inputs": [
            {
              "internalType": "uint8[]",
              "name": "numbers",
              "type": "uint8[]"
            }
          ],
          "name": "isDoubleStreetBet",
          "outputs": [
            {
              "internalType": "bool",
              "name": "",
              "type": "bool"
            }
          ],
          "stateMutability": "pure",
          "type": "function"
        },
        {
          "inputs": [
            {
              "internalType": "uint8",
              "name": "num1",
              "type": "uint8"
            },
            {
              "internalType": "uint8",
              "name": "num2",
              "type": "uint8"
            }
          ],
          "name": "isSplitBet",
          "outputs": [
            {
              "internalType": "bool",
              "name": "",
              "type": "bool"
            }
          ],
          "stateMutability": "pure",
          "type": "function"
        },
        {
          "inputs": [
            {
              "internalType": "uint8",
              "name": "num1",
              "type": "uint8"
            },
            {
              "internalType": "uint8",
              "name": "num2",
              "type": "uint8"
            },
            {
              "internalType": "uint8",
              "name": "num3",
              "type": "uint8"
            }
          ],
          "name": "isStreetBet",
          "outputs": [
            {
              "internalType": "bool",
              "name": "",
              "type": "bool"
            }
          ],
          "stateMutability": "view",
          "type": "function"
        },
        {
          "inputs": [
            {
              "components": [
                {
                  "internalType": "uint256",
                  "name": "amount",
                  "type": "uint256"
                },
                {
                  "internalType": "uint8[]",
                  "name": "numbers",
                  "type": "uint8[]"
                },
                {
                  "internalType": "enum RouletteV0_0_2.BetType",
                  "name": "betType",
                  "type": "uint8"
                }
              ],
              "internalType": "struct RouletteV0_0_2.Bet[]",
              "name": "_bets",
              "type": "tuple[]"
            }
          ],
          "name": "newBet",
          "outputs": [
            {
              "internalType": "uint256",
              "name": "",
              "type": "uint256"
            }
          ],
          "stateMutability": "nonpayable",
          "type": "function"
        },
        {
          "inputs": [],
          "name": "owner",
          "outputs": [
            {
              "internalType": "address",
              "name": "",
              "type": "address"
            }
          ],
          "stateMutability": "view",
          "type": "function"
        },
        {
          "inputs": [
            {
              "internalType": "uint256",
              "name": "_requestId",
              "type": "uint256"
            },
            {
              "internalType": "uint256[]",
              "name": "_randomWords",
              "type": "uint256[]"
            }
          ],
          "name": "rawFulfillRandomWords",
          "outputs": [],
          "stateMutability": "nonpayable",
          "type": "function"
        },
        {
          "inputs": [
            {
              "internalType": "uint256",
              "name": "",
              "type": "uint256"
            }
          ],
          "name": "red",
          "outputs": [
            {
              "internalType": "uint8",
              "name": "",
              "type": "uint8"
            }
          ],
          "stateMutability": "view",
          "type": "function"
        },
        {
          "inputs": [],
          "name": "renounceOwnership",
          "outputs": [],
          "stateMutability": "nonpayable",
          "type": "function"
        },
        {
          "inputs": [
            {
              "internalType": "uint256",
              "name": "",
              "type": "uint256"
            },
            {
              "internalType": "uint256",
              "name": "",
              "type": "uint256"
            }
          ],
          "name": "streets",
          "outputs": [
            {
              "internalType": "uint8",
              "name": "",
              "type": "uint8"
            }
          ],
          "stateMutability": "view",
          "type": "function"
        },
        {
          "inputs": [],
          "name": "token",
          "outputs": [
            {
              "internalType": "contract IERC20",
              "name": "",
              "type": "address"
            }
          ],
          "stateMutability": "view",
          "type": "function"
        },
        {
          "inputs": [
            {
              "internalType": "address",
              "name": "newOwner",
              "type": "address"
            }
          ],
          "name": "transferOwnership",
          "outputs": [],
          "stateMutability": "nonpayable",
          "type": "function"
        },
        {
          "inputs": [],
          "name": "withdrawFee",
          "outputs": [],
          "stateMutability": "nonpayable",
          "type": "function"
        },
        {
          "inputs": [
            {
              "internalType": "address",
              "name": "_token",
              "type": "address"
            },
            {
              "internalType": "uint256",
              "name": "_amount",
              "type": "uint256"
            }
          ],
          "name": "withdrawFunds",
          "outputs": [],
          "stateMutability": "nonpayable",
          "type": "function"
        },
        {
          "stateMutability": "payable",
          "type": "receive"
        }
      ],
      "evm": {
        "bytecode": {
          "linkReferences": {},
          "object": "608060405234801561001057600080fd5b5061001f61002460201b60201c565b61018e565b600061003461012860201b60201c565b90508060000160089054906101000a900460ff161561007f576040517ff92ee8a900000000000000000000000000000000000000000000000000000000815260040160405180910390fd5b67ffffffffffffffff80168160000160009054906101000a900467ffffffffffffffff1667ffffffffffffffff16146101255767ffffffffffffffff8160000160006101000a81548167ffffffffffffffff021916908367ffffffffffffffff1602179055507fc7f505b2f371ae2175ee4913f4499e1f2633a7b5936321eed1cdaeb6115181d267ffffffffffffffff60405161011c9190610173565b60405180910390a15b50565b60007ff0c57e16840df040f15088dc2f81fe391c3923bec73e23a9662efc9c229c6a00905090565b600067ffffffffffffffff82169050919050565b61016d81610150565b82525050565b60006020820190506101886000830184610164565b92915050565b615fdb8061019d6000396000f3fe6080604052600436106101445760003560e01c80637d5e45d5116100b6578063c10753291161006f578063c1075329146104ab578063e4f8ceea146104d4578063e941fa7814610511578063f2fde38b14610528578063fba4d7bf14610551578063fc0c546a1461058e57610145565b80637d5e45d51461036157806383cd79801461039e57806388f2c720146103db5780638da5cb5b146104185780639ed0868d14610443578063a285ad791461046e57610145565b806347aa1a101161010857806347aa1a101461023e578063485cc9551461027b57806369e15404146102a45780636a09f6be146102cf578063715018a61461030d578063768d26891461032457610145565b80631bc404d6146101475780631fe543e31461018457806324a9d853146101ad5780632edd6797146101d85780633f9e06c91461020157610145565b5b005b34801561015357600080fd5b5061016e60048036038101906101699190614928565b6105b9565b60405161017b9190614970565b60405180910390f35b34801561019057600080fd5b506101ab60048036038101906101a69190614ae4565b6105d9565b005b3480156101b957600080fd5b506101c2610681565b6040516101cf9190614b5c565b60405180910390f35b3480156101e457600080fd5b506101ff60048036038101906101fa9190614ba3565b610694565b005b34801561020d57600080fd5b5061022860048036038101906102239190614c93565b6106f1565b6040516102359190614970565b60405180910390f35b34801561024a57600080fd5b5061026560048036038101906102609190614cdc565b61096c565b6040516102729190614970565b60405180910390f35b34801561028757600080fd5b506102a2600480360381019061029d9190614db8565b610a2f565b005b3480156102b057600080fd5b506102b9610bc0565b6040516102c69190614e07565b60405180910390f35b3480156102db57600080fd5b506102f660048036038101906102f19190614e22565b610bc6565b604051610304929190614ed9565b60405180910390f35b34801561031957600080fd5b50610322610c14565b005b34801561033057600080fd5b5061034b60048036038101906103469190614928565b610c28565b6040516103589190614b5c565b60405180910390f35b34801561036d57600080fd5b5061038860048036038101906103839190614c93565b610c52565b6040516103959190614970565b60405180910390f35b3480156103aa57600080fd5b506103c560048036038101906103c09190614928565b610dc8565b6040516103d29190614b5c565b60405180910390f35b3480156103e757600080fd5b5061040260048036038101906103fd9190614e22565b610df2565b60405161040f9190614b5c565b60405180910390f35b34801561042457600080fd5b5061042d610e37565b60405161043a9190614f11565b60405180910390f35b34801561044f57600080fd5b50610458610e6f565b6040516104659190614f8b565b60405180910390f35b34801561047a57600080fd5b5061049560048036038101906104909190615001565b610e95565b6040516104a29190614e07565b60405180910390f35b3480156104b757600080fd5b506104d260048036038101906104cd919061504e565b6122d5565b005b3480156104e057600080fd5b506104fb60048036038101906104f6919061508e565b61242a565b6040516105089190614970565b60405180910390f35b34801561051d57600080fd5b50610526612ab8565b005b34801561053457600080fd5b5061054f600480360381019061054a91906150e1565b612bb3565b005b34801561055d57600080fd5b5061057860048036038101906105739190614928565b612c39565b6040516105859190614f11565b60405180910390f35b34801561059a57600080fd5b506105a3612c6c565b6040516105b0919061512f565b60405180910390f35b60086020528060005260406000206000915054906101000a900460ff1681565b6000600160009054906101000a900473ffffffffffffffffffffffffffffffffffffffff1690508073ffffffffffffffffffffffffffffffffffffffff163373ffffffffffffffffffffffffffffffffffffffff16146106725733816040517f8ba9316e00000000000000000000000000000000000000000000000000000000815260040161066992919061514a565b60405180910390fd5b61067c8383612c92565b505050565b600260149054906101000a900460ff1681565b61069c612fb3565b80600260146101000a81548160ff021916908360ff1602179055507f8b3c6011cf1540f834b7142ff37e905118131ec885ed9c7d34fb314ba864f815816040516106e69190614b5c565b60405180910390a150565b6000806107a48360008151811061070b5761070a615173565b5b60200260200101518460018151811061072757610726615173565b5b60200260200101518560028151811061074357610742615173565b5b60200260200101518660038151811061075f5761075e615173565b5b60200260200101518760048151811061077b5761077a615173565b5b60200260200101518860058151811061079757610796615173565b5b602002602001015161303a565b905060016003826000600681106107be576107bd615173565b5b60200201516107cd91906151d1565b60ff1614801561081e57506001816000600681106107ee576107ed615173565b5b60200201516107fd9190615231565b60ff168160016006811061081457610813615173565b5b602002015160ff16145b801561086b575060028160006006811061083b5761083a615173565b5b602002015161084a9190615231565b60ff168160026006811061086157610860615173565b5b602002015160ff16145b80156108b8575060038160006006811061088857610887615173565b5b60200201516108979190615231565b60ff16816003600681106108ae576108ad615173565b5b602002015160ff16145b801561090557506004816000600681106108d5576108d4615173565b5b60200201516108e49190615231565b60ff16816004600681106108fb576108fa615173565b5b602002015160ff16145b8015610952575060058160006006811061092257610921615173565b5b60200201516109319190615231565b60ff168160056006811061094857610947615173565b5b602002015160ff16145b15610961576001915050610967565b60009150505b919050565b600060018261097b9190615266565b60ff168360ff1614801561099f5750600060038461099991906151d1565b60ff1614155b806109d757506001836109b29190615266565b60ff168260ff161480156109d6575060006003836109d091906151d1565b60ff1614155b5b156109e55760019050610a29565b6003826109f29190615266565b60ff168360ff161480610a165750600383610a0d9190615266565b60ff168260ff16145b15610a245760019050610a29565b600090505b92915050565b6000610a396131bb565b905060008160000160089054906101000a900460ff1615905060008260000160009054906101000a900467ffffffffffffffff1690506000808267ffffffffffffffff16148015610a875750825b9050600060018367ffffffffffffffff16148015610abc575060003073ffffffffffffffffffffffffffffffffffffffff163b145b905081158015610aca575080155b15610b01576040517ff92ee8a900000000000000000000000000000000000000000000000000000000815260040160405180910390fd5b60018560000160006101000a81548167ffffffffffffffff021916908367ffffffffffffffff1602179055508315610b515760018560000160086101000a81548160ff0219169083151502179055505b610b5b87876131e3565b8315610bb75760008560000160086101000a81548160ff0219169083151502179055507fc7f505b2f371ae2175ee4913f4499e1f2633a7b5936321eed1cdaeb6115181d26001604051610bae91906152ea565b60405180910390a15b50505050505050565b60095481565b60066020528160005260406000208181548110610be257600080fd5b9060005260206000209060030201600091509150508060000154908060020160009054906101000a900460ff16905082565b610c1c612fb3565b610c266000613713565b565b60048160128110610c3857600080fd5b60209182820401919006915054906101000a900460ff1681565b600080610ccd83600081518110610c6c57610c6b615173565b5b602002602001015184600181518110610c8857610c87615173565b5b602002602001015185600281518110610ca457610ca3615173565b5b602002602001015186600381518110610cc057610cbf615173565b5b60200260200101516137ea565b9050600181600060048110610ce557610ce4615173565b5b6020020151610cf49190615231565b60ff1681600160048110610d0b57610d0a615173565b5b602002015160ff16148015610d615750600381600060048110610d3157610d30615173565b5b6020020151610d409190615231565b60ff1681600260048110610d5757610d56615173565b5b602002015160ff16145b8015610dae5750600481600060048110610d7e57610d7d615173565b5b6020020151610d8d9190615231565b60ff1681600360048110610da457610da3615173565b5b602002015160ff16145b15610dbd576001915050610dc3565b60009150505b919050565b60058160128110610dd857600080fd5b60209182820401919006915054906101000a900460ff1681565b60038281548110610e0257600080fd5b906000526020600020018160038110610e1a57600080fd5b60209182820401919006915091509054906101000a900460ff1681565b600080610e42613951565b90508060000160009054906101000a900473ffffffffffffffffffffffffffffffffffffffff1691505090565b600160009054906101000a900473ffffffffffffffffffffffffffffffffffffffff1681565b6000806000905060005b84849050811015611f5d5760006014811115610ebe57610ebd614e62565b5b858583818110610ed157610ed0615173565b5b9050602002810190610ee39190615314565b6040016020810190610ef59190615361565b6014811115610f0757610f06614e62565b5b1480610f6d575060016014811115610f2257610f21614e62565b5b858583818110610f3557610f34615173565b5b9050602002810190610f479190615314565b6040016020810190610f599190615361565b6014811115610f6b57610f6a614e62565b5b145b80610fd2575060096014811115610f8757610f86614e62565b5b858583818110610f9a57610f99615173565b5b9050602002810190610fac9190615314565b6040016020810190610fbe9190615361565b6014811115610fd057610fcf614e62565b5b145b806110375750600a6014811115610fec57610feb614e62565b5b858583818110610fff57610ffe615173565b5b90506020028101906110119190615314565b60400160208101906110239190615361565b601481111561103557611034614e62565b5b145b8061109c5750600b601481111561105157611050614e62565b5b85858381811061106457611063615173565b5b90506020028101906110769190615314565b60400160208101906110889190615361565b601481111561109a57611099614e62565b5b145b806111015750600c60148111156110b6576110b5614e62565b5b8585838181106110c9576110c8615173565b5b90506020028101906110db9190615314565b60400160208101906110ed9190615361565b60148111156110ff576110fe614e62565b5b145b806111665750600d601481111561111b5761111a614e62565b5b85858381811061112e5761112d615173565b5b90506020028101906111409190615314565b60400160208101906111529190615361565b601481111561116457611163614e62565b5b145b806111cb5750600e60148111156111805761117f614e62565b5b85858381811061119357611192615173565b5b90506020028101906111a59190615314565b60400160208101906111b79190615361565b60148111156111c9576111c8614e62565b5b145b806112305750600f60148111156111e5576111e4614e62565b5b8585838181106111f8576111f7615173565b5b905060200281019061120a9190615314565b604001602081019061121c9190615361565b601481111561122e5761122d614e62565b5b145b8061129557506010601481111561124a57611249614e62565b5b85858381811061125d5761125c615173565b5b905060200281019061126f9190615314565b60400160208101906112819190615361565b601481111561129357611292614e62565b5b145b806112fa5750601160148111156112af576112ae614e62565b5b8585838181106112c2576112c1615173565b5b90506020028101906112d49190615314565b60400160208101906112e69190615361565b60148111156112f8576112f7614e62565b5b145b8061135f57506012601481111561131457611313614e62565b5b85858381811061132757611326615173565b5b90506020028101906113399190615314565b604001602081019061134b9190615361565b601481111561135d5761135c614e62565b5b145b806113c457506013601481111561137957611378614e62565b5b85858381811061138c5761138b615173565b5b905060200281019061139e9190615314565b60400160208101906113b09190615361565b60148111156113c2576113c1614e62565b5b145b8061142857506014808111156113dd576113dc614e62565b5b8585838181106113f0576113ef615173565b5b90506020028101906114029190615314565b60400160208101906114149190615361565b601481111561142657611425614e62565b5b145b156114a657600085858381811061144257611441615173565b5b90506020028101906114549190615314565b8060200190611463919061538e565b9050146114a5576040517f08c379a000000000000000000000000000000000000000000000000000000000815260040161149c90615474565b60405180910390fd5b5b600260148111156114ba576114b9614e62565b5b8585838181106114cd576114cc615173565b5b90506020028101906114df9190615314565b60400160208101906114f19190615361565b601481111561150357611502614e62565b5b036116e057600385858381811061151d5761151c615173565b5b905060200281019061152f9190615314565b806020019061153e919061538e565b905014611580576040517f08c379a0000000000000000000000000000000000000000000000000000000008152600401611577906154e0565b60405180910390fd5b6001151561169d86868481811061159a57611599615173565b5b90506020028101906115ac9190615314565b80602001906115bb919061538e565b60008181106115cd576115cc615173565b5b90506020020160208101906115e29190614ba3565b8787858181106115f5576115f4615173565b5b90506020028101906116079190615314565b8060200190611616919061538e565b600181811061162857611627615173565b5b905060200201602081019061163d9190614ba3565b8888868181106116505761164f615173565b5b90506020028101906116629190615314565b8060200190611671919061538e565b600281811061168357611682615173565b5b90506020020160208101906116989190614ba3565b61242a565b1515146116df576040517f08c379a00000000000000000000000000000000000000000000000000000000081526004016116d69061554c565b60405180910390fd5b5b600360148111156116f4576116f3614e62565b5b85858381811061170757611706615173565b5b90506020028101906117199190615314565b604001602081019061172b9190615361565b601481111561173d5761173c614e62565b5b0361180357600c85858381811061175757611756615173565b5b90506020028101906117699190615314565b8060200190611778919061538e565b9050146117ba576040517f08c379a00000000000000000000000000000000000000000000000000000000081526004016117b1906154e0565b60405180910390fd5b600015156001151514611802576040517f08c379a00000000000000000000000000000000000000000000000000000000081526004016117f9906155b8565b60405180910390fd5b5b6004601481111561181757611816614e62565b5b85858381811061182a57611829615173565b5b905060200281019061183c9190615314565b604001602081019061184e9190615361565b60148111156118605761185f614e62565b5b0361192657600585858381811061187a57611879615173565b5b905060200281019061188c9190615314565b806020019061189b919061538e565b9050146118dd576040517f08c379a00000000000000000000000000000000000000000000000000000000081526004016118d4906154e0565b60405180910390fd5b600015156001151514611925576040517f08c379a000000000000000000000000000000000000000000000000000000000815260040161191c906155b8565b60405180910390fd5b5b6005601481111561193a57611939614e62565b5b85858381811061194d5761194c615173565b5b905060200281019061195f9190615314565b60400160208101906119719190615361565b601481111561198357611982614e62565b5b03611b0557600285858381811061199d5761199c615173565b5b90506020028101906119af9190615314565b80602001906119be919061538e565b905014611a00576040517f08c379a00000000000000000000000000000000000000000000000000000000081526004016119f7906154e0565b60405180910390fd5b60011515611ac2868684818110611a1a57611a19615173565b5b9050602002810190611a2c9190615314565b8060200190611a3b919061538e565b6000818110611a4d57611a4c615173565b5b9050602002016020810190611a629190614ba3565b878785818110611a7557611a74615173565b5b9050602002810190611a879190615314565b8060200190611a96919061538e565b6001818110611aa857611aa7615173565b5b9050602002016020810190611abd9190614ba3565b61096c565b151514611b04576040517f08c379a0000000000000000000000000000000000000000000000000000000008152600401611afb9061554c565b60405180910390fd5b5b60066014811115611b1957611b18614e62565b5b858583818110611b2c57611b2b615173565b5b9050602002810190611b3e9190615314565b6040016020810190611b509190615361565b6014811115611b6257611b61614e62565b5b03611ca2576004858583818110611b7c57611b7b615173565b5b9050602002810190611b8e9190615314565b8060200190611b9d919061538e565b905014611bdf576040517f08c379a0000000000000000000000000000000000000000000000000000000008152600401611bd6906154e0565b60405180910390fd5b60011515611c5f868684818110611bf957611bf8615173565b5b9050602002810190611c0b9190615314565b8060200190611c1a919061538e565b80806020026020016040519081016040528093929190818152602001838360200280828437600081840152601f19601f82011690508083019250505050505050610c52565b151514611ca1576040517f08c379a0000000000000000000000000000000000000000000000000000000008152600401611c989061554c565b60405180910390fd5b5b60076014811115611cb657611cb5614e62565b5b858583818110611cc957611cc8615173565b5b9050602002810190611cdb9190615314565b6040016020810190611ced9190615361565b6014811115611cff57611cfe614e62565b5b03611e3f576006858583818110611d1957611d18615173565b5b9050602002810190611d2b9190615314565b8060200190611d3a919061538e565b905014611d7c576040517f08c379a0000000000000000000000000000000000000000000000000000000008152600401611d73906154e0565b60405180910390fd5b60011515611dfc868684818110611d9657611d95615173565b5b9050602002810190611da89190615314565b8060200190611db7919061538e565b80806020026020016040519081016040528093929190818152602001838360200280828437600081840152601f19601f820116905080830192505050505050506106f1565b151514611e3e576040517f08c379a0000000000000000000000000000000000000000000000000000000008152600401611e359061554c565b60405180910390fd5b5b60086014811115611e5357611e52614e62565b5b858583818110611e6657611e65615173565b5b9050602002810190611e789190615314565b6040016020810190611e8a9190615361565b6014811115611e9c57611e9b614e62565b5b03611f1a576001858583818110611eb657611eb5615173565b5b9050602002810190611ec89190615314565b8060200190611ed7919061538e565b905014611f19576040517f08c379a0000000000000000000000000000000000000000000000000000000008152600401611f10906154e0565b60405180910390fd5b5b848482818110611f2d57611f2c615173565b5b9050602002810190611f3f9190615314565b6000013582611f4e91906155d8565b91508080600101915050610e9f565b506000612710600260149054906101000a900460ff1660ff1683611f81919061560c565b611f8b919061564e565b90508060096000828254611f9f91906155d8565b92505081905550602482611fb3919061560c565b600954600260009054906101000a900473ffffffffffffffffffffffffffffffffffffffff1673ffffffffffffffffffffffffffffffffffffffff166370a08231306040518263ffffffff1660e01b81526004016120119190614f11565b602060405180830381865afa15801561202e573d6000803e3d6000fd5b505050506040513d601f19601f820116820180604052508101906120529190615694565b61205c91906156c1565b101561209d576040517f08c379a000000000000000000000000000000000000000000000000000000000815260040161209490615767565b60405180910390fd5b600260009054906101000a900473ffffffffffffffffffffffffffffffffffffffff1673ffffffffffffffffffffffffffffffffffffffff166323b872dd3330856040518463ffffffff1660e01b81526004016120fc93929190615787565b6020604051808303816000875af115801561211b573d6000803e3d6000fd5b505050506040513d601f19601f8201168201806040525081019061213f91906157ea565b50600061215c604051806020016040528060011515815250613979565b9050600080612172620186a06003600186613a11565b809250819350505060005b8888905081101561220457600660008481526020019081526020016000208989838181106121ae576121ad615173565b5b90506020028101906121c09190615314565b908060018154018082558091505060019003906000526020600020906003020160009091909190915081816121f59190615cfc565b5050808060010191505061217d565b50336007600084815260200190815260200160002060006101000a81548173ffffffffffffffffffffffffffffffffffffffff021916908373ffffffffffffffffffffffffffffffffffffffff1602179055507fa1e65b062e40809f80439a4691be6294420cac1c300e5430fa259aad2a0d53fc8282604051612288929190615d0a565b60405180910390a17f77444cd969f2b804ea091b5f3c08bb5a20d3c97ed9c8660cfa9b1ea050ff6e1a846040516122bf9190614e07565b60405180910390a1819550505050505092915050565b6122dd612fb3565b7f457e4fe0c9f161a0c6f3bfb8d7809a4ac19f6291bd81b03b86b0d00f9af3717b33838360405161231093929190615787565b60405180910390a1600073ffffffffffffffffffffffffffffffffffffffff168273ffffffffffffffffffffffffffffffffffffffff160361239f57612354610e37565b73ffffffffffffffffffffffffffffffffffffffff166108fc829081150290604051600060405180830381858888f19350505050158015612399573d6000803e3d6000fd5b50612426565b8173ffffffffffffffffffffffffffffffffffffffff1663a9059cbb6123c3610e37565b836040518363ffffffff1660e01b81526004016123e1929190615d33565b6020604051808303816000875af1158015612400573d6000803e3d6000fd5b505050506040513d601f19601f8201168201806040525081019061242491906157ea565b505b5050565b600080600090505b6003805490508160ff161015612aab5760038160ff168154811061245957612458615173565b5b9060005260206000200160006003811061247657612475615173565b5b602091828204019190069054906101000a900460ff1660ff168560ff161480156124ee575060038160ff16815481106124b2576124b1615173565b5b906000526020600020016001600381106124cf576124ce615173565b5b602091828204019190069054906101000a900460ff1660ff168460ff16145b8015612548575060038160ff168154811061250c5761250b615173565b5b9060005260206000200160026003811061252957612528615173565b5b602091828204019190069054906101000a900460ff1660ff168360ff16145b80612655575060038160ff168154811061256557612564615173565b5b9060005260206000200160006003811061258257612581615173565b5b602091828204019190069054906101000a900460ff1660ff168560ff161480156125fa575060038160ff16815481106125be576125bd615173565b5b906000526020600020016001600381106125db576125da615173565b5b602091828204019190069054906101000a900460ff1660ff168360ff16145b8015612654575060038160ff168154811061261857612617615173565b5b9060005260206000200160026003811061263557612634615173565b5b602091828204019190069054906101000a900460ff1660ff168460ff16145b5b80612762575060038160ff168154811061267257612671615173565b5b9060005260206000200160006003811061268f5761268e615173565b5b602091828204019190069054906101000a900460ff1660ff168460ff16148015612707575060038160ff16815481106126cb576126ca615173565b5b906000526020600020016001600381106126e8576126e7615173565b5b602091828204019190069054906101000a900460ff1660ff168560ff16145b8015612761575060038160ff168154811061272557612724615173565b5b9060005260206000200160026003811061274257612741615173565b5b602091828204019190069054906101000a900460ff1660ff168360ff16145b5b8061286f575060038160ff168154811061277f5761277e615173565b5b9060005260206000200160006003811061279c5761279b615173565b5b602091828204019190069054906101000a900460ff1660ff168460ff16148015612814575060038160ff16815481106127d8576127d7615173565b5b906000526020600020016001600381106127f5576127f4615173565b5b602091828204019190069054906101000a900460ff1660ff168360ff16145b801561286e575060038160ff168154811061283257612831615173565b5b9060005260206000200160026003811061284f5761284e615173565b5b602091828204019190069054906101000a900460ff1660ff168560ff16145b5b8061297c575060038160ff168154811061288c5761288b615173565b5b906000526020600020016000600381106128a9576128a8615173565b5b602091828204019190069054906101000a900460ff1660ff168360ff16148015612921575060038160ff16815481106128e5576128e4615173565b5b9060005260206000200160016003811061290257612901615173565b5b602091828204019190069054906101000a900460ff1660ff168560ff16145b801561297b575060038160ff168154811061293f5761293e615173565b5b9060005260206000200160026003811061295c5761295b615173565b5b602091828204019190069054906101000a900460ff1660ff168460ff16145b5b80612a89575060038160ff168154811061299957612998615173565b5b906000526020600020016000600381106129b6576129b5615173565b5b602091828204019190069054906101000a900460ff1660ff168360ff16148015612a2e575060038160ff16815481106129f2576129f1615173565b5b90600052602060002001600160038110612a0f57612a0e615173565b5b602091828204019190069054906101000a900460ff1660ff168460ff16145b8015612a88575060038160ff1681548110612a4c57612a4b615173565b5b90600052602060002001600260038110612a6957612a68615173565b5b602091828204019190069054906101000a900460ff1660ff168560ff16145b5b15612a98576001915050612ab1565b8080612aa390615d5c565b915050612432565b50600090505b9392505050565b612ac0612fb3565b6000600954905060006009819055507f78473f3f373f7673597f4f0fa5873cb4d375fea6d4339ad6b56dbd411513cb3f3382604051612b00929190615d33565b60405180910390a1600260009054906101000a900473ffffffffffffffffffffffffffffffffffffffff1673ffffffffffffffffffffffffffffffffffffffff1663a9059cbb612b4e610e37565b836040518363ffffffff1660e01b8152600401612b6c929190615d33565b6020604051808303816000875af1158015612b8b573d6000803e3d6000fd5b505050506040513d601f19601f82011682018060405250810190612baf91906157ea565b5050565b612bbb612fb3565b600073ffffffffffffffffffffffffffffffffffffffff168173ffffffffffffffffffffffffffffffffffffffff1603612c2d5760006040517f1e4fbdf7000000000000000000000000000000000000000000000000000000008152600401612c249190614f11565b60405180910390fd5b612c3681613713565b50565b60076020528060005260406000206000915054906101000a900473ffffffffffffffffffffffffffffffffffffffff1681565b600260009054906101000a900473ffffffffffffffffffffffffffffffffffffffff1681565b6008600083815260200190815260200160002060009054906101000a900460ff1615612cf557816040517fc85492ea000000000000000000000000000000000000000000000000000000008152600401612cec9190614e07565b60405180910390fd5b6000602682600081518110612d0d57612d0c615173565b5b6020026020010151612d1f9190615d85565b905060016008600085815260200190815260200160002060006101000a81548160ff0219169083151502179055506000805b6006600086815260200190815260200160002080549050811015612e9357612e79600660008781526020019081526020016000208281548110612d9757612d96615173565b5b90600052602060002090600302016040518060600160405290816000820154815260200160018201805480602002602001604051908101604052809291908181526020018280548015612e2f57602002820191906000526020600020906000905b82829054906101000a900460ff1660ff1681526020019060010190602082600001049283019260010382029150808411612df85790505b505050505081526020016002820160009054906101000a900460ff166014811115612e5d57612e5c614e62565b5b6014811115612e6f57612e6e614e62565b5b8152505084613b64565b82612e8491906155d8565b91508080600101915050612d51565b506000811115612f7257600260009054906101000a900473ffffffffffffffffffffffffffffffffffffffff1673ffffffffffffffffffffffffffffffffffffffff1663a9059cbb6007600087815260200190815260200160002060009054906101000a900473ffffffffffffffffffffffffffffffffffffffff16836040518363ffffffff1660e01b8152600401612f2d929190615d33565b6020604051808303816000875af1158015612f4c573d6000803e3d6000fd5b505050506040513d601f19601f82011682018060405250810190612f7091906157ea565b505b7f7dcdf51466f65224ce20b5f622c0d7f5fcbb55baea0e66d592e149db90d63b49848383604051612fa593929190615db6565b60405180910390a150505050565b612fbb6145c1565b73ffffffffffffffffffffffffffffffffffffffff16612fd9610e37565b73ffffffffffffffffffffffffffffffffffffffff161461303857612ffc6145c1565b6040517f118cdaa700000000000000000000000000000000000000000000000000000000815260040161302f9190614f11565b60405180910390fd5b565b6130426146c3565b60006040518060c001604052808960ff1660ff1681526020018860ff1660ff1681526020018760ff1660ff1681526020018660ff1660ff1681526020018560ff1660ff1681526020018460ff1660ff16815250905060005b60068160ff1610156131ac5760006001826130b59190615231565b90505b60068160ff16101561319e57828160ff16600681106130da576130d9615173565b5b602002015160ff16838360ff16600681106130f8576130f7615173565b5b602002015160ff161115613191576000838360ff166006811061311e5761311d615173565b5b60200201519050838260ff166006811061313b5761313a615173565b5b6020020151848460ff166006811061315657613155615173565b5b602002019060ff16908160ff168152505080848360ff166006811061317e5761317d615173565b5b602002019060ff16908160ff1681525050505b80806001019150506130b8565b50808060010191505061309a565b50809150509695505050505050565b60007ff0c57e16840df040f15088dc2f81fe391c3923bec73e23a9662efc9c229c6a00905090565b81600260006101000a81548173ffffffffffffffffffffffffffffffffffffffff021916908373ffffffffffffffffffffffffffffffffffffffff160217905550600081905060006009819055506000600260146101000a81548160ff021916908360ff1602179055508073ffffffffffffffffffffffffffffffffffffffff16631c4695f46040518163ffffffff1660e01b8152600401602060405180830381865afa158015613298573d6000803e3d6000fd5b505050506040513d601f19601f820116820180604052508101906132bc9190615e02565b6000806101000a81548173ffffffffffffffffffffffffffffffffffffffff021916908373ffffffffffffffffffffffffffffffffffffffff16021790555080600160006101000a81548173ffffffffffffffffffffffffffffffffffffffff021916908373ffffffffffffffffffffffffffffffffffffffff160217905550613345336145c9565b6040518061018001604052806040518060600160405280600160ff168152602001600260ff168152602001600360ff1681525081526020016040518060600160405280600460ff168152602001600560ff168152602001600660ff1681525081526020016040518060600160405280600760ff168152602001600860ff168152602001600960ff1681525081526020016040518060600160405280600a60ff168152602001600b60ff168152602001600c60ff1681525081526020016040518060600160405280600d60ff168152602001600e60ff168152602001600f60ff1681525081526020016040518060600160405280601060ff168152602001601160ff168152602001601260ff1681525081526020016040518060600160405280601360ff168152602001601460ff168152602001601560ff1681525081526020016040518060600160405280601660ff168152602001601760ff168152602001601860ff1681525081526020016040518060600160405280601960ff168152602001601a60ff168152602001601b60ff1681525081526020016040518060600160405280601c60ff168152602001601d60ff168152602001601e60ff1681525081526020016040518060600160405280601f60ff168152602001602060ff168152602001602160ff1681525081526020016040518060600160405280602260ff168152602001602360ff168152602001602460ff16815250815250600390600c61356f9291906146e5565b50604051806102400160405280600160ff168152602001600360ff168152602001600560ff168152602001600760ff168152602001600960ff168152602001600c60ff168152602001600e60ff168152602001601060ff168152602001601260ff168152602001601360ff168152602001601560ff168152602001601760ff168152602001601960ff168152602001601b60ff168152602001601e60ff168152602001602060ff168152602001602260ff168152602001602460ff16815250600490601261363e929190614740565b50604051806102400160405280600260ff168152602001600460ff168152602001600660ff168152602001600860ff168152602001600a60ff168152602001600b60ff168152602001600d60ff168152602001600f60ff168152602001601160ff168152602001601460ff168152602001601660ff168152602001601860ff168152602001601a60ff168152602001601c60ff168152602001601d60ff168152602001601f60ff168152602001602160ff168152602001602360ff16815250600590601261370d929190614740565b50505050565b600061371d613951565b905060008160000160009054906101000a900473ffffffffffffffffffffffffffffffffffffffff169050828260000160006101000a81548173ffffffffffffffffffffffffffffffffffffffff021916908373ffffffffffffffffffffffffffffffffffffffff1602179055508273ffffffffffffffffffffffffffffffffffffffff168173ffffffffffffffffffffffffffffffffffffffff167f8be0079c531659141344cd1fd0a4f28419497f9722a3daafe3b4186f6b6457e060405160405180910390a3505050565b6137f26147da565b600060405180608001604052808760ff1660ff1681526020018660ff1660ff1681526020018560ff1660ff1681526020018460ff1660ff16815250905060005b60048160ff16101561394457600060018261384d9190615231565b90505b60048160ff16101561393657828160ff166004811061387257613871615173565b5b602002015160ff16838360ff16600481106138905761388f615173565b5b602002015160ff161115613929576000838360ff16600481106138b6576138b5615173565b5b60200201519050838260ff16600481106138d3576138d2615173565b5b6020020151848460ff16600481106138ee576138ed615173565b5b602002019060ff16908160ff168152505080848360ff166004811061391657613915615173565b5b602002019060ff16908160ff1681525050505b8080600101915050613850565b508080600101915050613832565b5080915050949350505050565b60007f9016d09d72d40fdae2fd8ceac6b6234c7706214fd39c1cd1e609a0528c199300905090565b60607f92fd13387c7fe7befbc38d303d6468778fb9731bc4583f17d92989c6fcfdeaaa826040516024016139ad9190615e5a565b604051602081830303815290604052907bffffffffffffffffffffffffffffffffffffffffffffffffffffffff19166020820180517bffffffffffffffffffffffffffffffffffffffffffffffffffffffff83818316178352505050509050919050565b600080600160009054906101000a900473ffffffffffffffffffffffffffffffffffffffff1673ffffffffffffffffffffffffffffffffffffffff166313c34b7f87866040518363ffffffff1660e01b8152600401613a71929190615e94565b602060405180830381865afa158015613a8e573d6000803e3d6000fd5b505050506040513d601f19601f82011682018060405250810190613ab29190615694565b9050600160009054906101000a900473ffffffffffffffffffffffffffffffffffffffff1673ffffffffffffffffffffffffffffffffffffffff16639cfc058e82888888886040518663ffffffff1660e01b8152600401613b169493929190615f59565b60206040518083038185885af1158015613b34573d6000803e3d6000fd5b50505050506040513d601f19601f82011682018060405250810190613b599190615694565b915094509492505050565b6000806014811115613b7957613b78614e62565b5b83604001516014811115613b9057613b8f614e62565b5b03613bb55760008260ff1603613bb45760248360000151613bb1919061560c565b90505b5b60016014811115613bc957613bc8614e62565b5b83604001516014811115613be057613bdf614e62565b5b03613c055760258260ff1603613c045760248360000151613c01919061560c565b90505b5b60026014811115613c1957613c18614e62565b5b83604001516014811115613c3057613c2f614e62565b5b03613c975760005b836020015151811015613c95578260ff1684602001518281518110613c6057613c5f615173565b5b602002602001015160ff1603613c8857600c8460000151613c81919061560c565b9150613c95565b8080600101915050613c38565b505b60056014811115613cab57613caa614e62565b5b83604001516014811115613cc257613cc1614e62565b5b03613d295760005b836020015151811015613d27578260ff1684602001518281518110613cf257613cf1615173565b5b602002602001015160ff1603613d1a5760128460000151613d13919061560c565b9150613d27565b8080600101915050613cca565b505b60066014811115613d3d57613d3c614e62565b5b83604001516014811115613d5457613d53614e62565b5b03613dbb5760005b836020015151811015613db9578260ff1684602001518281518110613d8457613d83615173565b5b602002602001015160ff1603613dac5760098460000151613da5919061560c565b9150613db9565b8080600101915050613d5c565b505b60076014811115613dcf57613dce614e62565b5b83604001516014811115613de657613de5614e62565b5b03613e4d5760005b836020015151811015613e4b578260ff1684602001518281518110613e1657613e15615173565b5b602002602001015160ff1603613e3e5760068460000151613e37919061560c565b9150613e4b565b8080600101915050613dee565b505b60086014811115613e6157613e60614e62565b5b83604001516014811115613e7857613e77614e62565b5b03613ebe578160ff168360200151600081518110613e9957613e98615173565b5b602002602001015160ff1603613ebd5760248360000151613eba919061560c565b90505b5b60096014811115613ed257613ed1614e62565b5b83604001516014811115613ee957613ee8614e62565b5b03613fcc576000604051806101800160405280600160ff168152602001600460ff168152602001600760ff168152602001600a60ff168152602001600d60ff168152602001601060ff168152602001601360ff168152602001601660ff168152602001601960ff168152602001601c60ff168152602001601f60ff168152602001602260ff16815250905060005b600c811015613fc9578360ff168282600c8110613f9757613f96615173565b5b602002015160ff1603613fbc5760038560000151613fb5919061560c565b9250613fc9565b8080600101915050613f77565b50505b600a6014811115613fe057613fdf614e62565b5b83604001516014811115613ff757613ff6614e62565b5b036140da576000604051806101800160405280600260ff168152602001600560ff168152602001600860ff168152602001600b60ff168152602001600e60ff168152602001601160ff168152602001601460ff168152602001601760ff168152602001601a60ff168152602001601d60ff168152602001602060ff168152602001602360ff16815250905060005b600c8110156140d7578360ff168282600c81106140a5576140a4615173565b5b602002015160ff16036140ca57600385600001516140c3919061560c565b92506140d7565b8080600101915050614085565b50505b600b60148111156140ee576140ed614e62565b5b8360400151601481111561410557614104614e62565b5b036141e8576000604051806101800160405280600360ff168152602001600660ff168152602001600960ff168152602001600c60ff168152602001600f60ff168152602001601260ff168152602001601560ff168152602001601860ff168152602001601b60ff168152602001601e60ff168152602001602160ff168152602001602460ff16815250905060005b600c8110156141e5578360ff168282600c81106141b3576141b2615173565b5b602002015160ff16036141d857600385600001516141d1919061560c565b92506141e5565b8080600101915050614193565b50505b600c60148111156141fc576141fb614e62565b5b8360400151601481111561421357614212614e62565b5b0361424a5760018260ff16101580156142305750600c8260ff1611155b156142495760038360000151614246919061560c565b90505b5b600d601481111561425e5761425d614e62565b5b8360400151601481111561427557614274614e62565b5b036142ac57600d8260ff1610158015614292575060188260ff1611155b156142ab57600383600001516142a8919061560c565b90505b5b600e60148111156142c0576142bf614e62565b5b836040015160148111156142d7576142d6614e62565b5b0361430e5760198260ff16101580156142f4575060248260ff1611155b1561430d576003836000015161430a919061560c565b90505b5b600f601481111561432257614321614e62565b5b8360400151601481111561433957614338614e62565b5b036143705760018260ff1610158015614356575060128260ff1611155b1561436f576002836000015161436c919061560c565b90505b5b6010601481111561438457614383614e62565b5b8360400151601481111561439b5761439a614e62565b5b036143d25760138260ff16101580156143b8575060248260ff1611155b156143d157600283600001516143ce919061560c565b90505b5b601160148111156143e6576143e5614e62565b5b836040015160148111156143fd576143fc614e62565b5b0361442e57600060028361441191906151d1565b60ff160361442d576002836000015161442a919061560c565b90505b5b6012601481111561444257614441614e62565b5b8360400151601481111561445957614458614e62565b5b0361448a57600160028361446d91906151d1565b60ff16036144895760028360000151614486919061560c565b90505b5b6013601481111561449e5761449d614e62565b5b836040015160148111156144b5576144b4614e62565b5b036145235760005b6012811015614521578260ff16600482601281106144de576144dd615173565b5b602091828204019190069054906101000a900460ff1660ff1603614514576002846000015161450d919061560c565b9150614521565b80806001019150506144bd565b505b60148081111561453657614535614e62565b5b8360400151601481111561454d5761454c614e62565b5b036145bb5760005b60128110156145b9578260ff166005826012811061457657614575615173565b5b602091828204019190069054906101000a900460ff1660ff16036145ac57600284600001516145a5919061560c565b91506145b9565b8080600101915050614555565b505b92915050565b600033905090565b6145d16145dd565b6145da8161461d565b50565b6145e56146a3565b61461b576040517fd7e6bcf800000000000000000000000000000000000000000000000000000000815260040160405180910390fd5b565b6146256145dd565b600073ffffffffffffffffffffffffffffffffffffffff168173ffffffffffffffffffffffffffffffffffffffff16036146975760006040517f1e4fbdf700000000000000000000000000000000000000000000000000000000815260040161468e9190614f11565b60405180910390fd5b6146a081613713565b50565b60006146ad6131bb565b60000160089054906101000a900460ff16905090565b6040518060c00160405280600690602082028036833780820191505090505090565b82805482825590600052602060002090810192821561472f579160200282015b8281111561472e5782518290600361471e9291906147fc565b5091602001919060010190614705565b5b50905061473c9190614896565b5090565b826012601f016020900481019282156147c95791602002820160005b8382111561479a57835183826101000a81548160ff021916908360ff160217905550926020019260010160208160000104928301926001030261475c565b80156147c75782816101000a81549060ff021916905560010160208160000104928301926001030261479a565b505b5090506147d691906148ba565b5090565b6040518060800160405280600490602082028036833780820191505090505090565b826003601f016020900481019282156148855791602002820160005b8382111561485657835183826101000a81548160ff021916908360ff1602179055509260200192600101602081600001049283019260010302614818565b80156148835782816101000a81549060ff0219169055600101602081600001049283019260010302614856565b505b50905061489291906148ba565b5090565b5b808211156148b657600081816148ad91906148d7565b50600101614897565b5090565b5b808211156148d35760008160009055506001016148bb565b5090565b5060009055565b6000604051905090565b600080fd5b600080fd5b6000819050919050565b614905816148f2565b811461491057600080fd5b50565b600081359050614922816148fc565b92915050565b60006020828403121561493e5761493d6148e8565b5b600061494c84828501614913565b91505092915050565b60008115159050919050565b61496a81614955565b82525050565b60006020820190506149856000830184614961565b92915050565b600080fd5b6000601f19601f8301169050919050565b7f4e487b7100000000000000000000000000000000000000000000000000000000600052604160045260246000fd5b6149d982614990565b810181811067ffffffffffffffff821117156149f8576149f76149a1565b5b80604052505050565b6000614a0b6148de565b9050614a1782826149d0565b919050565b600067ffffffffffffffff821115614a3757614a366149a1565b5b602082029050602081019050919050565b600080fd5b6000614a60614a5b84614a1c565b614a01565b90508083825260208201905060208402830185811115614a8357614a82614a48565b5b835b81811015614aac5780614a988882614913565b845260208401935050602081019050614a85565b5050509392505050565b600082601f830112614acb57614aca61498b565b5b8135614adb848260208601614a4d565b91505092915050565b60008060408385031215614afb57614afa6148e8565b5b6000614b0985828601614913565b925050602083013567ffffffffffffffff811115614b2a57614b296148ed565b5b614b3685828601614ab6565b9150509250929050565b600060ff82169050919050565b614b5681614b40565b82525050565b6000602082019050614b716000830184614b4d565b92915050565b614b8081614b40565b8114614b8b57600080fd5b50565b600081359050614b9d81614b77565b92915050565b600060208284031215614bb957614bb86148e8565b5b6000614bc784828501614b8e565b91505092915050565b600067ffffffffffffffff821115614beb57614bea6149a1565b5b602082029050602081019050919050565b6000614c0f614c0a84614bd0565b614a01565b90508083825260208201905060208402830185811115614c3257614c31614a48565b5b835b81811015614c5b5780614c478882614b8e565b845260208401935050602081019050614c34565b5050509392505050565b600082601f830112614c7a57614c7961498b565b5b8135614c8a848260208601614bfc565b91505092915050565b600060208284031215614ca957614ca86148e8565b5b600082013567ffffffffffffffff811115614cc757614cc66148ed565b5b614cd384828501614c65565b91505092915050565b60008060408385031215614cf357614cf26148e8565b5b6000614d0185828601614b8e565b9250506020614d1285828601614b8e565b9150509250929050565b600073ffffffffffffffffffffffffffffffffffffffff82169050919050565b6000614d4782614d1c565b9050919050565b6000614d5982614d3c565b9050919050565b614d6981614d4e565b8114614d7457600080fd5b50565b600081359050614d8681614d60565b92915050565b614d9581614d3c565b8114614da057600080fd5b50565b600081359050614db281614d8c565b92915050565b60008060408385031215614dcf57614dce6148e8565b5b6000614ddd85828601614d77565b9250506020614dee85828601614da3565b9150509250929050565b614e01816148f2565b82525050565b6000602082019050614e1c6000830184614df8565b92915050565b60008060408385031215614e3957614e386148e8565b5b6000614e4785828601614913565b9250506020614e5885828601614913565b9150509250929050565b7f4e487b7100000000000000000000000000000000000000000000000000000000600052602160045260246000fd5b60158110614ea257614ea1614e62565b5b50565b6000819050614eb382614e91565b919050565b6000614ec382614ea5565b9050919050565b614ed381614eb8565b82525050565b6000604082019050614eee6000830185614df8565b614efb6020830184614eca565b9392505050565b614f0b81614d3c565b82525050565b6000602082019050614f266000830184614f02565b92915050565b6000819050919050565b6000614f51614f4c614f4784614d1c565b614f2c565b614d1c565b9050919050565b6000614f6382614f36565b9050919050565b6000614f7582614f58565b9050919050565b614f8581614f6a565b82525050565b6000602082019050614fa06000830184614f7c565b92915050565b600080fd5b60008083601f840112614fc157614fc061498b565b5b8235905067ffffffffffffffff811115614fde57614fdd614fa6565b5b602083019150836020820283011115614ffa57614ff9614a48565b5b9250929050565b60008060208385031215615018576150176148e8565b5b600083013567ffffffffffffffff811115615036576150356148ed565b5b61504285828601614fab565b92509250509250929050565b60008060408385031215615065576150646148e8565b5b600061507385828601614da3565b925050602061508485828601614913565b9150509250929050565b6000806000606084860312156150a7576150a66148e8565b5b60006150b586828701614b8e565b93505060206150c686828701614b8e565b92505060406150d786828701614b8e565b9150509250925092565b6000602082840312156150f7576150f66148e8565b5b600061510584828501614da3565b91505092915050565b600061511982614f58565b9050919050565b6151298161510e565b82525050565b60006020820190506151446000830184615120565b92915050565b600060408201905061515f6000830185614f02565b61516c6020830184614f02565b9392505050565b7f4e487b7100000000000000000000000000000000000000000000000000000000600052603260045260246000fd5b7f4e487b7100000000000000000000000000000000000000000000000000000000600052601260045260246000fd5b60006151dc82614b40565b91506151e783614b40565b9250826151f7576151f66151a2565b5b828206905092915050565b7f4e487b7100000000000000000000000000000000000000000000000000000000600052601160045260246000fd5b600061523c82614b40565b915061524783614b40565b9250828201905060ff8111156152605761525f615202565b5b92915050565b600061527182614b40565b915061527c83614b40565b9250828203905060ff81111561529557615294615202565b5b92915050565b6000819050919050565b600067ffffffffffffffff82169050919050565b60006152d46152cf6152ca8461529b565b614f2c565b6152a5565b9050919050565b6152e4816152b9565b82525050565b60006020820190506152ff60008301846152db565b92915050565b600080fd5b600080fd5b600080fd5b6000823560016060038336030381126153305761532f615305565b5b80830191505092915050565b6015811061534957600080fd5b50565b60008135905061535b8161533c565b92915050565b600060208284031215615377576153766148e8565b5b60006153858482850161534c565b91505092915050565b600080833560016020038436030381126153ab576153aa615305565b5b80840192508235915067ffffffffffffffff8211156153cd576153cc61530a565b5b6020830192506020820236038313156153e9576153e861530f565b5b509250929050565b600082825260208201905092915050565b7f4e756d62657273206e6f7420726571756972656420666f72207468697320747960008201527f7065000000000000000000000000000000000000000000000000000000000000602082015250565b600061545e6022836153f1565b915061546982615402565b604082019050919050565b6000602082019050818103600083015261548d81615451565b9050919050565b7f496e76616c6964206e756d62657273206c656e67746800000000000000000000600082015250565b60006154ca6016836153f1565b91506154d582615494565b602082019050919050565b600060208201905081810360008301526154f9816154bd565b9050919050565b7f496e76616c696420636f6d62696e6174696f6e00000000000000000000000000600082015250565b60006155366013836153f1565b915061554182615500565b602082019050919050565b6000602082019050818103600083015261556581615529565b9050919050565b7f4e6f7420696d706c656d656e7465640000000000000000000000000000000000600082015250565b60006155a2600f836153f1565b91506155ad8261556c565b602082019050919050565b600060208201905081810360008301526155d181615595565b9050919050565b60006155e3826148f2565b91506155ee836148f2565b925082820190508082111561560657615605615202565b5b92915050565b6000615617826148f2565b9150615622836148f2565b9250828202615630816148f2565b9150828204841483151761564757615646615202565b5b5092915050565b6000615659826148f2565b9150615664836148f2565b925082615674576156736151a2565b5b828204905092915050565b60008151905061568e816148fc565b92915050565b6000602082840312156156aa576156a96148e8565b5b60006156b88482850161567f565b91505092915050565b60006156cc826148f2565b91506156d7836148f2565b92508282039050818111156156ef576156ee615202565b5b92915050565b7f546f6f20686967682073756d206f66206269647320746f20776974686472617760008201527f2072657761726473000000000000000000000000000000000000000000000000602082015250565b60006157516028836153f1565b915061575c826156f5565b604082019050919050565b6000602082019050818103600083015261578081615744565b9050919050565b600060608201905061579c6000830186614f02565b6157a96020830185614f02565b6157b66040830184614df8565b949350505050565b6157c781614955565b81146157d257600080fd5b50565b6000815190506157e4816157be565b92915050565b600060208284031215615800576157ff6148e8565b5b600061580e848285016157d5565b91505092915050565b60008135615824816148fc565b80915050919050565b60008160001b9050919050565b60007fffffffffffffffffffffffffffffffffffffffffffffffffffffffffffffffff6158668461582d565b9350801983169250808416831791505092915050565b600061589761589261588d846148f2565b614f2c565b6148f2565b9050919050565b6000819050919050565b6158b18261587c565b6158c46158bd8261589e565b835461583a565b8255505050565b600081549050919050565b6000819050602060016020038301049050919050565b60008190508160005260206000209050919050565b600082821b905092915050565b60006008830261593e7fffffffffffffffffffffffffffffffffffffffffffffffffffffffffffffffff82615901565b6159488683615901565b95508019841693508086168417925050509392505050565b6159698361587c565b61597d6159758261589e565b84845461590e565b825550505050565b600090565b615992615985565b61599d818484615960565b505050565b5b818110156159c1576159b660008261598a565b6001810190506159a3565b5050565b600082821c905092915050565b615a027fffffffffffffffffffffffffffffffffffffffffffffffffffffffffffffffff836020036008026159c5565b815481168255505050565b81831015615a6557615a1e826158d6565b615a27846158d6565b615a30836158ec565b818101838201600160208906026000811115615a5457615a5381600185036159d2565b5b615a5e82846159a2565b5050505050505b505050565b68010000000000000000821115615a8457615a836149a1565b5b615a8d816158cb565b828255615a9b838284615a0d565b505050565b600082905092915050565b60008135615ab881614b77565b80915050919050565b6000819050919050565b600060088302615adc60ff82615901565b615ae68683615901565b95508019841693508086168417925050509392505050565b6000819050919050565b615b128383615aa0565b67ffffffffffffffff811115615b2b57615b2a6149a1565b5b615b358183615a6a565b615b3e83615ac1565b615b47836158ec565b6020830460005b81811015615baa576000805b6020811015615b9857615b6c86615aab565b615b7581615afe565b615b83818460010286615acb565b93506020880197505050600181019050615b5a565b50808285015550600181019050615b4e565b506020810284036000811115615c03576000805b82811015615bfb57615bcf86615aab565b615bd881615afe565b615be6818460010286615acb565b93506020880197505050600181019050615bbe565b508083850155505b5050505050505050565b615c18838383615b08565b505050565b60008135615c2a8161533c565b80915050919050565b600060ff615c408461582d565b9350801983169250808416831791505092915050565b6000615c6182614ea5565b9050919050565b6000819050919050565b615c7b82615c56565b615c8e615c8782615c68565b8354615c33565b8255505050565b600081016000830180615ca781615817565b9050615cb381846158a8565b5050506001810160208301615cc8818561538e565b615cd3818386615c0d565b50505050600281016040830180615ce981615c1d565b9050615cf58184615c72565b5050505050565b615d068282615c95565b5050565b6000604082019050615d1f6000830185614df8565b615d2c6020830184614df8565b9392505050565b6000604082019050615d486000830185614f02565b615d556020830184614df8565b9392505050565b6000615d6782614b40565b915060ff8203615d7a57615d79615202565b5b600182019050919050565b6000615d90826148f2565b9150615d9b836148f2565b925082615dab57615daa6151a2565b5b828206905092915050565b6000606082019050615dcb6000830186614df8565b615dd86020830185614b4d565b615de56040830184614df8565b949350505050565b600081519050615dfc81614d8c565b92915050565b600060208284031215615e1857615e176148e8565b5b6000615e2684828501615ded565b91505092915050565b615e3881614955565b82525050565b602082016000820151615e546000850182615e2f565b50505050565b6000602082019050615e6f6000830184615e3e565b92915050565b600063ffffffff82169050919050565b615e8e81615e75565b82525050565b6000604082019050615ea96000830185615e85565b615eb66020830184615e85565b9392505050565b600061ffff82169050919050565b615ed481615ebd565b82525050565b600081519050919050565b600082825260208201905092915050565b60005b83811015615f14578082015181840152602081019050615ef9565b60008484015250505050565b6000615f2b82615eda565b615f358185615ee5565b9350615f45818560208601615ef6565b615f4e81614990565b840191505092915050565b6000608082019050615f6e6000830187615e85565b615f7b6020830186615ecb565b615f886040830185615e85565b8181036060830152615f9a8184615f20565b90509594505050505056fea2646970667358221220754e55b286ca036d684ff0c5641e7277ab1a959b3e20e1801bba67764e9c40af64736f6c634300081b0033",
          "opcodes": "PUSH1 0x80 PUSH1 0x40 MSTORE CALLVALUE DUP1 ISZERO PUSH2 0x10 JUMPI PUSH1 0x0 DUP1 REVERT JUMPDEST POP PUSH2 0x1F PUSH2 0x24 PUSH1 0x20 SHL PUSH1 0x20 SHR JUMP JUMPDEST PUSH2 0x18E JUMP JUMPDEST PUSH1 0x0 PUSH2 0x34 PUSH2 0x128 PUSH1 0x20 SHL PUSH1 0x20 SHR JUMP JUMPDEST SWAP1 POP DUP1 PUSH1 0x0 ADD PUSH1 0x8 SWAP1 SLOAD SWAP1 PUSH2 0x100 EXP SWAP1 DIV PUSH1 0xFF AND ISZERO PUSH2 0x7F JUMPI PUSH1 0x40 MLOAD PUSH32 0xF92EE8A900000000000000000000000000000000000000000000000000000000 DUP2 MSTORE PUSH1 0x4 ADD PUSH1 0x40 MLOAD DUP1 SWAP2 SUB SWAP1 REVERT JUMPDEST PUSH8 0xFFFFFFFFFFFFFFFF DUP1 AND DUP2 PUSH1 0x0 ADD PUSH1 0x0 SWAP1 SLOAD SWAP1 PUSH2 0x100 EXP SWAP1 DIV PUSH8 0xFFFFFFFFFFFFFFFF AND PUSH8 0xFFFFFFFFFFFFFFFF AND EQ PUSH2 0x125 JUMPI PUSH8 0xFFFFFFFFFFFFFFFF DUP2 PUSH1 0x0 ADD PUSH1 0x0 PUSH2 0x100 EXP DUP2 SLOAD DUP2 PUSH8 0xFFFFFFFFFFFFFFFF MUL NOT AND SWAP1 DUP4 PUSH8 0xFFFFFFFFFFFFFFFF AND MUL OR SWAP1 SSTORE POP PUSH32 0xC7F505B2F371AE2175EE4913F4499E1F2633A7B5936321EED1CDAEB6115181D2 PUSH8 0xFFFFFFFFFFFFFFFF PUSH1 0x40 MLOAD PUSH2 0x11C SWAP2 SWAP1 PUSH2 0x173 JUMP JUMPDEST PUSH1 0x40 MLOAD DUP1 SWAP2 SUB SWAP1 LOG1 JUMPDEST POP JUMP JUMPDEST PUSH1 0x0 PUSH32 0xF0C57E16840DF040F15088DC2F81FE391C3923BEC73E23A9662EFC9C229C6A00 SWAP1 POP SWAP1 JUMP JUMPDEST PUSH1 0x0 PUSH8 0xFFFFFFFFFFFFFFFF DUP3 AND SWAP1 POP SWAP2 SWAP1 POP JUMP JUMPDEST PUSH2 0x16D DUP2 PUSH2 0x150 JUMP JUMPDEST DUP3 MSTORE POP POP JUMP JUMPDEST PUSH1 0x0 PUSH1 0x20 DUP3 ADD SWAP1 POP PUSH2 0x188 PUSH1 0x0 DUP4 ADD DUP5 PUSH2 0x164 JUMP JUMPDEST SWAP3 SWAP2 POP POP JUMP JUMPDEST PUSH2 0x5FDB DUP1 PUSH2 0x19D PUSH1 0x0 CODECOPY PUSH1 0x0 RETURN INVALID PUSH1 0x80 PUSH1 0x40 MSTORE PUSH1 0x4 CALLDATASIZE LT PUSH2 0x144 JUMPI PUSH1 0x0 CALLDATALOAD PUSH1 0xE0 SHR DUP1 PUSH4 0x7D5E45D5 GT PUSH2 0xB6 JUMPI DUP1 PUSH4 0xC1075329 GT PUSH2 0x6F JUMPI DUP1 PUSH4 0xC1075329 EQ PUSH2 0x4AB JUMPI DUP1 PUSH4 0xE4F8CEEA EQ PUSH2 0x4D4 JUMPI DUP1 PUSH4 0xE941FA78 EQ PUSH2 0x511 JUMPI DUP1 PUSH4 0xF2FDE38B EQ PUSH2 0x528 JUMPI DUP1 PUSH4 0xFBA4D7BF EQ PUSH2 0x551 JUMPI DUP1 PUSH4 0xFC0C546A EQ PUSH2 0x58E JUMPI PUSH2 0x145 JUMP JUMPDEST DUP1 PUSH4 0x7D5E45D5 EQ PUSH2 0x361 JUMPI DUP1 PUSH4 0x83CD7980 EQ PUSH2 0x39E JUMPI DUP1 PUSH4 0x88F2C720 EQ PUSH2 0x3DB JUMPI DUP1 PUSH4 0x8DA5CB5B EQ PUSH2 0x418 JUMPI DUP1 PUSH4 0x9ED0868D EQ PUSH2 0x443 JUMPI DUP1 PUSH4 0xA285AD79 EQ PUSH2 0x46E JUMPI PUSH2 0x145 JUMP JUMPDEST DUP1 PUSH4 0x47AA1A10 GT PUSH2 0x108 JUMPI DUP1 PUSH4 0x47AA1A10 EQ PUSH2 0x23E JUMPI DUP1 PUSH4 0x485CC955 EQ PUSH2 0x27B JUMPI DUP1 PUSH4 0x69E15404 EQ PUSH2 0x2A4 JUMPI DUP1 PUSH4 0x6A09F6BE EQ PUSH2 0x2CF JUMPI DUP1 PUSH4 0x715018A6 EQ PUSH2 0x30D JUMPI DUP1 PUSH4 0x768D2689 EQ PUSH2 0x324 JUMPI PUSH2 0x145 JUMP JUMPDEST DUP1 PUSH4 0x1BC404D6 EQ PUSH2 0x147 JUMPI DUP1 PUSH4 0x1FE543E3 EQ PUSH2 0x184 JUMPI DUP1 PUSH4 0x24A9D853 EQ PUSH2 0x1AD JUMPI DUP1 PUSH4 0x2EDD6797 EQ PUSH2 0x1D8 JUMPI DUP1 PUSH4 0x3F9E06C9 EQ PUSH2 0x201 JUMPI PUSH2 0x145 JUMP JUMPDEST JUMPDEST STOP JUMPDEST CALLVALUE DUP1 ISZERO PUSH2 0x153 JUMPI PUSH1 0x0 DUP1 REVERT JUMPDEST POP PUSH2 0x16E PUSH1 0x4 DUP1 CALLDATASIZE SUB DUP2 ADD SWAP1 PUSH2 0x169 SWAP2 SWAP1 PUSH2 0x4928 JUMP JUMPDEST PUSH2 0x5B9 JUMP JUMPDEST PUSH1 0x40 MLOAD PUSH2 0x17B SWAP2 SWAP1 PUSH2 0x4970 JUMP JUMPDEST PUSH1 0x40 MLOAD DUP1 SWAP2 SUB SWAP1 RETURN JUMPDEST CALLVALUE DUP1 ISZERO PUSH2 0x190 JUMPI PUSH1 0x0 DUP1 REVERT JUMPDEST POP PUSH2 0x1AB PUSH1 0x4 DUP1 CALLDATASIZE SUB DUP2 ADD SWAP1 PUSH2 0x1A6 SWAP2 SWAP1 PUSH2 0x4AE4 JUMP JUMPDEST PUSH2 0x5D9 JUMP JUMPDEST STOP JUMPDEST CALLVALUE DUP1 ISZERO PUSH2 0x1B9 JUMPI PUSH1 0x0 DUP1 REVERT JUMPDEST POP PUSH2 0x1C2 PUSH2 0x681 JUMP JUMPDEST PUSH1 0x40 MLOAD PUSH2 0x1CF SWAP2 SWAP1 PUSH2 0x4B5C JUMP JUMPDEST PUSH1 0x40 MLOAD DUP1 SWAP2 SUB SWAP1 RETURN JUMPDEST CALLVALUE DUP1 ISZERO PUSH2 0x1E4 JUMPI PUSH1 0x0 DUP1 REVERT JUMPDEST POP PUSH2 0x1FF PUSH1 0x4 DUP1 CALLDATASIZE SUB DUP2 ADD SWAP1 PUSH2 0x1FA SWAP2 SWAP1 PUSH2 0x4BA3 JUMP JUMPDEST PUSH2 0x694 JUMP JUMPDEST STOP JUMPDEST CALLVALUE DUP1 ISZERO PUSH2 0x20D JUMPI PUSH1 0x0 DUP1 REVERT JUMPDEST POP PUSH2 0x228 PUSH1 0x4 DUP1 CALLDATASIZE SUB DUP2 ADD SWAP1 PUSH2 0x223 SWAP2 SWAP1 PUSH2 0x4C93 JUMP JUMPDEST PUSH2 0x6F1 JUMP JUMPDEST PUSH1 0x40 MLOAD PUSH2 0x235 SWAP2 SWAP1 PUSH2 0x4970 JUMP JUMPDEST PUSH1 0x40 MLOAD DUP1 SWAP2 SUB SWAP1 RETURN JUMPDEST CALLVALUE DUP1 ISZERO PUSH2 0x24A JUMPI PUSH1 0x0 DUP1 REVERT JUMPDEST POP PUSH2 0x265 PUSH1 0x4 DUP1 CALLDATASIZE SUB DUP2 ADD SWAP1 PUSH2 0x260 SWAP2 SWAP1 PUSH2 0x4CDC JUMP JUMPDEST PUSH2 0x96C JUMP JUMPDEST PUSH1 0x40 MLOAD PUSH2 0x272 SWAP2 SWAP1 PUSH2 0x4970 JUMP JUMPDEST PUSH1 0x40 MLOAD DUP1 SWAP2 SUB SWAP1 RETURN JUMPDEST CALLVALUE DUP1 ISZERO PUSH2 0x287 JUMPI PUSH1 0x0 DUP1 REVERT JUMPDEST POP PUSH2 0x2A2 PUSH1 0x4 DUP1 CALLDATASIZE SUB DUP2 ADD SWAP1 PUSH2 0x29D SWAP2 SWAP1 PUSH2 0x4DB8 JUMP JUMPDEST PUSH2 0xA2F JUMP JUMPDEST STOP JUMPDEST CALLVALUE DUP1 ISZERO PUSH2 0x2B0 JUMPI PUSH1 0x0 DUP1 REVERT JUMPDEST POP PUSH2 0x2B9 PUSH2 0xBC0 JUMP JUMPDEST PUSH1 0x40 MLOAD PUSH2 0x2C6 SWAP2 SWAP1 PUSH2 0x4E07 JUMP JUMPDEST PUSH1 0x40 MLOAD DUP1 SWAP2 SUB SWAP1 RETURN JUMPDEST CALLVALUE DUP1 ISZERO PUSH2 0x2DB JUMPI PUSH1 0x0 DUP1 REVERT JUMPDEST POP PUSH2 0x2F6 PUSH1 0x4 DUP1 CALLDATASIZE SUB DUP2 ADD SWAP1 PUSH2 0x2F1 SWAP2 SWAP1 PUSH2 0x4E22 JUMP JUMPDEST PUSH2 0xBC6 JUMP JUMPDEST PUSH1 0x40 MLOAD PUSH2 0x304 SWAP3 SWAP2 SWAP1 PUSH2 0x4ED9 JUMP JUMPDEST PUSH1 0x40 MLOAD DUP1 SWAP2 SUB SWAP1 RETURN JUMPDEST CALLVALUE DUP1 ISZERO PUSH2 0x319 JUMPI PUSH1 0x0 DUP1 REVERT JUMPDEST POP PUSH2 0x322 PUSH2 0xC14 JUMP JUMPDEST STOP JUMPDEST CALLVALUE DUP1 ISZERO PUSH2 0x330 JUMPI PUSH1 0x0 DUP1 REVERT JUMPDEST POP PUSH2 0x34B PUSH1 0x4 DUP1 CALLDATASIZE SUB DUP2 ADD SWAP1 PUSH2 0x346 SWAP2 SWAP1 PUSH2 0x4928 JUMP JUMPDEST PUSH2 0xC28 JUMP JUMPDEST PUSH1 0x40 MLOAD PUSH2 0x358 SWAP2 SWAP1 PUSH2 0x4B5C JUMP JUMPDEST PUSH1 0x40 MLOAD DUP1 SWAP2 SUB SWAP1 RETURN JUMPDEST CALLVALUE DUP1 ISZERO PUSH2 0x36D JUMPI PUSH1 0x0 DUP1 REVERT JUMPDEST POP PUSH2 0x388 PUSH1 0x4 DUP1 CALLDATASIZE SUB DUP2 ADD SWAP1 PUSH2 0x383 SWAP2 SWAP1 PUSH2 0x4C93 JUMP JUMPDEST PUSH2 0xC52 JUMP JUMPDEST PUSH1 0x40 MLOAD PUSH2 0x395 SWAP2 SWAP1 PUSH2 0x4970 JUMP JUMPDEST PUSH1 0x40 MLOAD DUP1 SWAP2 SUB SWAP1 RETURN JUMPDEST CALLVALUE DUP1 ISZERO PUSH2 0x3AA JUMPI PUSH1 0x0 DUP1 REVERT JUMPDEST POP PUSH2 0x3C5 PUSH1 0x4 DUP1 CALLDATASIZE SUB DUP2 ADD SWAP1 PUSH2 0x3C0 SWAP2 SWAP1 PUSH2 0x4928 JUMP JUMPDEST PUSH2 0xDC8 JUMP JUMPDEST PUSH1 0x40 MLOAD PUSH2 0x3D2 SWAP2 SWAP1 PUSH2 0x4B5C JUMP JUMPDEST PUSH1 0x40 MLOAD DUP1 SWAP2 SUB SWAP1 RETURN JUMPDEST CALLVALUE DUP1 ISZERO PUSH2 0x3E7 JUMPI PUSH1 0x0 DUP1 REVERT JUMPDEST POP PUSH2 0x402 PUSH1 0x4 DUP1 CALLDATASIZE SUB DUP2 ADD SWAP1 PUSH2 0x3FD SWAP2 SWAP1 PUSH2 0x4E22 JUMP JUMPDEST PUSH2 0xDF2 JUMP JUMPDEST PUSH1 0x40 MLOAD PUSH2 0x40F SWAP2 SWAP1 PUSH2 0x4B5C JUMP JUMPDEST PUSH1 0x40 MLOAD DUP1 SWAP2 SUB SWAP1 RETURN JUMPDEST CALLVALUE DUP1 ISZERO PUSH2 0x424 JUMPI PUSH1 0x0 DUP1 REVERT JUMPDEST POP PUSH2 0x42D PUSH2 0xE37 JUMP JUMPDEST PUSH1 0x40 MLOAD PUSH2 0x43A SWAP2 SWAP1 PUSH2 0x4F11 JUMP JUMPDEST PUSH1 0x40 MLOAD DUP1 SWAP2 SUB SWAP1 RETURN JUMPDEST CALLVALUE DUP1 ISZERO PUSH2 0x44F JUMPI PUSH1 0x0 DUP1 REVERT JUMPDEST POP PUSH2 0x458 PUSH2 0xE6F JUMP JUMPDEST PUSH1 0x40 MLOAD PUSH2 0x465 SWAP2 SWAP1 PUSH2 0x4F8B JUMP JUMPDEST PUSH1 0x40 MLOAD DUP1 SWAP2 SUB SWAP1 RETURN JUMPDEST CALLVALUE DUP1 ISZERO PUSH2 0x47A JUMPI PUSH1 0x0 DUP1 REVERT JUMPDEST POP PUSH2 0x495 PUSH1 0x4 DUP1 CALLDATASIZE SUB DUP2 ADD SWAP1 PUSH2 0x490 SWAP2 SWAP1 PUSH2 0x5001 JUMP JUMPDEST PUSH2 0xE95 JUMP JUMPDEST PUSH1 0x40 MLOAD PUSH2 0x4A2 SWAP2 SWAP1 PUSH2 0x4E07 JUMP JUMPDEST PUSH1 0x40 MLOAD DUP1 SWAP2 SUB SWAP1 RETURN JUMPDEST CALLVALUE DUP1 ISZERO PUSH2 0x4B7 JUMPI PUSH1 0x0 DUP1 REVERT JUMPDEST POP PUSH2 0x4D2 PUSH1 0x4 DUP1 CALLDATASIZE SUB DUP2 ADD SWAP1 PUSH2 0x4CD SWAP2 SWAP1 PUSH2 0x504E JUMP JUMPDEST PUSH2 0x22D5 JUMP JUMPDEST STOP JUMPDEST CALLVALUE DUP1 ISZERO PUSH2 0x4E0 JUMPI PUSH1 0x0 DUP1 REVERT JUMPDEST POP PUSH2 0x4FB PUSH1 0x4 DUP1 CALLDATASIZE SUB DUP2 ADD SWAP1 PUSH2 0x4F6 SWAP2 SWAP1 PUSH2 0x508E JUMP JUMPDEST PUSH2 0x242A JUMP JUMPDEST PUSH1 0x40 MLOAD PUSH2 0x508 SWAP2 SWAP1 PUSH2 0x4970 JUMP JUMPDEST PUSH1 0x40 MLOAD DUP1 SWAP2 SUB SWAP1 RETURN JUMPDEST CALLVALUE DUP1 ISZERO PUSH2 0x51D JUMPI PUSH1 0x0 DUP1 REVERT JUMPDEST POP PUSH2 0x526 PUSH2 0x2AB8 JUMP JUMPDEST STOP JUMPDEST CALLVALUE DUP1 ISZERO PUSH2 0x534 JUMPI PUSH1 0x0 DUP1 REVERT JUMPDEST POP PUSH2 0x54F PUSH1 0x4 DUP1 CALLDATASIZE SUB DUP2 ADD SWAP1 PUSH2 0x54A SWAP2 SWAP1 PUSH2 0x50E1 JUMP JUMPDEST PUSH2 0x2BB3 JUMP JUMPDEST STOP JUMPDEST CALLVALUE DUP1 ISZERO PUSH2 0x55D JUMPI PUSH1 0x0 DUP1 REVERT JUMPDEST POP PUSH2 0x578 PUSH1 0x4 DUP1 CALLDATASIZE SUB DUP2 ADD SWAP1 PUSH2 0x573 SWAP2 SWAP1 PUSH2 0x4928 JUMP JUMPDEST PUSH2 0x2C39 JUMP JUMPDEST PUSH1 0x40 MLOAD PUSH2 0x585 SWAP2 SWAP1 PUSH2 0x4F11 JUMP JUMPDEST PUSH1 0x40 MLOAD DUP1 SWAP2 SUB SWAP1 RETURN JUMPDEST CALLVALUE DUP1 ISZERO PUSH2 0x59A JUMPI PUSH1 0x0 DUP1 REVERT JUMPDEST POP PUSH2 0x5A3 PUSH2 0x2C6C JUMP JUMPDEST PUSH1 0x40 MLOAD PUSH2 0x5B0 SWAP2 SWAP1 PUSH2 0x512F JUMP JUMPDEST PUSH1 0x40 MLOAD DUP1 SWAP2 SUB SWAP1 RETURN JUMPDEST PUSH1 0x8 PUSH1 0x20 MSTORE DUP1 PUSH1 0x0 MSTORE PUSH1 0x40 PUSH1 0x0 KECCAK256 PUSH1 0x0 SWAP2 POP SLOAD SWAP1 PUSH2 0x100 EXP SWAP1 DIV PUSH1 0xFF AND DUP2 JUMP JUMPDEST PUSH1 0x0 PUSH1 0x1 PUSH1 0x0 SWAP1 SLOAD SWAP1 PUSH2 0x100 EXP SWAP1 DIV PUSH20 0xFFFFFFFFFFFFFFFFFFFFFFFFFFFFFFFFFFFFFFFF AND SWAP1 POP DUP1 PUSH20 0xFFFFFFFFFFFFFFFFFFFFFFFFFFFFFFFFFFFFFFFF AND CALLER PUSH20 0xFFFFFFFFFFFFFFFFFFFFFFFFFFFFFFFFFFFFFFFF AND EQ PUSH2 0x672 JUMPI CALLER DUP2 PUSH1 0x40 MLOAD PUSH32 0x8BA9316E00000000000000000000000000000000000000000000000000000000 DUP2 MSTORE PUSH1 0x4 ADD PUSH2 0x669 SWAP3 SWAP2 SWAP1 PUSH2 0x514A JUMP JUMPDEST PUSH1 0x40 MLOAD DUP1 SWAP2 SUB SWAP1 REVERT JUMPDEST PUSH2 0x67C DUP4 DUP4 PUSH2 0x2C92 JUMP JUMPDEST POP POP POP JUMP JUMPDEST PUSH1 0x2 PUSH1 0x14 SWAP1 SLOAD SWAP1 PUSH2 0x100 EXP SWAP1 DIV PUSH1 0xFF AND DUP2 JUMP JUMPDEST PUSH2 0x69C PUSH2 0x2FB3 JUMP JUMPDEST DUP1 PUSH1 0x2 PUSH1 0x14 PUSH2 0x100 EXP DUP2 SLOAD DUP2 PUSH1 0xFF MUL NOT AND SWAP1 DUP4 PUSH1 0xFF AND MUL OR SWAP1 SSTORE POP PUSH32 0x8B3C6011CF1540F834B7142FF37E905118131EC885ED9C7D34FB314BA864F815 DUP2 PUSH1 0x40 MLOAD PUSH2 0x6E6 SWAP2 SWAP1 PUSH2 0x4B5C JUMP JUMPDEST PUSH1 0x40 MLOAD DUP1 SWAP2 SUB SWAP1 LOG1 POP JUMP JUMPDEST PUSH1 0x0 DUP1 PUSH2 0x7A4 DUP4 PUSH1 0x0 DUP2 MLOAD DUP2 LT PUSH2 0x70B JUMPI PUSH2 0x70A PUSH2 0x5173 JUMP JUMPDEST JUMPDEST PUSH1 0x20 MUL PUSH1 0x20 ADD ADD MLOAD DUP5 PUSH1 0x1 DUP2 MLOAD DUP2 LT PUSH2 0x727 JUMPI PUSH2 0x726 PUSH2 0x5173 JUMP JUMPDEST JUMPDEST PUSH1 0x20 MUL PUSH1 0x20 ADD ADD MLOAD DUP6 PUSH1 0x2 DUP2 MLOAD DUP2 LT PUSH2 0x743 JUMPI PUSH2 0x742 PUSH2 0x5173 JUMP JUMPDEST JUMPDEST PUSH1 0x20 MUL PUSH1 0x20 ADD ADD MLOAD DUP7 PUSH1 0x3 DUP2 MLOAD DUP2 LT PUSH2 0x75F JUMPI PUSH2 0x75E PUSH2 0x5173 JUMP JUMPDEST JUMPDEST PUSH1 0x20 MUL PUSH1 0x20 ADD ADD MLOAD DUP8 PUSH1 0x4 DUP2 MLOAD DUP2 LT PUSH2 0x77B JUMPI PUSH2 0x77A PUSH2 0x5173 JUMP JUMPDEST JUMPDEST PUSH1 0x20 MUL PUSH1 0x20 ADD ADD MLOAD DUP9 PUSH1 0x5 DUP2 MLOAD DUP2 LT PUSH2 0x797 JUMPI PUSH2 0x796 PUSH2 0x5173 JUMP JUMPDEST JUMPDEST PUSH1 0x20 MUL PUSH1 0x20 ADD ADD MLOAD PUSH2 0x303A JUMP JUMPDEST SWAP1 POP PUSH1 0x1 PUSH1 0x3 DUP3 PUSH1 0x0 PUSH1 0x6 DUP2 LT PUSH2 0x7BE JUMPI PUSH2 0x7BD PUSH2 0x5173 JUMP JUMPDEST JUMPDEST PUSH1 0x20 MUL ADD MLOAD PUSH2 0x7CD SWAP2 SWAP1 PUSH2 0x51D1 JUMP JUMPDEST PUSH1 0xFF AND EQ DUP1 ISZERO PUSH2 0x81E JUMPI POP PUSH1 0x1 DUP2 PUSH1 0x0 PUSH1 0x6 DUP2 LT PUSH2 0x7EE JUMPI PUSH2 0x7ED PUSH2 0x5173 JUMP JUMPDEST JUMPDEST PUSH1 0x20 MUL ADD MLOAD PUSH2 0x7FD SWAP2 SWAP1 PUSH2 0x5231 JUMP JUMPDEST PUSH1 0xFF AND DUP2 PUSH1 0x1 PUSH1 0x6 DUP2 LT PUSH2 0x814 JUMPI PUSH2 0x813 PUSH2 0x5173 JUMP JUMPDEST JUMPDEST PUSH1 0x20 MUL ADD MLOAD PUSH1 0xFF AND EQ JUMPDEST DUP1 ISZERO PUSH2 0x86B JUMPI POP PUSH1 0x2 DUP2 PUSH1 0x0 PUSH1 0x6 DUP2 LT PUSH2 0x83B JUMPI PUSH2 0x83A PUSH2 0x5173 JUMP JUMPDEST JUMPDEST PUSH1 0x20 MUL ADD MLOAD PUSH2 0x84A SWAP2 SWAP1 PUSH2 0x5231 JUMP JUMPDEST PUSH1 0xFF AND DUP2 PUSH1 0x2 PUSH1 0x6 DUP2 LT PUSH2 0x861 JUMPI PUSH2 0x860 PUSH2 0x5173 JUMP JUMPDEST JUMPDEST PUSH1 0x20 MUL ADD MLOAD PUSH1 0xFF AND EQ JUMPDEST DUP1 ISZERO PUSH2 0x8B8 JUMPI POP PUSH1 0x3 DUP2 PUSH1 0x0 PUSH1 0x6 DUP2 LT PUSH2 0x888 JUMPI PUSH2 0x887 PUSH2 0x5173 JUMP JUMPDEST JUMPDEST PUSH1 0x20 MUL ADD MLOAD PUSH2 0x897 SWAP2 SWAP1 PUSH2 0x5231 JUMP JUMPDEST PUSH1 0xFF AND DUP2 PUSH1 0x3 PUSH1 0x6 DUP2 LT PUSH2 0x8AE JUMPI PUSH2 0x8AD PUSH2 0x5173 JUMP JUMPDEST JUMPDEST PUSH1 0x20 MUL ADD MLOAD PUSH1 0xFF AND EQ JUMPDEST DUP1 ISZERO PUSH2 0x905 JUMPI POP PUSH1 0x4 DUP2 PUSH1 0x0 PUSH1 0x6 DUP2 LT PUSH2 0x8D5 JUMPI PUSH2 0x8D4 PUSH2 0x5173 JUMP JUMPDEST JUMPDEST PUSH1 0x20 MUL ADD MLOAD PUSH2 0x8E4 SWAP2 SWAP1 PUSH2 0x5231 JUMP JUMPDEST PUSH1 0xFF AND DUP2 PUSH1 0x4 PUSH1 0x6 DUP2 LT PUSH2 0x8FB JUMPI PUSH2 0x8FA PUSH2 0x5173 JUMP JUMPDEST JUMPDEST PUSH1 0x20 MUL ADD MLOAD PUSH1 0xFF AND EQ JUMPDEST DUP1 ISZERO PUSH2 0x952 JUMPI POP PUSH1 0x5 DUP2 PUSH1 0x0 PUSH1 0x6 DUP2 LT PUSH2 0x922 JUMPI PUSH2 0x921 PUSH2 0x5173 JUMP JUMPDEST JUMPDEST PUSH1 0x20 MUL ADD MLOAD PUSH2 0x931 SWAP2 SWAP1 PUSH2 0x5231 JUMP JUMPDEST PUSH1 0xFF AND DUP2 PUSH1 0x5 PUSH1 0x6 DUP2 LT PUSH2 0x948 JUMPI PUSH2 0x947 PUSH2 0x5173 JUMP JUMPDEST JUMPDEST PUSH1 0x20 MUL ADD MLOAD PUSH1 0xFF AND EQ JUMPDEST ISZERO PUSH2 0x961 JUMPI PUSH1 0x1 SWAP2 POP POP PUSH2 0x967 JUMP JUMPDEST PUSH1 0x0 SWAP2 POP POP JUMPDEST SWAP2 SWAP1 POP JUMP JUMPDEST PUSH1 0x0 PUSH1 0x1 DUP3 PUSH2 0x97B SWAP2 SWAP1 PUSH2 0x5266 JUMP JUMPDEST PUSH1 0xFF AND DUP4 PUSH1 0xFF AND EQ DUP1 ISZERO PUSH2 0x99F JUMPI POP PUSH1 0x0 PUSH1 0x3 DUP5 PUSH2 0x999 SWAP2 SWAP1 PUSH2 0x51D1 JUMP JUMPDEST PUSH1 0xFF AND EQ ISZERO JUMPDEST DUP1 PUSH2 0x9D7 JUMPI POP PUSH1 0x1 DUP4 PUSH2 0x9B2 SWAP2 SWAP1 PUSH2 0x5266 JUMP JUMPDEST PUSH1 0xFF AND DUP3 PUSH1 0xFF AND EQ DUP1 ISZERO PUSH2 0x9D6 JUMPI POP PUSH1 0x0 PUSH1 0x3 DUP4 PUSH2 0x9D0 SWAP2 SWAP1 PUSH2 0x51D1 JUMP JUMPDEST PUSH1 0xFF AND EQ ISZERO JUMPDEST JUMPDEST ISZERO PUSH2 0x9E5 JUMPI PUSH1 0x1 SWAP1 POP PUSH2 0xA29 JUMP JUMPDEST PUSH1 0x3 DUP3 PUSH2 0x9F2 SWAP2 SWAP1 PUSH2 0x5266 JUMP JUMPDEST PUSH1 0xFF AND DUP4 PUSH1 0xFF AND EQ DUP1 PUSH2 0xA16 JUMPI POP PUSH1 0x3 DUP4 PUSH2 0xA0D SWAP2 SWAP1 PUSH2 0x5266 JUMP JUMPDEST PUSH1 0xFF AND DUP3 PUSH1 0xFF AND EQ JUMPDEST ISZERO PUSH2 0xA24 JUMPI PUSH1 0x1 SWAP1 POP PUSH2 0xA29 JUMP JUMPDEST PUSH1 0x0 SWAP1 POP JUMPDEST SWAP3 SWAP2 POP POP JUMP JUMPDEST PUSH1 0x0 PUSH2 0xA39 PUSH2 0x31BB JUMP JUMPDEST SWAP1 POP PUSH1 0x0 DUP2 PUSH1 0x0 ADD PUSH1 0x8 SWAP1 SLOAD SWAP1 PUSH2 0x100 EXP SWAP1 DIV PUSH1 0xFF AND ISZERO SWAP1 POP PUSH1 0x0 DUP3 PUSH1 0x0 ADD PUSH1 0x0 SWAP1 SLOAD SWAP1 PUSH2 0x100 EXP SWAP1 DIV PUSH8 0xFFFFFFFFFFFFFFFF AND SWAP1 POP PUSH1 0x0 DUP1 DUP3 PUSH8 0xFFFFFFFFFFFFFFFF AND EQ DUP1 ISZERO PUSH2 0xA87 JUMPI POP DUP3 JUMPDEST SWAP1 POP PUSH1 0x0 PUSH1 0x1 DUP4 PUSH8 0xFFFFFFFFFFFFFFFF AND EQ DUP1 ISZERO PUSH2 0xABC JUMPI POP PUSH1 0x0 ADDRESS PUSH20 0xFFFFFFFFFFFFFFFFFFFFFFFFFFFFFFFFFFFFFFFF AND EXTCODESIZE EQ JUMPDEST SWAP1 POP DUP2 ISZERO DUP1 ISZERO PUSH2 0xACA JUMPI POP DUP1 ISZERO JUMPDEST ISZERO PUSH2 0xB01 JUMPI PUSH1 0x40 MLOAD PUSH32 0xF92EE8A900000000000000000000000000000000000000000000000000000000 DUP2 MSTORE PUSH1 0x4 ADD PUSH1 0x40 MLOAD DUP1 SWAP2 SUB SWAP1 REVERT JUMPDEST PUSH1 0x1 DUP6 PUSH1 0x0 ADD PUSH1 0x0 PUSH2 0x100 EXP DUP2 SLOAD DUP2 PUSH8 0xFFFFFFFFFFFFFFFF MUL NOT AND SWAP1 DUP4 PUSH8 0xFFFFFFFFFFFFFFFF AND MUL OR SWAP1 SSTORE POP DUP4 ISZERO PUSH2 0xB51 JUMPI PUSH1 0x1 DUP6 PUSH1 0x0 ADD PUSH1 0x8 PUSH2 0x100 EXP DUP2 SLOAD DUP2 PUSH1 0xFF MUL NOT AND SWAP1 DUP4 ISZERO ISZERO MUL OR SWAP1 SSTORE POP JUMPDEST PUSH2 0xB5B DUP8 DUP8 PUSH2 0x31E3 JUMP JUMPDEST DUP4 ISZERO PUSH2 0xBB7 JUMPI PUSH1 0x0 DUP6 PUSH1 0x0 ADD PUSH1 0x8 PUSH2 0x100 EXP DUP2 SLOAD DUP2 PUSH1 0xFF MUL NOT AND SWAP1 DUP4 ISZERO ISZERO MUL OR SWAP1 SSTORE POP PUSH32 0xC7F505B2F371AE2175EE4913F4499E1F2633A7B5936321EED1CDAEB6115181D2 PUSH1 0x1 PUSH1 0x40 MLOAD PUSH2 0xBAE SWAP2 SWAP1 PUSH2 0x52EA JUMP JUMPDEST PUSH1 0x40 MLOAD DUP1 SWAP2 SUB SWAP1 LOG1 JUMPDEST POP POP POP POP POP POP POP JUMP JUMPDEST PUSH1 0x9 SLOAD DUP2 JUMP JUMPDEST PUSH1 0x6 PUSH1 0x20 MSTORE DUP2 PUSH1 0x0 MSTORE PUSH1 0x40 PUSH1 0x0 KECCAK256 DUP2 DUP2 SLOAD DUP2 LT PUSH2 0xBE2 JUMPI PUSH1 0x0 DUP1 REVERT JUMPDEST SWAP1 PUSH1 0x0 MSTORE PUSH1 0x20 PUSH1 0x0 KECCAK256 SWAP1 PUSH1 0x3 MUL ADD PUSH1 0x0 SWAP2 POP SWAP2 POP POP DUP1 PUSH1 0x0 ADD SLOAD SWAP1 DUP1 PUSH1 0x2 ADD PUSH1 0x0 SWAP1 SLOAD SWAP1 PUSH2 0x100 EXP SWAP1 DIV PUSH1 0xFF AND SWAP1 POP DUP3 JUMP JUMPDEST PUSH2 0xC1C PUSH2 0x2FB3 JUMP JUMPDEST PUSH2 0xC26 PUSH1 0x0 PUSH2 0x3713 JUMP JUMPDEST JUMP JUMPDEST PUSH1 0x4 DUP2 PUSH1 0x12 DUP2 LT PUSH2 0xC38 JUMPI PUSH1 0x0 DUP1 REVERT JUMPDEST PUSH1 0x20 SWAP2 DUP3 DUP3 DIV ADD SWAP2 SWAP1 MOD SWAP2 POP SLOAD SWAP1 PUSH2 0x100 EXP SWAP1 DIV PUSH1 0xFF AND DUP2 JUMP JUMPDEST PUSH1 0x0 DUP1 PUSH2 0xCCD DUP4 PUSH1 0x0 DUP2 MLOAD DUP2 LT PUSH2 0xC6C JUMPI PUSH2 0xC6B PUSH2 0x5173 JUMP JUMPDEST JUMPDEST PUSH1 0x20 MUL PUSH1 0x20 ADD ADD MLOAD DUP5 PUSH1 0x1 DUP2 MLOAD DUP2 LT PUSH2 0xC88 JUMPI PUSH2 0xC87 PUSH2 0x5173 JUMP JUMPDEST JUMPDEST PUSH1 0x20 MUL PUSH1 0x20 ADD ADD MLOAD DUP6 PUSH1 0x2 DUP2 MLOAD DUP2 LT PUSH2 0xCA4 JUMPI PUSH2 0xCA3 PUSH2 0x5173 JUMP JUMPDEST JUMPDEST PUSH1 0x20 MUL PUSH1 0x20 ADD ADD MLOAD DUP7 PUSH1 0x3 DUP2 MLOAD DUP2 LT PUSH2 0xCC0 JUMPI PUSH2 0xCBF PUSH2 0x5173 JUMP JUMPDEST JUMPDEST PUSH1 0x20 MUL PUSH1 0x20 ADD ADD MLOAD PUSH2 0x37EA JUMP JUMPDEST SWAP1 POP PUSH1 0x1 DUP2 PUSH1 0x0 PUSH1 0x4 DUP2 LT PUSH2 0xCE5 JUMPI PUSH2 0xCE4 PUSH2 0x5173 JUMP JUMPDEST JUMPDEST PUSH1 0x20 MUL ADD MLOAD PUSH2 0xCF4 SWAP2 SWAP1 PUSH2 0x5231 JUMP JUMPDEST PUSH1 0xFF AND DUP2 PUSH1 0x1 PUSH1 0x4 DUP2 LT PUSH2 0xD0B JUMPI PUSH2 0xD0A PUSH2 0x5173 JUMP JUMPDEST JUMPDEST PUSH1 0x20 MUL ADD MLOAD PUSH1 0xFF AND EQ DUP1 ISZERO PUSH2 0xD61 JUMPI POP PUSH1 0x3 DUP2 PUSH1 0x0 PUSH1 0x4 DUP2 LT PUSH2 0xD31 JUMPI PUSH2 0xD30 PUSH2 0x5173 JUMP JUMPDEST JUMPDEST PUSH1 0x20 MUL ADD MLOAD PUSH2 0xD40 SWAP2 SWAP1 PUSH2 0x5231 JUMP JUMPDEST PUSH1 0xFF AND DUP2 PUSH1 0x2 PUSH1 0x4 DUP2 LT PUSH2 0xD57 JUMPI PUSH2 0xD56 PUSH2 0x5173 JUMP JUMPDEST JUMPDEST PUSH1 0x20 MUL ADD MLOAD PUSH1 0xFF AND EQ JUMPDEST DUP1 ISZERO PUSH2 0xDAE JUMPI POP PUSH1 0x4 DUP2 PUSH1 0x0 PUSH1 0x4 DUP2 LT PUSH2 0xD7E JUMPI PUSH2 0xD7D PUSH2 0x5173 JUMP JUMPDEST JUMPDEST PUSH1 0x20 MUL ADD MLOAD PUSH2 0xD8D SWAP2 SWAP1 PUSH2 0x5231 JUMP JUMPDEST PUSH1 0xFF AND DUP2 PUSH1 0x3 PUSH1 0x4 DUP2 LT PUSH2 0xDA4 JUMPI PUSH2 0xDA3 PUSH2 0x5173 JUMP JUMPDEST JUMPDEST PUSH1 0x20 MUL ADD MLOAD PUSH1 0xFF AND EQ JUMPDEST ISZERO PUSH2 0xDBD JUMPI PUSH1 0x1 SWAP2 POP POP PUSH2 0xDC3 JUMP JUMPDEST PUSH1 0x0 SWAP2 POP POP JUMPDEST SWAP2 SWAP1 POP JUMP JUMPDEST PUSH1 0x5 DUP2 PUSH1 0x12 DUP2 LT PUSH2 0xDD8 JUMPI PUSH1 0x0 DUP1 REVERT JUMPDEST PUSH1 0x20 SWAP2 DUP3 DUP3 DIV ADD SWAP2 SWAP1 MOD SWAP2 POP SLOAD SWAP1 PUSH2 0x100 EXP SWAP1 DIV PUSH1 0xFF AND DUP2 JUMP JUMPDEST PUSH1 0x3 DUP3 DUP2 SLOAD DUP2 LT PUSH2 0xE02 JUMPI PUSH1 0x0 DUP1 REVERT JUMPDEST SWAP1 PUSH1 0x0 MSTORE PUSH1 0x20 PUSH1 0x0 KECCAK256 ADD DUP2 PUSH1 0x3 DUP2 LT PUSH2 0xE1A JUMPI PUSH1 0x0 DUP1 REVERT JUMPDEST PUSH1 0x20 SWAP2 DUP3 DUP3 DIV ADD SWAP2 SWAP1 MOD SWAP2 POP SWAP2 POP SWAP1 SLOAD SWAP1 PUSH2 0x100 EXP SWAP1 DIV PUSH1 0xFF AND DUP2 JUMP JUMPDEST PUSH1 0x0 DUP1 PUSH2 0xE42 PUSH2 0x3951 JUMP JUMPDEST SWAP1 POP DUP1 PUSH1 0x0 ADD PUSH1 0x0 SWAP1 SLOAD SWAP1 PUSH2 0x100 EXP SWAP1 DIV PUSH20 0xFFFFFFFFFFFFFFFFFFFFFFFFFFFFFFFFFFFFFFFF AND SWAP2 POP POP SWAP1 JUMP JUMPDEST PUSH1 0x1 PUSH1 0x0 SWAP1 SLOAD SWAP1 PUSH2 0x100 EXP SWAP1 DIV PUSH20 0xFFFFFFFFFFFFFFFFFFFFFFFFFFFFFFFFFFFFFFFF AND DUP2 JUMP JUMPDEST PUSH1 0x0 DUP1 PUSH1 0x0 SWAP1 POP PUSH1 0x0 JUMPDEST DUP5 DUP5 SWAP1 POP DUP2 LT ISZERO PUSH2 0x1F5D JUMPI PUSH1 0x0 PUSH1 0x14 DUP2 GT ISZERO PUSH2 0xEBE JUMPI PUSH2 0xEBD PUSH2 0x4E62 JUMP JUMPDEST JUMPDEST DUP6 DUP6 DUP4 DUP2 DUP2 LT PUSH2 0xED1 JUMPI PUSH2 0xED0 PUSH2 0x5173 JUMP JUMPDEST JUMPDEST SWAP1 POP PUSH1 0x20 MUL DUP2 ADD SWAP1 PUSH2 0xEE3 SWAP2 SWAP1 PUSH2 0x5314 JUMP JUMPDEST PUSH1 0x40 ADD PUSH1 0x20 DUP2 ADD SWAP1 PUSH2 0xEF5 SWAP2 SWAP1 PUSH2 0x5361 JUMP JUMPDEST PUSH1 0x14 DUP2 GT ISZERO PUSH2 0xF07 JUMPI PUSH2 0xF06 PUSH2 0x4E62 JUMP JUMPDEST JUMPDEST EQ DUP1 PUSH2 0xF6D JUMPI POP PUSH1 0x1 PUSH1 0x14 DUP2 GT ISZERO PUSH2 0xF22 JUMPI PUSH2 0xF21 PUSH2 0x4E62 JUMP JUMPDEST JUMPDEST DUP6 DUP6 DUP4 DUP2 DUP2 LT PUSH2 0xF35 JUMPI PUSH2 0xF34 PUSH2 0x5173 JUMP JUMPDEST JUMPDEST SWAP1 POP PUSH1 0x20 MUL DUP2 ADD SWAP1 PUSH2 0xF47 SWAP2 SWAP1 PUSH2 0x5314 JUMP JUMPDEST PUSH1 0x40 ADD PUSH1 0x20 DUP2 ADD SWAP1 PUSH2 0xF59 SWAP2 SWAP1 PUSH2 0x5361 JUMP JUMPDEST PUSH1 0x14 DUP2 GT ISZERO PUSH2 0xF6B JUMPI PUSH2 0xF6A PUSH2 0x4E62 JUMP JUMPDEST JUMPDEST EQ JUMPDEST DUP1 PUSH2 0xFD2 JUMPI POP PUSH1 0x9 PUSH1 0x14 DUP2 GT ISZERO PUSH2 0xF87 JUMPI PUSH2 0xF86 PUSH2 0x4E62 JUMP JUMPDEST JUMPDEST DUP6 DUP6 DUP4 DUP2 DUP2 LT PUSH2 0xF9A JUMPI PUSH2 0xF99 PUSH2 0x5173 JUMP JUMPDEST JUMPDEST SWAP1 POP PUSH1 0x20 MUL DUP2 ADD SWAP1 PUSH2 0xFAC SWAP2 SWAP1 PUSH2 0x5314 JUMP JUMPDEST PUSH1 0x40 ADD PUSH1 0x20 DUP2 ADD SWAP1 PUSH2 0xFBE SWAP2 SWAP1 PUSH2 0x5361 JUMP JUMPDEST PUSH1 0x14 DUP2 GT ISZERO PUSH2 0xFD0 JUMPI PUSH2 0xFCF PUSH2 0x4E62 JUMP JUMPDEST JUMPDEST EQ JUMPDEST DUP1 PUSH2 0x1037 JUMPI POP PUSH1 0xA PUSH1 0x14 DUP2 GT ISZERO PUSH2 0xFEC JUMPI PUSH2 0xFEB PUSH2 0x4E62 JUMP JUMPDEST JUMPDEST DUP6 DUP6 DUP4 DUP2 DUP2 LT PUSH2 0xFFF JUMPI PUSH2 0xFFE PUSH2 0x5173 JUMP JUMPDEST JUMPDEST SWAP1 POP PUSH1 0x20 MUL DUP2 ADD SWAP1 PUSH2 0x1011 SWAP2 SWAP1 PUSH2 0x5314 JUMP JUMPDEST PUSH1 0x40 ADD PUSH1 0x20 DUP2 ADD SWAP1 PUSH2 0x1023 SWAP2 SWAP1 PUSH2 0x5361 JUMP JUMPDEST PUSH1 0x14 DUP2 GT ISZERO PUSH2 0x1035 JUMPI PUSH2 0x1034 PUSH2 0x4E62 JUMP JUMPDEST JUMPDEST EQ JUMPDEST DUP1 PUSH2 0x109C JUMPI POP PUSH1 0xB PUSH1 0x14 DUP2 GT ISZERO PUSH2 0x1051 JUMPI PUSH2 0x1050 PUSH2 0x4E62 JUMP JUMPDEST JUMPDEST DUP6 DUP6 DUP4 DUP2 DUP2 LT PUSH2 0x1064 JUMPI PUSH2 0x1063 PUSH2 0x5173 JUMP JUMPDEST JUMPDEST SWAP1 POP PUSH1 0x20 MUL DUP2 ADD SWAP1 PUSH2 0x1076 SWAP2 SWAP1 PUSH2 0x5314 JUMP JUMPDEST PUSH1 0x40 ADD PUSH1 0x20 DUP2 ADD SWAP1 PUSH2 0x1088 SWAP2 SWAP1 PUSH2 0x5361 JUMP JUMPDEST PUSH1 0x14 DUP2 GT ISZERO PUSH2 0x109A JUMPI PUSH2 0x1099 PUSH2 0x4E62 JUMP JUMPDEST JUMPDEST EQ JUMPDEST DUP1 PUSH2 0x1101 JUMPI POP PUSH1 0xC PUSH1 0x14 DUP2 GT ISZERO PUSH2 0x10B6 JUMPI PUSH2 0x10B5 PUSH2 0x4E62 JUMP JUMPDEST JUMPDEST DUP6 DUP6 DUP4 DUP2 DUP2 LT PUSH2 0x10C9 JUMPI PUSH2 0x10C8 PUSH2 0x5173 JUMP JUMPDEST JUMPDEST SWAP1 POP PUSH1 0x20 MUL DUP2 ADD SWAP1 PUSH2 0x10DB SWAP2 SWAP1 PUSH2 0x5314 JUMP JUMPDEST PUSH1 0x40 ADD PUSH1 0x20 DUP2 ADD SWAP1 PUSH2 0x10ED SWAP2 SWAP1 PUSH2 0x5361 JUMP JUMPDEST PUSH1 0x14 DUP2 GT ISZERO PUSH2 0x10FF JUMPI PUSH2 0x10FE PUSH2 0x4E62 JUMP JUMPDEST JUMPDEST EQ JUMPDEST DUP1 PUSH2 0x1166 JUMPI POP PUSH1 0xD PUSH1 0x14 DUP2 GT ISZERO PUSH2 0x111B JUMPI PUSH2 0x111A PUSH2 0x4E62 JUMP JUMPDEST JUMPDEST DUP6 DUP6 DUP4 DUP2 DUP2 LT PUSH2 0x112E JUMPI PUSH2 0x112D PUSH2 0x5173 JUMP JUMPDEST JUMPDEST SWAP1 POP PUSH1 0x20 MUL DUP2 ADD SWAP1 PUSH2 0x1140 SWAP2 SWAP1 PUSH2 0x5314 JUMP JUMPDEST PUSH1 0x40 ADD PUSH1 0x20 DUP2 ADD SWAP1 PUSH2 0x1152 SWAP2 SWAP1 PUSH2 0x5361 JUMP JUMPDEST PUSH1 0x14 DUP2 GT ISZERO PUSH2 0x1164 JUMPI PUSH2 0x1163 PUSH2 0x4E62 JUMP JUMPDEST JUMPDEST EQ JUMPDEST DUP1 PUSH2 0x11CB JUMPI POP PUSH1 0xE PUSH1 0x14 DUP2 GT ISZERO PUSH2 0x1180 JUMPI PUSH2 0x117F PUSH2 0x4E62 JUMP JUMPDEST JUMPDEST DUP6 DUP6 DUP4 DUP2 DUP2 LT PUSH2 0x1193 JUMPI PUSH2 0x1192 PUSH2 0x5173 JUMP JUMPDEST JUMPDEST SWAP1 POP PUSH1 0x20 MUL DUP2 ADD SWAP1 PUSH2 0x11A5 SWAP2 SWAP1 PUSH2 0x5314 JUMP JUMPDEST PUSH1 0x40 ADD PUSH1 0x20 DUP2 ADD SWAP1 PUSH2 0x11B7 SWAP2 SWAP1 PUSH2 0x5361 JUMP JUMPDEST PUSH1 0x14 DUP2 GT ISZERO PUSH2 0x11C9 JUMPI PUSH2 0x11C8 PUSH2 0x4E62 JUMP JUMPDEST JUMPDEST EQ JUMPDEST DUP1 PUSH2 0x1230 JUMPI POP PUSH1 0xF PUSH1 0x14 DUP2 GT ISZERO PUSH2 0x11E5 JUMPI PUSH2 0x11E4 PUSH2 0x4E62 JUMP JUMPDEST JUMPDEST DUP6 DUP6 DUP4 DUP2 DUP2 LT PUSH2 0x11F8 JUMPI PUSH2 0x11F7 PUSH2 0x5173 JUMP JUMPDEST JUMPDEST SWAP1 POP PUSH1 0x20 MUL DUP2 ADD SWAP1 PUSH2 0x120A SWAP2 SWAP1 PUSH2 0x5314 JUMP JUMPDEST PUSH1 0x40 ADD PUSH1 0x20 DUP2 ADD SWAP1 PUSH2 0x121C SWAP2 SWAP1 PUSH2 0x5361 JUMP JUMPDEST PUSH1 0x14 DUP2 GT ISZERO PUSH2 0x122E JUMPI PUSH2 0x122D PUSH2 0x4E62 JUMP JUMPDEST JUMPDEST EQ JUMPDEST DUP1 PUSH2 0x1295 JUMPI POP PUSH1 0x10 PUSH1 0x14 DUP2 GT ISZERO PUSH2 0x124A JUMPI PUSH2 0x1249 PUSH2 0x4E62 JUMP JUMPDEST JUMPDEST DUP6 DUP6 DUP4 DUP2 DUP2 LT PUSH2 0x125D JUMPI PUSH2 0x125C PUSH2 0x5173 JUMP JUMPDEST JUMPDEST SWAP1 POP PUSH1 0x20 MUL DUP2 ADD SWAP1 PUSH2 0x126F SWAP2 SWAP1 PUSH2 0x5314 JUMP JUMPDEST PUSH1 0x40 ADD PUSH1 0x20 DUP2 ADD SWAP1 PUSH2 0x1281 SWAP2 SWAP1 PUSH2 0x5361 JUMP JUMPDEST PUSH1 0x14 DUP2 GT ISZERO PUSH2 0x1293 JUMPI PUSH2 0x1292 PUSH2 0x4E62 JUMP JUMPDEST JUMPDEST EQ JUMPDEST DUP1 PUSH2 0x12FA JUMPI POP PUSH1 0x11 PUSH1 0x14 DUP2 GT ISZERO PUSH2 0x12AF JUMPI PUSH2 0x12AE PUSH2 0x4E62 JUMP JUMPDEST JUMPDEST DUP6 DUP6 DUP4 DUP2 DUP2 LT PUSH2 0x12C2 JUMPI PUSH2 0x12C1 PUSH2 0x5173 JUMP JUMPDEST JUMPDEST SWAP1 POP PUSH1 0x20 MUL DUP2 ADD SWAP1 PUSH2 0x12D4 SWAP2 SWAP1 PUSH2 0x5314 JUMP JUMPDEST PUSH1 0x40 ADD PUSH1 0x20 DUP2 ADD SWAP1 PUSH2 0x12E6 SWAP2 SWAP1 PUSH2 0x5361 JUMP JUMPDEST PUSH1 0x14 DUP2 GT ISZERO PUSH2 0x12F8 JUMPI PUSH2 0x12F7 PUSH2 0x4E62 JUMP JUMPDEST JUMPDEST EQ JUMPDEST DUP1 PUSH2 0x135F JUMPI POP PUSH1 0x12 PUSH1 0x14 DUP2 GT ISZERO PUSH2 0x1314 JUMPI PUSH2 0x1313 PUSH2 0x4E62 JUMP JUMPDEST JUMPDEST DUP6 DUP6 DUP4 DUP2 DUP2 LT PUSH2 0x1327 JUMPI PUSH2 0x1326 PUSH2 0x5173 JUMP JUMPDEST JUMPDEST SWAP1 POP PUSH1 0x20 MUL DUP2 ADD SWAP1 PUSH2 0x1339 SWAP2 SWAP1 PUSH2 0x5314 JUMP JUMPDEST PUSH1 0x40 ADD PUSH1 0x20 DUP2 ADD SWAP1 PUSH2 0x134B SWAP2 SWAP1 PUSH2 0x5361 JUMP JUMPDEST PUSH1 0x14 DUP2 GT ISZERO PUSH2 0x135D JUMPI PUSH2 0x135C PUSH2 0x4E62 JUMP JUMPDEST JUMPDEST EQ JUMPDEST DUP1 PUSH2 0x13C4 JUMPI POP PUSH1 0x13 PUSH1 0x14 DUP2 GT ISZERO PUSH2 0x1379 JUMPI PUSH2 0x1378 PUSH2 0x4E62 JUMP JUMPDEST JUMPDEST DUP6 DUP6 DUP4 DUP2 DUP2 LT PUSH2 0x138C JUMPI PUSH2 0x138B PUSH2 0x5173 JUMP JUMPDEST JUMPDEST SWAP1 POP PUSH1 0x20 MUL DUP2 ADD SWAP1 PUSH2 0x139E SWAP2 SWAP1 PUSH2 0x5314 JUMP JUMPDEST PUSH1 0x40 ADD PUSH1 0x20 DUP2 ADD SWAP1 PUSH2 0x13B0 SWAP2 SWAP1 PUSH2 0x5361 JUMP JUMPDEST PUSH1 0x14 DUP2 GT ISZERO PUSH2 0x13C2 JUMPI PUSH2 0x13C1 PUSH2 0x4E62 JUMP JUMPDEST JUMPDEST EQ JUMPDEST DUP1 PUSH2 0x1428 JUMPI POP PUSH1 0x14 DUP1 DUP2 GT ISZERO PUSH2 0x13DD JUMPI PUSH2 0x13DC PUSH2 0x4E62 JUMP JUMPDEST JUMPDEST DUP6 DUP6 DUP4 DUP2 DUP2 LT PUSH2 0x13F0 JUMPI PUSH2 0x13EF PUSH2 0x5173 JUMP JUMPDEST JUMPDEST SWAP1 POP PUSH1 0x20 MUL DUP2 ADD SWAP1 PUSH2 0x1402 SWAP2 SWAP1 PUSH2 0x5314 JUMP JUMPDEST PUSH1 0x40 ADD PUSH1 0x20 DUP2 ADD SWAP1 PUSH2 0x1414 SWAP2 SWAP1 PUSH2 0x5361 JUMP JUMPDEST PUSH1 0x14 DUP2 GT ISZERO PUSH2 0x1426 JUMPI PUSH2 0x1425 PUSH2 0x4E62 JUMP JUMPDEST JUMPDEST EQ JUMPDEST ISZERO PUSH2 0x14A6 JUMPI PUSH1 0x0 DUP6 DUP6 DUP4 DUP2 DUP2 LT PUSH2 0x1442 JUMPI PUSH2 0x1441 PUSH2 0x5173 JUMP JUMPDEST JUMPDEST SWAP1 POP PUSH1 0x20 MUL DUP2 ADD SWAP1 PUSH2 0x1454 SWAP2 SWAP1 PUSH2 0x5314 JUMP JUMPDEST DUP1 PUSH1 0x20 ADD SWAP1 PUSH2 0x1463 SWAP2 SWAP1 PUSH2 0x538E JUMP JUMPDEST SWAP1 POP EQ PUSH2 0x14A5 JUMPI PUSH1 0x40 MLOAD PUSH32 0x8C379A000000000000000000000000000000000000000000000000000000000 DUP2 MSTORE PUSH1 0x4 ADD PUSH2 0x149C SWAP1 PUSH2 0x5474 JUMP JUMPDEST PUSH1 0x40 MLOAD DUP1 SWAP2 SUB SWAP1 REVERT JUMPDEST JUMPDEST PUSH1 0x2 PUSH1 0x14 DUP2 GT ISZERO PUSH2 0x14BA JUMPI PUSH2 0x14B9 PUSH2 0x4E62 JUMP JUMPDEST JUMPDEST DUP6 DUP6 DUP4 DUP2 DUP2 LT PUSH2 0x14CD JUMPI PUSH2 0x14CC PUSH2 0x5173 JUMP JUMPDEST JUMPDEST SWAP1 POP PUSH1 0x20 MUL DUP2 ADD SWAP1 PUSH2 0x14DF SWAP2 SWAP1 PUSH2 0x5314 JUMP JUMPDEST PUSH1 0x40 ADD PUSH1 0x20 DUP2 ADD SWAP1 PUSH2 0x14F1 SWAP2 SWAP1 PUSH2 0x5361 JUMP JUMPDEST PUSH1 0x14 DUP2 GT ISZERO PUSH2 0x1503 JUMPI PUSH2 0x1502 PUSH2 0x4E62 JUMP JUMPDEST JUMPDEST SUB PUSH2 0x16E0 JUMPI PUSH1 0x3 DUP6 DUP6 DUP4 DUP2 DUP2 LT PUSH2 0x151D JUMPI PUSH2 0x151C PUSH2 0x5173 JUMP JUMPDEST JUMPDEST SWAP1 POP PUSH1 0x20 MUL DUP2 ADD SWAP1 PUSH2 0x152F SWAP2 SWAP1 PUSH2 0x5314 JUMP JUMPDEST DUP1 PUSH1 0x20 ADD SWAP1 PUSH2 0x153E SWAP2 SWAP1 PUSH2 0x538E JUMP JUMPDEST SWAP1 POP EQ PUSH2 0x1580 JUMPI PUSH1 0x40 MLOAD PUSH32 0x8C379A000000000000000000000000000000000000000000000000000000000 DUP2 MSTORE PUSH1 0x4 ADD PUSH2 0x1577 SWAP1 PUSH2 0x54E0 JUMP JUMPDEST PUSH1 0x40 MLOAD DUP1 SWAP2 SUB SWAP1 REVERT JUMPDEST PUSH1 0x1 ISZERO ISZERO PUSH2 0x169D DUP7 DUP7 DUP5 DUP2 DUP2 LT PUSH2 0x159A JUMPI PUSH2 0x1599 PUSH2 0x5173 JUMP JUMPDEST JUMPDEST SWAP1 POP PUSH1 0x20 MUL DUP2 ADD SWAP1 PUSH2 0x15AC SWAP2 SWAP1 PUSH2 0x5314 JUMP JUMPDEST DUP1 PUSH1 0x20 ADD SWAP1 PUSH2 0x15BB SWAP2 SWAP1 PUSH2 0x538E JUMP JUMPDEST PUSH1 0x0 DUP2 DUP2 LT PUSH2 0x15CD JUMPI PUSH2 0x15CC PUSH2 0x5173 JUMP JUMPDEST JUMPDEST SWAP1 POP PUSH1 0x20 MUL ADD PUSH1 0x20 DUP2 ADD SWAP1 PUSH2 0x15E2 SWAP2 SWAP1 PUSH2 0x4BA3 JUMP JUMPDEST DUP8 DUP8 DUP6 DUP2 DUP2 LT PUSH2 0x15F5 JUMPI PUSH2 0x15F4 PUSH2 0x5173 JUMP JUMPDEST JUMPDEST SWAP1 POP PUSH1 0x20 MUL DUP2 ADD SWAP1 PUSH2 0x1607 SWAP2 SWAP1 PUSH2 0x5314 JUMP JUMPDEST DUP1 PUSH1 0x20 ADD SWAP1 PUSH2 0x1616 SWAP2 SWAP1 PUSH2 0x538E JUMP JUMPDEST PUSH1 0x1 DUP2 DUP2 LT PUSH2 0x1628 JUMPI PUSH2 0x1627 PUSH2 0x5173 JUMP JUMPDEST JUMPDEST SWAP1 POP PUSH1 0x20 MUL ADD PUSH1 0x20 DUP2 ADD SWAP1 PUSH2 0x163D SWAP2 SWAP1 PUSH2 0x4BA3 JUMP JUMPDEST DUP9 DUP9 DUP7 DUP2 DUP2 LT PUSH2 0x1650 JUMPI PUSH2 0x164F PUSH2 0x5173 JUMP JUMPDEST JUMPDEST SWAP1 POP PUSH1 0x20 MUL DUP2 ADD SWAP1 PUSH2 0x1662 SWAP2 SWAP1 PUSH2 0x5314 JUMP JUMPDEST DUP1 PUSH1 0x20 ADD SWAP1 PUSH2 0x1671 SWAP2 SWAP1 PUSH2 0x538E JUMP JUMPDEST PUSH1 0x2 DUP2 DUP2 LT PUSH2 0x1683 JUMPI PUSH2 0x1682 PUSH2 0x5173 JUMP JUMPDEST JUMPDEST SWAP1 POP PUSH1 0x20 MUL ADD PUSH1 0x20 DUP2 ADD SWAP1 PUSH2 0x1698 SWAP2 SWAP1 PUSH2 0x4BA3 JUMP JUMPDEST PUSH2 0x242A JUMP JUMPDEST ISZERO ISZERO EQ PUSH2 0x16DF JUMPI PUSH1 0x40 MLOAD PUSH32 0x8C379A000000000000000000000000000000000000000000000000000000000 DUP2 MSTORE PUSH1 0x4 ADD PUSH2 0x16D6 SWAP1 PUSH2 0x554C JUMP JUMPDEST PUSH1 0x40 MLOAD DUP1 SWAP2 SUB SWAP1 REVERT JUMPDEST JUMPDEST PUSH1 0x3 PUSH1 0x14 DUP2 GT ISZERO PUSH2 0x16F4 JUMPI PUSH2 0x16F3 PUSH2 0x4E62 JUMP JUMPDEST JUMPDEST DUP6 DUP6 DUP4 DUP2 DUP2 LT PUSH2 0x1707 JUMPI PUSH2 0x1706 PUSH2 0x5173 JUMP JUMPDEST JUMPDEST SWAP1 POP PUSH1 0x20 MUL DUP2 ADD SWAP1 PUSH2 0x1719 SWAP2 SWAP1 PUSH2 0x5314 JUMP JUMPDEST PUSH1 0x40 ADD PUSH1 0x20 DUP2 ADD SWAP1 PUSH2 0x172B SWAP2 SWAP1 PUSH2 0x5361 JUMP JUMPDEST PUSH1 0x14 DUP2 GT ISZERO PUSH2 0x173D JUMPI PUSH2 0x173C PUSH2 0x4E62 JUMP JUMPDEST JUMPDEST SUB PUSH2 0x1803 JUMPI PUSH1 0xC DUP6 DUP6 DUP4 DUP2 DUP2 LT PUSH2 0x1757 JUMPI PUSH2 0x1756 PUSH2 0x5173 JUMP JUMPDEST JUMPDEST SWAP1 POP PUSH1 0x20 MUL DUP2 ADD SWAP1 PUSH2 0x1769 SWAP2 SWAP1 PUSH2 0x5314 JUMP JUMPDEST DUP1 PUSH1 0x20 ADD SWAP1 PUSH2 0x1778 SWAP2 SWAP1 PUSH2 0x538E JUMP JUMPDEST SWAP1 POP EQ PUSH2 0x17BA JUMPI PUSH1 0x40 MLOAD PUSH32 0x8C379A000000000000000000000000000000000000000000000000000000000 DUP2 MSTORE PUSH1 0x4 ADD PUSH2 0x17B1 SWAP1 PUSH2 0x54E0 JUMP JUMPDEST PUSH1 0x40 MLOAD DUP1 SWAP2 SUB SWAP1 REVERT JUMPDEST PUSH1 0x0 ISZERO ISZERO PUSH1 0x1 ISZERO ISZERO EQ PUSH2 0x1802 JUMPI PUSH1 0x40 MLOAD PUSH32 0x8C379A000000000000000000000000000000000000000000000000000000000 DUP2 MSTORE PUSH1 0x4 ADD PUSH2 0x17F9 SWAP1 PUSH2 0x55B8 JUMP JUMPDEST PUSH1 0x40 MLOAD DUP1 SWAP2 SUB SWAP1 REVERT JUMPDEST JUMPDEST PUSH1 0x4 PUSH1 0x14 DUP2 GT ISZERO PUSH2 0x1817 JUMPI PUSH2 0x1816 PUSH2 0x4E62 JUMP JUMPDEST JUMPDEST DUP6 DUP6 DUP4 DUP2 DUP2 LT PUSH2 0x182A JUMPI PUSH2 0x1829 PUSH2 0x5173 JUMP JUMPDEST JUMPDEST SWAP1 POP PUSH1 0x20 MUL DUP2 ADD SWAP1 PUSH2 0x183C SWAP2 SWAP1 PUSH2 0x5314 JUMP JUMPDEST PUSH1 0x40 ADD PUSH1 0x20 DUP2 ADD SWAP1 PUSH2 0x184E SWAP2 SWAP1 PUSH2 0x5361 JUMP JUMPDEST PUSH1 0x14 DUP2 GT ISZERO PUSH2 0x1860 JUMPI PUSH2 0x185F PUSH2 0x4E62 JUMP JUMPDEST JUMPDEST SUB PUSH2 0x1926 JUMPI PUSH1 0x5 DUP6 DUP6 DUP4 DUP2 DUP2 LT PUSH2 0x187A JUMPI PUSH2 0x1879 PUSH2 0x5173 JUMP JUMPDEST JUMPDEST SWAP1 POP PUSH1 0x20 MUL DUP2 ADD SWAP1 PUSH2 0x188C SWAP2 SWAP1 PUSH2 0x5314 JUMP JUMPDEST DUP1 PUSH1 0x20 ADD SWAP1 PUSH2 0x189B SWAP2 SWAP1 PUSH2 0x538E JUMP JUMPDEST SWAP1 POP EQ PUSH2 0x18DD JUMPI PUSH1 0x40 MLOAD PUSH32 0x8C379A000000000000000000000000000000000000000000000000000000000 DUP2 MSTORE PUSH1 0x4 ADD PUSH2 0x18D4 SWAP1 PUSH2 0x54E0 JUMP JUMPDEST PUSH1 0x40 MLOAD DUP1 SWAP2 SUB SWAP1 REVERT JUMPDEST PUSH1 0x0 ISZERO ISZERO PUSH1 0x1 ISZERO ISZERO EQ PUSH2 0x1925 JUMPI PUSH1 0x40 MLOAD PUSH32 0x8C379A000000000000000000000000000000000000000000000000000000000 DUP2 MSTORE PUSH1 0x4 ADD PUSH2 0x191C SWAP1 PUSH2 0x55B8 JUMP JUMPDEST PUSH1 0x40 MLOAD DUP1 SWAP2 SUB SWAP1 REVERT JUMPDEST JUMPDEST PUSH1 0x5 PUSH1 0x14 DUP2 GT ISZERO PUSH2 0x193A JUMPI PUSH2 0x1939 PUSH2 0x4E62 JUMP JUMPDEST JUMPDEST DUP6 DUP6 DUP4 DUP2 DUP2 LT PUSH2 0x194D JUMPI PUSH2 0x194C PUSH2 0x5173 JUMP JUMPDEST JUMPDEST SWAP1 POP PUSH1 0x20 MUL DUP2 ADD SWAP1 PUSH2 0x195F SWAP2 SWAP1 PUSH2 0x5314 JUMP JUMPDEST PUSH1 0x40 ADD PUSH1 0x20 DUP2 ADD SWAP1 PUSH2 0x1971 SWAP2 SWAP1 PUSH2 0x5361 JUMP JUMPDEST PUSH1 0x14 DUP2 GT ISZERO PUSH2 0x1983 JUMPI PUSH2 0x1982 PUSH2 0x4E62 JUMP JUMPDEST JUMPDEST SUB PUSH2 0x1B05 JUMPI PUSH1 0x2 DUP6 DUP6 DUP4 DUP2 DUP2 LT PUSH2 0x199D JUMPI PUSH2 0x199C PUSH2 0x5173 JUMP JUMPDEST JUMPDEST SWAP1 POP PUSH1 0x20 MUL DUP2 ADD SWAP1 PUSH2 0x19AF SWAP2 SWAP1 PUSH2 0x5314 JUMP JUMPDEST DUP1 PUSH1 0x20 ADD SWAP1 PUSH2 0x19BE SWAP2 SWAP1 PUSH2 0x538E JUMP JUMPDEST SWAP1 POP EQ PUSH2 0x1A00 JUMPI PUSH1 0x40 MLOAD PUSH32 0x8C379A000000000000000000000000000000000000000000000000000000000 DUP2 MSTORE PUSH1 0x4 ADD PUSH2 0x19F7 SWAP1 PUSH2 0x54E0 JUMP JUMPDEST PUSH1 0x40 MLOAD DUP1 SWAP2 SUB SWAP1 REVERT JUMPDEST PUSH1 0x1 ISZERO ISZERO PUSH2 0x1AC2 DUP7 DUP7 DUP5 DUP2 DUP2 LT PUSH2 0x1A1A JUMPI PUSH2 0x1A19 PUSH2 0x5173 JUMP JUMPDEST JUMPDEST SWAP1 POP PUSH1 0x20 MUL DUP2 ADD SWAP1 PUSH2 0x1A2C SWAP2 SWAP1 PUSH2 0x5314 JUMP JUMPDEST DUP1 PUSH1 0x20 ADD SWAP1 PUSH2 0x1A3B SWAP2 SWAP1 PUSH2 0x538E JUMP JUMPDEST PUSH1 0x0 DUP2 DUP2 LT PUSH2 0x1A4D JUMPI PUSH2 0x1A4C PUSH2 0x5173 JUMP JUMPDEST JUMPDEST SWAP1 POP PUSH1 0x20 MUL ADD PUSH1 0x20 DUP2 ADD SWAP1 PUSH2 0x1A62 SWAP2 SWAP1 PUSH2 0x4BA3 JUMP JUMPDEST DUP8 DUP8 DUP6 DUP2 DUP2 LT PUSH2 0x1A75 JUMPI PUSH2 0x1A74 PUSH2 0x5173 JUMP JUMPDEST JUMPDEST SWAP1 POP PUSH1 0x20 MUL DUP2 ADD SWAP1 PUSH2 0x1A87 SWAP2 SWAP1 PUSH2 0x5314 JUMP JUMPDEST DUP1 PUSH1 0x20 ADD SWAP1 PUSH2 0x1A96 SWAP2 SWAP1 PUSH2 0x538E JUMP JUMPDEST PUSH1 0x1 DUP2 DUP2 LT PUSH2 0x1AA8 JUMPI PUSH2 0x1AA7 PUSH2 0x5173 JUMP JUMPDEST JUMPDEST SWAP1 POP PUSH1 0x20 MUL ADD PUSH1 0x20 DUP2 ADD SWAP1 PUSH2 0x1ABD SWAP2 SWAP1 PUSH2 0x4BA3 JUMP JUMPDEST PUSH2 0x96C JUMP JUMPDEST ISZERO ISZERO EQ PUSH2 0x1B04 JUMPI PUSH1 0x40 MLOAD PUSH32 0x8C379A000000000000000000000000000000000000000000000000000000000 DUP2 MSTORE PUSH1 0x4 ADD PUSH2 0x1AFB SWAP1 PUSH2 0x554C JUMP JUMPDEST PUSH1 0x40 MLOAD DUP1 SWAP2 SUB SWAP1 REVERT JUMPDEST JUMPDEST PUSH1 0x6 PUSH1 0x14 DUP2 GT ISZERO PUSH2 0x1B19 JUMPI PUSH2 0x1B18 PUSH2 0x4E62 JUMP JUMPDEST JUMPDEST DUP6 DUP6 DUP4 DUP2 DUP2 LT PUSH2 0x1B2C JUMPI PUSH2 0x1B2B PUSH2 0x5173 JUMP JUMPDEST JUMPDEST SWAP1 POP PUSH1 0x20 MUL DUP2 ADD SWAP1 PUSH2 0x1B3E SWAP2 SWAP1 PUSH2 0x5314 JUMP JUMPDEST PUSH1 0x40 ADD PUSH1 0x20 DUP2 ADD SWAP1 PUSH2 0x1B50 SWAP2 SWAP1 PUSH2 0x5361 JUMP JUMPDEST PUSH1 0x14 DUP2 GT ISZERO PUSH2 0x1B62 JUMPI PUSH2 0x1B61 PUSH2 0x4E62 JUMP JUMPDEST JUMPDEST SUB PUSH2 0x1CA2 JUMPI PUSH1 0x4 DUP6 DUP6 DUP4 DUP2 DUP2 LT PUSH2 0x1B7C JUMPI PUSH2 0x1B7B PUSH2 0x5173 JUMP JUMPDEST JUMPDEST SWAP1 POP PUSH1 0x20 MUL DUP2 ADD SWAP1 PUSH2 0x1B8E SWAP2 SWAP1 PUSH2 0x5314 JUMP JUMPDEST DUP1 PUSH1 0x20 ADD SWAP1 PUSH2 0x1B9D SWAP2 SWAP1 PUSH2 0x538E JUMP JUMPDEST SWAP1 POP EQ PUSH2 0x1BDF JUMPI PUSH1 0x40 MLOAD PUSH32 0x8C379A000000000000000000000000000000000000000000000000000000000 DUP2 MSTORE PUSH1 0x4 ADD PUSH2 0x1BD6 SWAP1 PUSH2 0x54E0 JUMP JUMPDEST PUSH1 0x40 MLOAD DUP1 SWAP2 SUB SWAP1 REVERT JUMPDEST PUSH1 0x1 ISZERO ISZERO PUSH2 0x1C5F DUP7 DUP7 DUP5 DUP2 DUP2 LT PUSH2 0x1BF9 JUMPI PUSH2 0x1BF8 PUSH2 0x5173 JUMP JUMPDEST JUMPDEST SWAP1 POP PUSH1 0x20 MUL DUP2 ADD SWAP1 PUSH2 0x1C0B SWAP2 SWAP1 PUSH2 0x5314 JUMP JUMPDEST DUP1 PUSH1 0x20 ADD SWAP1 PUSH2 0x1C1A SWAP2 SWAP1 PUSH2 0x538E JUMP JUMPDEST DUP1 DUP1 PUSH1 0x20 MUL PUSH1 0x20 ADD PUSH1 0x40 MLOAD SWAP1 DUP2 ADD PUSH1 0x40 MSTORE DUP1 SWAP4 SWAP3 SWAP2 SWAP1 DUP2 DUP2 MSTORE PUSH1 0x20 ADD DUP4 DUP4 PUSH1 0x20 MUL DUP1 DUP3 DUP5 CALLDATACOPY PUSH1 0x0 DUP2 DUP5 ADD MSTORE PUSH1 0x1F NOT PUSH1 0x1F DUP3 ADD AND SWAP1 POP DUP1 DUP4 ADD SWAP3 POP POP POP POP POP POP POP PUSH2 0xC52 JUMP JUMPDEST ISZERO ISZERO EQ PUSH2 0x1CA1 JUMPI PUSH1 0x40 MLOAD PUSH32 0x8C379A000000000000000000000000000000000000000000000000000000000 DUP2 MSTORE PUSH1 0x4 ADD PUSH2 0x1C98 SWAP1 PUSH2 0x554C JUMP JUMPDEST PUSH1 0x40 MLOAD DUP1 SWAP2 SUB SWAP1 REVERT JUMPDEST JUMPDEST PUSH1 0x7 PUSH1 0x14 DUP2 GT ISZERO PUSH2 0x1CB6 JUMPI PUSH2 0x1CB5 PUSH2 0x4E62 JUMP JUMPDEST JUMPDEST DUP6 DUP6 DUP4 DUP2 DUP2 LT PUSH2 0x1CC9 JUMPI PUSH2 0x1CC8 PUSH2 0x5173 JUMP JUMPDEST JUMPDEST SWAP1 POP PUSH1 0x20 MUL DUP2 ADD SWAP1 PUSH2 0x1CDB SWAP2 SWAP1 PUSH2 0x5314 JUMP JUMPDEST PUSH1 0x40 ADD PUSH1 0x20 DUP2 ADD SWAP1 PUSH2 0x1CED SWAP2 SWAP1 PUSH2 0x5361 JUMP JUMPDEST PUSH1 0x14 DUP2 GT ISZERO PUSH2 0x1CFF JUMPI PUSH2 0x1CFE PUSH2 0x4E62 JUMP JUMPDEST JUMPDEST SUB PUSH2 0x1E3F JUMPI PUSH1 0x6 DUP6 DUP6 DUP4 DUP2 DUP2 LT PUSH2 0x1D19 JUMPI PUSH2 0x1D18 PUSH2 0x5173 JUMP JUMPDEST JUMPDEST SWAP1 POP PUSH1 0x20 MUL DUP2 ADD SWAP1 PUSH2 0x1D2B SWAP2 SWAP1 PUSH2 0x5314 JUMP JUMPDEST DUP1 PUSH1 0x20 ADD SWAP1 PUSH2 0x1D3A SWAP2 SWAP1 PUSH2 0x538E JUMP JUMPDEST SWAP1 POP EQ PUSH2 0x1D7C JUMPI PUSH1 0x40 MLOAD PUSH32 0x8C379A000000000000000000000000000000000000000000000000000000000 DUP2 MSTORE PUSH1 0x4 ADD PUSH2 0x1D73 SWAP1 PUSH2 0x54E0 JUMP JUMPDEST PUSH1 0x40 MLOAD DUP1 SWAP2 SUB SWAP1 REVERT JUMPDEST PUSH1 0x1 ISZERO ISZERO PUSH2 0x1DFC DUP7 DUP7 DUP5 DUP2 DUP2 LT PUSH2 0x1D96 JUMPI PUSH2 0x1D95 PUSH2 0x5173 JUMP JUMPDEST JUMPDEST SWAP1 POP PUSH1 0x20 MUL DUP2 ADD SWAP1 PUSH2 0x1DA8 SWAP2 SWAP1 PUSH2 0x5314 JUMP JUMPDEST DUP1 PUSH1 0x20 ADD SWAP1 PUSH2 0x1DB7 SWAP2 SWAP1 PUSH2 0x538E JUMP JUMPDEST DUP1 DUP1 PUSH1 0x20 MUL PUSH1 0x20 ADD PUSH1 0x40 MLOAD SWAP1 DUP2 ADD PUSH1 0x40 MSTORE DUP1 SWAP4 SWAP3 SWAP2 SWAP1 DUP2 DUP2 MSTORE PUSH1 0x20 ADD DUP4 DUP4 PUSH1 0x20 MUL DUP1 DUP3 DUP5 CALLDATACOPY PUSH1 0x0 DUP2 DUP5 ADD MSTORE PUSH1 0x1F NOT PUSH1 0x1F DUP3 ADD AND SWAP1 POP DUP1 DUP4 ADD SWAP3 POP POP POP POP POP POP POP PUSH2 0x6F1 JUMP JUMPDEST ISZERO ISZERO EQ PUSH2 0x1E3E JUMPI PUSH1 0x40 MLOAD PUSH32 0x8C379A000000000000000000000000000000000000000000000000000000000 DUP2 MSTORE PUSH1 0x4 ADD PUSH2 0x1E35 SWAP1 PUSH2 0x554C JUMP JUMPDEST PUSH1 0x40 MLOAD DUP1 SWAP2 SUB SWAP1 REVERT JUMPDEST JUMPDEST PUSH1 0x8 PUSH1 0x14 DUP2 GT ISZERO PUSH2 0x1E53 JUMPI PUSH2 0x1E52 PUSH2 0x4E62 JUMP JUMPDEST JUMPDEST DUP6 DUP6 DUP4 DUP2 DUP2 LT PUSH2 0x1E66 JUMPI PUSH2 0x1E65 PUSH2 0x5173 JUMP JUMPDEST JUMPDEST SWAP1 POP PUSH1 0x20 MUL DUP2 ADD SWAP1 PUSH2 0x1E78 SWAP2 SWAP1 PUSH2 0x5314 JUMP JUMPDEST PUSH1 0x40 ADD PUSH1 0x20 DUP2 ADD SWAP1 PUSH2 0x1E8A SWAP2 SWAP1 PUSH2 0x5361 JUMP JUMPDEST PUSH1 0x14 DUP2 GT ISZERO PUSH2 0x1E9C JUMPI PUSH2 0x1E9B PUSH2 0x4E62 JUMP JUMPDEST JUMPDEST SUB PUSH2 0x1F1A JUMPI PUSH1 0x1 DUP6 DUP6 DUP4 DUP2 DUP2 LT PUSH2 0x1EB6 JUMPI PUSH2 0x1EB5 PUSH2 0x5173 JUMP JUMPDEST JUMPDEST SWAP1 POP PUSH1 0x20 MUL DUP2 ADD SWAP1 PUSH2 0x1EC8 SWAP2 SWAP1 PUSH2 0x5314 JUMP JUMPDEST DUP1 PUSH1 0x20 ADD SWAP1 PUSH2 0x1ED7 SWAP2 SWAP1 PUSH2 0x538E JUMP JUMPDEST SWAP1 POP EQ PUSH2 0x1F19 JUMPI PUSH1 0x40 MLOAD PUSH32 0x8C379A000000000000000000000000000000000000000000000000000000000 DUP2 MSTORE PUSH1 0x4 ADD PUSH2 0x1F10 SWAP1 PUSH2 0x54E0 JUMP JUMPDEST PUSH1 0x40 MLOAD DUP1 SWAP2 SUB SWAP1 REVERT JUMPDEST JUMPDEST DUP5 DUP5 DUP3 DUP2 DUP2 LT PUSH2 0x1F2D JUMPI PUSH2 0x1F2C PUSH2 0x5173 JUMP JUMPDEST JUMPDEST SWAP1 POP PUSH1 0x20 MUL DUP2 ADD SWAP1 PUSH2 0x1F3F SWAP2 SWAP1 PUSH2 0x5314 JUMP JUMPDEST PUSH1 0x0 ADD CALLDATALOAD DUP3 PUSH2 0x1F4E SWAP2 SWAP1 PUSH2 0x55D8 JUMP JUMPDEST SWAP2 POP DUP1 DUP1 PUSH1 0x1 ADD SWAP2 POP POP PUSH2 0xE9F JUMP JUMPDEST POP PUSH1 0x0 PUSH2 0x2710 PUSH1 0x2 PUSH1 0x14 SWAP1 SLOAD SWAP1 PUSH2 0x100 EXP SWAP1 DIV PUSH1 0xFF AND PUSH1 0xFF AND DUP4 PUSH2 0x1F81 SWAP2 SWAP1 PUSH2 0x560C JUMP JUMPDEST PUSH2 0x1F8B SWAP2 SWAP1 PUSH2 0x564E JUMP JUMPDEST SWAP1 POP DUP1 PUSH1 0x9 PUSH1 0x0 DUP3 DUP3 SLOAD PUSH2 0x1F9F SWAP2 SWAP1 PUSH2 0x55D8 JUMP JUMPDEST SWAP3 POP POP DUP2 SWAP1 SSTORE POP PUSH1 0x24 DUP3 PUSH2 0x1FB3 SWAP2 SWAP1 PUSH2 0x560C JUMP JUMPDEST PUSH1 0x9 SLOAD PUSH1 0x2 PUSH1 0x0 SWAP1 SLOAD SWAP1 PUSH2 0x100 EXP SWAP1 DIV PUSH20 0xFFFFFFFFFFFFFFFFFFFFFFFFFFFFFFFFFFFFFFFF AND PUSH20 0xFFFFFFFFFFFFFFFFFFFFFFFFFFFFFFFFFFFFFFFF AND PUSH4 0x70A08231 ADDRESS PUSH1 0x40 MLOAD DUP3 PUSH4 0xFFFFFFFF AND PUSH1 0xE0 SHL DUP2 MSTORE PUSH1 0x4 ADD PUSH2 0x2011 SWAP2 SWAP1 PUSH2 0x4F11 JUMP JUMPDEST PUSH1 0x20 PUSH1 0x40 MLOAD DUP1 DUP4 SUB DUP2 DUP7 GAS STATICCALL ISZERO DUP1 ISZERO PUSH2 0x202E JUMPI RETURNDATASIZE PUSH1 0x0 DUP1 RETURNDATACOPY RETURNDATASIZE PUSH1 0x0 REVERT JUMPDEST POP POP POP POP PUSH1 0x40 MLOAD RETURNDATASIZE PUSH1 0x1F NOT PUSH1 0x1F DUP3 ADD AND DUP3 ADD DUP1 PUSH1 0x40 MSTORE POP DUP2 ADD SWAP1 PUSH2 0x2052 SWAP2 SWAP1 PUSH2 0x5694 JUMP JUMPDEST PUSH2 0x205C SWAP2 SWAP1 PUSH2 0x56C1 JUMP JUMPDEST LT ISZERO PUSH2 0x209D JUMPI PUSH1 0x40 MLOAD PUSH32 0x8C379A000000000000000000000000000000000000000000000000000000000 DUP2 MSTORE PUSH1 0x4 ADD PUSH2 0x2094 SWAP1 PUSH2 0x5767 JUMP JUMPDEST PUSH1 0x40 MLOAD DUP1 SWAP2 SUB SWAP1 REVERT JUMPDEST PUSH1 0x2 PUSH1 0x0 SWAP1 SLOAD SWAP1 PUSH2 0x100 EXP SWAP1 DIV PUSH20 0xFFFFFFFFFFFFFFFFFFFFFFFFFFFFFFFFFFFFFFFF AND PUSH20 0xFFFFFFFFFFFFFFFFFFFFFFFFFFFFFFFFFFFFFFFF AND PUSH4 0x23B872DD CALLER ADDRESS DUP6 PUSH1 0x40 MLOAD DUP5 PUSH4 0xFFFFFFFF AND PUSH1 0xE0 SHL DUP2 MSTORE PUSH1 0x4 ADD PUSH2 0x20FC SWAP4 SWAP3 SWAP2 SWAP1 PUSH2 0x5787 JUMP JUMPDEST PUSH1 0x20 PUSH1 0x40 MLOAD DUP1 DUP4 SUB DUP2 PUSH1 0x0 DUP8 GAS CALL ISZERO DUP1 ISZERO PUSH2 0x211B JUMPI RETURNDATASIZE PUSH1 0x0 DUP1 RETURNDATACOPY RETURNDATASIZE PUSH1 0x0 REVERT JUMPDEST POP POP POP POP PUSH1 0x40 MLOAD RETURNDATASIZE PUSH1 0x1F NOT PUSH1 0x1F DUP3 ADD AND DUP3 ADD DUP1 PUSH1 0x40 MSTORE POP DUP2 ADD SWAP1 PUSH2 0x213F SWAP2 SWAP1 PUSH2 0x57EA JUMP JUMPDEST POP PUSH1 0x0 PUSH2 0x215C PUSH1 0x40 MLOAD DUP1 PUSH1 0x20 ADD PUSH1 0x40 MSTORE DUP1 PUSH1 0x1 ISZERO ISZERO DUP2 MSTORE POP PUSH2 0x3979 JUMP JUMPDEST SWAP1 POP PUSH1 0x0 DUP1 PUSH2 0x2172 PUSH3 0x186A0 PUSH1 0x3 PUSH1 0x1 DUP7 PUSH2 0x3A11 JUMP JUMPDEST DUP1 SWAP3 POP DUP2 SWAP4 POP POP POP PUSH1 0x0 JUMPDEST DUP9 DUP9 SWAP1 POP DUP2 LT ISZERO PUSH2 0x2204 JUMPI PUSH1 0x6 PUSH1 0x0 DUP5 DUP2 MSTORE PUSH1 0x20 ADD SWAP1 DUP2 MSTORE PUSH1 0x20 ADD PUSH1 0x0 KECCAK256 DUP10 DUP10 DUP4 DUP2 DUP2 LT PUSH2 0x21AE JUMPI PUSH2 0x21AD PUSH2 0x5173 JUMP JUMPDEST JUMPDEST SWAP1 POP PUSH1 0x20 MUL DUP2 ADD SWAP1 PUSH2 0x21C0 SWAP2 SWAP1 PUSH2 0x5314 JUMP JUMPDEST SWAP1 DUP1 PUSH1 0x1 DUP2 SLOAD ADD DUP1 DUP3 SSTORE DUP1 SWAP2 POP POP PUSH1 0x1 SWAP1 SUB SWAP1 PUSH1 0x0 MSTORE PUSH1 0x20 PUSH1 0x0 KECCAK256 SWAP1 PUSH1 0x3 MUL ADD PUSH1 0x0 SWAP1 SWAP2 SWAP1 SWAP2 SWAP1 SWAP2 POP DUP2 DUP2 PUSH2 0x21F5 SWAP2 SWAP1 PUSH2 0x5CFC JUMP JUMPDEST POP POP DUP1 DUP1 PUSH1 0x1 ADD SWAP2 POP POP PUSH2 0x217D JUMP JUMPDEST POP CALLER PUSH1 0x7 PUSH1 0x0 DUP5 DUP2 MSTORE PUSH1 0x20 ADD SWAP1 DUP2 MSTORE PUSH1 0x20 ADD PUSH1 0x0 KECCAK256 PUSH1 0x0 PUSH2 0x100 EXP DUP2 SLOAD DUP2 PUSH20 0xFFFFFFFFFFFFFFFFFFFFFFFFFFFFFFFFFFFFFFFF MUL NOT AND SWAP1 DUP4 PUSH20 0xFFFFFFFFFFFFFFFFFFFFFFFFFFFFFFFFFFFFFFFF AND MUL OR SWAP1 SSTORE POP PUSH32 0xA1E65B062E40809F80439A4691BE6294420CAC1C300E5430FA259AAD2A0D53FC DUP3 DUP3 PUSH1 0x40 MLOAD PUSH2 0x2288 SWAP3 SWAP2 SWAP1 PUSH2 0x5D0A JUMP JUMPDEST PUSH1 0x40 MLOAD DUP1 SWAP2 SUB SWAP1 LOG1 PUSH32 0x77444CD969F2B804EA091B5F3C08BB5A20D3C97ED9C8660CFA9B1EA050FF6E1A DUP5 PUSH1 0x40 MLOAD PUSH2 0x22BF SWAP2 SWAP1 PUSH2 0x4E07 JUMP JUMPDEST PUSH1 0x40 MLOAD DUP1 SWAP2 SUB SWAP1 LOG1 DUP2 SWAP6 POP POP POP POP POP POP SWAP3 SWAP2 POP POP JUMP JUMPDEST PUSH2 0x22DD PUSH2 0x2FB3 JUMP JUMPDEST PUSH32 0x457E4FE0C9F161A0C6F3BFB8D7809A4AC19F6291BD81B03B86B0D00F9AF3717B CALLER DUP4 DUP4 PUSH1 0x40 MLOAD PUSH2 0x2310 SWAP4 SWAP3 SWAP2 SWAP1 PUSH2 0x5787 JUMP JUMPDEST PUSH1 0x40 MLOAD DUP1 SWAP2 SUB SWAP1 LOG1 PUSH1 0x0 PUSH20 0xFFFFFFFFFFFFFFFFFFFFFFFFFFFFFFFFFFFFFFFF AND DUP3 PUSH20 0xFFFFFFFFFFFFFFFFFFFFFFFFFFFFFFFFFFFFFFFF AND SUB PUSH2 0x239F JUMPI PUSH2 0x2354 PUSH2 0xE37 JUMP JUMPDEST PUSH20 0xFFFFFFFFFFFFFFFFFFFFFFFFFFFFFFFFFFFFFFFF AND PUSH2 0x8FC DUP3 SWAP1 DUP2 ISZERO MUL SWAP1 PUSH1 0x40 MLOAD PUSH1 0x0 PUSH1 0x40 MLOAD DUP1 DUP4 SUB DUP2 DUP6 DUP9 DUP9 CALL SWAP4 POP POP POP POP ISZERO DUP1 ISZERO PUSH2 0x2399 JUMPI RETURNDATASIZE PUSH1 0x0 DUP1 RETURNDATACOPY RETURNDATASIZE PUSH1 0x0 REVERT JUMPDEST POP PUSH2 0x2426 JUMP JUMPDEST DUP2 PUSH20 0xFFFFFFFFFFFFFFFFFFFFFFFFFFFFFFFFFFFFFFFF AND PUSH4 0xA9059CBB PUSH2 0x23C3 PUSH2 0xE37 JUMP JUMPDEST DUP4 PUSH1 0x40 MLOAD DUP4 PUSH4 0xFFFFFFFF AND PUSH1 0xE0 SHL DUP2 MSTORE PUSH1 0x4 ADD PUSH2 0x23E1 SWAP3 SWAP2 SWAP1 PUSH2 0x5D33 JUMP JUMPDEST PUSH1 0x20 PUSH1 0x40 MLOAD DUP1 DUP4 SUB DUP2 PUSH1 0x0 DUP8 GAS CALL ISZERO DUP1 ISZERO PUSH2 0x2400 JUMPI RETURNDATASIZE PUSH1 0x0 DUP1 RETURNDATACOPY RETURNDATASIZE PUSH1 0x0 REVERT JUMPDEST POP POP POP POP PUSH1 0x40 MLOAD RETURNDATASIZE PUSH1 0x1F NOT PUSH1 0x1F DUP3 ADD AND DUP3 ADD DUP1 PUSH1 0x40 MSTORE POP DUP2 ADD SWAP1 PUSH2 0x2424 SWAP2 SWAP1 PUSH2 0x57EA JUMP JUMPDEST POP JUMPDEST POP POP JUMP JUMPDEST PUSH1 0x0 DUP1 PUSH1 0x0 SWAP1 POP JUMPDEST PUSH1 0x3 DUP1 SLOAD SWAP1 POP DUP2 PUSH1 0xFF AND LT ISZERO PUSH2 0x2AAB JUMPI PUSH1 0x3 DUP2 PUSH1 0xFF AND DUP2 SLOAD DUP2 LT PUSH2 0x2459 JUMPI PUSH2 0x2458 PUSH2 0x5173 JUMP JUMPDEST JUMPDEST SWAP1 PUSH1 0x0 MSTORE PUSH1 0x20 PUSH1 0x0 KECCAK256 ADD PUSH1 0x0 PUSH1 0x3 DUP2 LT PUSH2 0x2476 JUMPI PUSH2 0x2475 PUSH2 0x5173 JUMP JUMPDEST JUMPDEST PUSH1 0x20 SWAP2 DUP3 DUP3 DIV ADD SWAP2 SWAP1 MOD SWAP1 SLOAD SWAP1 PUSH2 0x100 EXP SWAP1 DIV PUSH1 0xFF AND PUSH1 0xFF AND DUP6 PUSH1 0xFF AND EQ DUP1 ISZERO PUSH2 0x24EE JUMPI POP PUSH1 0x3 DUP2 PUSH1 0xFF AND DUP2 SLOAD DUP2 LT PUSH2 0x24B2 JUMPI PUSH2 0x24B1 PUSH2 0x5173 JUMP JUMPDEST JUMPDEST SWAP1 PUSH1 0x0 MSTORE PUSH1 0x20 PUSH1 0x0 KECCAK256 ADD PUSH1 0x1 PUSH1 0x3 DUP2 LT PUSH2 0x24CF JUMPI PUSH2 0x24CE PUSH2 0x5173 JUMP JUMPDEST JUMPDEST PUSH1 0x20 SWAP2 DUP3 DUP3 DIV ADD SWAP2 SWAP1 MOD SWAP1 SLOAD SWAP1 PUSH2 0x100 EXP SWAP1 DIV PUSH1 0xFF AND PUSH1 0xFF AND DUP5 PUSH1 0xFF AND EQ JUMPDEST DUP1 ISZERO PUSH2 0x2548 JUMPI POP PUSH1 0x3 DUP2 PUSH1 0xFF AND DUP2 SLOAD DUP2 LT PUSH2 0x250C JUMPI PUSH2 0x250B PUSH2 0x5173 JUMP JUMPDEST JUMPDEST SWAP1 PUSH1 0x0 MSTORE PUSH1 0x20 PUSH1 0x0 KECCAK256 ADD PUSH1 0x2 PUSH1 0x3 DUP2 LT PUSH2 0x2529 JUMPI PUSH2 0x2528 PUSH2 0x5173 JUMP JUMPDEST JUMPDEST PUSH1 0x20 SWAP2 DUP3 DUP3 DIV ADD SWAP2 SWAP1 MOD SWAP1 SLOAD SWAP1 PUSH2 0x100 EXP SWAP1 DIV PUSH1 0xFF AND PUSH1 0xFF AND DUP4 PUSH1 0xFF AND EQ JUMPDEST DUP1 PUSH2 0x2655 JUMPI POP PUSH1 0x3 DUP2 PUSH1 0xFF AND DUP2 SLOAD DUP2 LT PUSH2 0x2565 JUMPI PUSH2 0x2564 PUSH2 0x5173 JUMP JUMPDEST JUMPDEST SWAP1 PUSH1 0x0 MSTORE PUSH1 0x20 PUSH1 0x0 KECCAK256 ADD PUSH1 0x0 PUSH1 0x3 DUP2 LT PUSH2 0x2582 JUMPI PUSH2 0x2581 PUSH2 0x5173 JUMP JUMPDEST JUMPDEST PUSH1 0x20 SWAP2 DUP3 DUP3 DIV ADD SWAP2 SWAP1 MOD SWAP1 SLOAD SWAP1 PUSH2 0x100 EXP SWAP1 DIV PUSH1 0xFF AND PUSH1 0xFF AND DUP6 PUSH1 0xFF AND EQ DUP1 ISZERO PUSH2 0x25FA JUMPI POP PUSH1 0x3 DUP2 PUSH1 0xFF AND DUP2 SLOAD DUP2 LT PUSH2 0x25BE JUMPI PUSH2 0x25BD PUSH2 0x5173 JUMP JUMPDEST JUMPDEST SWAP1 PUSH1 0x0 MSTORE PUSH1 0x20 PUSH1 0x0 KECCAK256 ADD PUSH1 0x1 PUSH1 0x3 DUP2 LT PUSH2 0x25DB JUMPI PUSH2 0x25DA PUSH2 0x5173 JUMP JUMPDEST JUMPDEST PUSH1 0x20 SWAP2 DUP3 DUP3 DIV ADD SWAP2 SWAP1 MOD SWAP1 SLOAD SWAP1 PUSH2 0x100 EXP SWAP1 DIV PUSH1 0xFF AND PUSH1 0xFF AND DUP4 PUSH1 0xFF AND EQ JUMPDEST DUP1 ISZERO PUSH2 0x2654 JUMPI POP PUSH1 0x3 DUP2 PUSH1 0xFF AND DUP2 SLOAD DUP2 LT PUSH2 0x2618 JUMPI PUSH2 0x2617 PUSH2 0x5173 JUMP JUMPDEST JUMPDEST SWAP1 PUSH1 0x0 MSTORE PUSH1 0x20 PUSH1 0x0 KECCAK256 ADD PUSH1 0x2 PUSH1 0x3 DUP2 LT PUSH2 0x2635 JUMPI PUSH2 0x2634 PUSH2 0x5173 JUMP JUMPDEST JUMPDEST PUSH1 0x20 SWAP2 DUP3 DUP3 DIV ADD SWAP2 SWAP1 MOD SWAP1 SLOAD SWAP1 PUSH2 0x100 EXP SWAP1 DIV PUSH1 0xFF AND PUSH1 0xFF AND DUP5 PUSH1 0xFF AND EQ JUMPDEST JUMPDEST DUP1 PUSH2 0x2762 JUMPI POP PUSH1 0x3 DUP2 PUSH1 0xFF AND DUP2 SLOAD DUP2 LT PUSH2 0x2672 JUMPI PUSH2 0x2671 PUSH2 0x5173 JUMP JUMPDEST JUMPDEST SWAP1 PUSH1 0x0 MSTORE PUSH1 0x20 PUSH1 0x0 KECCAK256 ADD PUSH1 0x0 PUSH1 0x3 DUP2 LT PUSH2 0x268F JUMPI PUSH2 0x268E PUSH2 0x5173 JUMP JUMPDEST JUMPDEST PUSH1 0x20 SWAP2 DUP3 DUP3 DIV ADD SWAP2 SWAP1 MOD SWAP1 SLOAD SWAP1 PUSH2 0x100 EXP SWAP1 DIV PUSH1 0xFF AND PUSH1 0xFF AND DUP5 PUSH1 0xFF AND EQ DUP1 ISZERO PUSH2 0x2707 JUMPI POP PUSH1 0x3 DUP2 PUSH1 0xFF AND DUP2 SLOAD DUP2 LT PUSH2 0x26CB JUMPI PUSH2 0x26CA PUSH2 0x5173 JUMP JUMPDEST JUMPDEST SWAP1 PUSH1 0x0 MSTORE PUSH1 0x20 PUSH1 0x0 KECCAK256 ADD PUSH1 0x1 PUSH1 0x3 DUP2 LT PUSH2 0x26E8 JUMPI PUSH2 0x26E7 PUSH2 0x5173 JUMP JUMPDEST JUMPDEST PUSH1 0x20 SWAP2 DUP3 DUP3 DIV ADD SWAP2 SWAP1 MOD SWAP1 SLOAD SWAP1 PUSH2 0x100 EXP SWAP1 DIV PUSH1 0xFF AND PUSH1 0xFF AND DUP6 PUSH1 0xFF AND EQ JUMPDEST DUP1 ISZERO PUSH2 0x2761 JUMPI POP PUSH1 0x3 DUP2 PUSH1 0xFF AND DUP2 SLOAD DUP2 LT PUSH2 0x2725 JUMPI PUSH2 0x2724 PUSH2 0x5173 JUMP JUMPDEST JUMPDEST SWAP1 PUSH1 0x0 MSTORE PUSH1 0x20 PUSH1 0x0 KECCAK256 ADD PUSH1 0x2 PUSH1 0x3 DUP2 LT PUSH2 0x2742 JUMPI PUSH2 0x2741 PUSH2 0x5173 JUMP JUMPDEST JUMPDEST PUSH1 0x20 SWAP2 DUP3 DUP3 DIV ADD SWAP2 SWAP1 MOD SWAP1 SLOAD SWAP1 PUSH2 0x100 EXP SWAP1 DIV PUSH1 0xFF AND PUSH1 0xFF AND DUP4 PUSH1 0xFF AND EQ JUMPDEST JUMPDEST DUP1 PUSH2 0x286F JUMPI POP PUSH1 0x3 DUP2 PUSH1 0xFF AND DUP2 SLOAD DUP2 LT PUSH2 0x277F JUMPI PUSH2 0x277E PUSH2 0x5173 JUMP JUMPDEST JUMPDEST SWAP1 PUSH1 0x0 MSTORE PUSH1 0x20 PUSH1 0x0 KECCAK256 ADD PUSH1 0x0 PUSH1 0x3 DUP2 LT PUSH2 0x279C JUMPI PUSH2 0x279B PUSH2 0x5173 JUMP JUMPDEST JUMPDEST PUSH1 0x20 SWAP2 DUP3 DUP3 DIV ADD SWAP2 SWAP1 MOD SWAP1 SLOAD SWAP1 PUSH2 0x100 EXP SWAP1 DIV PUSH1 0xFF AND PUSH1 0xFF AND DUP5 PUSH1 0xFF AND EQ DUP1 ISZERO PUSH2 0x2814 JUMPI POP PUSH1 0x3 DUP2 PUSH1 0xFF AND DUP2 SLOAD DUP2 LT PUSH2 0x27D8 JUMPI PUSH2 0x27D7 PUSH2 0x5173 JUMP JUMPDEST JUMPDEST SWAP1 PUSH1 0x0 MSTORE PUSH1 0x20 PUSH1 0x0 KECCAK256 ADD PUSH1 0x1 PUSH1 0x3 DUP2 LT PUSH2 0x27F5 JUMPI PUSH2 0x27F4 PUSH2 0x5173 JUMP JUMPDEST JUMPDEST PUSH1 0x20 SWAP2 DUP3 DUP3 DIV ADD SWAP2 SWAP1 MOD SWAP1 SLOAD SWAP1 PUSH2 0x100 EXP SWAP1 DIV PUSH1 0xFF AND PUSH1 0xFF AND DUP4 PUSH1 0xFF AND EQ JUMPDEST DUP1 ISZERO PUSH2 0x286E JUMPI POP PUSH1 0x3 DUP2 PUSH1 0xFF AND DUP2 SLOAD DUP2 LT PUSH2 0x2832 JUMPI PUSH2 0x2831 PUSH2 0x5173 JUMP JUMPDEST JUMPDEST SWAP1 PUSH1 0x0 MSTORE PUSH1 0x20 PUSH1 0x0 KECCAK256 ADD PUSH1 0x2 PUSH1 0x3 DUP2 LT PUSH2 0x284F JUMPI PUSH2 0x284E PUSH2 0x5173 JUMP JUMPDEST JUMPDEST PUSH1 0x20 SWAP2 DUP3 DUP3 DIV ADD SWAP2 SWAP1 MOD SWAP1 SLOAD SWAP1 PUSH2 0x100 EXP SWAP1 DIV PUSH1 0xFF AND PUSH1 0xFF AND DUP6 PUSH1 0xFF AND EQ JUMPDEST JUMPDEST DUP1 PUSH2 0x297C JUMPI POP PUSH1 0x3 DUP2 PUSH1 0xFF AND DUP2 SLOAD DUP2 LT PUSH2 0x288C JUMPI PUSH2 0x288B PUSH2 0x5173 JUMP JUMPDEST JUMPDEST SWAP1 PUSH1 0x0 MSTORE PUSH1 0x20 PUSH1 0x0 KECCAK256 ADD PUSH1 0x0 PUSH1 0x3 DUP2 LT PUSH2 0x28A9 JUMPI PUSH2 0x28A8 PUSH2 0x5173 JUMP JUMPDEST JUMPDEST PUSH1 0x20 SWAP2 DUP3 DUP3 DIV ADD SWAP2 SWAP1 MOD SWAP1 SLOAD SWAP1 PUSH2 0x100 EXP SWAP1 DIV PUSH1 0xFF AND PUSH1 0xFF AND DUP4 PUSH1 0xFF AND EQ DUP1 ISZERO PUSH2 0x2921 JUMPI POP PUSH1 0x3 DUP2 PUSH1 0xFF AND DUP2 SLOAD DUP2 LT PUSH2 0x28E5 JUMPI PUSH2 0x28E4 PUSH2 0x5173 JUMP JUMPDEST JUMPDEST SWAP1 PUSH1 0x0 MSTORE PUSH1 0x20 PUSH1 0x0 KECCAK256 ADD PUSH1 0x1 PUSH1 0x3 DUP2 LT PUSH2 0x2902 JUMPI PUSH2 0x2901 PUSH2 0x5173 JUMP JUMPDEST JUMPDEST PUSH1 0x20 SWAP2 DUP3 DUP3 DIV ADD SWAP2 SWAP1 MOD SWAP1 SLOAD SWAP1 PUSH2 0x100 EXP SWAP1 DIV PUSH1 0xFF AND PUSH1 0xFF AND DUP6 PUSH1 0xFF AND EQ JUMPDEST DUP1 ISZERO PUSH2 0x297B JUMPI POP PUSH1 0x3 DUP2 PUSH1 0xFF AND DUP2 SLOAD DUP2 LT PUSH2 0x293F JUMPI PUSH2 0x293E PUSH2 0x5173 JUMP JUMPDEST JUMPDEST SWAP1 PUSH1 0x0 MSTORE PUSH1 0x20 PUSH1 0x0 KECCAK256 ADD PUSH1 0x2 PUSH1 0x3 DUP2 LT PUSH2 0x295C JUMPI PUSH2 0x295B PUSH2 0x5173 JUMP JUMPDEST JUMPDEST PUSH1 0x20 SWAP2 DUP3 DUP3 DIV ADD SWAP2 SWAP1 MOD SWAP1 SLOAD SWAP1 PUSH2 0x100 EXP SWAP1 DIV PUSH1 0xFF AND PUSH1 0xFF AND DUP5 PUSH1 0xFF AND EQ JUMPDEST JUMPDEST DUP1 PUSH2 0x2A89 JUMPI POP PUSH1 0x3 DUP2 PUSH1 0xFF AND DUP2 SLOAD DUP2 LT PUSH2 0x2999 JUMPI PUSH2 0x2998 PUSH2 0x5173 JUMP JUMPDEST JUMPDEST SWAP1 PUSH1 0x0 MSTORE PUSH1 0x20 PUSH1 0x0 KECCAK256 ADD PUSH1 0x0 PUSH1 0x3 DUP2 LT PUSH2 0x29B6 JUMPI PUSH2 0x29B5 PUSH2 0x5173 JUMP JUMPDEST JUMPDEST PUSH1 0x20 SWAP2 DUP3 DUP3 DIV ADD SWAP2 SWAP1 MOD SWAP1 SLOAD SWAP1 PUSH2 0x100 EXP SWAP1 DIV PUSH1 0xFF AND PUSH1 0xFF AND DUP4 PUSH1 0xFF AND EQ DUP1 ISZERO PUSH2 0x2A2E JUMPI POP PUSH1 0x3 DUP2 PUSH1 0xFF AND DUP2 SLOAD DUP2 LT PUSH2 0x29F2 JUMPI PUSH2 0x29F1 PUSH2 0x5173 JUMP JUMPDEST JUMPDEST SWAP1 PUSH1 0x0 MSTORE PUSH1 0x20 PUSH1 0x0 KECCAK256 ADD PUSH1 0x1 PUSH1 0x3 DUP2 LT PUSH2 0x2A0F JUMPI PUSH2 0x2A0E PUSH2 0x5173 JUMP JUMPDEST JUMPDEST PUSH1 0x20 SWAP2 DUP3 DUP3 DIV ADD SWAP2 SWAP1 MOD SWAP1 SLOAD SWAP1 PUSH2 0x100 EXP SWAP1 DIV PUSH1 0xFF AND PUSH1 0xFF AND DUP5 PUSH1 0xFF AND EQ JUMPDEST DUP1 ISZERO PUSH2 0x2A88 JUMPI POP PUSH1 0x3 DUP2 PUSH1 0xFF AND DUP2 SLOAD DUP2 LT PUSH2 0x2A4C JUMPI PUSH2 0x2A4B PUSH2 0x5173 JUMP JUMPDEST JUMPDEST SWAP1 PUSH1 0x0 MSTORE PUSH1 0x20 PUSH1 0x0 KECCAK256 ADD PUSH1 0x2 PUSH1 0x3 DUP2 LT PUSH2 0x2A69 JUMPI PUSH2 0x2A68 PUSH2 0x5173 JUMP JUMPDEST JUMPDEST PUSH1 0x20 SWAP2 DUP3 DUP3 DIV ADD SWAP2 SWAP1 MOD SWAP1 SLOAD SWAP1 PUSH2 0x100 EXP SWAP1 DIV PUSH1 0xFF AND PUSH1 0xFF AND DUP6 PUSH1 0xFF AND EQ JUMPDEST JUMPDEST ISZERO PUSH2 0x2A98 JUMPI PUSH1 0x1 SWAP2 POP POP PUSH2 0x2AB1 JUMP JUMPDEST DUP1 DUP1 PUSH2 0x2AA3 SWAP1 PUSH2 0x5D5C JUMP JUMPDEST SWAP2 POP POP PUSH2 0x2432 JUMP JUMPDEST POP PUSH1 0x0 SWAP1 POP JUMPDEST SWAP4 SWAP3 POP POP POP JUMP JUMPDEST PUSH2 0x2AC0 PUSH2 0x2FB3 JUMP JUMPDEST PUSH1 0x0 PUSH1 0x9 SLOAD SWAP1 POP PUSH1 0x0 PUSH1 0x9 DUP2 SWAP1 SSTORE POP PUSH32 0x78473F3F373F7673597F4F0FA5873CB4D375FEA6D4339AD6B56DBD411513CB3F CALLER DUP3 PUSH1 0x40 MLOAD PUSH2 0x2B00 SWAP3 SWAP2 SWAP1 PUSH2 0x5D33 JUMP JUMPDEST PUSH1 0x40 MLOAD DUP1 SWAP2 SUB SWAP1 LOG1 PUSH1 0x2 PUSH1 0x0 SWAP1 SLOAD SWAP1 PUSH2 0x100 EXP SWAP1 DIV PUSH20 0xFFFFFFFFFFFFFFFFFFFFFFFFFFFFFFFFFFFFFFFF AND PUSH20 0xFFFFFFFFFFFFFFFFFFFFFFFFFFFFFFFFFFFFFFFF AND PUSH4 0xA9059CBB PUSH2 0x2B4E PUSH2 0xE37 JUMP JUMPDEST DUP4 PUSH1 0x40 MLOAD DUP4 PUSH4 0xFFFFFFFF AND PUSH1 0xE0 SHL DUP2 MSTORE PUSH1 0x4 ADD PUSH2 0x2B6C SWAP3 SWAP2 SWAP1 PUSH2 0x5D33 JUMP JUMPDEST PUSH1 0x20 PUSH1 0x40 MLOAD DUP1 DUP4 SUB DUP2 PUSH1 0x0 DUP8 GAS CALL ISZERO DUP1 ISZERO PUSH2 0x2B8B JUMPI RETURNDATASIZE PUSH1 0x0 DUP1 RETURNDATACOPY RETURNDATASIZE PUSH1 0x0 REVERT JUMPDEST POP POP POP POP PUSH1 0x40 MLOAD RETURNDATASIZE PUSH1 0x1F NOT PUSH1 0x1F DUP3 ADD AND DUP3 ADD DUP1 PUSH1 0x40 MSTORE POP DUP2 ADD SWAP1 PUSH2 0x2BAF SWAP2 SWAP1 PUSH2 0x57EA JUMP JUMPDEST POP POP JUMP JUMPDEST PUSH2 0x2BBB PUSH2 0x2FB3 JUMP JUMPDEST PUSH1 0x0 PUSH20 0xFFFFFFFFFFFFFFFFFFFFFFFFFFFFFFFFFFFFFFFF AND DUP2 PUSH20 0xFFFFFFFFFFFFFFFFFFFFFFFFFFFFFFFFFFFFFFFF AND SUB PUSH2 0x2C2D JUMPI PUSH1 0x0 PUSH1 0x40 MLOAD PUSH32 0x1E4FBDF700000000000000000000000000000000000000000000000000000000 DUP2 MSTORE PUSH1 0x4 ADD PUSH2 0x2C24 SWAP2 SWAP1 PUSH2 0x4F11 JUMP JUMPDEST PUSH1 0x40 MLOAD DUP1 SWAP2 SUB SWAP1 REVERT JUMPDEST PUSH2 0x2C36 DUP2 PUSH2 0x3713 JUMP JUMPDEST POP JUMP JUMPDEST PUSH1 0x7 PUSH1 0x20 MSTORE DUP1 PUSH1 0x0 MSTORE PUSH1 0x40 PUSH1 0x0 KECCAK256 PUSH1 0x0 SWAP2 POP SLOAD SWAP1 PUSH2 0x100 EXP SWAP1 DIV PUSH20 0xFFFFFFFFFFFFFFFFFFFFFFFFFFFFFFFFFFFFFFFF AND DUP2 JUMP JUMPDEST PUSH1 0x2 PUSH1 0x0 SWAP1 SLOAD SWAP1 PUSH2 0x100 EXP SWAP1 DIV PUSH20 0xFFFFFFFFFFFFFFFFFFFFFFFFFFFFFFFFFFFFFFFF AND DUP2 JUMP JUMPDEST PUSH1 0x8 PUSH1 0x0 DUP4 DUP2 MSTORE PUSH1 0x20 ADD SWAP1 DUP2 MSTORE PUSH1 0x20 ADD PUSH1 0x0 KECCAK256 PUSH1 0x0 SWAP1 SLOAD SWAP1 PUSH2 0x100 EXP SWAP1 DIV PUSH1 0xFF AND ISZERO PUSH2 0x2CF5 JUMPI DUP2 PUSH1 0x40 MLOAD PUSH32 0xC85492EA00000000000000000000000000000000000000000000000000000000 DUP2 MSTORE PUSH1 0x4 ADD PUSH2 0x2CEC SWAP2 SWAP1 PUSH2 0x4E07 JUMP JUMPDEST PUSH1 0x40 MLOAD DUP1 SWAP2 SUB SWAP1 REVERT JUMPDEST PUSH1 0x0 PUSH1 0x26 DUP3 PUSH1 0x0 DUP2 MLOAD DUP2 LT PUSH2 0x2D0D JUMPI PUSH2 0x2D0C PUSH2 0x5173 JUMP JUMPDEST JUMPDEST PUSH1 0x20 MUL PUSH1 0x20 ADD ADD MLOAD PUSH2 0x2D1F SWAP2 SWAP1 PUSH2 0x5D85 JUMP JUMPDEST SWAP1 POP PUSH1 0x1 PUSH1 0x8 PUSH1 0x0 DUP6 DUP2 MSTORE PUSH1 0x20 ADD SWAP1 DUP2 MSTORE PUSH1 0x20 ADD PUSH1 0x0 KECCAK256 PUSH1 0x0 PUSH2 0x100 EXP DUP2 SLOAD DUP2 PUSH1 0xFF MUL NOT AND SWAP1 DUP4 ISZERO ISZERO MUL OR SWAP1 SSTORE POP PUSH1 0x0 DUP1 JUMPDEST PUSH1 0x6 PUSH1 0x0 DUP7 DUP2 MSTORE PUSH1 0x20 ADD SWAP1 DUP2 MSTORE PUSH1 0x20 ADD PUSH1 0x0 KECCAK256 DUP1 SLOAD SWAP1 POP DUP2 LT ISZERO PUSH2 0x2E93 JUMPI PUSH2 0x2E79 PUSH1 0x6 PUSH1 0x0 DUP8 DUP2 MSTORE PUSH1 0x20 ADD SWAP1 DUP2 MSTORE PUSH1 0x20 ADD PUSH1 0x0 KECCAK256 DUP3 DUP2 SLOAD DUP2 LT PUSH2 0x2D97 JUMPI PUSH2 0x2D96 PUSH2 0x5173 JUMP JUMPDEST JUMPDEST SWAP1 PUSH1 0x0 MSTORE PUSH1 0x20 PUSH1 0x0 KECCAK256 SWAP1 PUSH1 0x3 MUL ADD PUSH1 0x40 MLOAD DUP1 PUSH1 0x60 ADD PUSH1 0x40 MSTORE SWAP1 DUP2 PUSH1 0x0 DUP3 ADD SLOAD DUP2 MSTORE PUSH1 0x20 ADD PUSH1 0x1 DUP3 ADD DUP1 SLOAD DUP1 PUSH1 0x20 MUL PUSH1 0x20 ADD PUSH1 0x40 MLOAD SWAP1 DUP2 ADD PUSH1 0x40 MSTORE DUP1 SWAP3 SWAP2 SWAP1 DUP2 DUP2 MSTORE PUSH1 0x20 ADD DUP3 DUP1 SLOAD DUP1 ISZERO PUSH2 0x2E2F JUMPI PUSH1 0x20 MUL DUP3 ADD SWAP2 SWAP1 PUSH1 0x0 MSTORE PUSH1 0x20 PUSH1 0x0 KECCAK256 SWAP1 PUSH1 0x0 SWAP1 JUMPDEST DUP3 DUP3 SWAP1 SLOAD SWAP1 PUSH2 0x100 EXP SWAP1 DIV PUSH1 0xFF AND PUSH1 0xFF AND DUP2 MSTORE PUSH1 0x20 ADD SWAP1 PUSH1 0x1 ADD SWAP1 PUSH1 0x20 DUP3 PUSH1 0x0 ADD DIV SWAP3 DUP4 ADD SWAP3 PUSH1 0x1 SUB DUP3 MUL SWAP2 POP DUP1 DUP5 GT PUSH2 0x2DF8 JUMPI SWAP1 POP JUMPDEST POP POP POP POP POP DUP2 MSTORE PUSH1 0x20 ADD PUSH1 0x2 DUP3 ADD PUSH1 0x0 SWAP1 SLOAD SWAP1 PUSH2 0x100 EXP SWAP1 DIV PUSH1 0xFF AND PUSH1 0x14 DUP2 GT ISZERO PUSH2 0x2E5D JUMPI PUSH2 0x2E5C PUSH2 0x4E62 JUMP JUMPDEST JUMPDEST PUSH1 0x14 DUP2 GT ISZERO PUSH2 0x2E6F JUMPI PUSH2 0x2E6E PUSH2 0x4E62 JUMP JUMPDEST JUMPDEST DUP2 MSTORE POP POP DUP5 PUSH2 0x3B64 JUMP JUMPDEST DUP3 PUSH2 0x2E84 SWAP2 SWAP1 PUSH2 0x55D8 JUMP JUMPDEST SWAP2 POP DUP1 DUP1 PUSH1 0x1 ADD SWAP2 POP POP PUSH2 0x2D51 JUMP JUMPDEST POP PUSH1 0x0 DUP2 GT ISZERO PUSH2 0x2F72 JUMPI PUSH1 0x2 PUSH1 0x0 SWAP1 SLOAD SWAP1 PUSH2 0x100 EXP SWAP1 DIV PUSH20 0xFFFFFFFFFFFFFFFFFFFFFFFFFFFFFFFFFFFFFFFF AND PUSH20 0xFFFFFFFFFFFFFFFFFFFFFFFFFFFFFFFFFFFFFFFF AND PUSH4 0xA9059CBB PUSH1 0x7 PUSH1 0x0 DUP8 DUP2 MSTORE PUSH1 0x20 ADD SWAP1 DUP2 MSTORE PUSH1 0x20 ADD PUSH1 0x0 KECCAK256 PUSH1 0x0 SWAP1 SLOAD SWAP1 PUSH2 0x100 EXP SWAP1 DIV PUSH20 0xFFFFFFFFFFFFFFFFFFFFFFFFFFFFFFFFFFFFFFFF AND DUP4 PUSH1 0x40 MLOAD DUP4 PUSH4 0xFFFFFFFF AND PUSH1 0xE0 SHL DUP2 MSTORE PUSH1 0x4 ADD PUSH2 0x2F2D SWAP3 SWAP2 SWAP1 PUSH2 0x5D33 JUMP JUMPDEST PUSH1 0x20 PUSH1 0x40 MLOAD DUP1 DUP4 SUB DUP2 PUSH1 0x0 DUP8 GAS CALL ISZERO DUP1 ISZERO PUSH2 0x2F4C JUMPI RETURNDATASIZE PUSH1 0x0 DUP1 RETURNDATACOPY RETURNDATASIZE PUSH1 0x0 REVERT JUMPDEST POP POP POP POP PUSH1 0x40 MLOAD RETURNDATASIZE PUSH1 0x1F NOT PUSH1 0x1F DUP3 ADD AND DUP3 ADD DUP1 PUSH1 0x40 MSTORE POP DUP2 ADD SWAP1 PUSH2 0x2F70 SWAP2 SWAP1 PUSH2 0x57EA JUMP JUMPDEST POP JUMPDEST PUSH32 0x7DCDF51466F65224CE20B5F622C0D7F5FCBB55BAEA0E66D592E149DB90D63B49 DUP5 DUP4 DUP4 PUSH1 0x40 MLOAD PUSH2 0x2FA5 SWAP4 SWAP3 SWAP2 SWAP1 PUSH2 0x5DB6 JUMP JUMPDEST PUSH1 0x40 MLOAD DUP1 SWAP2 SUB SWAP1 LOG1 POP POP POP POP JUMP JUMPDEST PUSH2 0x2FBB PUSH2 0x45C1 JUMP JUMPDEST PUSH20 0xFFFFFFFFFFFFFFFFFFFFFFFFFFFFFFFFFFFFFFFF AND PUSH2 0x2FD9 PUSH2 0xE37 JUMP JUMPDEST PUSH20 0xFFFFFFFFFFFFFFFFFFFFFFFFFFFFFFFFFFFFFFFF AND EQ PUSH2 0x3038 JUMPI PUSH2 0x2FFC PUSH2 0x45C1 JUMP JUMPDEST PUSH1 0x40 MLOAD PUSH32 0x118CDAA700000000000000000000000000000000000000000000000000000000 DUP2 MSTORE PUSH1 0x4 ADD PUSH2 0x302F SWAP2 SWAP1 PUSH2 0x4F11 JUMP JUMPDEST PUSH1 0x40 MLOAD DUP1 SWAP2 SUB SWAP1 REVERT JUMPDEST JUMP JUMPDEST PUSH2 0x3042 PUSH2 0x46C3 JUMP JUMPDEST PUSH1 0x0 PUSH1 0x40 MLOAD DUP1 PUSH1 0xC0 ADD PUSH1 0x40 MSTORE DUP1 DUP10 PUSH1 0xFF AND PUSH1 0xFF AND DUP2 MSTORE PUSH1 0x20 ADD DUP9 PUSH1 0xFF AND PUSH1 0xFF AND DUP2 MSTORE PUSH1 0x20 ADD DUP8 PUSH1 0xFF AND PUSH1 0xFF AND DUP2 MSTORE PUSH1 0x20 ADD DUP7 PUSH1 0xFF AND PUSH1 0xFF AND DUP2 MSTORE PUSH1 0x20 ADD DUP6 PUSH1 0xFF AND PUSH1 0xFF AND DUP2 MSTORE PUSH1 0x20 ADD DUP5 PUSH1 0xFF AND PUSH1 0xFF AND DUP2 MSTORE POP SWAP1 POP PUSH1 0x0 JUMPDEST PUSH1 0x6 DUP2 PUSH1 0xFF AND LT ISZERO PUSH2 0x31AC JUMPI PUSH1 0x0 PUSH1 0x1 DUP3 PUSH2 0x30B5 SWAP2 SWAP1 PUSH2 0x5231 JUMP JUMPDEST SWAP1 POP JUMPDEST PUSH1 0x6 DUP2 PUSH1 0xFF AND LT ISZERO PUSH2 0x319E JUMPI DUP3 DUP2 PUSH1 0xFF AND PUSH1 0x6 DUP2 LT PUSH2 0x30DA JUMPI PUSH2 0x30D9 PUSH2 0x5173 JUMP JUMPDEST JUMPDEST PUSH1 0x20 MUL ADD MLOAD PUSH1 0xFF AND DUP4 DUP4 PUSH1 0xFF AND PUSH1 0x6 DUP2 LT PUSH2 0x30F8 JUMPI PUSH2 0x30F7 PUSH2 0x5173 JUMP JUMPDEST JUMPDEST PUSH1 0x20 MUL ADD MLOAD PUSH1 0xFF AND GT ISZERO PUSH2 0x3191 JUMPI PUSH1 0x0 DUP4 DUP4 PUSH1 0xFF AND PUSH1 0x6 DUP2 LT PUSH2 0x311E JUMPI PUSH2 0x311D PUSH2 0x5173 JUMP JUMPDEST JUMPDEST PUSH1 0x20 MUL ADD MLOAD SWAP1 POP DUP4 DUP3 PUSH1 0xFF AND PUSH1 0x6 DUP2 LT PUSH2 0x313B JUMPI PUSH2 0x313A PUSH2 0x5173 JUMP JUMPDEST JUMPDEST PUSH1 0x20 MUL ADD MLOAD DUP5 DUP5 PUSH1 0xFF AND PUSH1 0x6 DUP2 LT PUSH2 0x3156 JUMPI PUSH2 0x3155 PUSH2 0x5173 JUMP JUMPDEST JUMPDEST PUSH1 0x20 MUL ADD SWAP1 PUSH1 0xFF AND SWAP1 DUP2 PUSH1 0xFF AND DUP2 MSTORE POP POP DUP1 DUP5 DUP4 PUSH1 0xFF AND PUSH1 0x6 DUP2 LT PUSH2 0x317E JUMPI PUSH2 0x317D PUSH2 0x5173 JUMP JUMPDEST JUMPDEST PUSH1 0x20 MUL ADD SWAP1 PUSH1 0xFF AND SWAP1 DUP2 PUSH1 0xFF AND DUP2 MSTORE POP POP POP JUMPDEST DUP1 DUP1 PUSH1 0x1 ADD SWAP2 POP POP PUSH2 0x30B8 JUMP JUMPDEST POP DUP1 DUP1 PUSH1 0x1 ADD SWAP2 POP POP PUSH2 0x309A JUMP JUMPDEST POP DUP1 SWAP2 POP POP SWAP7 SWAP6 POP POP POP POP POP POP JUMP JUMPDEST PUSH1 0x0 PUSH32 0xF0C57E16840DF040F15088DC2F81FE391C3923BEC73E23A9662EFC9C229C6A00 SWAP1 POP SWAP1 JUMP JUMPDEST DUP2 PUSH1 0x2 PUSH1 0x0 PUSH2 0x100 EXP DUP2 SLOAD DUP2 PUSH20 0xFFFFFFFFFFFFFFFFFFFFFFFFFFFFFFFFFFFFFFFF MUL NOT AND SWAP1 DUP4 PUSH20 0xFFFFFFFFFFFFFFFFFFFFFFFFFFFFFFFFFFFFFFFF AND MUL OR SWAP1 SSTORE POP PUSH1 0x0 DUP2 SWAP1 POP PUSH1 0x0 PUSH1 0x9 DUP2 SWAP1 SSTORE POP PUSH1 0x0 PUSH1 0x2 PUSH1 0x14 PUSH2 0x100 EXP DUP2 SLOAD DUP2 PUSH1 0xFF MUL NOT AND SWAP1 DUP4 PUSH1 0xFF AND MUL OR SWAP1 SSTORE POP DUP1 PUSH20 0xFFFFFFFFFFFFFFFFFFFFFFFFFFFFFFFFFFFFFFFF AND PUSH4 0x1C4695F4 PUSH1 0x40 MLOAD DUP2 PUSH4 0xFFFFFFFF AND PUSH1 0xE0 SHL DUP2 MSTORE PUSH1 0x4 ADD PUSH1 0x20 PUSH1 0x40 MLOAD DUP1 DUP4 SUB DUP2 DUP7 GAS STATICCALL ISZERO DUP1 ISZERO PUSH2 0x3298 JUMPI RETURNDATASIZE PUSH1 0x0 DUP1 RETURNDATACOPY RETURNDATASIZE PUSH1 0x0 REVERT JUMPDEST POP POP POP POP PUSH1 0x40 MLOAD RETURNDATASIZE PUSH1 0x1F NOT PUSH1 0x1F DUP3 ADD AND DUP3 ADD DUP1 PUSH1 0x40 MSTORE POP DUP2 ADD SWAP1 PUSH2 0x32BC SWAP2 SWAP1 PUSH2 0x5E02 JUMP JUMPDEST PUSH1 0x0 DUP1 PUSH2 0x100 EXP DUP2 SLOAD DUP2 PUSH20 0xFFFFFFFFFFFFFFFFFFFFFFFFFFFFFFFFFFFFFFFF MUL NOT AND SWAP1 DUP4 PUSH20 0xFFFFFFFFFFFFFFFFFFFFFFFFFFFFFFFFFFFFFFFF AND MUL OR SWAP1 SSTORE POP DUP1 PUSH1 0x1 PUSH1 0x0 PUSH2 0x100 EXP DUP2 SLOAD DUP2 PUSH20 0xFFFFFFFFFFFFFFFFFFFFFFFFFFFFFFFFFFFFFFFF MUL NOT AND SWAP1 DUP4 PUSH20 0xFFFFFFFFFFFFFFFFFFFFFFFFFFFFFFFFFFFFFFFF AND MUL OR SWAP1 SSTORE POP PUSH2 0x3345 CALLER PUSH2 0x45C9 JUMP JUMPDEST PUSH1 0x40 MLOAD DUP1 PUSH2 0x180 ADD PUSH1 0x40 MSTORE DUP1 PUSH1 0x40 MLOAD DUP1 PUSH1 0x60 ADD PUSH1 0x40 MSTORE DUP1 PUSH1 0x1 PUSH1 0xFF AND DUP2 MSTORE PUSH1 0x20 ADD PUSH1 0x2 PUSH1 0xFF AND DUP2 MSTORE PUSH1 0x20 ADD PUSH1 0x3 PUSH1 0xFF AND DUP2 MSTORE POP DUP2 MSTORE PUSH1 0x20 ADD PUSH1 0x40 MLOAD DUP1 PUSH1 0x60 ADD PUSH1 0x40 MSTORE DUP1 PUSH1 0x4 PUSH1 0xFF AND DUP2 MSTORE PUSH1 0x20 ADD PUSH1 0x5 PUSH1 0xFF AND DUP2 MSTORE PUSH1 0x20 ADD PUSH1 0x6 PUSH1 0xFF AND DUP2 MSTORE POP DUP2 MSTORE PUSH1 0x20 ADD PUSH1 0x40 MLOAD DUP1 PUSH1 0x60 ADD PUSH1 0x40 MSTORE DUP1 PUSH1 0x7 PUSH1 0xFF AND DUP2 MSTORE PUSH1 0x20 ADD PUSH1 0x8 PUSH1 0xFF AND DUP2 MSTORE PUSH1 0x20 ADD PUSH1 0x9 PUSH1 0xFF AND DUP2 MSTORE POP DUP2 MSTORE PUSH1 0x20 ADD PUSH1 0x40 MLOAD DUP1 PUSH1 0x60 ADD PUSH1 0x40 MSTORE DUP1 PUSH1 0xA PUSH1 0xFF AND DUP2 MSTORE PUSH1 0x20 ADD PUSH1 0xB PUSH1 0xFF AND DUP2 MSTORE PUSH1 0x20 ADD PUSH1 0xC PUSH1 0xFF AND DUP2 MSTORE POP DUP2 MSTORE PUSH1 0x20 ADD PUSH1 0x40 MLOAD DUP1 PUSH1 0x60 ADD PUSH1 0x40 MSTORE DUP1 PUSH1 0xD PUSH1 0xFF AND DUP2 MSTORE PUSH1 0x20 ADD PUSH1 0xE PUSH1 0xFF AND DUP2 MSTORE PUSH1 0x20 ADD PUSH1 0xF PUSH1 0xFF AND DUP2 MSTORE POP DUP2 MSTORE PUSH1 0x20 ADD PUSH1 0x40 MLOAD DUP1 PUSH1 0x60 ADD PUSH1 0x40 MSTORE DUP1 PUSH1 0x10 PUSH1 0xFF AND DUP2 MSTORE PUSH1 0x20 ADD PUSH1 0x11 PUSH1 0xFF AND DUP2 MSTORE PUSH1 0x20 ADD PUSH1 0x12 PUSH1 0xFF AND DUP2 MSTORE POP DUP2 MSTORE PUSH1 0x20 ADD PUSH1 0x40 MLOAD DUP1 PUSH1 0x60 ADD PUSH1 0x40 MSTORE DUP1 PUSH1 0x13 PUSH1 0xFF AND DUP2 MSTORE PUSH1 0x20 ADD PUSH1 0x14 PUSH1 0xFF AND DUP2 MSTORE PUSH1 0x20 ADD PUSH1 0x15 PUSH1 0xFF AND DUP2 MSTORE POP DUP2 MSTORE PUSH1 0x20 ADD PUSH1 0x40 MLOAD DUP1 PUSH1 0x60 ADD PUSH1 0x40 MSTORE DUP1 PUSH1 0x16 PUSH1 0xFF AND DUP2 MSTORE PUSH1 0x20 ADD PUSH1 0x17 PUSH1 0xFF AND DUP2 MSTORE PUSH1 0x20 ADD PUSH1 0x18 PUSH1 0xFF AND DUP2 MSTORE POP DUP2 MSTORE PUSH1 0x20 ADD PUSH1 0x40 MLOAD DUP1 PUSH1 0x60 ADD PUSH1 0x40 MSTORE DUP1 PUSH1 0x19 PUSH1 0xFF AND DUP2 MSTORE PUSH1 0x20 ADD PUSH1 0x1A PUSH1 0xFF AND DUP2 MSTORE PUSH1 0x20 ADD PUSH1 0x1B PUSH1 0xFF AND DUP2 MSTORE POP DUP2 MSTORE PUSH1 0x20 ADD PUSH1 0x40 MLOAD DUP1 PUSH1 0x60 ADD PUSH1 0x40 MSTORE DUP1 PUSH1 0x1C PUSH1 0xFF AND DUP2 MSTORE PUSH1 0x20 ADD PUSH1 0x1D PUSH1 0xFF AND DUP2 MSTORE PUSH1 0x20 ADD PUSH1 0x1E PUSH1 0xFF AND DUP2 MSTORE POP DUP2 MSTORE PUSH1 0x20 ADD PUSH1 0x40 MLOAD DUP1 PUSH1 0x60 ADD PUSH1 0x40 MSTORE DUP1 PUSH1 0x1F PUSH1 0xFF AND DUP2 MSTORE PUSH1 0x20 ADD PUSH1 0x20 PUSH1 0xFF AND DUP2 MSTORE PUSH1 0x20 ADD PUSH1 0x21 PUSH1 0xFF AND DUP2 MSTORE POP DUP2 MSTORE PUSH1 0x20 ADD PUSH1 0x40 MLOAD DUP1 PUSH1 0x60 ADD PUSH1 0x40 MSTORE DUP1 PUSH1 0x22 PUSH1 0xFF AND DUP2 MSTORE PUSH1 0x20 ADD PUSH1 0x23 PUSH1 0xFF AND DUP2 MSTORE PUSH1 0x20 ADD PUSH1 0x24 PUSH1 0xFF AND DUP2 MSTORE POP DUP2 MSTORE POP PUSH1 0x3 SWAP1 PUSH1 0xC PUSH2 0x356F SWAP3 SWAP2 SWAP1 PUSH2 0x46E5 JUMP JUMPDEST POP PUSH1 0x40 MLOAD DUP1 PUSH2 0x240 ADD PUSH1 0x40 MSTORE DUP1 PUSH1 0x1 PUSH1 0xFF AND DUP2 MSTORE PUSH1 0x20 ADD PUSH1 0x3 PUSH1 0xFF AND DUP2 MSTORE PUSH1 0x20 ADD PUSH1 0x5 PUSH1 0xFF AND DUP2 MSTORE PUSH1 0x20 ADD PUSH1 0x7 PUSH1 0xFF AND DUP2 MSTORE PUSH1 0x20 ADD PUSH1 0x9 PUSH1 0xFF AND DUP2 MSTORE PUSH1 0x20 ADD PUSH1 0xC PUSH1 0xFF AND DUP2 MSTORE PUSH1 0x20 ADD PUSH1 0xE PUSH1 0xFF AND DUP2 MSTORE PUSH1 0x20 ADD PUSH1 0x10 PUSH1 0xFF AND DUP2 MSTORE PUSH1 0x20 ADD PUSH1 0x12 PUSH1 0xFF AND DUP2 MSTORE PUSH1 0x20 ADD PUSH1 0x13 PUSH1 0xFF AND DUP2 MSTORE PUSH1 0x20 ADD PUSH1 0x15 PUSH1 0xFF AND DUP2 MSTORE PUSH1 0x20 ADD PUSH1 0x17 PUSH1 0xFF AND DUP2 MSTORE PUSH1 0x20 ADD PUSH1 0x19 PUSH1 0xFF AND DUP2 MSTORE PUSH1 0x20 ADD PUSH1 0x1B PUSH1 0xFF AND DUP2 MSTORE PUSH1 0x20 ADD PUSH1 0x1E PUSH1 0xFF AND DUP2 MSTORE PUSH1 0x20 ADD PUSH1 0x20 PUSH1 0xFF AND DUP2 MSTORE PUSH1 0x20 ADD PUSH1 0x22 PUSH1 0xFF AND DUP2 MSTORE PUSH1 0x20 ADD PUSH1 0x24 PUSH1 0xFF AND DUP2 MSTORE POP PUSH1 0x4 SWAP1 PUSH1 0x12 PUSH2 0x363E SWAP3 SWAP2 SWAP1 PUSH2 0x4740 JUMP JUMPDEST POP PUSH1 0x40 MLOAD DUP1 PUSH2 0x240 ADD PUSH1 0x40 MSTORE DUP1 PUSH1 0x2 PUSH1 0xFF AND DUP2 MSTORE PUSH1 0x20 ADD PUSH1 0x4 PUSH1 0xFF AND DUP2 MSTORE PUSH1 0x20 ADD PUSH1 0x6 PUSH1 0xFF AND DUP2 MSTORE PUSH1 0x20 ADD PUSH1 0x8 PUSH1 0xFF AND DUP2 MSTORE PUSH1 0x20 ADD PUSH1 0xA PUSH1 0xFF AND DUP2 MSTORE PUSH1 0x20 ADD PUSH1 0xB PUSH1 0xFF AND DUP2 MSTORE PUSH1 0x20 ADD PUSH1 0xD PUSH1 0xFF AND DUP2 MSTORE PUSH1 0x20 ADD PUSH1 0xF PUSH1 0xFF AND DUP2 MSTORE PUSH1 0x20 ADD PUSH1 0x11 PUSH1 0xFF AND DUP2 MSTORE PUSH1 0x20 ADD PUSH1 0x14 PUSH1 0xFF AND DUP2 MSTORE PUSH1 0x20 ADD PUSH1 0x16 PUSH1 0xFF AND DUP2 MSTORE PUSH1 0x20 ADD PUSH1 0x18 PUSH1 0xFF AND DUP2 MSTORE PUSH1 0x20 ADD PUSH1 0x1A PUSH1 0xFF AND DUP2 MSTORE PUSH1 0x20 ADD PUSH1 0x1C PUSH1 0xFF AND DUP2 MSTORE PUSH1 0x20 ADD PUSH1 0x1D PUSH1 0xFF AND DUP2 MSTORE PUSH1 0x20 ADD PUSH1 0x1F PUSH1 0xFF AND DUP2 MSTORE PUSH1 0x20 ADD PUSH1 0x21 PUSH1 0xFF AND DUP2 MSTORE PUSH1 0x20 ADD PUSH1 0x23 PUSH1 0xFF AND DUP2 MSTORE POP PUSH1 0x5 SWAP1 PUSH1 0x12 PUSH2 0x370D SWAP3 SWAP2 SWAP1 PUSH2 0x4740 JUMP JUMPDEST POP POP POP POP JUMP JUMPDEST PUSH1 0x0 PUSH2 0x371D PUSH2 0x3951 JUMP JUMPDEST SWAP1 POP PUSH1 0x0 DUP2 PUSH1 0x0 ADD PUSH1 0x0 SWAP1 SLOAD SWAP1 PUSH2 0x100 EXP SWAP1 DIV PUSH20 0xFFFFFFFFFFFFFFFFFFFFFFFFFFFFFFFFFFFFFFFF AND SWAP1 POP DUP3 DUP3 PUSH1 0x0 ADD PUSH1 0x0 PUSH2 0x100 EXP DUP2 SLOAD DUP2 PUSH20 0xFFFFFFFFFFFFFFFFFFFFFFFFFFFFFFFFFFFFFFFF MUL NOT AND SWAP1 DUP4 PUSH20 0xFFFFFFFFFFFFFFFFFFFFFFFFFFFFFFFFFFFFFFFF AND MUL OR SWAP1 SSTORE POP DUP3 PUSH20 0xFFFFFFFFFFFFFFFFFFFFFFFFFFFFFFFFFFFFFFFF AND DUP2 PUSH20 0xFFFFFFFFFFFFFFFFFFFFFFFFFFFFFFFFFFFFFFFF AND PUSH32 0x8BE0079C531659141344CD1FD0A4F28419497F9722A3DAAFE3B4186F6B6457E0 PUSH1 0x40 MLOAD PUSH1 0x40 MLOAD DUP1 SWAP2 SUB SWAP1 LOG3 POP POP POP JUMP JUMPDEST PUSH2 0x37F2 PUSH2 0x47DA JUMP JUMPDEST PUSH1 0x0 PUSH1 0x40 MLOAD DUP1 PUSH1 0x80 ADD PUSH1 0x40 MSTORE DUP1 DUP8 PUSH1 0xFF AND PUSH1 0xFF AND DUP2 MSTORE PUSH1 0x20 ADD DUP7 PUSH1 0xFF AND PUSH1 0xFF AND DUP2 MSTORE PUSH1 0x20 ADD DUP6 PUSH1 0xFF AND PUSH1 0xFF AND DUP2 MSTORE PUSH1 0x20 ADD DUP5 PUSH1 0xFF AND PUSH1 0xFF AND DUP2 MSTORE POP SWAP1 POP PUSH1 0x0 JUMPDEST PUSH1 0x4 DUP2 PUSH1 0xFF AND LT ISZERO PUSH2 0x3944 JUMPI PUSH1 0x0 PUSH1 0x1 DUP3 PUSH2 0x384D SWAP2 SWAP1 PUSH2 0x5231 JUMP JUMPDEST SWAP1 POP JUMPDEST PUSH1 0x4 DUP2 PUSH1 0xFF AND LT ISZERO PUSH2 0x3936 JUMPI DUP3 DUP2 PUSH1 0xFF AND PUSH1 0x4 DUP2 LT PUSH2 0x3872 JUMPI PUSH2 0x3871 PUSH2 0x5173 JUMP JUMPDEST JUMPDEST PUSH1 0x20 MUL ADD MLOAD PUSH1 0xFF AND DUP4 DUP4 PUSH1 0xFF AND PUSH1 0x4 DUP2 LT PUSH2 0x3890 JUMPI PUSH2 0x388F PUSH2 0x5173 JUMP JUMPDEST JUMPDEST PUSH1 0x20 MUL ADD MLOAD PUSH1 0xFF AND GT ISZERO PUSH2 0x3929 JUMPI PUSH1 0x0 DUP4 DUP4 PUSH1 0xFF AND PUSH1 0x4 DUP2 LT PUSH2 0x38B6 JUMPI PUSH2 0x38B5 PUSH2 0x5173 JUMP JUMPDEST JUMPDEST PUSH1 0x20 MUL ADD MLOAD SWAP1 POP DUP4 DUP3 PUSH1 0xFF AND PUSH1 0x4 DUP2 LT PUSH2 0x38D3 JUMPI PUSH2 0x38D2 PUSH2 0x5173 JUMP JUMPDEST JUMPDEST PUSH1 0x20 MUL ADD MLOAD DUP5 DUP5 PUSH1 0xFF AND PUSH1 0x4 DUP2 LT PUSH2 0x38EE JUMPI PUSH2 0x38ED PUSH2 0x5173 JUMP JUMPDEST JUMPDEST PUSH1 0x20 MUL ADD SWAP1 PUSH1 0xFF AND SWAP1 DUP2 PUSH1 0xFF AND DUP2 MSTORE POP POP DUP1 DUP5 DUP4 PUSH1 0xFF AND PUSH1 0x4 DUP2 LT PUSH2 0x3916 JUMPI PUSH2 0x3915 PUSH2 0x5173 JUMP JUMPDEST JUMPDEST PUSH1 0x20 MUL ADD SWAP1 PUSH1 0xFF AND SWAP1 DUP2 PUSH1 0xFF AND DUP2 MSTORE POP POP POP JUMPDEST DUP1 DUP1 PUSH1 0x1 ADD SWAP2 POP POP PUSH2 0x3850 JUMP JUMPDEST POP DUP1 DUP1 PUSH1 0x1 ADD SWAP2 POP POP PUSH2 0x3832 JUMP JUMPDEST POP DUP1 SWAP2 POP POP SWAP5 SWAP4 POP POP POP POP JUMP JUMPDEST PUSH1 0x0 PUSH32 0x9016D09D72D40FDAE2FD8CEAC6B6234C7706214FD39C1CD1E609A0528C199300 SWAP1 POP SWAP1 JUMP JUMPDEST PUSH1 0x60 PUSH32 0x92FD13387C7FE7BEFBC38D303D6468778FB9731BC4583F17D92989C6FCFDEAAA DUP3 PUSH1 0x40 MLOAD PUSH1 0x24 ADD PUSH2 0x39AD SWAP2 SWAP1 PUSH2 0x5E5A JUMP JUMPDEST PUSH1 0x40 MLOAD PUSH1 0x20 DUP2 DUP4 SUB SUB DUP2 MSTORE SWAP1 PUSH1 0x40 MSTORE SWAP1 PUSH28 0xFFFFFFFFFFFFFFFFFFFFFFFFFFFFFFFFFFFFFFFFFFFFFFFFFFFFFFFF NOT AND PUSH1 0x20 DUP3 ADD DUP1 MLOAD PUSH28 0xFFFFFFFFFFFFFFFFFFFFFFFFFFFFFFFFFFFFFFFFFFFFFFFFFFFFFFFF DUP4 DUP2 DUP4 AND OR DUP4 MSTORE POP POP POP POP SWAP1 POP SWAP2 SWAP1 POP JUMP JUMPDEST PUSH1 0x0 DUP1 PUSH1 0x1 PUSH1 0x0 SWAP1 SLOAD SWAP1 PUSH2 0x100 EXP SWAP1 DIV PUSH20 0xFFFFFFFFFFFFFFFFFFFFFFFFFFFFFFFFFFFFFFFF AND PUSH20 0xFFFFFFFFFFFFFFFFFFFFFFFFFFFFFFFFFFFFFFFF AND PUSH4 0x13C34B7F DUP8 DUP7 PUSH1 0x40 MLOAD DUP4 PUSH4 0xFFFFFFFF AND PUSH1 0xE0 SHL DUP2 MSTORE PUSH1 0x4 ADD PUSH2 0x3A71 SWAP3 SWAP2 SWAP1 PUSH2 0x5E94 JUMP JUMPDEST PUSH1 0x20 PUSH1 0x40 MLOAD DUP1 DUP4 SUB DUP2 DUP7 GAS STATICCALL ISZERO DUP1 ISZERO PUSH2 0x3A8E JUMPI RETURNDATASIZE PUSH1 0x0 DUP1 RETURNDATACOPY RETURNDATASIZE PUSH1 0x0 REVERT JUMPDEST POP POP POP POP PUSH1 0x40 MLOAD RETURNDATASIZE PUSH1 0x1F NOT PUSH1 0x1F DUP3 ADD AND DUP3 ADD DUP1 PUSH1 0x40 MSTORE POP DUP2 ADD SWAP1 PUSH2 0x3AB2 SWAP2 SWAP1 PUSH2 0x5694 JUMP JUMPDEST SWAP1 POP PUSH1 0x1 PUSH1 0x0 SWAP1 SLOAD SWAP1 PUSH2 0x100 EXP SWAP1 DIV PUSH20 0xFFFFFFFFFFFFFFFFFFFFFFFFFFFFFFFFFFFFFFFF AND PUSH20 0xFFFFFFFFFFFFFFFFFFFFFFFFFFFFFFFFFFFFFFFF AND PUSH4 0x9CFC058E DUP3 DUP9 DUP9 DUP9 DUP9 PUSH1 0x40 MLOAD DUP7 PUSH4 0xFFFFFFFF AND PUSH1 0xE0 SHL DUP2 MSTORE PUSH1 0x4 ADD PUSH2 0x3B16 SWAP5 SWAP4 SWAP3 SWAP2 SWAP1 PUSH2 0x5F59 JUMP JUMPDEST PUSH1 0x20 PUSH1 0x40 MLOAD DUP1 DUP4 SUB DUP2 DUP6 DUP9 GAS CALL ISZERO DUP1 ISZERO PUSH2 0x3B34 JUMPI RETURNDATASIZE PUSH1 0x0 DUP1 RETURNDATACOPY RETURNDATASIZE PUSH1 0x0 REVERT JUMPDEST POP POP POP POP POP PUSH1 0x40 MLOAD RETURNDATASIZE PUSH1 0x1F NOT PUSH1 0x1F DUP3 ADD AND DUP3 ADD DUP1 PUSH1 0x40 MSTORE POP DUP2 ADD SWAP1 PUSH2 0x3B59 SWAP2 SWAP1 PUSH2 0x5694 JUMP JUMPDEST SWAP2 POP SWAP5 POP SWAP5 SWAP3 POP POP POP JUMP JUMPDEST PUSH1 0x0 DUP1 PUSH1 0x14 DUP2 GT ISZERO PUSH2 0x3B79 JUMPI PUSH2 0x3B78 PUSH2 0x4E62 JUMP JUMPDEST JUMPDEST DUP4 PUSH1 0x40 ADD MLOAD PUSH1 0x14 DUP2 GT ISZERO PUSH2 0x3B90 JUMPI PUSH2 0x3B8F PUSH2 0x4E62 JUMP JUMPDEST JUMPDEST SUB PUSH2 0x3BB5 JUMPI PUSH1 0x0 DUP3 PUSH1 0xFF AND SUB PUSH2 0x3BB4 JUMPI PUSH1 0x24 DUP4 PUSH1 0x0 ADD MLOAD PUSH2 0x3BB1 SWAP2 SWAP1 PUSH2 0x560C JUMP JUMPDEST SWAP1 POP JUMPDEST JUMPDEST PUSH1 0x1 PUSH1 0x14 DUP2 GT ISZERO PUSH2 0x3BC9 JUMPI PUSH2 0x3BC8 PUSH2 0x4E62 JUMP JUMPDEST JUMPDEST DUP4 PUSH1 0x40 ADD MLOAD PUSH1 0x14 DUP2 GT ISZERO PUSH2 0x3BE0 JUMPI PUSH2 0x3BDF PUSH2 0x4E62 JUMP JUMPDEST JUMPDEST SUB PUSH2 0x3C05 JUMPI PUSH1 0x25 DUP3 PUSH1 0xFF AND SUB PUSH2 0x3C04 JUMPI PUSH1 0x24 DUP4 PUSH1 0x0 ADD MLOAD PUSH2 0x3C01 SWAP2 SWAP1 PUSH2 0x560C JUMP JUMPDEST SWAP1 POP JUMPDEST JUMPDEST PUSH1 0x2 PUSH1 0x14 DUP2 GT ISZERO PUSH2 0x3C19 JUMPI PUSH2 0x3C18 PUSH2 0x4E62 JUMP JUMPDEST JUMPDEST DUP4 PUSH1 0x40 ADD MLOAD PUSH1 0x14 DUP2 GT ISZERO PUSH2 0x3C30 JUMPI PUSH2 0x3C2F PUSH2 0x4E62 JUMP JUMPDEST JUMPDEST SUB PUSH2 0x3C97 JUMPI PUSH1 0x0 JUMPDEST DUP4 PUSH1 0x20 ADD MLOAD MLOAD DUP2 LT ISZERO PUSH2 0x3C95 JUMPI DUP3 PUSH1 0xFF AND DUP5 PUSH1 0x20 ADD MLOAD DUP3 DUP2 MLOAD DUP2 LT PUSH2 0x3C60 JUMPI PUSH2 0x3C5F PUSH2 0x5173 JUMP JUMPDEST JUMPDEST PUSH1 0x20 MUL PUSH1 0x20 ADD ADD MLOAD PUSH1 0xFF AND SUB PUSH2 0x3C88 JUMPI PUSH1 0xC DUP5 PUSH1 0x0 ADD MLOAD PUSH2 0x3C81 SWAP2 SWAP1 PUSH2 0x560C JUMP JUMPDEST SWAP2 POP PUSH2 0x3C95 JUMP JUMPDEST DUP1 DUP1 PUSH1 0x1 ADD SWAP2 POP POP PUSH2 0x3C38 JUMP JUMPDEST POP JUMPDEST PUSH1 0x5 PUSH1 0x14 DUP2 GT ISZERO PUSH2 0x3CAB JUMPI PUSH2 0x3CAA PUSH2 0x4E62 JUMP JUMPDEST JUMPDEST DUP4 PUSH1 0x40 ADD MLOAD PUSH1 0x14 DUP2 GT ISZERO PUSH2 0x3CC2 JUMPI PUSH2 0x3CC1 PUSH2 0x4E62 JUMP JUMPDEST JUMPDEST SUB PUSH2 0x3D29 JUMPI PUSH1 0x0 JUMPDEST DUP4 PUSH1 0x20 ADD MLOAD MLOAD DUP2 LT ISZERO PUSH2 0x3D27 JUMPI DUP3 PUSH1 0xFF AND DUP5 PUSH1 0x20 ADD MLOAD DUP3 DUP2 MLOAD DUP2 LT PUSH2 0x3CF2 JUMPI PUSH2 0x3CF1 PUSH2 0x5173 JUMP JUMPDEST JUMPDEST PUSH1 0x20 MUL PUSH1 0x20 ADD ADD MLOAD PUSH1 0xFF AND SUB PUSH2 0x3D1A JUMPI PUSH1 0x12 DUP5 PUSH1 0x0 ADD MLOAD PUSH2 0x3D13 SWAP2 SWAP1 PUSH2 0x560C JUMP JUMPDEST SWAP2 POP PUSH2 0x3D27 JUMP JUMPDEST DUP1 DUP1 PUSH1 0x1 ADD SWAP2 POP POP PUSH2 0x3CCA JUMP JUMPDEST POP JUMPDEST PUSH1 0x6 PUSH1 0x14 DUP2 GT ISZERO PUSH2 0x3D3D JUMPI PUSH2 0x3D3C PUSH2 0x4E62 JUMP JUMPDEST JUMPDEST DUP4 PUSH1 0x40 ADD MLOAD PUSH1 0x14 DUP2 GT ISZERO PUSH2 0x3D54 JUMPI PUSH2 0x3D53 PUSH2 0x4E62 JUMP JUMPDEST JUMPDEST SUB PUSH2 0x3DBB JUMPI PUSH1 0x0 JUMPDEST DUP4 PUSH1 0x20 ADD MLOAD MLOAD DUP2 LT ISZERO PUSH2 0x3DB9 JUMPI DUP3 PUSH1 0xFF AND DUP5 PUSH1 0x20 ADD MLOAD DUP3 DUP2 MLOAD DUP2 LT PUSH2 0x3D84 JUMPI PUSH2 0x3D83 PUSH2 0x5173 JUMP JUMPDEST JUMPDEST PUSH1 0x20 MUL PUSH1 0x20 ADD ADD MLOAD PUSH1 0xFF AND SUB PUSH2 0x3DAC JUMPI PUSH1 0x9 DUP5 PUSH1 0x0 ADD MLOAD PUSH2 0x3DA5 SWAP2 SWAP1 PUSH2 0x560C JUMP JUMPDEST SWAP2 POP PUSH2 0x3DB9 JUMP JUMPDEST DUP1 DUP1 PUSH1 0x1 ADD SWAP2 POP POP PUSH2 0x3D5C JUMP JUMPDEST POP JUMPDEST PUSH1 0x7 PUSH1 0x14 DUP2 GT ISZERO PUSH2 0x3DCF JUMPI PUSH2 0x3DCE PUSH2 0x4E62 JUMP JUMPDEST JUMPDEST DUP4 PUSH1 0x40 ADD MLOAD PUSH1 0x14 DUP2 GT ISZERO PUSH2 0x3DE6 JUMPI PUSH2 0x3DE5 PUSH2 0x4E62 JUMP JUMPDEST JUMPDEST SUB PUSH2 0x3E4D JUMPI PUSH1 0x0 JUMPDEST DUP4 PUSH1 0x20 ADD MLOAD MLOAD DUP2 LT ISZERO PUSH2 0x3E4B JUMPI DUP3 PUSH1 0xFF AND DUP5 PUSH1 0x20 ADD MLOAD DUP3 DUP2 MLOAD DUP2 LT PUSH2 0x3E16 JUMPI PUSH2 0x3E15 PUSH2 0x5173 JUMP JUMPDEST JUMPDEST PUSH1 0x20 MUL PUSH1 0x20 ADD ADD MLOAD PUSH1 0xFF AND SUB PUSH2 0x3E3E JUMPI PUSH1 0x6 DUP5 PUSH1 0x0 ADD MLOAD PUSH2 0x3E37 SWAP2 SWAP1 PUSH2 0x560C JUMP JUMPDEST SWAP2 POP PUSH2 0x3E4B JUMP JUMPDEST DUP1 DUP1 PUSH1 0x1 ADD SWAP2 POP POP PUSH2 0x3DEE JUMP JUMPDEST POP JUMPDEST PUSH1 0x8 PUSH1 0x14 DUP2 GT ISZERO PUSH2 0x3E61 JUMPI PUSH2 0x3E60 PUSH2 0x4E62 JUMP JUMPDEST JUMPDEST DUP4 PUSH1 0x40 ADD MLOAD PUSH1 0x14 DUP2 GT ISZERO PUSH2 0x3E78 JUMPI PUSH2 0x3E77 PUSH2 0x4E62 JUMP JUMPDEST JUMPDEST SUB PUSH2 0x3EBE JUMPI DUP2 PUSH1 0xFF AND DUP4 PUSH1 0x20 ADD MLOAD PUSH1 0x0 DUP2 MLOAD DUP2 LT PUSH2 0x3E99 JUMPI PUSH2 0x3E98 PUSH2 0x5173 JUMP JUMPDEST JUMPDEST PUSH1 0x20 MUL PUSH1 0x20 ADD ADD MLOAD PUSH1 0xFF AND SUB PUSH2 0x3EBD JUMPI PUSH1 0x24 DUP4 PUSH1 0x0 ADD MLOAD PUSH2 0x3EBA SWAP2 SWAP1 PUSH2 0x560C JUMP JUMPDEST SWAP1 POP JUMPDEST JUMPDEST PUSH1 0x9 PUSH1 0x14 DUP2 GT ISZERO PUSH2 0x3ED2 JUMPI PUSH2 0x3ED1 PUSH2 0x4E62 JUMP JUMPDEST JUMPDEST DUP4 PUSH1 0x40 ADD MLOAD PUSH1 0x14 DUP2 GT ISZERO PUSH2 0x3EE9 JUMPI PUSH2 0x3EE8 PUSH2 0x4E62 JUMP JUMPDEST JUMPDEST SUB PUSH2 0x3FCC JUMPI PUSH1 0x0 PUSH1 0x40 MLOAD DUP1 PUSH2 0x180 ADD PUSH1 0x40 MSTORE DUP1 PUSH1 0x1 PUSH1 0xFF AND DUP2 MSTORE PUSH1 0x20 ADD PUSH1 0x4 PUSH1 0xFF AND DUP2 MSTORE PUSH1 0x20 ADD PUSH1 0x7 PUSH1 0xFF AND DUP2 MSTORE PUSH1 0x20 ADD PUSH1 0xA PUSH1 0xFF AND DUP2 MSTORE PUSH1 0x20 ADD PUSH1 0xD PUSH1 0xFF AND DUP2 MSTORE PUSH1 0x20 ADD PUSH1 0x10 PUSH1 0xFF AND DUP2 MSTORE PUSH1 0x20 ADD PUSH1 0x13 PUSH1 0xFF AND DUP2 MSTORE PUSH1 0x20 ADD PUSH1 0x16 PUSH1 0xFF AND DUP2 MSTORE PUSH1 0x20 ADD PUSH1 0x19 PUSH1 0xFF AND DUP2 MSTORE PUSH1 0x20 ADD PUSH1 0x1C PUSH1 0xFF AND DUP2 MSTORE PUSH1 0x20 ADD PUSH1 0x1F PUSH1 0xFF AND DUP2 MSTORE PUSH1 0x20 ADD PUSH1 0x22 PUSH1 0xFF AND DUP2 MSTORE POP SWAP1 POP PUSH1 0x0 JUMPDEST PUSH1 0xC DUP2 LT ISZERO PUSH2 0x3FC9 JUMPI DUP4 PUSH1 0xFF AND DUP3 DUP3 PUSH1 0xC DUP2 LT PUSH2 0x3F97 JUMPI PUSH2 0x3F96 PUSH2 0x5173 JUMP JUMPDEST JUMPDEST PUSH1 0x20 MUL ADD MLOAD PUSH1 0xFF AND SUB PUSH2 0x3FBC JUMPI PUSH1 0x3 DUP6 PUSH1 0x0 ADD MLOAD PUSH2 0x3FB5 SWAP2 SWAP1 PUSH2 0x560C JUMP JUMPDEST SWAP3 POP PUSH2 0x3FC9 JUMP JUMPDEST DUP1 DUP1 PUSH1 0x1 ADD SWAP2 POP POP PUSH2 0x3F77 JUMP JUMPDEST POP POP JUMPDEST PUSH1 0xA PUSH1 0x14 DUP2 GT ISZERO PUSH2 0x3FE0 JUMPI PUSH2 0x3FDF PUSH2 0x4E62 JUMP JUMPDEST JUMPDEST DUP4 PUSH1 0x40 ADD MLOAD PUSH1 0x14 DUP2 GT ISZERO PUSH2 0x3FF7 JUMPI PUSH2 0x3FF6 PUSH2 0x4E62 JUMP JUMPDEST JUMPDEST SUB PUSH2 0x40DA JUMPI PUSH1 0x0 PUSH1 0x40 MLOAD DUP1 PUSH2 0x180 ADD PUSH1 0x40 MSTORE DUP1 PUSH1 0x2 PUSH1 0xFF AND DUP2 MSTORE PUSH1 0x20 ADD PUSH1 0x5 PUSH1 0xFF AND DUP2 MSTORE PUSH1 0x20 ADD PUSH1 0x8 PUSH1 0xFF AND DUP2 MSTORE PUSH1 0x20 ADD PUSH1 0xB PUSH1 0xFF AND DUP2 MSTORE PUSH1 0x20 ADD PUSH1 0xE PUSH1 0xFF AND DUP2 MSTORE PUSH1 0x20 ADD PUSH1 0x11 PUSH1 0xFF AND DUP2 MSTORE PUSH1 0x20 ADD PUSH1 0x14 PUSH1 0xFF AND DUP2 MSTORE PUSH1 0x20 ADD PUSH1 0x17 PUSH1 0xFF AND DUP2 MSTORE PUSH1 0x20 ADD PUSH1 0x1A PUSH1 0xFF AND DUP2 MSTORE PUSH1 0x20 ADD PUSH1 0x1D PUSH1 0xFF AND DUP2 MSTORE PUSH1 0x20 ADD PUSH1 0x20 PUSH1 0xFF AND DUP2 MSTORE PUSH1 0x20 ADD PUSH1 0x23 PUSH1 0xFF AND DUP2 MSTORE POP SWAP1 POP PUSH1 0x0 JUMPDEST PUSH1 0xC DUP2 LT ISZERO PUSH2 0x40D7 JUMPI DUP4 PUSH1 0xFF AND DUP3 DUP3 PUSH1 0xC DUP2 LT PUSH2 0x40A5 JUMPI PUSH2 0x40A4 PUSH2 0x5173 JUMP JUMPDEST JUMPDEST PUSH1 0x20 MUL ADD MLOAD PUSH1 0xFF AND SUB PUSH2 0x40CA JUMPI PUSH1 0x3 DUP6 PUSH1 0x0 ADD MLOAD PUSH2 0x40C3 SWAP2 SWAP1 PUSH2 0x560C JUMP JUMPDEST SWAP3 POP PUSH2 0x40D7 JUMP JUMPDEST DUP1 DUP1 PUSH1 0x1 ADD SWAP2 POP POP PUSH2 0x4085 JUMP JUMPDEST POP POP JUMPDEST PUSH1 0xB PUSH1 0x14 DUP2 GT ISZERO PUSH2 0x40EE JUMPI PUSH2 0x40ED PUSH2 0x4E62 JUMP JUMPDEST JUMPDEST DUP4 PUSH1 0x40 ADD MLOAD PUSH1 0x14 DUP2 GT ISZERO PUSH2 0x4105 JUMPI PUSH2 0x4104 PUSH2 0x4E62 JUMP JUMPDEST JUMPDEST SUB PUSH2 0x41E8 JUMPI PUSH1 0x0 PUSH1 0x40 MLOAD DUP1 PUSH2 0x180 ADD PUSH1 0x40 MSTORE DUP1 PUSH1 0x3 PUSH1 0xFF AND DUP2 MSTORE PUSH1 0x20 ADD PUSH1 0x6 PUSH1 0xFF AND DUP2 MSTORE PUSH1 0x20 ADD PUSH1 0x9 PUSH1 0xFF AND DUP2 MSTORE PUSH1 0x20 ADD PUSH1 0xC PUSH1 0xFF AND DUP2 MSTORE PUSH1 0x20 ADD PUSH1 0xF PUSH1 0xFF AND DUP2 MSTORE PUSH1 0x20 ADD PUSH1 0x12 PUSH1 0xFF AND DUP2 MSTORE PUSH1 0x20 ADD PUSH1 0x15 PUSH1 0xFF AND DUP2 MSTORE PUSH1 0x20 ADD PUSH1 0x18 PUSH1 0xFF AND DUP2 MSTORE PUSH1 0x20 ADD PUSH1 0x1B PUSH1 0xFF AND DUP2 MSTORE PUSH1 0x20 ADD PUSH1 0x1E PUSH1 0xFF AND DUP2 MSTORE PUSH1 0x20 ADD PUSH1 0x21 PUSH1 0xFF AND DUP2 MSTORE PUSH1 0x20 ADD PUSH1 0x24 PUSH1 0xFF AND DUP2 MSTORE POP SWAP1 POP PUSH1 0x0 JUMPDEST PUSH1 0xC DUP2 LT ISZERO PUSH2 0x41E5 JUMPI DUP4 PUSH1 0xFF AND DUP3 DUP3 PUSH1 0xC DUP2 LT PUSH2 0x41B3 JUMPI PUSH2 0x41B2 PUSH2 0x5173 JUMP JUMPDEST JUMPDEST PUSH1 0x20 MUL ADD MLOAD PUSH1 0xFF AND SUB PUSH2 0x41D8 JUMPI PUSH1 0x3 DUP6 PUSH1 0x0 ADD MLOAD PUSH2 0x41D1 SWAP2 SWAP1 PUSH2 0x560C JUMP JUMPDEST SWAP3 POP PUSH2 0x41E5 JUMP JUMPDEST DUP1 DUP1 PUSH1 0x1 ADD SWAP2 POP POP PUSH2 0x4193 JUMP JUMPDEST POP POP JUMPDEST PUSH1 0xC PUSH1 0x14 DUP2 GT ISZERO PUSH2 0x41FC JUMPI PUSH2 0x41FB PUSH2 0x4E62 JUMP JUMPDEST JUMPDEST DUP4 PUSH1 0x40 ADD MLOAD PUSH1 0x14 DUP2 GT ISZERO PUSH2 0x4213 JUMPI PUSH2 0x4212 PUSH2 0x4E62 JUMP JUMPDEST JUMPDEST SUB PUSH2 0x424A JUMPI PUSH1 0x1 DUP3 PUSH1 0xFF AND LT ISZERO DUP1 ISZERO PUSH2 0x4230 JUMPI POP PUSH1 0xC DUP3 PUSH1 0xFF AND GT ISZERO JUMPDEST ISZERO PUSH2 0x4249 JUMPI PUSH1 0x3 DUP4 PUSH1 0x0 ADD MLOAD PUSH2 0x4246 SWAP2 SWAP1 PUSH2 0x560C JUMP JUMPDEST SWAP1 POP JUMPDEST JUMPDEST PUSH1 0xD PUSH1 0x14 DUP2 GT ISZERO PUSH2 0x425E JUMPI PUSH2 0x425D PUSH2 0x4E62 JUMP JUMPDEST JUMPDEST DUP4 PUSH1 0x40 ADD MLOAD PUSH1 0x14 DUP2 GT ISZERO PUSH2 0x4275 JUMPI PUSH2 0x4274 PUSH2 0x4E62 JUMP JUMPDEST JUMPDEST SUB PUSH2 0x42AC JUMPI PUSH1 0xD DUP3 PUSH1 0xFF AND LT ISZERO DUP1 ISZERO PUSH2 0x4292 JUMPI POP PUSH1 0x18 DUP3 PUSH1 0xFF AND GT ISZERO JUMPDEST ISZERO PUSH2 0x42AB JUMPI PUSH1 0x3 DUP4 PUSH1 0x0 ADD MLOAD PUSH2 0x42A8 SWAP2 SWAP1 PUSH2 0x560C JUMP JUMPDEST SWAP1 POP JUMPDEST JUMPDEST PUSH1 0xE PUSH1 0x14 DUP2 GT ISZERO PUSH2 0x42C0 JUMPI PUSH2 0x42BF PUSH2 0x4E62 JUMP JUMPDEST JUMPDEST DUP4 PUSH1 0x40 ADD MLOAD PUSH1 0x14 DUP2 GT ISZERO PUSH2 0x42D7 JUMPI PUSH2 0x42D6 PUSH2 0x4E62 JUMP JUMPDEST JUMPDEST SUB PUSH2 0x430E JUMPI PUSH1 0x19 DUP3 PUSH1 0xFF AND LT ISZERO DUP1 ISZERO PUSH2 0x42F4 JUMPI POP PUSH1 0x24 DUP3 PUSH1 0xFF AND GT ISZERO JUMPDEST ISZERO PUSH2 0x430D JUMPI PUSH1 0x3 DUP4 PUSH1 0x0 ADD MLOAD PUSH2 0x430A SWAP2 SWAP1 PUSH2 0x560C JUMP JUMPDEST SWAP1 POP JUMPDEST JUMPDEST PUSH1 0xF PUSH1 0x14 DUP2 GT ISZERO PUSH2 0x4322 JUMPI PUSH2 0x4321 PUSH2 0x4E62 JUMP JUMPDEST JUMPDEST DUP4 PUSH1 0x40 ADD MLOAD PUSH1 0x14 DUP2 GT ISZERO PUSH2 0x4339 JUMPI PUSH2 0x4338 PUSH2 0x4E62 JUMP JUMPDEST JUMPDEST SUB PUSH2 0x4370 JUMPI PUSH1 0x1 DUP3 PUSH1 0xFF AND LT ISZERO DUP1 ISZERO PUSH2 0x4356 JUMPI POP PUSH1 0x12 DUP3 PUSH1 0xFF AND GT ISZERO JUMPDEST ISZERO PUSH2 0x436F JUMPI PUSH1 0x2 DUP4 PUSH1 0x0 ADD MLOAD PUSH2 0x436C SWAP2 SWAP1 PUSH2 0x560C JUMP JUMPDEST SWAP1 POP JUMPDEST JUMPDEST PUSH1 0x10 PUSH1 0x14 DUP2 GT ISZERO PUSH2 0x4384 JUMPI PUSH2 0x4383 PUSH2 0x4E62 JUMP JUMPDEST JUMPDEST DUP4 PUSH1 0x40 ADD MLOAD PUSH1 0x14 DUP2 GT ISZERO PUSH2 0x439B JUMPI PUSH2 0x439A PUSH2 0x4E62 JUMP JUMPDEST JUMPDEST SUB PUSH2 0x43D2 JUMPI PUSH1 0x13 DUP3 PUSH1 0xFF AND LT ISZERO DUP1 ISZERO PUSH2 0x43B8 JUMPI POP PUSH1 0x24 DUP3 PUSH1 0xFF AND GT ISZERO JUMPDEST ISZERO PUSH2 0x43D1 JUMPI PUSH1 0x2 DUP4 PUSH1 0x0 ADD MLOAD PUSH2 0x43CE SWAP2 SWAP1 PUSH2 0x560C JUMP JUMPDEST SWAP1 POP JUMPDEST JUMPDEST PUSH1 0x11 PUSH1 0x14 DUP2 GT ISZERO PUSH2 0x43E6 JUMPI PUSH2 0x43E5 PUSH2 0x4E62 JUMP JUMPDEST JUMPDEST DUP4 PUSH1 0x40 ADD MLOAD PUSH1 0x14 DUP2 GT ISZERO PUSH2 0x43FD JUMPI PUSH2 0x43FC PUSH2 0x4E62 JUMP JUMPDEST JUMPDEST SUB PUSH2 0x442E JUMPI PUSH1 0x0 PUSH1 0x2 DUP4 PUSH2 0x4411 SWAP2 SWAP1 PUSH2 0x51D1 JUMP JUMPDEST PUSH1 0xFF AND SUB PUSH2 0x442D JUMPI PUSH1 0x2 DUP4 PUSH1 0x0 ADD MLOAD PUSH2 0x442A SWAP2 SWAP1 PUSH2 0x560C JUMP JUMPDEST SWAP1 POP JUMPDEST JUMPDEST PUSH1 0x12 PUSH1 0x14 DUP2 GT ISZERO PUSH2 0x4442 JUMPI PUSH2 0x4441 PUSH2 0x4E62 JUMP JUMPDEST JUMPDEST DUP4 PUSH1 0x40 ADD MLOAD PUSH1 0x14 DUP2 GT ISZERO PUSH2 0x4459 JUMPI PUSH2 0x4458 PUSH2 0x4E62 JUMP JUMPDEST JUMPDEST SUB PUSH2 0x448A JUMPI PUSH1 0x1 PUSH1 0x2 DUP4 PUSH2 0x446D SWAP2 SWAP1 PUSH2 0x51D1 JUMP JUMPDEST PUSH1 0xFF AND SUB PUSH2 0x4489 JUMPI PUSH1 0x2 DUP4 PUSH1 0x0 ADD MLOAD PUSH2 0x4486 SWAP2 SWAP1 PUSH2 0x560C JUMP JUMPDEST SWAP1 POP JUMPDEST JUMPDEST PUSH1 0x13 PUSH1 0x14 DUP2 GT ISZERO PUSH2 0x449E JUMPI PUSH2 0x449D PUSH2 0x4E62 JUMP JUMPDEST JUMPDEST DUP4 PUSH1 0x40 ADD MLOAD PUSH1 0x14 DUP2 GT ISZERO PUSH2 0x44B5 JUMPI PUSH2 0x44B4 PUSH2 0x4E62 JUMP JUMPDEST JUMPDEST SUB PUSH2 0x4523 JUMPI PUSH1 0x0 JUMPDEST PUSH1 0x12 DUP2 LT ISZERO PUSH2 0x4521 JUMPI DUP3 PUSH1 0xFF AND PUSH1 0x4 DUP3 PUSH1 0x12 DUP2 LT PUSH2 0x44DE JUMPI PUSH2 0x44DD PUSH2 0x5173 JUMP JUMPDEST JUMPDEST PUSH1 0x20 SWAP2 DUP3 DUP3 DIV ADD SWAP2 SWAP1 MOD SWAP1 SLOAD SWAP1 PUSH2 0x100 EXP SWAP1 DIV PUSH1 0xFF AND PUSH1 0xFF AND SUB PUSH2 0x4514 JUMPI PUSH1 0x2 DUP5 PUSH1 0x0 ADD MLOAD PUSH2 0x450D SWAP2 SWAP1 PUSH2 0x560C JUMP JUMPDEST SWAP2 POP PUSH2 0x4521 JUMP JUMPDEST DUP1 DUP1 PUSH1 0x1 ADD SWAP2 POP POP PUSH2 0x44BD JUMP JUMPDEST POP JUMPDEST PUSH1 0x14 DUP1 DUP2 GT ISZERO PUSH2 0x4536 JUMPI PUSH2 0x4535 PUSH2 0x4E62 JUMP JUMPDEST JUMPDEST DUP4 PUSH1 0x40 ADD MLOAD PUSH1 0x14 DUP2 GT ISZERO PUSH2 0x454D JUMPI PUSH2 0x454C PUSH2 0x4E62 JUMP JUMPDEST JUMPDEST SUB PUSH2 0x45BB JUMPI PUSH1 0x0 JUMPDEST PUSH1 0x12 DUP2 LT ISZERO PUSH2 0x45B9 JUMPI DUP3 PUSH1 0xFF AND PUSH1 0x5 DUP3 PUSH1 0x12 DUP2 LT PUSH2 0x4576 JUMPI PUSH2 0x4575 PUSH2 0x5173 JUMP JUMPDEST JUMPDEST PUSH1 0x20 SWAP2 DUP3 DUP3 DIV ADD SWAP2 SWAP1 MOD SWAP1 SLOAD SWAP1 PUSH2 0x100 EXP SWAP1 DIV PUSH1 0xFF AND PUSH1 0xFF AND SUB PUSH2 0x45AC JUMPI PUSH1 0x2 DUP5 PUSH1 0x0 ADD MLOAD PUSH2 0x45A5 SWAP2 SWAP1 PUSH2 0x560C JUMP JUMPDEST SWAP2 POP PUSH2 0x45B9 JUMP JUMPDEST DUP1 DUP1 PUSH1 0x1 ADD SWAP2 POP POP PUSH2 0x4555 JUMP JUMPDEST POP JUMPDEST SWAP3 SWAP2 POP POP JUMP JUMPDEST PUSH1 0x0 CALLER SWAP1 POP SWAP1 JUMP JUMPDEST PUSH2 0x45D1 PUSH2 0x45DD JUMP JUMPDEST PUSH2 0x45DA DUP2 PUSH2 0x461D JUMP JUMPDEST POP JUMP JUMPDEST PUSH2 0x45E5 PUSH2 0x46A3 JUMP JUMPDEST PUSH2 0x461B JUMPI PUSH1 0x40 MLOAD PUSH32 0xD7E6BCF800000000000000000000000000000000000000000000000000000000 DUP2 MSTORE PUSH1 0x4 ADD PUSH1 0x40 MLOAD DUP1 SWAP2 SUB SWAP1 REVERT JUMPDEST JUMP JUMPDEST PUSH2 0x4625 PUSH2 0x45DD JUMP JUMPDEST PUSH1 0x0 PUSH20 0xFFFFFFFFFFFFFFFFFFFFFFFFFFFFFFFFFFFFFFFF AND DUP2 PUSH20 0xFFFFFFFFFFFFFFFFFFFFFFFFFFFFFFFFFFFFFFFF AND SUB PUSH2 0x4697 JUMPI PUSH1 0x0 PUSH1 0x40 MLOAD PUSH32 0x1E4FBDF700000000000000000000000000000000000000000000000000000000 DUP2 MSTORE PUSH1 0x4 ADD PUSH2 0x468E SWAP2 SWAP1 PUSH2 0x4F11 JUMP JUMPDEST PUSH1 0x40 MLOAD DUP1 SWAP2 SUB SWAP1 REVERT JUMPDEST PUSH2 0x46A0 DUP2 PUSH2 0x3713 JUMP JUMPDEST POP JUMP JUMPDEST PUSH1 0x0 PUSH2 0x46AD PUSH2 0x31BB JUMP JUMPDEST PUSH1 0x0 ADD PUSH1 0x8 SWAP1 SLOAD SWAP1 PUSH2 0x100 EXP SWAP1 DIV PUSH1 0xFF AND SWAP1 POP SWAP1 JUMP JUMPDEST PUSH1 0x40 MLOAD DUP1 PUSH1 0xC0 ADD PUSH1 0x40 MSTORE DUP1 PUSH1 0x6 SWAP1 PUSH1 0x20 DUP3 MUL DUP1 CALLDATASIZE DUP4 CALLDATACOPY DUP1 DUP3 ADD SWAP2 POP POP SWAP1 POP POP SWAP1 JUMP JUMPDEST DUP3 DUP1 SLOAD DUP3 DUP3 SSTORE SWAP1 PUSH1 0x0 MSTORE PUSH1 0x20 PUSH1 0x0 KECCAK256 SWAP1 DUP2 ADD SWAP3 DUP3 ISZERO PUSH2 0x472F JUMPI SWAP2 PUSH1 0x20 MUL DUP3 ADD JUMPDEST DUP3 DUP2 GT ISZERO PUSH2 0x472E JUMPI DUP3 MLOAD DUP3 SWAP1 PUSH1 0x3 PUSH2 0x471E SWAP3 SWAP2 SWAP1 PUSH2 0x47FC JUMP JUMPDEST POP SWAP2 PUSH1 0x20 ADD SWAP2 SWAP1 PUSH1 0x1 ADD SWAP1 PUSH2 0x4705 JUMP JUMPDEST JUMPDEST POP SWAP1 POP PUSH2 0x473C SWAP2 SWAP1 PUSH2 0x4896 JUMP JUMPDEST POP SWAP1 JUMP JUMPDEST DUP3 PUSH1 0x12 PUSH1 0x1F ADD PUSH1 0x20 SWAP1 DIV DUP2 ADD SWAP3 DUP3 ISZERO PUSH2 0x47C9 JUMPI SWAP2 PUSH1 0x20 MUL DUP3 ADD PUSH1 0x0 JUMPDEST DUP4 DUP3 GT ISZERO PUSH2 0x479A JUMPI DUP4 MLOAD DUP4 DUP3 PUSH2 0x100 EXP DUP2 SLOAD DUP2 PUSH1 0xFF MUL NOT AND SWAP1 DUP4 PUSH1 0xFF AND MUL OR SWAP1 SSTORE POP SWAP3 PUSH1 0x20 ADD SWAP3 PUSH1 0x1 ADD PUSH1 0x20 DUP2 PUSH1 0x0 ADD DIV SWAP3 DUP4 ADD SWAP3 PUSH1 0x1 SUB MUL PUSH2 0x475C JUMP JUMPDEST DUP1 ISZERO PUSH2 0x47C7 JUMPI DUP3 DUP2 PUSH2 0x100 EXP DUP2 SLOAD SWAP1 PUSH1 0xFF MUL NOT AND SWAP1 SSTORE PUSH1 0x1 ADD PUSH1 0x20 DUP2 PUSH1 0x0 ADD DIV SWAP3 DUP4 ADD SWAP3 PUSH1 0x1 SUB MUL PUSH2 0x479A JUMP JUMPDEST POP JUMPDEST POP SWAP1 POP PUSH2 0x47D6 SWAP2 SWAP1 PUSH2 0x48BA JUMP JUMPDEST POP SWAP1 JUMP JUMPDEST PUSH1 0x40 MLOAD DUP1 PUSH1 0x80 ADD PUSH1 0x40 MSTORE DUP1 PUSH1 0x4 SWAP1 PUSH1 0x20 DUP3 MUL DUP1 CALLDATASIZE DUP4 CALLDATACOPY DUP1 DUP3 ADD SWAP2 POP POP SWAP1 POP POP SWAP1 JUMP JUMPDEST DUP3 PUSH1 0x3 PUSH1 0x1F ADD PUSH1 0x20 SWAP1 DIV DUP2 ADD SWAP3 DUP3 ISZERO PUSH2 0x4885 JUMPI SWAP2 PUSH1 0x20 MUL DUP3 ADD PUSH1 0x0 JUMPDEST DUP4 DUP3 GT ISZERO PUSH2 0x4856 JUMPI DUP4 MLOAD DUP4 DUP3 PUSH2 0x100 EXP DUP2 SLOAD DUP2 PUSH1 0xFF MUL NOT AND SWAP1 DUP4 PUSH1 0xFF AND MUL OR SWAP1 SSTORE POP SWAP3 PUSH1 0x20 ADD SWAP3 PUSH1 0x1 ADD PUSH1 0x20 DUP2 PUSH1 0x0 ADD DIV SWAP3 DUP4 ADD SWAP3 PUSH1 0x1 SUB MUL PUSH2 0x4818 JUMP JUMPDEST DUP1 ISZERO PUSH2 0x4883 JUMPI DUP3 DUP2 PUSH2 0x100 EXP DUP2 SLOAD SWAP1 PUSH1 0xFF MUL NOT AND SWAP1 SSTORE PUSH1 0x1 ADD PUSH1 0x20 DUP2 PUSH1 0x0 ADD DIV SWAP3 DUP4 ADD SWAP3 PUSH1 0x1 SUB MUL PUSH2 0x4856 JUMP JUMPDEST POP JUMPDEST POP SWAP1 POP PUSH2 0x4892 SWAP2 SWAP1 PUSH2 0x48BA JUMP JUMPDEST POP SWAP1 JUMP JUMPDEST JUMPDEST DUP1 DUP3 GT ISZERO PUSH2 0x48B6 JUMPI PUSH1 0x0 DUP2 DUP2 PUSH2 0x48AD SWAP2 SWAP1 PUSH2 0x48D7 JUMP JUMPDEST POP PUSH1 0x1 ADD PUSH2 0x4897 JUMP JUMPDEST POP SWAP1 JUMP JUMPDEST JUMPDEST DUP1 DUP3 GT ISZERO PUSH2 0x48D3 JUMPI PUSH1 0x0 DUP2 PUSH1 0x0 SWAP1 SSTORE POP PUSH1 0x1 ADD PUSH2 0x48BB JUMP JUMPDEST POP SWAP1 JUMP JUMPDEST POP PUSH1 0x0 SWAP1 SSTORE JUMP JUMPDEST PUSH1 0x0 PUSH1 0x40 MLOAD SWAP1 POP SWAP1 JUMP JUMPDEST PUSH1 0x0 DUP1 REVERT JUMPDEST PUSH1 0x0 DUP1 REVERT JUMPDEST PUSH1 0x0 DUP2 SWAP1 POP SWAP2 SWAP1 POP JUMP JUMPDEST PUSH2 0x4905 DUP2 PUSH2 0x48F2 JUMP JUMPDEST DUP2 EQ PUSH2 0x4910 JUMPI PUSH1 0x0 DUP1 REVERT JUMPDEST POP JUMP JUMPDEST PUSH1 0x0 DUP2 CALLDATALOAD SWAP1 POP PUSH2 0x4922 DUP2 PUSH2 0x48FC JUMP JUMPDEST SWAP3 SWAP2 POP POP JUMP JUMPDEST PUSH1 0x0 PUSH1 0x20 DUP3 DUP5 SUB SLT ISZERO PUSH2 0x493E JUMPI PUSH2 0x493D PUSH2 0x48E8 JUMP JUMPDEST JUMPDEST PUSH1 0x0 PUSH2 0x494C DUP5 DUP3 DUP6 ADD PUSH2 0x4913 JUMP JUMPDEST SWAP2 POP POP SWAP3 SWAP2 POP POP JUMP JUMPDEST PUSH1 0x0 DUP2 ISZERO ISZERO SWAP1 POP SWAP2 SWAP1 POP JUMP JUMPDEST PUSH2 0x496A DUP2 PUSH2 0x4955 JUMP JUMPDEST DUP3 MSTORE POP POP JUMP JUMPDEST PUSH1 0x0 PUSH1 0x20 DUP3 ADD SWAP1 POP PUSH2 0x4985 PUSH1 0x0 DUP4 ADD DUP5 PUSH2 0x4961 JUMP JUMPDEST SWAP3 SWAP2 POP POP JUMP JUMPDEST PUSH1 0x0 DUP1 REVERT JUMPDEST PUSH1 0x0 PUSH1 0x1F NOT PUSH1 0x1F DUP4 ADD AND SWAP1 POP SWAP2 SWAP1 POP JUMP JUMPDEST PUSH32 0x4E487B7100000000000000000000000000000000000000000000000000000000 PUSH1 0x0 MSTORE PUSH1 0x41 PUSH1 0x4 MSTORE PUSH1 0x24 PUSH1 0x0 REVERT JUMPDEST PUSH2 0x49D9 DUP3 PUSH2 0x4990 JUMP JUMPDEST DUP2 ADD DUP2 DUP2 LT PUSH8 0xFFFFFFFFFFFFFFFF DUP3 GT OR ISZERO PUSH2 0x49F8 JUMPI PUSH2 0x49F7 PUSH2 0x49A1 JUMP JUMPDEST JUMPDEST DUP1 PUSH1 0x40 MSTORE POP POP POP JUMP JUMPDEST PUSH1 0x0 PUSH2 0x4A0B PUSH2 0x48DE JUMP JUMPDEST SWAP1 POP PUSH2 0x4A17 DUP3 DUP3 PUSH2 0x49D0 JUMP JUMPDEST SWAP2 SWAP1 POP JUMP JUMPDEST PUSH1 0x0 PUSH8 0xFFFFFFFFFFFFFFFF DUP3 GT ISZERO PUSH2 0x4A37 JUMPI PUSH2 0x4A36 PUSH2 0x49A1 JUMP JUMPDEST JUMPDEST PUSH1 0x20 DUP3 MUL SWAP1 POP PUSH1 0x20 DUP2 ADD SWAP1 POP SWAP2 SWAP1 POP JUMP JUMPDEST PUSH1 0x0 DUP1 REVERT JUMPDEST PUSH1 0x0 PUSH2 0x4A60 PUSH2 0x4A5B DUP5 PUSH2 0x4A1C JUMP JUMPDEST PUSH2 0x4A01 JUMP JUMPDEST SWAP1 POP DUP1 DUP4 DUP3 MSTORE PUSH1 0x20 DUP3 ADD SWAP1 POP PUSH1 0x20 DUP5 MUL DUP4 ADD DUP6 DUP2 GT ISZERO PUSH2 0x4A83 JUMPI PUSH2 0x4A82 PUSH2 0x4A48 JUMP JUMPDEST JUMPDEST DUP4 JUMPDEST DUP2 DUP2 LT ISZERO PUSH2 0x4AAC JUMPI DUP1 PUSH2 0x4A98 DUP9 DUP3 PUSH2 0x4913 JUMP JUMPDEST DUP5 MSTORE PUSH1 0x20 DUP5 ADD SWAP4 POP POP PUSH1 0x20 DUP2 ADD SWAP1 POP PUSH2 0x4A85 JUMP JUMPDEST POP POP POP SWAP4 SWAP3 POP POP POP JUMP JUMPDEST PUSH1 0x0 DUP3 PUSH1 0x1F DUP4 ADD SLT PUSH2 0x4ACB JUMPI PUSH2 0x4ACA PUSH2 0x498B JUMP JUMPDEST JUMPDEST DUP2 CALLDATALOAD PUSH2 0x4ADB DUP5 DUP3 PUSH1 0x20 DUP7 ADD PUSH2 0x4A4D JUMP JUMPDEST SWAP2 POP POP SWAP3 SWAP2 POP POP JUMP JUMPDEST PUSH1 0x0 DUP1 PUSH1 0x40 DUP4 DUP6 SUB SLT ISZERO PUSH2 0x4AFB JUMPI PUSH2 0x4AFA PUSH2 0x48E8 JUMP JUMPDEST JUMPDEST PUSH1 0x0 PUSH2 0x4B09 DUP6 DUP3 DUP7 ADD PUSH2 0x4913 JUMP JUMPDEST SWAP3 POP POP PUSH1 0x20 DUP4 ADD CALLDATALOAD PUSH8 0xFFFFFFFFFFFFFFFF DUP2 GT ISZERO PUSH2 0x4B2A JUMPI PUSH2 0x4B29 PUSH2 0x48ED JUMP JUMPDEST JUMPDEST PUSH2 0x4B36 DUP6 DUP3 DUP7 ADD PUSH2 0x4AB6 JUMP JUMPDEST SWAP2 POP POP SWAP3 POP SWAP3 SWAP1 POP JUMP JUMPDEST PUSH1 0x0 PUSH1 0xFF DUP3 AND SWAP1 POP SWAP2 SWAP1 POP JUMP JUMPDEST PUSH2 0x4B56 DUP2 PUSH2 0x4B40 JUMP JUMPDEST DUP3 MSTORE POP POP JUMP JUMPDEST PUSH1 0x0 PUSH1 0x20 DUP3 ADD SWAP1 POP PUSH2 0x4B71 PUSH1 0x0 DUP4 ADD DUP5 PUSH2 0x4B4D JUMP JUMPDEST SWAP3 SWAP2 POP POP JUMP JUMPDEST PUSH2 0x4B80 DUP2 PUSH2 0x4B40 JUMP JUMPDEST DUP2 EQ PUSH2 0x4B8B JUMPI PUSH1 0x0 DUP1 REVERT JUMPDEST POP JUMP JUMPDEST PUSH1 0x0 DUP2 CALLDATALOAD SWAP1 POP PUSH2 0x4B9D DUP2 PUSH2 0x4B77 JUMP JUMPDEST SWAP3 SWAP2 POP POP JUMP JUMPDEST PUSH1 0x0 PUSH1 0x20 DUP3 DUP5 SUB SLT ISZERO PUSH2 0x4BB9 JUMPI PUSH2 0x4BB8 PUSH2 0x48E8 JUMP JUMPDEST JUMPDEST PUSH1 0x0 PUSH2 0x4BC7 DUP5 DUP3 DUP6 ADD PUSH2 0x4B8E JUMP JUMPDEST SWAP2 POP POP SWAP3 SWAP2 POP POP JUMP JUMPDEST PUSH1 0x0 PUSH8 0xFFFFFFFFFFFFFFFF DUP3 GT ISZERO PUSH2 0x4BEB JUMPI PUSH2 0x4BEA PUSH2 0x49A1 JUMP JUMPDEST JUMPDEST PUSH1 0x20 DUP3 MUL SWAP1 POP PUSH1 0x20 DUP2 ADD SWAP1 POP SWAP2 SWAP1 POP JUMP JUMPDEST PUSH1 0x0 PUSH2 0x4C0F PUSH2 0x4C0A DUP5 PUSH2 0x4BD0 JUMP JUMPDEST PUSH2 0x4A01 JUMP JUMPDEST SWAP1 POP DUP1 DUP4 DUP3 MSTORE PUSH1 0x20 DUP3 ADD SWAP1 POP PUSH1 0x20 DUP5 MUL DUP4 ADD DUP6 DUP2 GT ISZERO PUSH2 0x4C32 JUMPI PUSH2 0x4C31 PUSH2 0x4A48 JUMP JUMPDEST JUMPDEST DUP4 JUMPDEST DUP2 DUP2 LT ISZERO PUSH2 0x4C5B JUMPI DUP1 PUSH2 0x4C47 DUP9 DUP3 PUSH2 0x4B8E JUMP JUMPDEST DUP5 MSTORE PUSH1 0x20 DUP5 ADD SWAP4 POP POP PUSH1 0x20 DUP2 ADD SWAP1 POP PUSH2 0x4C34 JUMP JUMPDEST POP POP POP SWAP4 SWAP3 POP POP POP JUMP JUMPDEST PUSH1 0x0 DUP3 PUSH1 0x1F DUP4 ADD SLT PUSH2 0x4C7A JUMPI PUSH2 0x4C79 PUSH2 0x498B JUMP JUMPDEST JUMPDEST DUP2 CALLDATALOAD PUSH2 0x4C8A DUP5 DUP3 PUSH1 0x20 DUP7 ADD PUSH2 0x4BFC JUMP JUMPDEST SWAP2 POP POP SWAP3 SWAP2 POP POP JUMP JUMPDEST PUSH1 0x0 PUSH1 0x20 DUP3 DUP5 SUB SLT ISZERO PUSH2 0x4CA9 JUMPI PUSH2 0x4CA8 PUSH2 0x48E8 JUMP JUMPDEST JUMPDEST PUSH1 0x0 DUP3 ADD CALLDATALOAD PUSH8 0xFFFFFFFFFFFFFFFF DUP2 GT ISZERO PUSH2 0x4CC7 JUMPI PUSH2 0x4CC6 PUSH2 0x48ED JUMP JUMPDEST JUMPDEST PUSH2 0x4CD3 DUP5 DUP3 DUP6 ADD PUSH2 0x4C65 JUMP JUMPDEST SWAP2 POP POP SWAP3 SWAP2 POP POP JUMP JUMPDEST PUSH1 0x0 DUP1 PUSH1 0x40 DUP4 DUP6 SUB SLT ISZERO PUSH2 0x4CF3 JUMPI PUSH2 0x4CF2 PUSH2 0x48E8 JUMP JUMPDEST JUMPDEST PUSH1 0x0 PUSH2 0x4D01 DUP6 DUP3 DUP7 ADD PUSH2 0x4B8E JUMP JUMPDEST SWAP3 POP POP PUSH1 0x20 PUSH2 0x4D12 DUP6 DUP3 DUP7 ADD PUSH2 0x4B8E JUMP JUMPDEST SWAP2 POP POP SWAP3 POP SWAP3 SWAP1 POP JUMP JUMPDEST PUSH1 0x0 PUSH20 0xFFFFFFFFFFFFFFFFFFFFFFFFFFFFFFFFFFFFFFFF DUP3 AND SWAP1 POP SWAP2 SWAP1 POP JUMP JUMPDEST PUSH1 0x0 PUSH2 0x4D47 DUP3 PUSH2 0x4D1C JUMP JUMPDEST SWAP1 POP SWAP2 SWAP1 POP JUMP JUMPDEST PUSH1 0x0 PUSH2 0x4D59 DUP3 PUSH2 0x4D3C JUMP JUMPDEST SWAP1 POP SWAP2 SWAP1 POP JUMP JUMPDEST PUSH2 0x4D69 DUP2 PUSH2 0x4D4E JUMP JUMPDEST DUP2 EQ PUSH2 0x4D74 JUMPI PUSH1 0x0 DUP1 REVERT JUMPDEST POP JUMP JUMPDEST PUSH1 0x0 DUP2 CALLDATALOAD SWAP1 POP PUSH2 0x4D86 DUP2 PUSH2 0x4D60 JUMP JUMPDEST SWAP3 SWAP2 POP POP JUMP JUMPDEST PUSH2 0x4D95 DUP2 PUSH2 0x4D3C JUMP JUMPDEST DUP2 EQ PUSH2 0x4DA0 JUMPI PUSH1 0x0 DUP1 REVERT JUMPDEST POP JUMP JUMPDEST PUSH1 0x0 DUP2 CALLDATALOAD SWAP1 POP PUSH2 0x4DB2 DUP2 PUSH2 0x4D8C JUMP JUMPDEST SWAP3 SWAP2 POP POP JUMP JUMPDEST PUSH1 0x0 DUP1 PUSH1 0x40 DUP4 DUP6 SUB SLT ISZERO PUSH2 0x4DCF JUMPI PUSH2 0x4DCE PUSH2 0x48E8 JUMP JUMPDEST JUMPDEST PUSH1 0x0 PUSH2 0x4DDD DUP6 DUP3 DUP7 ADD PUSH2 0x4D77 JUMP JUMPDEST SWAP3 POP POP PUSH1 0x20 PUSH2 0x4DEE DUP6 DUP3 DUP7 ADD PUSH2 0x4DA3 JUMP JUMPDEST SWAP2 POP POP SWAP3 POP SWAP3 SWAP1 POP JUMP JUMPDEST PUSH2 0x4E01 DUP2 PUSH2 0x48F2 JUMP JUMPDEST DUP3 MSTORE POP POP JUMP JUMPDEST PUSH1 0x0 PUSH1 0x20 DUP3 ADD SWAP1 POP PUSH2 0x4E1C PUSH1 0x0 DUP4 ADD DUP5 PUSH2 0x4DF8 JUMP JUMPDEST SWAP3 SWAP2 POP POP JUMP JUMPDEST PUSH1 0x0 DUP1 PUSH1 0x40 DUP4 DUP6 SUB SLT ISZERO PUSH2 0x4E39 JUMPI PUSH2 0x4E38 PUSH2 0x48E8 JUMP JUMPDEST JUMPDEST PUSH1 0x0 PUSH2 0x4E47 DUP6 DUP3 DUP7 ADD PUSH2 0x4913 JUMP JUMPDEST SWAP3 POP POP PUSH1 0x20 PUSH2 0x4E58 DUP6 DUP3 DUP7 ADD PUSH2 0x4913 JUMP JUMPDEST SWAP2 POP POP SWAP3 POP SWAP3 SWAP1 POP JUMP JUMPDEST PUSH32 0x4E487B7100000000000000000000000000000000000000000000000000000000 PUSH1 0x0 MSTORE PUSH1 0x21 PUSH1 0x4 MSTORE PUSH1 0x24 PUSH1 0x0 REVERT JUMPDEST PUSH1 0x15 DUP2 LT PUSH2 0x4EA2 JUMPI PUSH2 0x4EA1 PUSH2 0x4E62 JUMP JUMPDEST JUMPDEST POP JUMP JUMPDEST PUSH1 0x0 DUP2 SWAP1 POP PUSH2 0x4EB3 DUP3 PUSH2 0x4E91 JUMP JUMPDEST SWAP2 SWAP1 POP JUMP JUMPDEST PUSH1 0x0 PUSH2 0x4EC3 DUP3 PUSH2 0x4EA5 JUMP JUMPDEST SWAP1 POP SWAP2 SWAP1 POP JUMP JUMPDEST PUSH2 0x4ED3 DUP2 PUSH2 0x4EB8 JUMP JUMPDEST DUP3 MSTORE POP POP JUMP JUMPDEST PUSH1 0x0 PUSH1 0x40 DUP3 ADD SWAP1 POP PUSH2 0x4EEE PUSH1 0x0 DUP4 ADD DUP6 PUSH2 0x4DF8 JUMP JUMPDEST PUSH2 0x4EFB PUSH1 0x20 DUP4 ADD DUP5 PUSH2 0x4ECA JUMP JUMPDEST SWAP4 SWAP3 POP POP POP JUMP JUMPDEST PUSH2 0x4F0B DUP2 PUSH2 0x4D3C JUMP JUMPDEST DUP3 MSTORE POP POP JUMP JUMPDEST PUSH1 0x0 PUSH1 0x20 DUP3 ADD SWAP1 POP PUSH2 0x4F26 PUSH1 0x0 DUP4 ADD DUP5 PUSH2 0x4F02 JUMP JUMPDEST SWAP3 SWAP2 POP POP JUMP JUMPDEST PUSH1 0x0 DUP2 SWAP1 POP SWAP2 SWAP1 POP JUMP JUMPDEST PUSH1 0x0 PUSH2 0x4F51 PUSH2 0x4F4C PUSH2 0x4F47 DUP5 PUSH2 0x4D1C JUMP JUMPDEST PUSH2 0x4F2C JUMP JUMPDEST PUSH2 0x4D1C JUMP JUMPDEST SWAP1 POP SWAP2 SWAP1 POP JUMP JUMPDEST PUSH1 0x0 PUSH2 0x4F63 DUP3 PUSH2 0x4F36 JUMP JUMPDEST SWAP1 POP SWAP2 SWAP1 POP JUMP JUMPDEST PUSH1 0x0 PUSH2 0x4F75 DUP3 PUSH2 0x4F58 JUMP JUMPDEST SWAP1 POP SWAP2 SWAP1 POP JUMP JUMPDEST PUSH2 0x4F85 DUP2 PUSH2 0x4F6A JUMP JUMPDEST DUP3 MSTORE POP POP JUMP JUMPDEST PUSH1 0x0 PUSH1 0x20 DUP3 ADD SWAP1 POP PUSH2 0x4FA0 PUSH1 0x0 DUP4 ADD DUP5 PUSH2 0x4F7C JUMP JUMPDEST SWAP3 SWAP2 POP POP JUMP JUMPDEST PUSH1 0x0 DUP1 REVERT JUMPDEST PUSH1 0x0 DUP1 DUP4 PUSH1 0x1F DUP5 ADD SLT PUSH2 0x4FC1 JUMPI PUSH2 0x4FC0 PUSH2 0x498B JUMP JUMPDEST JUMPDEST DUP3 CALLDATALOAD SWAP1 POP PUSH8 0xFFFFFFFFFFFFFFFF DUP2 GT ISZERO PUSH2 0x4FDE JUMPI PUSH2 0x4FDD PUSH2 0x4FA6 JUMP JUMPDEST JUMPDEST PUSH1 0x20 DUP4 ADD SWAP2 POP DUP4 PUSH1 0x20 DUP3 MUL DUP4 ADD GT ISZERO PUSH2 0x4FFA JUMPI PUSH2 0x4FF9 PUSH2 0x4A48 JUMP JUMPDEST JUMPDEST SWAP3 POP SWAP3 SWAP1 POP JUMP JUMPDEST PUSH1 0x0 DUP1 PUSH1 0x20 DUP4 DUP6 SUB SLT ISZERO PUSH2 0x5018 JUMPI PUSH2 0x5017 PUSH2 0x48E8 JUMP JUMPDEST JUMPDEST PUSH1 0x0 DUP4 ADD CALLDATALOAD PUSH8 0xFFFFFFFFFFFFFFFF DUP2 GT ISZERO PUSH2 0x5036 JUMPI PUSH2 0x5035 PUSH2 0x48ED JUMP JUMPDEST JUMPDEST PUSH2 0x5042 DUP6 DUP3 DUP7 ADD PUSH2 0x4FAB JUMP JUMPDEST SWAP3 POP SWAP3 POP POP SWAP3 POP SWAP3 SWAP1 POP JUMP JUMPDEST PUSH1 0x0 DUP1 PUSH1 0x40 DUP4 DUP6 SUB SLT ISZERO PUSH2 0x5065 JUMPI PUSH2 0x5064 PUSH2 0x48E8 JUMP JUMPDEST JUMPDEST PUSH1 0x0 PUSH2 0x5073 DUP6 DUP3 DUP7 ADD PUSH2 0x4DA3 JUMP JUMPDEST SWAP3 POP POP PUSH1 0x20 PUSH2 0x5084 DUP6 DUP3 DUP7 ADD PUSH2 0x4913 JUMP JUMPDEST SWAP2 POP POP SWAP3 POP SWAP3 SWAP1 POP JUMP JUMPDEST PUSH1 0x0 DUP1 PUSH1 0x0 PUSH1 0x60 DUP5 DUP7 SUB SLT ISZERO PUSH2 0x50A7 JUMPI PUSH2 0x50A6 PUSH2 0x48E8 JUMP JUMPDEST JUMPDEST PUSH1 0x0 PUSH2 0x50B5 DUP7 DUP3 DUP8 ADD PUSH2 0x4B8E JUMP JUMPDEST SWAP4 POP POP PUSH1 0x20 PUSH2 0x50C6 DUP7 DUP3 DUP8 ADD PUSH2 0x4B8E JUMP JUMPDEST SWAP3 POP POP PUSH1 0x40 PUSH2 0x50D7 DUP7 DUP3 DUP8 ADD PUSH2 0x4B8E JUMP JUMPDEST SWAP2 POP POP SWAP3 POP SWAP3 POP SWAP3 JUMP JUMPDEST PUSH1 0x0 PUSH1 0x20 DUP3 DUP5 SUB SLT ISZERO PUSH2 0x50F7 JUMPI PUSH2 0x50F6 PUSH2 0x48E8 JUMP JUMPDEST JUMPDEST PUSH1 0x0 PUSH2 0x5105 DUP5 DUP3 DUP6 ADD PUSH2 0x4DA3 JUMP JUMPDEST SWAP2 POP POP SWAP3 SWAP2 POP POP JUMP JUMPDEST PUSH1 0x0 PUSH2 0x5119 DUP3 PUSH2 0x4F58 JUMP JUMPDEST SWAP1 POP SWAP2 SWAP1 POP JUMP JUMPDEST PUSH2 0x5129 DUP2 PUSH2 0x510E JUMP JUMPDEST DUP3 MSTORE POP POP JUMP JUMPDEST PUSH1 0x0 PUSH1 0x20 DUP3 ADD SWAP1 POP PUSH2 0x5144 PUSH1 0x0 DUP4 ADD DUP5 PUSH2 0x5120 JUMP JUMPDEST SWAP3 SWAP2 POP POP JUMP JUMPDEST PUSH1 0x0 PUSH1 0x40 DUP3 ADD SWAP1 POP PUSH2 0x515F PUSH1 0x0 DUP4 ADD DUP6 PUSH2 0x4F02 JUMP JUMPDEST PUSH2 0x516C PUSH1 0x20 DUP4 ADD DUP5 PUSH2 0x4F02 JUMP JUMPDEST SWAP4 SWAP3 POP POP POP JUMP JUMPDEST PUSH32 0x4E487B7100000000000000000000000000000000000000000000000000000000 PUSH1 0x0 MSTORE PUSH1 0x32 PUSH1 0x4 MSTORE PUSH1 0x24 PUSH1 0x0 REVERT JUMPDEST PUSH32 0x4E487B7100000000000000000000000000000000000000000000000000000000 PUSH1 0x0 MSTORE PUSH1 0x12 PUSH1 0x4 MSTORE PUSH1 0x24 PUSH1 0x0 REVERT JUMPDEST PUSH1 0x0 PUSH2 0x51DC DUP3 PUSH2 0x4B40 JUMP JUMPDEST SWAP2 POP PUSH2 0x51E7 DUP4 PUSH2 0x4B40 JUMP JUMPDEST SWAP3 POP DUP3 PUSH2 0x51F7 JUMPI PUSH2 0x51F6 PUSH2 0x51A2 JUMP JUMPDEST JUMPDEST DUP3 DUP3 MOD SWAP1 POP SWAP3 SWAP2 POP POP JUMP JUMPDEST PUSH32 0x4E487B7100000000000000000000000000000000000000000000000000000000 PUSH1 0x0 MSTORE PUSH1 0x11 PUSH1 0x4 MSTORE PUSH1 0x24 PUSH1 0x0 REVERT JUMPDEST PUSH1 0x0 PUSH2 0x523C DUP3 PUSH2 0x4B40 JUMP JUMPDEST SWAP2 POP PUSH2 0x5247 DUP4 PUSH2 0x4B40 JUMP JUMPDEST SWAP3 POP DUP3 DUP3 ADD SWAP1 POP PUSH1 0xFF DUP2 GT ISZERO PUSH2 0x5260 JUMPI PUSH2 0x525F PUSH2 0x5202 JUMP JUMPDEST JUMPDEST SWAP3 SWAP2 POP POP JUMP JUMPDEST PUSH1 0x0 PUSH2 0x5271 DUP3 PUSH2 0x4B40 JUMP JUMPDEST SWAP2 POP PUSH2 0x527C DUP4 PUSH2 0x4B40 JUMP JUMPDEST SWAP3 POP DUP3 DUP3 SUB SWAP1 POP PUSH1 0xFF DUP2 GT ISZERO PUSH2 0x5295 JUMPI PUSH2 0x5294 PUSH2 0x5202 JUMP JUMPDEST JUMPDEST SWAP3 SWAP2 POP POP JUMP JUMPDEST PUSH1 0x0 DUP2 SWAP1 POP SWAP2 SWAP1 POP JUMP JUMPDEST PUSH1 0x0 PUSH8 0xFFFFFFFFFFFFFFFF DUP3 AND SWAP1 POP SWAP2 SWAP1 POP JUMP JUMPDEST PUSH1 0x0 PUSH2 0x52D4 PUSH2 0x52CF PUSH2 0x52CA DUP5 PUSH2 0x529B JUMP JUMPDEST PUSH2 0x4F2C JUMP JUMPDEST PUSH2 0x52A5 JUMP JUMPDEST SWAP1 POP SWAP2 SWAP1 POP JUMP JUMPDEST PUSH2 0x52E4 DUP2 PUSH2 0x52B9 JUMP JUMPDEST DUP3 MSTORE POP POP JUMP JUMPDEST PUSH1 0x0 PUSH1 0x20 DUP3 ADD SWAP1 POP PUSH2 0x52FF PUSH1 0x0 DUP4 ADD DUP5 PUSH2 0x52DB JUMP JUMPDEST SWAP3 SWAP2 POP POP JUMP JUMPDEST PUSH1 0x0 DUP1 REVERT JUMPDEST PUSH1 0x0 DUP1 REVERT JUMPDEST PUSH1 0x0 DUP1 REVERT JUMPDEST PUSH1 0x0 DUP3 CALLDATALOAD PUSH1 0x1 PUSH1 0x60 SUB DUP4 CALLDATASIZE SUB SUB DUP2 SLT PUSH2 0x5330 JUMPI PUSH2 0x532F PUSH2 0x5305 JUMP JUMPDEST JUMPDEST DUP1 DUP4 ADD SWAP2 POP POP SWAP3 SWAP2 POP POP JUMP JUMPDEST PUSH1 0x15 DUP2 LT PUSH2 0x5349 JUMPI PUSH1 0x0 DUP1 REVERT JUMPDEST POP JUMP JUMPDEST PUSH1 0x0 DUP2 CALLDATALOAD SWAP1 POP PUSH2 0x535B DUP2 PUSH2 0x533C JUMP JUMPDEST SWAP3 SWAP2 POP POP JUMP JUMPDEST PUSH1 0x0 PUSH1 0x20 DUP3 DUP5 SUB SLT ISZERO PUSH2 0x5377 JUMPI PUSH2 0x5376 PUSH2 0x48E8 JUMP JUMPDEST JUMPDEST PUSH1 0x0 PUSH2 0x5385 DUP5 DUP3 DUP6 ADD PUSH2 0x534C JUMP JUMPDEST SWAP2 POP POP SWAP3 SWAP2 POP POP JUMP JUMPDEST PUSH1 0x0 DUP1 DUP4 CALLDATALOAD PUSH1 0x1 PUSH1 0x20 SUB DUP5 CALLDATASIZE SUB SUB DUP2 SLT PUSH2 0x53AB JUMPI PUSH2 0x53AA PUSH2 0x5305 JUMP JUMPDEST JUMPDEST DUP1 DUP5 ADD SWAP3 POP DUP3 CALLDATALOAD SWAP2 POP PUSH8 0xFFFFFFFFFFFFFFFF DUP3 GT ISZERO PUSH2 0x53CD JUMPI PUSH2 0x53CC PUSH2 0x530A JUMP JUMPDEST JUMPDEST PUSH1 0x20 DUP4 ADD SWAP3 POP PUSH1 0x20 DUP3 MUL CALLDATASIZE SUB DUP4 SGT ISZERO PUSH2 0x53E9 JUMPI PUSH2 0x53E8 PUSH2 0x530F JUMP JUMPDEST JUMPDEST POP SWAP3 POP SWAP3 SWAP1 POP JUMP JUMPDEST PUSH1 0x0 DUP3 DUP3 MSTORE PUSH1 0x20 DUP3 ADD SWAP1 POP SWAP3 SWAP2 POP POP JUMP JUMPDEST PUSH32 0x4E756D62657273206E6F7420726571756972656420666F722074686973207479 PUSH1 0x0 DUP3 ADD MSTORE PUSH32 0x7065000000000000000000000000000000000000000000000000000000000000 PUSH1 0x20 DUP3 ADD MSTORE POP JUMP JUMPDEST PUSH1 0x0 PUSH2 0x545E PUSH1 0x22 DUP4 PUSH2 0x53F1 JUMP JUMPDEST SWAP2 POP PUSH2 0x5469 DUP3 PUSH2 0x5402 JUMP JUMPDEST PUSH1 0x40 DUP3 ADD SWAP1 POP SWAP2 SWAP1 POP JUMP JUMPDEST PUSH1 0x0 PUSH1 0x20 DUP3 ADD SWAP1 POP DUP2 DUP2 SUB PUSH1 0x0 DUP4 ADD MSTORE PUSH2 0x548D DUP2 PUSH2 0x5451 JUMP JUMPDEST SWAP1 POP SWAP2 SWAP1 POP JUMP JUMPDEST PUSH32 0x496E76616C6964206E756D62657273206C656E67746800000000000000000000 PUSH1 0x0 DUP3 ADD MSTORE POP JUMP JUMPDEST PUSH1 0x0 PUSH2 0x54CA PUSH1 0x16 DUP4 PUSH2 0x53F1 JUMP JUMPDEST SWAP2 POP PUSH2 0x54D5 DUP3 PUSH2 0x5494 JUMP JUMPDEST PUSH1 0x20 DUP3 ADD SWAP1 POP SWAP2 SWAP1 POP JUMP JUMPDEST PUSH1 0x0 PUSH1 0x20 DUP3 ADD SWAP1 POP DUP2 DUP2 SUB PUSH1 0x0 DUP4 ADD MSTORE PUSH2 0x54F9 DUP2 PUSH2 0x54BD JUMP JUMPDEST SWAP1 POP SWAP2 SWAP1 POP JUMP JUMPDEST PUSH32 0x496E76616C696420636F6D62696E6174696F6E00000000000000000000000000 PUSH1 0x0 DUP3 ADD MSTORE POP JUMP JUMPDEST PUSH1 0x0 PUSH2 0x5536 PUSH1 0x13 DUP4 PUSH2 0x53F1 JUMP JUMPDEST SWAP2 POP PUSH2 0x5541 DUP3 PUSH2 0x5500 JUMP JUMPDEST PUSH1 0x20 DUP3 ADD SWAP1 POP SWAP2 SWAP1 POP JUMP JUMPDEST PUSH1 0x0 PUSH1 0x20 DUP3 ADD SWAP1 POP DUP2 DUP2 SUB PUSH1 0x0 DUP4 ADD MSTORE PUSH2 0x5565 DUP2 PUSH2 0x5529 JUMP JUMPDEST SWAP1 POP SWAP2 SWAP1 POP JUMP JUMPDEST PUSH32 0x4E6F7420696D706C656D656E7465640000000000000000000000000000000000 PUSH1 0x0 DUP3 ADD MSTORE POP JUMP JUMPDEST PUSH1 0x0 PUSH2 0x55A2 PUSH1 0xF DUP4 PUSH2 0x53F1 JUMP JUMPDEST SWAP2 POP PUSH2 0x55AD DUP3 PUSH2 0x556C JUMP JUMPDEST PUSH1 0x20 DUP3 ADD SWAP1 POP SWAP2 SWAP1 POP JUMP JUMPDEST PUSH1 0x0 PUSH1 0x20 DUP3 ADD SWAP1 POP DUP2 DUP2 SUB PUSH1 0x0 DUP4 ADD MSTORE PUSH2 0x55D1 DUP2 PUSH2 0x5595 JUMP JUMPDEST SWAP1 POP SWAP2 SWAP1 POP JUMP JUMPDEST PUSH1 0x0 PUSH2 0x55E3 DUP3 PUSH2 0x48F2 JUMP JUMPDEST SWAP2 POP PUSH2 0x55EE DUP4 PUSH2 0x48F2 JUMP JUMPDEST SWAP3 POP DUP3 DUP3 ADD SWAP1 POP DUP1 DUP3 GT ISZERO PUSH2 0x5606 JUMPI PUSH2 0x5605 PUSH2 0x5202 JUMP JUMPDEST JUMPDEST SWAP3 SWAP2 POP POP JUMP JUMPDEST PUSH1 0x0 PUSH2 0x5617 DUP3 PUSH2 0x48F2 JUMP JUMPDEST SWAP2 POP PUSH2 0x5622 DUP4 PUSH2 0x48F2 JUMP JUMPDEST SWAP3 POP DUP3 DUP3 MUL PUSH2 0x5630 DUP2 PUSH2 0x48F2 JUMP JUMPDEST SWAP2 POP DUP3 DUP3 DIV DUP5 EQ DUP4 ISZERO OR PUSH2 0x5647 JUMPI PUSH2 0x5646 PUSH2 0x5202 JUMP JUMPDEST JUMPDEST POP SWAP3 SWAP2 POP POP JUMP JUMPDEST PUSH1 0x0 PUSH2 0x5659 DUP3 PUSH2 0x48F2 JUMP JUMPDEST SWAP2 POP PUSH2 0x5664 DUP4 PUSH2 0x48F2 JUMP JUMPDEST SWAP3 POP DUP3 PUSH2 0x5674 JUMPI PUSH2 0x5673 PUSH2 0x51A2 JUMP JUMPDEST JUMPDEST DUP3 DUP3 DIV SWAP1 POP SWAP3 SWAP2 POP POP JUMP JUMPDEST PUSH1 0x0 DUP2 MLOAD SWAP1 POP PUSH2 0x568E DUP2 PUSH2 0x48FC JUMP JUMPDEST SWAP3 SWAP2 POP POP JUMP JUMPDEST PUSH1 0x0 PUSH1 0x20 DUP3 DUP5 SUB SLT ISZERO PUSH2 0x56AA JUMPI PUSH2 0x56A9 PUSH2 0x48E8 JUMP JUMPDEST JUMPDEST PUSH1 0x0 PUSH2 0x56B8 DUP5 DUP3 DUP6 ADD PUSH2 0x567F JUMP JUMPDEST SWAP2 POP POP SWAP3 SWAP2 POP POP JUMP JUMPDEST PUSH1 0x0 PUSH2 0x56CC DUP3 PUSH2 0x48F2 JUMP JUMPDEST SWAP2 POP PUSH2 0x56D7 DUP4 PUSH2 0x48F2 JUMP JUMPDEST SWAP3 POP DUP3 DUP3 SUB SWAP1 POP DUP2 DUP2 GT ISZERO PUSH2 0x56EF JUMPI PUSH2 0x56EE PUSH2 0x5202 JUMP JUMPDEST JUMPDEST SWAP3 SWAP2 POP POP JUMP JUMPDEST PUSH32 0x546F6F20686967682073756D206F66206269647320746F207769746864726177 PUSH1 0x0 DUP3 ADD MSTORE PUSH32 0x2072657761726473000000000000000000000000000000000000000000000000 PUSH1 0x20 DUP3 ADD MSTORE POP JUMP JUMPDEST PUSH1 0x0 PUSH2 0x5751 PUSH1 0x28 DUP4 PUSH2 0x53F1 JUMP JUMPDEST SWAP2 POP PUSH2 0x575C DUP3 PUSH2 0x56F5 JUMP JUMPDEST PUSH1 0x40 DUP3 ADD SWAP1 POP SWAP2 SWAP1 POP JUMP JUMPDEST PUSH1 0x0 PUSH1 0x20 DUP3 ADD SWAP1 POP DUP2 DUP2 SUB PUSH1 0x0 DUP4 ADD MSTORE PUSH2 0x5780 DUP2 PUSH2 0x5744 JUMP JUMPDEST SWAP1 POP SWAP2 SWAP1 POP JUMP JUMPDEST PUSH1 0x0 PUSH1 0x60 DUP3 ADD SWAP1 POP PUSH2 0x579C PUSH1 0x0 DUP4 ADD DUP7 PUSH2 0x4F02 JUMP JUMPDEST PUSH2 0x57A9 PUSH1 0x20 DUP4 ADD DUP6 PUSH2 0x4F02 JUMP JUMPDEST PUSH2 0x57B6 PUSH1 0x40 DUP4 ADD DUP5 PUSH2 0x4DF8 JUMP JUMPDEST SWAP5 SWAP4 POP POP POP POP JUMP JUMPDEST PUSH2 0x57C7 DUP2 PUSH2 0x4955 JUMP JUMPDEST DUP2 EQ PUSH2 0x57D2 JUMPI PUSH1 0x0 DUP1 REVERT JUMPDEST POP JUMP JUMPDEST PUSH1 0x0 DUP2 MLOAD SWAP1 POP PUSH2 0x57E4 DUP2 PUSH2 0x57BE JUMP JUMPDEST SWAP3 SWAP2 POP POP JUMP JUMPDEST PUSH1 0x0 PUSH1 0x20 DUP3 DUP5 SUB SLT ISZERO PUSH2 0x5800 JUMPI PUSH2 0x57FF PUSH2 0x48E8 JUMP JUMPDEST JUMPDEST PUSH1 0x0 PUSH2 0x580E DUP5 DUP3 DUP6 ADD PUSH2 0x57D5 JUMP JUMPDEST SWAP2 POP POP SWAP3 SWAP2 POP POP JUMP JUMPDEST PUSH1 0x0 DUP2 CALLDATALOAD PUSH2 0x5824 DUP2 PUSH2 0x48FC JUMP JUMPDEST DUP1 SWAP2 POP POP SWAP2 SWAP1 POP JUMP JUMPDEST PUSH1 0x0 DUP2 PUSH1 0x0 SHL SWAP1 POP SWAP2 SWAP1 POP JUMP JUMPDEST PUSH1 0x0 PUSH32 0xFFFFFFFFFFFFFFFFFFFFFFFFFFFFFFFFFFFFFFFFFFFFFFFFFFFFFFFFFFFFFFFF PUSH2 0x5866 DUP5 PUSH2 0x582D JUMP JUMPDEST SWAP4 POP DUP1 NOT DUP4 AND SWAP3 POP DUP1 DUP5 AND DUP4 OR SWAP2 POP POP SWAP3 SWAP2 POP POP JUMP JUMPDEST PUSH1 0x0 PUSH2 0x5897 PUSH2 0x5892 PUSH2 0x588D DUP5 PUSH2 0x48F2 JUMP JUMPDEST PUSH2 0x4F2C JUMP JUMPDEST PUSH2 0x48F2 JUMP JUMPDEST SWAP1 POP SWAP2 SWAP1 POP JUMP JUMPDEST PUSH1 0x0 DUP2 SWAP1 POP SWAP2 SWAP1 POP JUMP JUMPDEST PUSH2 0x58B1 DUP3 PUSH2 0x587C JUMP JUMPDEST PUSH2 0x58C4 PUSH2 0x58BD DUP3 PUSH2 0x589E JUMP JUMPDEST DUP4 SLOAD PUSH2 0x583A JUMP JUMPDEST DUP3 SSTORE POP POP POP JUMP JUMPDEST PUSH1 0x0 DUP2 SLOAD SWAP1 POP SWAP2 SWAP1 POP JUMP JUMPDEST PUSH1 0x0 DUP2 SWAP1 POP PUSH1 0x20 PUSH1 0x1 PUSH1 0x20 SUB DUP4 ADD DIV SWAP1 POP SWAP2 SWAP1 POP JUMP JUMPDEST PUSH1 0x0 DUP2 SWAP1 POP DUP2 PUSH1 0x0 MSTORE PUSH1 0x20 PUSH1 0x0 KECCAK256 SWAP1 POP SWAP2 SWAP1 POP JUMP JUMPDEST PUSH1 0x0 DUP3 DUP3 SHL SWAP1 POP SWAP3 SWAP2 POP POP JUMP JUMPDEST PUSH1 0x0 PUSH1 0x8 DUP4 MUL PUSH2 0x593E PUSH32 0xFFFFFFFFFFFFFFFFFFFFFFFFFFFFFFFFFFFFFFFFFFFFFFFFFFFFFFFFFFFFFFFF DUP3 PUSH2 0x5901 JUMP JUMPDEST PUSH2 0x5948 DUP7 DUP4 PUSH2 0x5901 JUMP JUMPDEST SWAP6 POP DUP1 NOT DUP5 AND SWAP4 POP DUP1 DUP7 AND DUP5 OR SWAP3 POP POP POP SWAP4 SWAP3 POP POP POP JUMP JUMPDEST PUSH2 0x5969 DUP4 PUSH2 0x587C JUMP JUMPDEST PUSH2 0x597D PUSH2 0x5975 DUP3 PUSH2 0x589E JUMP JUMPDEST DUP5 DUP5 SLOAD PUSH2 0x590E JUMP JUMPDEST DUP3 SSTORE POP POP POP POP JUMP JUMPDEST PUSH1 0x0 SWAP1 JUMP JUMPDEST PUSH2 0x5992 PUSH2 0x5985 JUMP JUMPDEST PUSH2 0x599D DUP2 DUP5 DUP5 PUSH2 0x5960 JUMP JUMPDEST POP POP POP JUMP JUMPDEST JUMPDEST DUP2 DUP2 LT ISZERO PUSH2 0x59C1 JUMPI PUSH2 0x59B6 PUSH1 0x0 DUP3 PUSH2 0x598A JUMP JUMPDEST PUSH1 0x1 DUP2 ADD SWAP1 POP PUSH2 0x59A3 JUMP JUMPDEST POP POP JUMP JUMPDEST PUSH1 0x0 DUP3 DUP3 SHR SWAP1 POP SWAP3 SWAP2 POP POP JUMP JUMPDEST PUSH2 0x5A02 PUSH32 0xFFFFFFFFFFFFFFFFFFFFFFFFFFFFFFFFFFFFFFFFFFFFFFFFFFFFFFFFFFFFFFFF DUP4 PUSH1 0x20 SUB PUSH1 0x8 MUL PUSH2 0x59C5 JUMP JUMPDEST DUP2 SLOAD DUP2 AND DUP3 SSTORE POP POP POP JUMP JUMPDEST DUP2 DUP4 LT ISZERO PUSH2 0x5A65 JUMPI PUSH2 0x5A1E DUP3 PUSH2 0x58D6 JUMP JUMPDEST PUSH2 0x5A27 DUP5 PUSH2 0x58D6 JUMP JUMPDEST PUSH2 0x5A30 DUP4 PUSH2 0x58EC JUMP JUMPDEST DUP2 DUP2 ADD DUP4 DUP3 ADD PUSH1 0x1 PUSH1 0x20 DUP10 MOD MUL PUSH1 0x0 DUP2 GT ISZERO PUSH2 0x5A54 JUMPI PUSH2 0x5A53 DUP2 PUSH1 0x1 DUP6 SUB PUSH2 0x59D2 JUMP JUMPDEST JUMPDEST PUSH2 0x5A5E DUP3 DUP5 PUSH2 0x59A2 JUMP JUMPDEST POP POP POP POP POP POP JUMPDEST POP POP POP JUMP JUMPDEST PUSH9 0x10000000000000000 DUP3 GT ISZERO PUSH2 0x5A84 JUMPI PUSH2 0x5A83 PUSH2 0x49A1 JUMP JUMPDEST JUMPDEST PUSH2 0x5A8D DUP2 PUSH2 0x58CB JUMP JUMPDEST DUP3 DUP3 SSTORE PUSH2 0x5A9B DUP4 DUP3 DUP5 PUSH2 0x5A0D JUMP JUMPDEST POP POP POP JUMP JUMPDEST PUSH1 0x0 DUP3 SWAP1 POP SWAP3 SWAP2 POP POP JUMP JUMPDEST PUSH1 0x0 DUP2 CALLDATALOAD PUSH2 0x5AB8 DUP2 PUSH2 0x4B77 JUMP JUMPDEST DUP1 SWAP2 POP POP SWAP2 SWAP1 POP JUMP JUMPDEST PUSH1 0x0 DUP2 SWAP1 POP SWAP2 SWAP1 POP JUMP JUMPDEST PUSH1 0x0 PUSH1 0x8 DUP4 MUL PUSH2 0x5ADC PUSH1 0xFF DUP3 PUSH2 0x5901 JUMP JUMPDEST PUSH2 0x5AE6 DUP7 DUP4 PUSH2 0x5901 JUMP JUMPDEST SWAP6 POP DUP1 NOT DUP5 AND SWAP4 POP DUP1 DUP7 AND DUP5 OR SWAP3 POP POP POP SWAP4 SWAP3 POP POP POP JUMP JUMPDEST PUSH1 0x0 DUP2 SWAP1 POP SWAP2 SWAP1 POP JUMP JUMPDEST PUSH2 0x5B12 DUP4 DUP4 PUSH2 0x5AA0 JUMP JUMPDEST PUSH8 0xFFFFFFFFFFFFFFFF DUP2 GT ISZERO PUSH2 0x5B2B JUMPI PUSH2 0x5B2A PUSH2 0x49A1 JUMP JUMPDEST JUMPDEST PUSH2 0x5B35 DUP2 DUP4 PUSH2 0x5A6A JUMP JUMPDEST PUSH2 0x5B3E DUP4 PUSH2 0x5AC1 JUMP JUMPDEST PUSH2 0x5B47 DUP4 PUSH2 0x58EC JUMP JUMPDEST PUSH1 0x20 DUP4 DIV PUSH1 0x0 JUMPDEST DUP2 DUP2 LT ISZERO PUSH2 0x5BAA JUMPI PUSH1 0x0 DUP1 JUMPDEST PUSH1 0x20 DUP2 LT ISZERO PUSH2 0x5B98 JUMPI PUSH2 0x5B6C DUP7 PUSH2 0x5AAB JUMP JUMPDEST PUSH2 0x5B75 DUP2 PUSH2 0x5AFE JUMP JUMPDEST PUSH2 0x5B83 DUP2 DUP5 PUSH1 0x1 MUL DUP7 PUSH2 0x5ACB JUMP JUMPDEST SWAP4 POP PUSH1 0x20 DUP9 ADD SWAP8 POP POP POP PUSH1 0x1 DUP2 ADD SWAP1 POP PUSH2 0x5B5A JUMP JUMPDEST POP DUP1 DUP3 DUP6 ADD SSTORE POP PUSH1 0x1 DUP2 ADD SWAP1 POP PUSH2 0x5B4E JUMP JUMPDEST POP PUSH1 0x20 DUP2 MUL DUP5 SUB PUSH1 0x0 DUP2 GT ISZERO PUSH2 0x5C03 JUMPI PUSH1 0x0 DUP1 JUMPDEST DUP3 DUP2 LT ISZERO PUSH2 0x5BFB JUMPI PUSH2 0x5BCF DUP7 PUSH2 0x5AAB JUMP JUMPDEST PUSH2 0x5BD8 DUP2 PUSH2 0x5AFE JUMP JUMPDEST PUSH2 0x5BE6 DUP2 DUP5 PUSH1 0x1 MUL DUP7 PUSH2 0x5ACB JUMP JUMPDEST SWAP4 POP PUSH1 0x20 DUP9 ADD SWAP8 POP POP POP PUSH1 0x1 DUP2 ADD SWAP1 POP PUSH2 0x5BBE JUMP JUMPDEST POP DUP1 DUP4 DUP6 ADD SSTORE POP JUMPDEST POP POP POP POP POP POP POP POP JUMP JUMPDEST PUSH2 0x5C18 DUP4 DUP4 DUP4 PUSH2 0x5B08 JUMP JUMPDEST POP POP POP JUMP JUMPDEST PUSH1 0x0 DUP2 CALLDATALOAD PUSH2 0x5C2A DUP2 PUSH2 0x533C JUMP JUMPDEST DUP1 SWAP2 POP POP SWAP2 SWAP1 POP JUMP JUMPDEST PUSH1 0x0 PUSH1 0xFF PUSH2 0x5C40 DUP5 PUSH2 0x582D JUMP JUMPDEST SWAP4 POP DUP1 NOT DUP4 AND SWAP3 POP DUP1 DUP5 AND DUP4 OR SWAP2 POP POP SWAP3 SWAP2 POP POP JUMP JUMPDEST PUSH1 0x0 PUSH2 0x5C61 DUP3 PUSH2 0x4EA5 JUMP JUMPDEST SWAP1 POP SWAP2 SWAP1 POP JUMP JUMPDEST PUSH1 0x0 DUP2 SWAP1 POP SWAP2 SWAP1 POP JUMP JUMPDEST PUSH2 0x5C7B DUP3 PUSH2 0x5C56 JUMP JUMPDEST PUSH2 0x5C8E PUSH2 0x5C87 DUP3 PUSH2 0x5C68 JUMP JUMPDEST DUP4 SLOAD PUSH2 0x5C33 JUMP JUMPDEST DUP3 SSTORE POP POP POP JUMP JUMPDEST PUSH1 0x0 DUP2 ADD PUSH1 0x0 DUP4 ADD DUP1 PUSH2 0x5CA7 DUP2 PUSH2 0x5817 JUMP JUMPDEST SWAP1 POP PUSH2 0x5CB3 DUP2 DUP5 PUSH2 0x58A8 JUMP JUMPDEST POP POP POP PUSH1 0x1 DUP2 ADD PUSH1 0x20 DUP4 ADD PUSH2 0x5CC8 DUP2 DUP6 PUSH2 0x538E JUMP JUMPDEST PUSH2 0x5CD3 DUP2 DUP4 DUP7 PUSH2 0x5C0D JUMP JUMPDEST POP POP POP POP PUSH1 0x2 DUP2 ADD PUSH1 0x40 DUP4 ADD DUP1 PUSH2 0x5CE9 DUP2 PUSH2 0x5C1D JUMP JUMPDEST SWAP1 POP PUSH2 0x5CF5 DUP2 DUP5 PUSH2 0x5C72 JUMP JUMPDEST POP POP POP POP POP JUMP JUMPDEST PUSH2 0x5D06 DUP3 DUP3 PUSH2 0x5C95 JUMP JUMPDEST POP POP JUMP JUMPDEST PUSH1 0x0 PUSH1 0x40 DUP3 ADD SWAP1 POP PUSH2 0x5D1F PUSH1 0x0 DUP4 ADD DUP6 PUSH2 0x4DF8 JUMP JUMPDEST PUSH2 0x5D2C PUSH1 0x20 DUP4 ADD DUP5 PUSH2 0x4DF8 JUMP JUMPDEST SWAP4 SWAP3 POP POP POP JUMP JUMPDEST PUSH1 0x0 PUSH1 0x40 DUP3 ADD SWAP1 POP PUSH2 0x5D48 PUSH1 0x0 DUP4 ADD DUP6 PUSH2 0x4F02 JUMP JUMPDEST PUSH2 0x5D55 PUSH1 0x20 DUP4 ADD DUP5 PUSH2 0x4DF8 JUMP JUMPDEST SWAP4 SWAP3 POP POP POP JUMP JUMPDEST PUSH1 0x0 PUSH2 0x5D67 DUP3 PUSH2 0x4B40 JUMP JUMPDEST SWAP2 POP PUSH1 0xFF DUP3 SUB PUSH2 0x5D7A JUMPI PUSH2 0x5D79 PUSH2 0x5202 JUMP JUMPDEST JUMPDEST PUSH1 0x1 DUP3 ADD SWAP1 POP SWAP2 SWAP1 POP JUMP JUMPDEST PUSH1 0x0 PUSH2 0x5D90 DUP3 PUSH2 0x48F2 JUMP JUMPDEST SWAP2 POP PUSH2 0x5D9B DUP4 PUSH2 0x48F2 JUMP JUMPDEST SWAP3 POP DUP3 PUSH2 0x5DAB JUMPI PUSH2 0x5DAA PUSH2 0x51A2 JUMP JUMPDEST JUMPDEST DUP3 DUP3 MOD SWAP1 POP SWAP3 SWAP2 POP POP JUMP JUMPDEST PUSH1 0x0 PUSH1 0x60 DUP3 ADD SWAP1 POP PUSH2 0x5DCB PUSH1 0x0 DUP4 ADD DUP7 PUSH2 0x4DF8 JUMP JUMPDEST PUSH2 0x5DD8 PUSH1 0x20 DUP4 ADD DUP6 PUSH2 0x4B4D JUMP JUMPDEST PUSH2 0x5DE5 PUSH1 0x40 DUP4 ADD DUP5 PUSH2 0x4DF8 JUMP JUMPDEST SWAP5 SWAP4 POP POP POP POP JUMP JUMPDEST PUSH1 0x0 DUP2 MLOAD SWAP1 POP PUSH2 0x5DFC DUP2 PUSH2 0x4D8C JUMP JUMPDEST SWAP3 SWAP2 POP POP JUMP JUMPDEST PUSH1 0x0 PUSH1 0x20 DUP3 DUP5 SUB SLT ISZERO PUSH2 0x5E18 JUMPI PUSH2 0x5E17 PUSH2 0x48E8 JUMP JUMPDEST JUMPDEST PUSH1 0x0 PUSH2 0x5E26 DUP5 DUP3 DUP6 ADD PUSH2 0x5DED JUMP JUMPDEST SWAP2 POP POP SWAP3 SWAP2 POP POP JUMP JUMPDEST PUSH2 0x5E38 DUP2 PUSH2 0x4955 JUMP JUMPDEST DUP3 MSTORE POP POP JUMP JUMPDEST PUSH1 0x20 DUP3 ADD PUSH1 0x0 DUP3 ADD MLOAD PUSH2 0x5E54 PUSH1 0x0 DUP6 ADD DUP3 PUSH2 0x5E2F JUMP JUMPDEST POP POP POP POP JUMP JUMPDEST PUSH1 0x0 PUSH1 0x20 DUP3 ADD SWAP1 POP PUSH2 0x5E6F PUSH1 0x0 DUP4 ADD DUP5 PUSH2 0x5E3E JUMP JUMPDEST SWAP3 SWAP2 POP POP JUMP JUMPDEST PUSH1 0x0 PUSH4 0xFFFFFFFF DUP3 AND SWAP1 POP SWAP2 SWAP1 POP JUMP JUMPDEST PUSH2 0x5E8E DUP2 PUSH2 0x5E75 JUMP JUMPDEST DUP3 MSTORE POP POP JUMP JUMPDEST PUSH1 0x0 PUSH1 0x40 DUP3 ADD SWAP1 POP PUSH2 0x5EA9 PUSH1 0x0 DUP4 ADD DUP6 PUSH2 0x5E85 JUMP JUMPDEST PUSH2 0x5EB6 PUSH1 0x20 DUP4 ADD DUP5 PUSH2 0x5E85 JUMP JUMPDEST SWAP4 SWAP3 POP POP POP JUMP JUMPDEST PUSH1 0x0 PUSH2 0xFFFF DUP3 AND SWAP1 POP SWAP2 SWAP1 POP JUMP JUMPDEST PUSH2 0x5ED4 DUP2 PUSH2 0x5EBD JUMP JUMPDEST DUP3 MSTORE POP POP JUMP JUMPDEST PUSH1 0x0 DUP2 MLOAD SWAP1 POP SWAP2 SWAP1 POP JUMP JUMPDEST PUSH1 0x0 DUP3 DUP3 MSTORE PUSH1 0x20 DUP3 ADD SWAP1 POP SWAP3 SWAP2 POP POP JUMP JUMPDEST PUSH1 0x0 JUMPDEST DUP4 DUP2 LT ISZERO PUSH2 0x5F14 JUMPI DUP1 DUP3 ADD MLOAD DUP2 DUP5 ADD MSTORE PUSH1 0x20 DUP2 ADD SWAP1 POP PUSH2 0x5EF9 JUMP JUMPDEST PUSH1 0x0 DUP5 DUP5 ADD MSTORE POP POP POP POP JUMP JUMPDEST PUSH1 0x0 PUSH2 0x5F2B DUP3 PUSH2 0x5EDA JUMP JUMPDEST PUSH2 0x5F35 DUP2 DUP6 PUSH2 0x5EE5 JUMP JUMPDEST SWAP4 POP PUSH2 0x5F45 DUP2 DUP6 PUSH1 0x20 DUP7 ADD PUSH2 0x5EF6 JUMP JUMPDEST PUSH2 0x5F4E DUP2 PUSH2 0x4990 JUMP JUMPDEST DUP5 ADD SWAP2 POP POP SWAP3 SWAP2 POP POP JUMP JUMPDEST PUSH1 0x0 PUSH1 0x80 DUP3 ADD SWAP1 POP PUSH2 0x5F6E PUSH1 0x0 DUP4 ADD DUP8 PUSH2 0x5E85 JUMP JUMPDEST PUSH2 0x5F7B PUSH1 0x20 DUP4 ADD DUP7 PUSH2 0x5ECB JUMP JUMPDEST PUSH2 0x5F88 PUSH1 0x40 DUP4 ADD DUP6 PUSH2 0x5E85 JUMP JUMPDEST DUP2 DUP2 SUB PUSH1 0x60 DUP4 ADD MSTORE PUSH2 0x5F9A DUP2 DUP5 PUSH2 0x5F20 JUMP JUMPDEST SWAP1 POP SWAP6 SWAP5 POP POP POP POP POP JUMP INVALID LOG2 PUSH5 0x6970667358 0x22 SLT KECCAK256 PUSH22 0x4E55B286CA036D684FF0C5641E7277AB1A959B3E20E1 DUP1 SHL 0xBA PUSH8 0x764E9C40AF64736F PUSH13 0x634300081B0033000000000000 "
        },
        "methodIdentifiers": {
          "bets(uint256,uint256)": "6a09f6be",
          "betsOwner(uint256)": "fba4d7bf",
          "black(uint256)": "83cd7980",
          "changeFeeBps(uint8)": "2edd6797",
          "feeAmount()": "69e15404",
          "feeBps()": "24a9d853",
          "fulfilled(uint256)": "1bc404d6",
          "i_vrfV2PlusWrapper()": "9ed0868d",
          "initialize(address,address)": "485cc955",
          "isCornerBet(uint8[])": "7d5e45d5",
          "isDoubleStreetBet(uint8[])": "3f9e06c9",
          "isSplitBet(uint8,uint8)": "47aa1a10",
          "isStreetBet(uint8,uint8,uint8)": "e4f8ceea",
          "newBet((uint256,uint8[],uint8)[])": "a285ad79",
          "owner()": "8da5cb5b",
          "rawFulfillRandomWords(uint256,uint256[])": "1fe543e3",
          "red(uint256)": "768d2689",
          "renounceOwnership()": "715018a6",
          "streets(uint256,uint256)": "88f2c720",
          "token()": "fc0c546a",
          "transferOwnership(address)": "f2fde38b",
          "withdrawFee()": "e941fa78",
          "withdrawFunds(address,uint256)": "c1075329"
        }
      },
      "storageLayout": {
        "storage": [
          {
            "astId": 814,
            "contract": "contracts/RouletteV0_0_2.sol:RouletteV0_0_2",
            "label": "i_linkToken",
            "offset": 0,
            "slot": "0",
            "type": "t_contract(LinkTokenInterface)94"
          },
          {
            "astId": 817,
            "contract": "contracts/RouletteV0_0_2.sol:RouletteV0_0_2",
            "label": "i_vrfV2PlusWrapper",
            "offset": 0,
            "slot": "1",
            "type": "t_contract(IVRFV2PlusWrapper)171"
          },
          {
            "astId": 820,
            "contract": "contracts/RouletteV0_0_2.sol:RouletteV0_0_2",
            "label": "token",
            "offset": 0,
            "slot": "2",
            "type": "t_contract(IERC20)786"
          },
          {
            "astId": 822,
            "contract": "contracts/RouletteV0_0_2.sol:RouletteV0_0_2",
            "label": "feeBps",
            "offset": 20,
            "slot": "2",
            "type": "t_uint8"
          },
          {
            "astId": 827,
            "contract": "contracts/RouletteV0_0_2.sol:RouletteV0_0_2",
            "label": "streets",
            "offset": 0,
            "slot": "3",
            "type": "t_array(t_array(t_uint8)3_storage)dyn_storage"
          },
          {
            "astId": 831,
            "contract": "contracts/RouletteV0_0_2.sol:RouletteV0_0_2",
            "label": "red",
            "offset": 0,
            "slot": "4",
            "type": "t_array(t_uint8)18_storage"
          },
          {
            "astId": 835,
            "contract": "contracts/RouletteV0_0_2.sol:RouletteV0_0_2",
            "label": "black",
            "offset": 0,
            "slot": "5",
            "type": "t_array(t_uint8)18_storage"
          },
          {
            "astId": 908,
            "contract": "contracts/RouletteV0_0_2.sol:RouletteV0_0_2",
            "label": "bets",
            "offset": 0,
            "slot": "6",
            "type": "t_mapping(t_uint256,t_array(t_struct(Bet)866_storage)dyn_storage)"
          },
          {
            "astId": 912,
            "contract": "contracts/RouletteV0_0_2.sol:RouletteV0_0_2",
            "label": "betsOwner",
            "offset": 0,
            "slot": "7",
            "type": "t_mapping(t_uint256,t_address)"
          },
          {
            "astId": 916,
            "contract": "contracts/RouletteV0_0_2.sol:RouletteV0_0_2",
            "label": "fulfilled",
            "offset": 0,
            "slot": "8",
            "type": "t_mapping(t_uint256,t_bool)"
          },
          {
            "astId": 918,
            "contract": "contracts/RouletteV0_0_2.sol:RouletteV0_0_2",
            "label": "feeAmount",
            "offset": 0,
            "slot": "9",
            "type": "t_uint256"
          }
        ],
        "types": {
          "t_address": {
            "encoding": "inplace",
            "label": "address",
            "numberOfBytes": "20"
          },
          "t_array(t_array(t_uint8)3_storage)dyn_storage": {
            "base": "t_array(t_uint8)3_storage",
            "encoding": "dynamic_array",
            "label": "uint8[3][]",
            "numberOfBytes": "32"
          },
          "t_array(t_struct(Bet)866_storage)dyn_storage": {
            "base": "t_struct(Bet)866_storage",
            "encoding": "dynamic_array",
            "label": "struct RouletteV0_0_2.Bet[]",
            "numberOfBytes": "32"
          },
          "t_array(t_uint8)18_storage": {
            "base": "t_uint8",
            "encoding": "inplace",
            "label": "uint8[18]",
            "numberOfBytes": "32"
          },
          "t_array(t_uint8)3_storage": {
            "base": "t_uint8",
            "encoding": "inplace",
            "label": "uint8[3]",
            "numberOfBytes": "32"
          },
          "t_array(t_uint8)dyn_storage": {
            "base": "t_uint8",
            "encoding": "dynamic_array",
            "label": "uint8[]",
            "numberOfBytes": "32"
          },
          "t_bool": {
            "encoding": "inplace",
            "label": "bool",
            "numberOfBytes": "1"
          },
          "t_contract(IERC20)786": {
            "encoding": "inplace",
            "label": "contract IERC20",
            "numberOfBytes": "20"
          },
          "t_contract(IVRFV2PlusWrapper)171": {
            "encoding": "inplace",
            "label": "contract IVRFV2PlusWrapper",
            "numberOfBytes": "20"
          },
          "t_contract(LinkTokenInterface)94": {
            "encoding": "inplace",
            "label": "contract LinkTokenInterface",
            "numberOfBytes": "20"
          },
          "t_enum(BetType)857": {
            "encoding": "inplace",
            "label": "enum RouletteV0_0_2.BetType",
            "numberOfBytes": "1"
          },
          "t_mapping(t_uint256,t_address)": {
            "encoding": "mapping",
            "key": "t_uint256",
            "label": "mapping(uint256 => address)",
            "numberOfBytes": "32",
            "value": "t_address"
          },
          "t_mapping(t_uint256,t_array(t_struct(Bet)866_storage)dyn_storage)": {
            "encoding": "mapping",
            "key": "t_uint256",
            "label": "mapping(uint256 => struct RouletteV0_0_2.Bet[])",
            "numberOfBytes": "32",
            "value": "t_array(t_struct(Bet)866_storage)dyn_storage"
          },
          "t_mapping(t_uint256,t_bool)": {
            "encoding": "mapping",
            "key": "t_uint256",
            "label": "mapping(uint256 => bool)",
            "numberOfBytes": "32",
            "value": "t_bool"
          },
          "t_struct(Bet)866_storage": {
            "encoding": "inplace",
            "label": "struct RouletteV0_0_2.Bet",
            "members": [
              {
                "astId": 859,
                "contract": "contracts/RouletteV0_0_2.sol:RouletteV0_0_2",
                "label": "amount",
                "offset": 0,
                "slot": "0",
                "type": "t_uint256"
              },
              {
                "astId": 862,
                "contract": "contracts/RouletteV0_0_2.sol:RouletteV0_0_2",
                "label": "numbers",
                "offset": 0,
                "slot": "1",
                "type": "t_array(t_uint8)dyn_storage"
              },
              {
                "astId": 865,
                "contract": "contracts/RouletteV0_0_2.sol:RouletteV0_0_2",
                "label": "betType",
                "offset": 0,
                "slot": "2",
                "type": "t_enum(BetType)857"
              }
            ],
            "numberOfBytes": "96"
          },
          "t_uint256": {
            "encoding": "inplace",
            "label": "uint256",
            "numberOfBytes": "32"
          },
          "t_uint8": {
            "encoding": "inplace",
            "label": "uint8",
            "numberOfBytes": "1"
          }
        }
      }
    }
  }
}