{
  "contracts/Roulette.sol": {
    "Roulette": {
      "abi": [
        {
          "inputs": [],
          "stateMutability": "nonpayable",
          "type": "constructor"
        },
        {
          "inputs": [],
          "name": "InvalidInitialization",
          "type": "error"
        },
        {
          "inputs": [],
          "name": "NotInitializing",
          "type": "error"
        },
        {
          "inputs": [
            {
              "internalType": "address",
              "name": "have",
              "type": "address"
            },
            {
              "internalType": "address",
              "name": "want",
              "type": "address"
            }
          ],
          "name": "OnlyVRFWrapperCanFulfill",
          "type": "error"
        },
        {
          "inputs": [
            {
              "internalType": "address",
              "name": "owner",
              "type": "address"
            }
          ],
          "name": "OwnableInvalidOwner",
          "type": "error"
        },
        {
          "inputs": [
            {
              "internalType": "address",
              "name": "account",
              "type": "address"
            }
          ],
          "name": "OwnableUnauthorizedAccount",
          "type": "error"
        },
        {
          "anonymous": false,
          "inputs": [
            {
              "indexed": false,
              "internalType": "uint256",
              "name": "requestId",
              "type": "uint256"
            },
            {
              "indexed": false,
              "internalType": "uint256",
              "name": "feePrice",
              "type": "uint256"
            }
          ],
          "name": "BetsCreated",
          "type": "event"
        },
        {
          "anonymous": false,
          "inputs": [
            {
              "indexed": false,
              "internalType": "uint256",
              "name": "requestId",
              "type": "uint256"
            },
            {
              "indexed": false,
              "internalType": "uint8",
              "name": "result",
              "type": "uint8"
            },
            {
              "indexed": false,
              "internalType": "uint256[]",
              "name": "winnings",
              "type": "uint256[]"
            }
          ],
          "name": "BetsResult",
          "type": "event"
        },
        {
          "anonymous": false,
          "inputs": [
            {
              "indexed": false,
              "internalType": "address",
              "name": "by",
              "type": "address"
            },
            {
              "indexed": false,
              "internalType": "address",
              "name": "token",
              "type": "address"
            },
            {
              "indexed": false,
              "internalType": "uint256",
              "name": "amount",
              "type": "uint256"
            }
          ],
          "name": "EmergencyWithdrawn",
          "type": "event"
        },
        {
          "anonymous": false,
          "inputs": [
            {
              "indexed": false,
              "internalType": "uint8",
              "name": "newFeeBps",
              "type": "uint8"
            }
          ],
          "name": "FeeChanged",
          "type": "event"
        },
        {
          "anonymous": false,
          "inputs": [
            {
              "indexed": false,
              "internalType": "uint256",
              "name": "amount",
              "type": "uint256"
            }
          ],
          "name": "FeeCharge",
          "type": "event"
        },
        {
          "anonymous": false,
          "inputs": [
            {
              "indexed": false,
              "internalType": "address",
              "name": "by",
              "type": "address"
            },
            {
              "indexed": false,
              "internalType": "uint256",
              "name": "amount",
              "type": "uint256"
            }
          ],
          "name": "FeeWithdrawn",
          "type": "event"
        },
        {
          "anonymous": false,
          "inputs": [
            {
              "indexed": false,
              "internalType": "uint64",
              "name": "version",
              "type": "uint64"
            }
          ],
          "name": "Initialized",
          "type": "event"
        },
        {
          "anonymous": false,
          "inputs": [
            {
              "indexed": true,
              "internalType": "address",
              "name": "previousOwner",
              "type": "address"
            },
            {
              "indexed": true,
              "internalType": "address",
              "name": "newOwner",
              "type": "address"
            }
          ],
          "name": "OwnershipTransferred",
          "type": "event"
        },
        {
          "stateMutability": "payable",
          "type": "fallback"
        },
        {
          "inputs": [
            {
              "internalType": "uint256",
              "name": "",
              "type": "uint256"
            },
            {
              "internalType": "uint256",
              "name": "",
              "type": "uint256"
            }
          ],
          "name": "bets",
          "outputs": [
            {
              "internalType": "uint256",
              "name": "amount",
              "type": "uint256"
            },
            {
              "internalType": "enum Roulette.BetType",
              "name": "betType",
              "type": "uint8"
            }
          ],
          "stateMutability": "view",
          "type": "function"
        },
        {
          "inputs": [
            {
              "internalType": "uint256",
              "name": "",
              "type": "uint256"
            }
          ],
          "name": "betsOwner",
          "outputs": [
            {
              "internalType": "address",
              "name": "",
              "type": "address"
            }
          ],
          "stateMutability": "view",
          "type": "function"
        },
        {
          "inputs": [
            {
              "internalType": "uint256",
              "name": "",
              "type": "uint256"
            }
          ],
          "name": "black",
          "outputs": [
            {
              "internalType": "uint8",
              "name": "",
              "type": "uint8"
            }
          ],
          "stateMutability": "view",
          "type": "function"
        },
        {
          "inputs": [
            {
              "internalType": "uint8",
              "name": "_newFeeBps",
              "type": "uint8"
            }
          ],
          "name": "changeFeeBps",
          "outputs": [],
          "stateMutability": "nonpayable",
          "type": "function"
        },
        {
          "inputs": [],
          "name": "feeAmount",
          "outputs": [
            {
              "internalType": "uint256",
              "name": "",
              "type": "uint256"
            }
          ],
          "stateMutability": "view",
          "type": "function"
        },
        {
          "inputs": [],
          "name": "feeBps",
          "outputs": [
            {
              "internalType": "uint8",
              "name": "",
              "type": "uint8"
            }
          ],
          "stateMutability": "view",
          "type": "function"
        },
        {
          "inputs": [
            {
              "internalType": "uint256",
              "name": "",
              "type": "uint256"
            }
          ],
          "name": "fulfilled",
          "outputs": [
            {
              "internalType": "bool",
              "name": "",
              "type": "bool"
            }
          ],
          "stateMutability": "view",
          "type": "function"
        },
        {
          "inputs": [],
          "name": "i_vrfV2PlusWrapper",
          "outputs": [
            {
              "internalType": "contract IVRFV2PlusWrapper",
              "name": "",
              "type": "address"
            }
          ],
          "stateMutability": "view",
          "type": "function"
        },
        {
          "inputs": [
            {
              "internalType": "contract IERC20",
              "name": "_token",
              "type": "address"
            },
            {
              "internalType": "address",
              "name": "_vrfV2PlusWrapper",
              "type": "address"
            }
          ],
          "name": "initialize",
          "outputs": [],
          "stateMutability": "nonpayable",
          "type": "function"
        },
        {
          "inputs": [
            {
              "internalType": "uint8[]",
              "name": "numbers",
              "type": "uint8[]"
            }
          ],
          "name": "isCornerBet",
          "outputs": [
            {
              "internalType": "bool",
              "name": "",
              "type": "bool"
            }
          ],
          "stateMutability": "pure",
          "type": "function"
        },
        {
          "inputs": [
            {
              "internalType": "uint8[]",
              "name": "numbers",
              "type": "uint8[]"
            }
          ],
          "name": "isDoubleStreetBet",
          "outputs": [
            {
              "internalType": "bool",
              "name": "",
              "type": "bool"
            }
          ],
          "stateMutability": "pure",
          "type": "function"
        },
        {
          "inputs": [
            {
              "internalType": "uint8",
              "name": "num1",
              "type": "uint8"
            },
            {
              "internalType": "uint8",
              "name": "num2",
              "type": "uint8"
            }
          ],
          "name": "isSplitBet",
          "outputs": [
            {
              "internalType": "bool",
              "name": "",
              "type": "bool"
            }
          ],
          "stateMutability": "pure",
          "type": "function"
        },
        {
          "inputs": [
            {
              "internalType": "uint8",
              "name": "num1",
              "type": "uint8"
            },
            {
              "internalType": "uint8",
              "name": "num2",
              "type": "uint8"
            },
            {
              "internalType": "uint8",
              "name": "num3",
              "type": "uint8"
            }
          ],
          "name": "isStreetBet",
          "outputs": [
            {
              "internalType": "bool",
              "name": "",
              "type": "bool"
            }
          ],
          "stateMutability": "view",
          "type": "function"
        },
        {
          "inputs": [
            {
              "components": [
                {
                  "internalType": "uint256",
                  "name": "amount",
                  "type": "uint256"
                },
                {
                  "internalType": "uint8[]",
                  "name": "numbers",
                  "type": "uint8[]"
                },
                {
                  "internalType": "enum Roulette.BetType",
                  "name": "betType",
                  "type": "uint8"
                }
              ],
              "internalType": "struct Roulette.Bet[]",
              "name": "_bets",
              "type": "tuple[]"
            }
          ],
          "name": "newBet",
          "outputs": [
            {
              "internalType": "uint256",
              "name": "",
              "type": "uint256"
            }
          ],
          "stateMutability": "nonpayable",
          "type": "function"
        },
        {
          "inputs": [],
          "name": "owner",
          "outputs": [
            {
              "internalType": "address",
              "name": "",
              "type": "address"
            }
          ],
          "stateMutability": "view",
          "type": "function"
        },
        {
          "inputs": [
            {
              "internalType": "uint256",
              "name": "_requestId",
              "type": "uint256"
            },
            {
              "internalType": "uint256[]",
              "name": "_randomWords",
              "type": "uint256[]"
            }
          ],
          "name": "rawFulfillRandomWords",
          "outputs": [],
          "stateMutability": "nonpayable",
          "type": "function"
        },
        {
          "inputs": [
            {
              "internalType": "uint256",
              "name": "",
              "type": "uint256"
            }
          ],
          "name": "red",
          "outputs": [
            {
              "internalType": "uint8",
              "name": "",
              "type": "uint8"
            }
          ],
          "stateMutability": "view",
          "type": "function"
        },
        {
          "inputs": [],
          "name": "renounceOwnership",
          "outputs": [],
          "stateMutability": "nonpayable",
          "type": "function"
        },
        {
          "inputs": [
            {
              "internalType": "uint256",
              "name": "",
              "type": "uint256"
            },
            {
              "internalType": "uint256",
              "name": "",
              "type": "uint256"
            }
          ],
          "name": "streets",
          "outputs": [
            {
              "internalType": "uint8",
              "name": "",
              "type": "uint8"
            }
          ],
          "stateMutability": "view",
          "type": "function"
        },
        {
          "inputs": [],
          "name": "token",
          "outputs": [
            {
              "internalType": "contract IERC20",
              "name": "",
              "type": "address"
            }
          ],
          "stateMutability": "view",
          "type": "function"
        },
        {
          "inputs": [
            {
              "internalType": "address",
              "name": "newOwner",
              "type": "address"
            }
          ],
          "name": "transferOwnership",
          "outputs": [],
          "stateMutability": "nonpayable",
          "type": "function"
        },
        {
          "inputs": [],
          "name": "withdrawFee",
          "outputs": [],
          "stateMutability": "nonpayable",
          "type": "function"
        },
        {
          "inputs": [
            {
              "internalType": "address",
              "name": "_token",
              "type": "address"
            },
            {
              "internalType": "uint256",
              "name": "_amount",
              "type": "uint256"
            }
          ],
          "name": "withdrawFunds",
          "outputs": [],
          "stateMutability": "nonpayable",
          "type": "function"
        }
      ],
      "evm": {
        "bytecode": {
          "linkReferences": {},
          "object": "608060405234801561001057600080fd5b5061001f61002460201b60201c565b61018e565b600061003461012860201b60201c565b90508060000160089054906101000a900460ff161561007f576040517ff92ee8a900000000000000000000000000000000000000000000000000000000815260040160405180910390fd5b67ffffffffffffffff80168160000160009054906101000a900467ffffffffffffffff1667ffffffffffffffff16146101255767ffffffffffffffff8160000160006101000a81548167ffffffffffffffff021916908367ffffffffffffffff1602179055507fc7f505b2f371ae2175ee4913f4499e1f2633a7b5936321eed1cdaeb6115181d267ffffffffffffffff60405161011c9190610173565b60405180910390a15b50565b60007ff0c57e16840df040f15088dc2f81fe391c3923bec73e23a9662efc9c229c6a00905090565b600067ffffffffffffffff82169050919050565b61016d81610150565b82525050565b60006020820190506101886000830184610164565b92915050565b615fd38061019d6000396000f3fe6080604052600436106101445760003560e01c80637d5e45d5116100b6578063c10753291161006f578063c1075329146104ab578063e4f8ceea146104d4578063e941fa7814610511578063f2fde38b14610528578063fba4d7bf14610551578063fc0c546a1461058e57610145565b80637d5e45d51461036157806383cd79801461039e57806388f2c720146103db5780638da5cb5b146104185780639ed0868d14610443578063a285ad791461046e57610145565b806347aa1a101161010857806347aa1a101461023e578063485cc9551461027b57806369e15404146102a45780636a09f6be146102cf578063715018a61461030d578063768d26891461032457610145565b80631bc404d6146101475780631fe543e31461018457806324a9d853146101ad5780632edd6797146101d85780633f9e06c91461020157610145565b5b005b34801561015357600080fd5b5061016e600480360381019061016991906148eb565b6105b9565b60405161017b9190614933565b60405180910390f35b34801561019057600080fd5b506101ab60048036038101906101a69190614aa7565b6105d9565b005b3480156101b957600080fd5b506101c2610681565b6040516101cf9190614b1f565b60405180910390f35b3480156101e457600080fd5b506101ff60048036038101906101fa9190614b66565b610694565b005b34801561020d57600080fd5b5061022860048036038101906102239190614c56565b6106f1565b6040516102359190614933565b60405180910390f35b34801561024a57600080fd5b5061026560048036038101906102609190614c9f565b61096c565b6040516102729190614933565b60405180910390f35b34801561028757600080fd5b506102a2600480360381019061029d9190614d7b565b610a2f565b005b3480156102b057600080fd5b506102b9610bc0565b6040516102c69190614dca565b60405180910390f35b3480156102db57600080fd5b506102f660048036038101906102f19190614de5565b610bc6565b604051610304929190614e9c565b60405180910390f35b34801561031957600080fd5b50610322610c14565b005b34801561033057600080fd5b5061034b600480360381019061034691906148eb565b610c28565b6040516103589190614b1f565b60405180910390f35b34801561036d57600080fd5b5061038860048036038101906103839190614c56565b610c52565b6040516103959190614933565b60405180910390f35b3480156103aa57600080fd5b506103c560048036038101906103c091906148eb565b610dc8565b6040516103d29190614b1f565b60405180910390f35b3480156103e757600080fd5b5061040260048036038101906103fd9190614de5565b610df2565b60405161040f9190614b1f565b60405180910390f35b34801561042457600080fd5b5061042d610e37565b60405161043a9190614ed4565b60405180910390f35b34801561044f57600080fd5b50610458610e6f565b6040516104659190614f4e565b60405180910390f35b34801561047a57600080fd5b5061049560048036038101906104909190614fc4565b610e95565b6040516104a29190614dca565b60405180910390f35b3480156104b757600080fd5b506104d260048036038101906104cd9190615011565b6122d5565b005b3480156104e057600080fd5b506104fb60048036038101906104f69190615051565b61242a565b6040516105089190614933565b60405180910390f35b34801561051d57600080fd5b50610526612ab8565b005b34801561053457600080fd5b5061054f600480360381019061054a91906150a4565b612bb3565b005b34801561055d57600080fd5b50610578600480360381019061057391906148eb565b612c39565b6040516105859190614ed4565b60405180910390f35b34801561059a57600080fd5b506105a3612c6c565b6040516105b091906150f2565b60405180910390f35b60086020528060005260406000206000915054906101000a900460ff1681565b6000600160009054906101000a900473ffffffffffffffffffffffffffffffffffffffff1690508073ffffffffffffffffffffffffffffffffffffffff163373ffffffffffffffffffffffffffffffffffffffff16146106725733816040517f8ba9316e00000000000000000000000000000000000000000000000000000000815260040161066992919061510d565b60405180910390fd5b61067c8383612c92565b505050565b600260149054906101000a900460ff1681565b61069c612f76565b80600260146101000a81548160ff021916908360ff1602179055507f8b3c6011cf1540f834b7142ff37e905118131ec885ed9c7d34fb314ba864f815816040516106e69190614b1f565b60405180910390a150565b6000806107a48360008151811061070b5761070a615136565b5b60200260200101518460018151811061072757610726615136565b5b60200260200101518560028151811061074357610742615136565b5b60200260200101518660038151811061075f5761075e615136565b5b60200260200101518760048151811061077b5761077a615136565b5b60200260200101518860058151811061079757610796615136565b5b6020026020010151612ffd565b905060016003826000600681106107be576107bd615136565b5b60200201516107cd9190615194565b60ff1614801561081e57506001816000600681106107ee576107ed615136565b5b60200201516107fd91906151f4565b60ff168160016006811061081457610813615136565b5b602002015160ff16145b801561086b575060028160006006811061083b5761083a615136565b5b602002015161084a91906151f4565b60ff168160026006811061086157610860615136565b5b602002015160ff16145b80156108b8575060038160006006811061088857610887615136565b5b602002015161089791906151f4565b60ff16816003600681106108ae576108ad615136565b5b602002015160ff16145b801561090557506004816000600681106108d5576108d4615136565b5b60200201516108e491906151f4565b60ff16816004600681106108fb576108fa615136565b5b602002015160ff16145b8015610952575060058160006006811061092257610921615136565b5b602002015161093191906151f4565b60ff168160056006811061094857610947615136565b5b602002015160ff16145b15610961576001915050610967565b60009150505b919050565b600060018261097b9190615229565b60ff168360ff1614801561099f575060006003846109999190615194565b60ff1614155b806109d757506001836109b29190615229565b60ff168260ff161480156109d6575060006003836109d09190615194565b60ff1614155b5b156109e55760019050610a29565b6003826109f29190615229565b60ff168360ff161480610a165750600383610a0d9190615229565b60ff168260ff16145b15610a245760019050610a29565b600090505b92915050565b6000610a3961317e565b905060008160000160089054906101000a900460ff1615905060008260000160009054906101000a900467ffffffffffffffff1690506000808267ffffffffffffffff16148015610a875750825b9050600060018367ffffffffffffffff16148015610abc575060003073ffffffffffffffffffffffffffffffffffffffff163b145b905081158015610aca575080155b15610b01576040517ff92ee8a900000000000000000000000000000000000000000000000000000000815260040160405180910390fd5b60018560000160006101000a81548167ffffffffffffffff021916908367ffffffffffffffff1602179055508315610b515760018560000160086101000a81548160ff0219169083151502179055505b610b5b87876131a6565b8315610bb75760008560000160086101000a81548160ff0219169083151502179055507fc7f505b2f371ae2175ee4913f4499e1f2633a7b5936321eed1cdaeb6115181d26001604051610bae91906152ad565b60405180910390a15b50505050505050565b60095481565b60066020528160005260406000208181548110610be257600080fd5b9060005260206000209060030201600091509150508060000154908060020160009054906101000a900460ff16905082565b610c1c612f76565b610c2660006136d6565b565b60048160128110610c3857600080fd5b60209182820401919006915054906101000a900460ff1681565b600080610ccd83600081518110610c6c57610c6b615136565b5b602002602001015184600181518110610c8857610c87615136565b5b602002602001015185600281518110610ca457610ca3615136565b5b602002602001015186600381518110610cc057610cbf615136565b5b60200260200101516137ad565b9050600181600060048110610ce557610ce4615136565b5b6020020151610cf491906151f4565b60ff1681600160048110610d0b57610d0a615136565b5b602002015160ff16148015610d615750600381600060048110610d3157610d30615136565b5b6020020151610d4091906151f4565b60ff1681600260048110610d5757610d56615136565b5b602002015160ff16145b8015610dae5750600481600060048110610d7e57610d7d615136565b5b6020020151610d8d91906151f4565b60ff1681600360048110610da457610da3615136565b5b602002015160ff16145b15610dbd576001915050610dc3565b60009150505b919050565b60058160128110610dd857600080fd5b60209182820401919006915054906101000a900460ff1681565b60038281548110610e0257600080fd5b906000526020600020018160038110610e1a57600080fd5b60209182820401919006915091509054906101000a900460ff1681565b600080610e42613914565b90508060000160009054906101000a900473ffffffffffffffffffffffffffffffffffffffff1691505090565b600160009054906101000a900473ffffffffffffffffffffffffffffffffffffffff1681565b6000806000905060005b84849050811015611f5d5760006014811115610ebe57610ebd614e25565b5b858583818110610ed157610ed0615136565b5b9050602002810190610ee391906152d7565b6040016020810190610ef59190615324565b6014811115610f0757610f06614e25565b5b1480610f6d575060016014811115610f2257610f21614e25565b5b858583818110610f3557610f34615136565b5b9050602002810190610f4791906152d7565b6040016020810190610f599190615324565b6014811115610f6b57610f6a614e25565b5b145b80610fd2575060096014811115610f8757610f86614e25565b5b858583818110610f9a57610f99615136565b5b9050602002810190610fac91906152d7565b6040016020810190610fbe9190615324565b6014811115610fd057610fcf614e25565b5b145b806110375750600a6014811115610fec57610feb614e25565b5b858583818110610fff57610ffe615136565b5b905060200281019061101191906152d7565b60400160208101906110239190615324565b601481111561103557611034614e25565b5b145b8061109c5750600b601481111561105157611050614e25565b5b85858381811061106457611063615136565b5b905060200281019061107691906152d7565b60400160208101906110889190615324565b601481111561109a57611099614e25565b5b145b806111015750600c60148111156110b6576110b5614e25565b5b8585838181106110c9576110c8615136565b5b90506020028101906110db91906152d7565b60400160208101906110ed9190615324565b60148111156110ff576110fe614e25565b5b145b806111665750600d601481111561111b5761111a614e25565b5b85858381811061112e5761112d615136565b5b905060200281019061114091906152d7565b60400160208101906111529190615324565b601481111561116457611163614e25565b5b145b806111cb5750600e60148111156111805761117f614e25565b5b85858381811061119357611192615136565b5b90506020028101906111a591906152d7565b60400160208101906111b79190615324565b60148111156111c9576111c8614e25565b5b145b806112305750600f60148111156111e5576111e4614e25565b5b8585838181106111f8576111f7615136565b5b905060200281019061120a91906152d7565b604001602081019061121c9190615324565b601481111561122e5761122d614e25565b5b145b8061129557506010601481111561124a57611249614e25565b5b85858381811061125d5761125c615136565b5b905060200281019061126f91906152d7565b60400160208101906112819190615324565b601481111561129357611292614e25565b5b145b806112fa5750601160148111156112af576112ae614e25565b5b8585838181106112c2576112c1615136565b5b90506020028101906112d491906152d7565b60400160208101906112e69190615324565b60148111156112f8576112f7614e25565b5b145b8061135f57506012601481111561131457611313614e25565b5b85858381811061132757611326615136565b5b905060200281019061133991906152d7565b604001602081019061134b9190615324565b601481111561135d5761135c614e25565b5b145b806113c457506013601481111561137957611378614e25565b5b85858381811061138c5761138b615136565b5b905060200281019061139e91906152d7565b60400160208101906113b09190615324565b60148111156113c2576113c1614e25565b5b145b8061142857506014808111156113dd576113dc614e25565b5b8585838181106113f0576113ef615136565b5b905060200281019061140291906152d7565b60400160208101906114149190615324565b601481111561142657611425614e25565b5b145b156114a657600085858381811061144257611441615136565b5b905060200281019061145491906152d7565b80602001906114639190615351565b9050146114a5576040517f08c379a000000000000000000000000000000000000000000000000000000000815260040161149c90615437565b60405180910390fd5b5b600260148111156114ba576114b9614e25565b5b8585838181106114cd576114cc615136565b5b90506020028101906114df91906152d7565b60400160208101906114f19190615324565b601481111561150357611502614e25565b5b036116e057600385858381811061151d5761151c615136565b5b905060200281019061152f91906152d7565b806020019061153e9190615351565b905014611580576040517f08c379a0000000000000000000000000000000000000000000000000000000008152600401611577906154a3565b60405180910390fd5b6001151561169d86868481811061159a57611599615136565b5b90506020028101906115ac91906152d7565b80602001906115bb9190615351565b60008181106115cd576115cc615136565b5b90506020020160208101906115e29190614b66565b8787858181106115f5576115f4615136565b5b905060200281019061160791906152d7565b80602001906116169190615351565b600181811061162857611627615136565b5b905060200201602081019061163d9190614b66565b8888868181106116505761164f615136565b5b905060200281019061166291906152d7565b80602001906116719190615351565b600281811061168357611682615136565b5b90506020020160208101906116989190614b66565b61242a565b1515146116df576040517f08c379a00000000000000000000000000000000000000000000000000000000081526004016116d69061550f565b60405180910390fd5b5b600360148111156116f4576116f3614e25565b5b85858381811061170757611706615136565b5b905060200281019061171991906152d7565b604001602081019061172b9190615324565b601481111561173d5761173c614e25565b5b0361180357600c85858381811061175757611756615136565b5b905060200281019061176991906152d7565b80602001906117789190615351565b9050146117ba576040517f08c379a00000000000000000000000000000000000000000000000000000000081526004016117b1906154a3565b60405180910390fd5b600015156001151514611802576040517f08c379a00000000000000000000000000000000000000000000000000000000081526004016117f99061557b565b60405180910390fd5b5b6004601481111561181757611816614e25565b5b85858381811061182a57611829615136565b5b905060200281019061183c91906152d7565b604001602081019061184e9190615324565b60148111156118605761185f614e25565b5b0361192657600585858381811061187a57611879615136565b5b905060200281019061188c91906152d7565b806020019061189b9190615351565b9050146118dd576040517f08c379a00000000000000000000000000000000000000000000000000000000081526004016118d4906154a3565b60405180910390fd5b600015156001151514611925576040517f08c379a000000000000000000000000000000000000000000000000000000000815260040161191c9061557b565b60405180910390fd5b5b6005601481111561193a57611939614e25565b5b85858381811061194d5761194c615136565b5b905060200281019061195f91906152d7565b60400160208101906119719190615324565b601481111561198357611982614e25565b5b03611b0557600285858381811061199d5761199c615136565b5b90506020028101906119af91906152d7565b80602001906119be9190615351565b905014611a00576040517f08c379a00000000000000000000000000000000000000000000000000000000081526004016119f7906154a3565b60405180910390fd5b60011515611ac2868684818110611a1a57611a19615136565b5b9050602002810190611a2c91906152d7565b8060200190611a3b9190615351565b6000818110611a4d57611a4c615136565b5b9050602002016020810190611a629190614b66565b878785818110611a7557611a74615136565b5b9050602002810190611a8791906152d7565b8060200190611a969190615351565b6001818110611aa857611aa7615136565b5b9050602002016020810190611abd9190614b66565b61096c565b151514611b04576040517f08c379a0000000000000000000000000000000000000000000000000000000008152600401611afb9061550f565b60405180910390fd5b5b60066014811115611b1957611b18614e25565b5b858583818110611b2c57611b2b615136565b5b9050602002810190611b3e91906152d7565b6040016020810190611b509190615324565b6014811115611b6257611b61614e25565b5b03611ca2576004858583818110611b7c57611b7b615136565b5b9050602002810190611b8e91906152d7565b8060200190611b9d9190615351565b905014611bdf576040517f08c379a0000000000000000000000000000000000000000000000000000000008152600401611bd6906154a3565b60405180910390fd5b60011515611c5f868684818110611bf957611bf8615136565b5b9050602002810190611c0b91906152d7565b8060200190611c1a9190615351565b80806020026020016040519081016040528093929190818152602001838360200280828437600081840152601f19601f82011690508083019250505050505050610c52565b151514611ca1576040517f08c379a0000000000000000000000000000000000000000000000000000000008152600401611c989061550f565b60405180910390fd5b5b60076014811115611cb657611cb5614e25565b5b858583818110611cc957611cc8615136565b5b9050602002810190611cdb91906152d7565b6040016020810190611ced9190615324565b6014811115611cff57611cfe614e25565b5b03611e3f576006858583818110611d1957611d18615136565b5b9050602002810190611d2b91906152d7565b8060200190611d3a9190615351565b905014611d7c576040517f08c379a0000000000000000000000000000000000000000000000000000000008152600401611d73906154a3565b60405180910390fd5b60011515611dfc868684818110611d9657611d95615136565b5b9050602002810190611da891906152d7565b8060200190611db79190615351565b80806020026020016040519081016040528093929190818152602001838360200280828437600081840152601f19601f820116905080830192505050505050506106f1565b151514611e3e576040517f08c379a0000000000000000000000000000000000000000000000000000000008152600401611e359061550f565b60405180910390fd5b5b60086014811115611e5357611e52614e25565b5b858583818110611e6657611e65615136565b5b9050602002810190611e7891906152d7565b6040016020810190611e8a9190615324565b6014811115611e9c57611e9b614e25565b5b03611f1a576001858583818110611eb657611eb5615136565b5b9050602002810190611ec891906152d7565b8060200190611ed79190615351565b905014611f19576040517f08c379a0000000000000000000000000000000000000000000000000000000008152600401611f10906154a3565b60405180910390fd5b5b848482818110611f2d57611f2c615136565b5b9050602002810190611f3f91906152d7565b6000013582611f4e919061559b565b91508080600101915050610e9f565b506000612710600260149054906101000a900460ff1660ff1683611f8191906155cf565b611f8b9190615611565b90508060096000828254611f9f919061559b565b92505081905550602482611fb391906155cf565b600954600260009054906101000a900473ffffffffffffffffffffffffffffffffffffffff1673ffffffffffffffffffffffffffffffffffffffff166370a08231306040518263ffffffff1660e01b81526004016120119190614ed4565b602060405180830381865afa15801561202e573d6000803e3d6000fd5b505050506040513d601f19601f820116820180604052508101906120529190615657565b61205c9190615684565b101561209d576040517f08c379a00000000000000000000000000000000000000000000000000000000081526004016120949061572a565b60405180910390fd5b600260009054906101000a900473ffffffffffffffffffffffffffffffffffffffff1673ffffffffffffffffffffffffffffffffffffffff166323b872dd3330856040518463ffffffff1660e01b81526004016120fc9392919061574a565b6020604051808303816000875af115801561211b573d6000803e3d6000fd5b505050506040513d601f19601f8201168201806040525081019061213f91906157ad565b50600061215c60405180602001604052806001151581525061393c565b9050600080612172620186a060036001866139d4565b809250819350505060005b8888905081101561220457600660008481526020019081526020016000208989838181106121ae576121ad615136565b5b90506020028101906121c091906152d7565b908060018154018082558091505060019003906000526020600020906003020160009091909190915081816121f59190615cbf565b5050808060010191505061217d565b50336007600084815260200190815260200160002060006101000a81548173ffffffffffffffffffffffffffffffffffffffff021916908373ffffffffffffffffffffffffffffffffffffffff1602179055507fa1e65b062e40809f80439a4691be6294420cac1c300e5430fa259aad2a0d53fc8282604051612288929190615ccd565b60405180910390a17f77444cd969f2b804ea091b5f3c08bb5a20d3c97ed9c8660cfa9b1ea050ff6e1a846040516122bf9190614dca565b60405180910390a1819550505050505092915050565b6122dd612f76565b7f457e4fe0c9f161a0c6f3bfb8d7809a4ac19f6291bd81b03b86b0d00f9af3717b3383836040516123109392919061574a565b60405180910390a1600073ffffffffffffffffffffffffffffffffffffffff168273ffffffffffffffffffffffffffffffffffffffff160361239f57612354610e37565b73ffffffffffffffffffffffffffffffffffffffff166108fc829081150290604051600060405180830381858888f19350505050158015612399573d6000803e3d6000fd5b50612426565b8173ffffffffffffffffffffffffffffffffffffffff1663a9059cbb6123c3610e37565b836040518363ffffffff1660e01b81526004016123e1929190615cf6565b6020604051808303816000875af1158015612400573d6000803e3d6000fd5b505050506040513d601f19601f8201168201806040525081019061242491906157ad565b505b5050565b600080600090505b6003805490508160ff161015612aab5760038160ff168154811061245957612458615136565b5b9060005260206000200160006003811061247657612475615136565b5b602091828204019190069054906101000a900460ff1660ff168560ff161480156124ee575060038160ff16815481106124b2576124b1615136565b5b906000526020600020016001600381106124cf576124ce615136565b5b602091828204019190069054906101000a900460ff1660ff168460ff16145b8015612548575060038160ff168154811061250c5761250b615136565b5b9060005260206000200160026003811061252957612528615136565b5b602091828204019190069054906101000a900460ff1660ff168360ff16145b80612655575060038160ff168154811061256557612564615136565b5b9060005260206000200160006003811061258257612581615136565b5b602091828204019190069054906101000a900460ff1660ff168560ff161480156125fa575060038160ff16815481106125be576125bd615136565b5b906000526020600020016001600381106125db576125da615136565b5b602091828204019190069054906101000a900460ff1660ff168360ff16145b8015612654575060038160ff168154811061261857612617615136565b5b9060005260206000200160026003811061263557612634615136565b5b602091828204019190069054906101000a900460ff1660ff168460ff16145b5b80612762575060038160ff168154811061267257612671615136565b5b9060005260206000200160006003811061268f5761268e615136565b5b602091828204019190069054906101000a900460ff1660ff168460ff16148015612707575060038160ff16815481106126cb576126ca615136565b5b906000526020600020016001600381106126e8576126e7615136565b5b602091828204019190069054906101000a900460ff1660ff168560ff16145b8015612761575060038160ff168154811061272557612724615136565b5b9060005260206000200160026003811061274257612741615136565b5b602091828204019190069054906101000a900460ff1660ff168360ff16145b5b8061286f575060038160ff168154811061277f5761277e615136565b5b9060005260206000200160006003811061279c5761279b615136565b5b602091828204019190069054906101000a900460ff1660ff168460ff16148015612814575060038160ff16815481106127d8576127d7615136565b5b906000526020600020016001600381106127f5576127f4615136565b5b602091828204019190069054906101000a900460ff1660ff168360ff16145b801561286e575060038160ff168154811061283257612831615136565b5b9060005260206000200160026003811061284f5761284e615136565b5b602091828204019190069054906101000a900460ff1660ff168560ff16145b5b8061297c575060038160ff168154811061288c5761288b615136565b5b906000526020600020016000600381106128a9576128a8615136565b5b602091828204019190069054906101000a900460ff1660ff168360ff16148015612921575060038160ff16815481106128e5576128e4615136565b5b9060005260206000200160016003811061290257612901615136565b5b602091828204019190069054906101000a900460ff1660ff168560ff16145b801561297b575060038160ff168154811061293f5761293e615136565b5b9060005260206000200160026003811061295c5761295b615136565b5b602091828204019190069054906101000a900460ff1660ff168460ff16145b5b80612a89575060038160ff168154811061299957612998615136565b5b906000526020600020016000600381106129b6576129b5615136565b5b602091828204019190069054906101000a900460ff1660ff168360ff16148015612a2e575060038160ff16815481106129f2576129f1615136565b5b90600052602060002001600160038110612a0f57612a0e615136565b5b602091828204019190069054906101000a900460ff1660ff168460ff16145b8015612a88575060038160ff1681548110612a4c57612a4b615136565b5b90600052602060002001600260038110612a6957612a68615136565b5b602091828204019190069054906101000a900460ff1660ff168560ff16145b5b15612a98576001915050612ab1565b8080612aa390615d1f565b915050612432565b50600090505b9392505050565b612ac0612f76565b6000600954905060006009819055507f78473f3f373f7673597f4f0fa5873cb4d375fea6d4339ad6b56dbd411513cb3f3382604051612b00929190615cf6565b60405180910390a1600260009054906101000a900473ffffffffffffffffffffffffffffffffffffffff1673ffffffffffffffffffffffffffffffffffffffff1663a9059cbb612b4e610e37565b836040518363ffffffff1660e01b8152600401612b6c929190615cf6565b6020604051808303816000875af1158015612b8b573d6000803e3d6000fd5b505050506040513d601f19601f82011682018060405250810190612baf91906157ad565b5050565b612bbb612f76565b600073ffffffffffffffffffffffffffffffffffffffff168173ffffffffffffffffffffffffffffffffffffffff1603612c2d5760006040517f1e4fbdf7000000000000000000000000000000000000000000000000000000008152600401612c249190614ed4565b60405180910390fd5b612c36816136d6565b50565b60076020528060005260406000206000915054906101000a900473ffffffffffffffffffffffffffffffffffffffff1681565b600260009054906101000a900473ffffffffffffffffffffffffffffffffffffffff1681565b6008600083815260200190815260200160002060009054906101000a900460ff1615612cf3576040517f08c379a0000000000000000000000000000000000000000000000000000000008152600401612cea90615d94565b60405180910390fd5b6000602682600081518110612d0b57612d0a615136565b5b6020026020010151612d1d9190615db4565b905060016008600085815260200190815260200160002060006101000a81548160ff0219169083151502179055506000805b6006600086815260200190815260200160002080549050811015612e9157612e77600660008781526020019081526020016000208281548110612d9557612d94615136565b5b90600052602060002090600302016040518060600160405290816000820154815260200160018201805480602002602001604051908101604052809291908181526020018280548015612e2d57602002820191906000526020600020906000905b82829054906101000a900460ff1660ff1681526020019060010190602082600001049283019260010382029150808411612df65790505b505050505081526020016002820160009054906101000a900460ff166014811115612e5b57612e5a614e25565b5b6014811115612e6d57612e6c614e25565b5b8152505084613b27565b82612e82919061559b565b91508080600101915050612d4f565b506000811115612f7057600260009054906101000a900473ffffffffffffffffffffffffffffffffffffffff1673ffffffffffffffffffffffffffffffffffffffff1663a9059cbb6007600087815260200190815260200160002060009054906101000a900473ffffffffffffffffffffffffffffffffffffffff16836040518363ffffffff1660e01b8152600401612f2b929190615cf6565b6020604051808303816000875af1158015612f4a573d6000803e3d6000fd5b505050506040513d601f19601f82011682018060405250810190612f6e91906157ad565b505b50505050565b612f7e614584565b73ffffffffffffffffffffffffffffffffffffffff16612f9c610e37565b73ffffffffffffffffffffffffffffffffffffffff1614612ffb57612fbf614584565b6040517f118cdaa7000000000000000000000000000000000000000000000000000000008152600401612ff29190614ed4565b60405180910390fd5b565b613005614686565b60006040518060c001604052808960ff1660ff1681526020018860ff1660ff1681526020018760ff1660ff1681526020018660ff1660ff1681526020018560ff1660ff1681526020018460ff1660ff16815250905060005b60068160ff16101561316f57600060018261307891906151f4565b90505b60068160ff16101561316157828160ff166006811061309d5761309c615136565b5b602002015160ff16838360ff16600681106130bb576130ba615136565b5b602002015160ff161115613154576000838360ff16600681106130e1576130e0615136565b5b60200201519050838260ff16600681106130fe576130fd615136565b5b6020020151848460ff166006811061311957613118615136565b5b602002019060ff16908160ff168152505080848360ff166006811061314157613140615136565b5b602002019060ff16908160ff1681525050505b808060010191505061307b565b50808060010191505061305d565b50809150509695505050505050565b60007ff0c57e16840df040f15088dc2f81fe391c3923bec73e23a9662efc9c229c6a00905090565b81600260006101000a81548173ffffffffffffffffffffffffffffffffffffffff021916908373ffffffffffffffffffffffffffffffffffffffff160217905550600081905060006009819055506000600260146101000a81548160ff021916908360ff1602179055508073ffffffffffffffffffffffffffffffffffffffff16631c4695f46040518163ffffffff1660e01b8152600401602060405180830381865afa15801561325b573d6000803e3d6000fd5b505050506040513d601f19601f8201168201806040525081019061327f9190615dfa565b6000806101000a81548173ffffffffffffffffffffffffffffffffffffffff021916908373ffffffffffffffffffffffffffffffffffffffff16021790555080600160006101000a81548173ffffffffffffffffffffffffffffffffffffffff021916908373ffffffffffffffffffffffffffffffffffffffff1602179055506133083361458c565b6040518061018001604052806040518060600160405280600160ff168152602001600260ff168152602001600360ff1681525081526020016040518060600160405280600460ff168152602001600560ff168152602001600660ff1681525081526020016040518060600160405280600760ff168152602001600860ff168152602001600960ff1681525081526020016040518060600160405280600a60ff168152602001600b60ff168152602001600c60ff1681525081526020016040518060600160405280600d60ff168152602001600e60ff168152602001600f60ff1681525081526020016040518060600160405280601060ff168152602001601160ff168152602001601260ff1681525081526020016040518060600160405280601360ff168152602001601460ff168152602001601560ff1681525081526020016040518060600160405280601660ff168152602001601760ff168152602001601860ff1681525081526020016040518060600160405280601960ff168152602001601a60ff168152602001601b60ff1681525081526020016040518060600160405280601c60ff168152602001601d60ff168152602001601e60ff1681525081526020016040518060600160405280601f60ff168152602001602060ff168152602001602160ff1681525081526020016040518060600160405280602260ff168152602001602360ff168152602001602460ff16815250815250600390600c6135329291906146a8565b50604051806102400160405280600160ff168152602001600360ff168152602001600560ff168152602001600760ff168152602001600960ff168152602001600c60ff168152602001600e60ff168152602001601060ff168152602001601260ff168152602001601360ff168152602001601560ff168152602001601760ff168152602001601960ff168152602001601b60ff168152602001601e60ff168152602001602060ff168152602001602260ff168152602001602460ff168152506004906012613601929190614703565b50604051806102400160405280600260ff168152602001600460ff168152602001600660ff168152602001600860ff168152602001600a60ff168152602001600b60ff168152602001600d60ff168152602001600f60ff168152602001601160ff168152602001601460ff168152602001601660ff168152602001601860ff168152602001601a60ff168152602001601c60ff168152602001601d60ff168152602001601f60ff168152602001602160ff168152602001602360ff1681525060059060126136d0929190614703565b50505050565b60006136e0613914565b905060008160000160009054906101000a900473ffffffffffffffffffffffffffffffffffffffff169050828260000160006101000a81548173ffffffffffffffffffffffffffffffffffffffff021916908373ffffffffffffffffffffffffffffffffffffffff1602179055508273ffffffffffffffffffffffffffffffffffffffff168173ffffffffffffffffffffffffffffffffffffffff167f8be0079c531659141344cd1fd0a4f28419497f9722a3daafe3b4186f6b6457e060405160405180910390a3505050565b6137b561479d565b600060405180608001604052808760ff1660ff1681526020018660ff1660ff1681526020018560ff1660ff1681526020018460ff1660ff16815250905060005b60048160ff16101561390757600060018261381091906151f4565b90505b60048160ff1610156138f957828160ff166004811061383557613834615136565b5b602002015160ff16838360ff166004811061385357613852615136565b5b602002015160ff1611156138ec576000838360ff166004811061387957613878615136565b5b60200201519050838260ff166004811061389657613895615136565b5b6020020151848460ff16600481106138b1576138b0615136565b5b602002019060ff16908160ff168152505080848360ff16600481106138d9576138d8615136565b5b602002019060ff16908160ff1681525050505b8080600101915050613813565b5080806001019150506137f5565b5080915050949350505050565b60007f9016d09d72d40fdae2fd8ceac6b6234c7706214fd39c1cd1e609a0528c199300905090565b60607f92fd13387c7fe7befbc38d303d6468778fb9731bc4583f17d92989c6fcfdeaaa826040516024016139709190615e52565b604051602081830303815290604052907bffffffffffffffffffffffffffffffffffffffffffffffffffffffff19166020820180517bffffffffffffffffffffffffffffffffffffffffffffffffffffffff83818316178352505050509050919050565b600080600160009054906101000a900473ffffffffffffffffffffffffffffffffffffffff1673ffffffffffffffffffffffffffffffffffffffff166313c34b7f87866040518363ffffffff1660e01b8152600401613a34929190615e8c565b602060405180830381865afa158015613a51573d6000803e3d6000fd5b505050506040513d601f19601f82011682018060405250810190613a759190615657565b9050600160009054906101000a900473ffffffffffffffffffffffffffffffffffffffff1673ffffffffffffffffffffffffffffffffffffffff16639cfc058e82888888886040518663ffffffff1660e01b8152600401613ad99493929190615f51565b60206040518083038185885af1158015613af7573d6000803e3d6000fd5b50505050506040513d601f19601f82011682018060405250810190613b1c9190615657565b915094509492505050565b6000806014811115613b3c57613b3b614e25565b5b83604001516014811115613b5357613b52614e25565b5b03613b785760008260ff1603613b775760248360000151613b7491906155cf565b90505b5b60016014811115613b8c57613b8b614e25565b5b83604001516014811115613ba357613ba2614e25565b5b03613bc85760258260ff1603613bc75760248360000151613bc491906155cf565b90505b5b60026014811115613bdc57613bdb614e25565b5b83604001516014811115613bf357613bf2614e25565b5b03613c5a5760005b836020015151811015613c58578260ff1684602001518281518110613c2357613c22615136565b5b602002602001015160ff1603613c4b57600c8460000151613c4491906155cf565b9150613c58565b8080600101915050613bfb565b505b60056014811115613c6e57613c6d614e25565b5b83604001516014811115613c8557613c84614e25565b5b03613cec5760005b836020015151811015613cea578260ff1684602001518281518110613cb557613cb4615136565b5b602002602001015160ff1603613cdd5760128460000151613cd691906155cf565b9150613cea565b8080600101915050613c8d565b505b60066014811115613d0057613cff614e25565b5b83604001516014811115613d1757613d16614e25565b5b03613d7e5760005b836020015151811015613d7c578260ff1684602001518281518110613d4757613d46615136565b5b602002602001015160ff1603613d6f5760098460000151613d6891906155cf565b9150613d7c565b8080600101915050613d1f565b505b60076014811115613d9257613d91614e25565b5b83604001516014811115613da957613da8614e25565b5b03613e105760005b836020015151811015613e0e578260ff1684602001518281518110613dd957613dd8615136565b5b602002602001015160ff1603613e015760068460000151613dfa91906155cf565b9150613e0e565b8080600101915050613db1565b505b60086014811115613e2457613e23614e25565b5b83604001516014811115613e3b57613e3a614e25565b5b03613e81578160ff168360200151600081518110613e5c57613e5b615136565b5b602002602001015160ff1603613e805760248360000151613e7d91906155cf565b90505b5b60096014811115613e9557613e94614e25565b5b83604001516014811115613eac57613eab614e25565b5b03613f8f576000604051806101800160405280600160ff168152602001600460ff168152602001600760ff168152602001600a60ff168152602001600d60ff168152602001601060ff168152602001601360ff168152602001601660ff168152602001601960ff168152602001601c60ff168152602001601f60ff168152602001602260ff16815250905060005b600c811015613f8c578360ff168282600c8110613f5a57613f59615136565b5b602002015160ff1603613f7f5760038560000151613f7891906155cf565b9250613f8c565b8080600101915050613f3a565b50505b600a6014811115613fa357613fa2614e25565b5b83604001516014811115613fba57613fb9614e25565b5b0361409d576000604051806101800160405280600260ff168152602001600560ff168152602001600860ff168152602001600b60ff168152602001600e60ff168152602001601160ff168152602001601460ff168152602001601760ff168152602001601a60ff168152602001601d60ff168152602001602060ff168152602001602360ff16815250905060005b600c81101561409a578360ff168282600c811061406857614067615136565b5b602002015160ff160361408d576003856000015161408691906155cf565b925061409a565b8080600101915050614048565b50505b600b60148111156140b1576140b0614e25565b5b836040015160148111156140c8576140c7614e25565b5b036141ab576000604051806101800160405280600360ff168152602001600660ff168152602001600960ff168152602001600c60ff168152602001600f60ff168152602001601260ff168152602001601560ff168152602001601860ff168152602001601b60ff168152602001601e60ff168152602001602160ff168152602001602460ff16815250905060005b600c8110156141a8578360ff168282600c811061417657614175615136565b5b602002015160ff160361419b576003856000015161419491906155cf565b92506141a8565b8080600101915050614156565b50505b600c60148111156141bf576141be614e25565b5b836040015160148111156141d6576141d5614e25565b5b0361420d5760018260ff16101580156141f35750600c8260ff1611155b1561420c576003836000015161420991906155cf565b90505b5b600d601481111561422157614220614e25565b5b8360400151601481111561423857614237614e25565b5b0361426f57600d8260ff1610158015614255575060188260ff1611155b1561426e576003836000015161426b91906155cf565b90505b5b600e601481111561428357614282614e25565b5b8360400151601481111561429a57614299614e25565b5b036142d15760198260ff16101580156142b7575060248260ff1611155b156142d057600383600001516142cd91906155cf565b90505b5b600f60148111156142e5576142e4614e25565b5b836040015160148111156142fc576142fb614e25565b5b036143335760018260ff1610158015614319575060128260ff1611155b15614332576002836000015161432f91906155cf565b90505b5b6010601481111561434757614346614e25565b5b8360400151601481111561435e5761435d614e25565b5b036143955760138260ff161015801561437b575060248260ff1611155b15614394576002836000015161439191906155cf565b90505b5b601160148111156143a9576143a8614e25565b5b836040015160148111156143c0576143bf614e25565b5b036143f15760006002836143d49190615194565b60ff16036143f057600283600001516143ed91906155cf565b90505b5b6012601481111561440557614404614e25565b5b8360400151601481111561441c5761441b614e25565b5b0361444d5760016002836144309190615194565b60ff160361444c576002836000015161444991906155cf565b90505b5b6013601481111561446157614460614e25565b5b8360400151601481111561447857614477614e25565b5b036144e65760005b60128110156144e4578260ff16600482601281106144a1576144a0615136565b5b602091828204019190069054906101000a900460ff1660ff16036144d757600284600001516144d091906155cf565b91506144e4565b8080600101915050614480565b505b6014808111156144f9576144f8614e25565b5b836040015160148111156145105761450f614e25565b5b0361457e5760005b601281101561457c578260ff166005826012811061453957614538615136565b5b602091828204019190069054906101000a900460ff1660ff160361456f576002846000015161456891906155cf565b915061457c565b8080600101915050614518565b505b92915050565b600033905090565b6145946145a0565b61459d816145e0565b50565b6145a8614666565b6145de576040517fd7e6bcf800000000000000000000000000000000000000000000000000000000815260040160405180910390fd5b565b6145e86145a0565b600073ffffffffffffffffffffffffffffffffffffffff168173ffffffffffffffffffffffffffffffffffffffff160361465a5760006040517f1e4fbdf70000000000000000000000000000000000000000000000000000000081526004016146519190614ed4565b60405180910390fd5b614663816136d6565b50565b600061467061317e565b60000160089054906101000a900460ff16905090565b6040518060c00160405280600690602082028036833780820191505090505090565b8280548282559060005260206000209081019282156146f2579160200282015b828111156146f1578251829060036146e19291906147bf565b50916020019190600101906146c8565b5b5090506146ff9190614859565b5090565b826012601f0160209004810192821561478c5791602002820160005b8382111561475d57835183826101000a81548160ff021916908360ff160217905550926020019260010160208160000104928301926001030261471f565b801561478a5782816101000a81549060ff021916905560010160208160000104928301926001030261475d565b505b509050614799919061487d565b5090565b6040518060800160405280600490602082028036833780820191505090505090565b826003601f016020900481019282156148485791602002820160005b8382111561481957835183826101000a81548160ff021916908360ff16021790555092602001926001016020816000010492830192600103026147db565b80156148465782816101000a81549060ff0219169055600101602081600001049283019260010302614819565b505b509050614855919061487d565b5090565b5b808211156148795760008181614870919061489a565b5060010161485a565b5090565b5b8082111561489657600081600090555060010161487e565b5090565b5060009055565b6000604051905090565b600080fd5b600080fd5b6000819050919050565b6148c8816148b5565b81146148d357600080fd5b50565b6000813590506148e5816148bf565b92915050565b600060208284031215614901576149006148ab565b5b600061490f848285016148d6565b91505092915050565b60008115159050919050565b61492d81614918565b82525050565b60006020820190506149486000830184614924565b92915050565b600080fd5b6000601f19601f8301169050919050565b7f4e487b7100000000000000000000000000000000000000000000000000000000600052604160045260246000fd5b61499c82614953565b810181811067ffffffffffffffff821117156149bb576149ba614964565b5b80604052505050565b60006149ce6148a1565b90506149da8282614993565b919050565b600067ffffffffffffffff8211156149fa576149f9614964565b5b602082029050602081019050919050565b600080fd5b6000614a23614a1e846149df565b6149c4565b90508083825260208201905060208402830185811115614a4657614a45614a0b565b5b835b81811015614a6f5780614a5b88826148d6565b845260208401935050602081019050614a48565b5050509392505050565b600082601f830112614a8e57614a8d61494e565b5b8135614a9e848260208601614a10565b91505092915050565b60008060408385031215614abe57614abd6148ab565b5b6000614acc858286016148d6565b925050602083013567ffffffffffffffff811115614aed57614aec6148b0565b5b614af985828601614a79565b9150509250929050565b600060ff82169050919050565b614b1981614b03565b82525050565b6000602082019050614b346000830184614b10565b92915050565b614b4381614b03565b8114614b4e57600080fd5b50565b600081359050614b6081614b3a565b92915050565b600060208284031215614b7c57614b7b6148ab565b5b6000614b8a84828501614b51565b91505092915050565b600067ffffffffffffffff821115614bae57614bad614964565b5b602082029050602081019050919050565b6000614bd2614bcd84614b93565b6149c4565b90508083825260208201905060208402830185811115614bf557614bf4614a0b565b5b835b81811015614c1e5780614c0a8882614b51565b845260208401935050602081019050614bf7565b5050509392505050565b600082601f830112614c3d57614c3c61494e565b5b8135614c4d848260208601614bbf565b91505092915050565b600060208284031215614c6c57614c6b6148ab565b5b600082013567ffffffffffffffff811115614c8a57614c896148b0565b5b614c9684828501614c28565b91505092915050565b60008060408385031215614cb657614cb56148ab565b5b6000614cc485828601614b51565b9250506020614cd585828601614b51565b9150509250929050565b600073ffffffffffffffffffffffffffffffffffffffff82169050919050565b6000614d0a82614cdf565b9050919050565b6000614d1c82614cff565b9050919050565b614d2c81614d11565b8114614d3757600080fd5b50565b600081359050614d4981614d23565b92915050565b614d5881614cff565b8114614d6357600080fd5b50565b600081359050614d7581614d4f565b92915050565b60008060408385031215614d9257614d916148ab565b5b6000614da085828601614d3a565b9250506020614db185828601614d66565b9150509250929050565b614dc4816148b5565b82525050565b6000602082019050614ddf6000830184614dbb565b92915050565b60008060408385031215614dfc57614dfb6148ab565b5b6000614e0a858286016148d6565b9250506020614e1b858286016148d6565b9150509250929050565b7f4e487b7100000000000000000000000000000000000000000000000000000000600052602160045260246000fd5b60158110614e6557614e64614e25565b5b50565b6000819050614e7682614e54565b919050565b6000614e8682614e68565b9050919050565b614e9681614e7b565b82525050565b6000604082019050614eb16000830185614dbb565b614ebe6020830184614e8d565b9392505050565b614ece81614cff565b82525050565b6000602082019050614ee96000830184614ec5565b92915050565b6000819050919050565b6000614f14614f0f614f0a84614cdf565b614eef565b614cdf565b9050919050565b6000614f2682614ef9565b9050919050565b6000614f3882614f1b565b9050919050565b614f4881614f2d565b82525050565b6000602082019050614f636000830184614f3f565b92915050565b600080fd5b60008083601f840112614f8457614f8361494e565b5b8235905067ffffffffffffffff811115614fa157614fa0614f69565b5b602083019150836020820283011115614fbd57614fbc614a0b565b5b9250929050565b60008060208385031215614fdb57614fda6148ab565b5b600083013567ffffffffffffffff811115614ff957614ff86148b0565b5b61500585828601614f6e565b92509250509250929050565b60008060408385031215615028576150276148ab565b5b600061503685828601614d66565b9250506020615047858286016148d6565b9150509250929050565b60008060006060848603121561506a576150696148ab565b5b600061507886828701614b51565b935050602061508986828701614b51565b925050604061509a86828701614b51565b9150509250925092565b6000602082840312156150ba576150b96148ab565b5b60006150c884828501614d66565b91505092915050565b60006150dc82614f1b565b9050919050565b6150ec816150d1565b82525050565b600060208201905061510760008301846150e3565b92915050565b60006040820190506151226000830185614ec5565b61512f6020830184614ec5565b9392505050565b7f4e487b7100000000000000000000000000000000000000000000000000000000600052603260045260246000fd5b7f4e487b7100000000000000000000000000000000000000000000000000000000600052601260045260246000fd5b600061519f82614b03565b91506151aa83614b03565b9250826151ba576151b9615165565b5b828206905092915050565b7f4e487b7100000000000000000000000000000000000000000000000000000000600052601160045260246000fd5b60006151ff82614b03565b915061520a83614b03565b9250828201905060ff811115615223576152226151c5565b5b92915050565b600061523482614b03565b915061523f83614b03565b9250828203905060ff811115615258576152576151c5565b5b92915050565b6000819050919050565b600067ffffffffffffffff82169050919050565b600061529761529261528d8461525e565b614eef565b615268565b9050919050565b6152a78161527c565b82525050565b60006020820190506152c2600083018461529e565b92915050565b600080fd5b600080fd5b600080fd5b6000823560016060038336030381126152f3576152f26152c8565b5b80830191505092915050565b6015811061530c57600080fd5b50565b60008135905061531e816152ff565b92915050565b60006020828403121561533a576153396148ab565b5b60006153488482850161530f565b91505092915050565b6000808335600160200384360303811261536e5761536d6152c8565b5b80840192508235915067ffffffffffffffff8211156153905761538f6152cd565b5b6020830192506020820236038313156153ac576153ab6152d2565b5b509250929050565b600082825260208201905092915050565b7f4e756d62657273206e6f7420726571756972656420666f72207468697320747960008201527f7065000000000000000000000000000000000000000000000000000000000000602082015250565b60006154216022836153b4565b915061542c826153c5565b604082019050919050565b6000602082019050818103600083015261545081615414565b9050919050565b7f496e76616c6964206e756d62657273206c656e67746800000000000000000000600082015250565b600061548d6016836153b4565b915061549882615457565b602082019050919050565b600060208201905081810360008301526154bc81615480565b9050919050565b7f496e76616c696420636f6d62696e6174696f6e00000000000000000000000000600082015250565b60006154f96013836153b4565b9150615504826154c3565b602082019050919050565b60006020820190508181036000830152615528816154ec565b9050919050565b7f4e6f7420696d706c656d656e7465640000000000000000000000000000000000600082015250565b6000615565600f836153b4565b91506155708261552f565b602082019050919050565b6000602082019050818103600083015261559481615558565b9050919050565b60006155a6826148b5565b91506155b1836148b5565b92508282019050808211156155c9576155c86151c5565b5b92915050565b60006155da826148b5565b91506155e5836148b5565b92508282026155f3816148b5565b9150828204841483151761560a576156096151c5565b5b5092915050565b600061561c826148b5565b9150615627836148b5565b92508261563757615636615165565b5b828204905092915050565b600081519050615651816148bf565b92915050565b60006020828403121561566d5761566c6148ab565b5b600061567b84828501615642565b91505092915050565b600061568f826148b5565b915061569a836148b5565b92508282039050818111156156b2576156b16151c5565b5b92915050565b7f546f6f20686967682073756d206f66206269647320746f20776974686472617760008201527f2072657761726473000000000000000000000000000000000000000000000000602082015250565b60006157146028836153b4565b915061571f826156b8565b604082019050919050565b6000602082019050818103600083015261574381615707565b9050919050565b600060608201905061575f6000830186614ec5565b61576c6020830185614ec5565b6157796040830184614dbb565b949350505050565b61578a81614918565b811461579557600080fd5b50565b6000815190506157a781615781565b92915050565b6000602082840312156157c3576157c26148ab565b5b60006157d184828501615798565b91505092915050565b600081356157e7816148bf565b80915050919050565b60008160001b9050919050565b60007fffffffffffffffffffffffffffffffffffffffffffffffffffffffffffffffff615829846157f0565b9350801983169250808416831791505092915050565b600061585a615855615850846148b5565b614eef565b6148b5565b9050919050565b6000819050919050565b6158748261583f565b61588761588082615861565b83546157fd565b8255505050565b600081549050919050565b6000819050602060016020038301049050919050565b60008190508160005260206000209050919050565b600082821b905092915050565b6000600883026159017fffffffffffffffffffffffffffffffffffffffffffffffffffffffffffffffff826158c4565b61590b86836158c4565b95508019841693508086168417925050509392505050565b61592c8361583f565b61594061593882615861565b8484546158d1565b825550505050565b600090565b615955615948565b615960818484615923565b505050565b5b818110156159845761597960008261594d565b600181019050615966565b5050565b600082821c905092915050565b6159c57fffffffffffffffffffffffffffffffffffffffffffffffffffffffffffffffff83602003600802615988565b815481168255505050565b81831015615a28576159e182615899565b6159ea84615899565b6159f3836158af565b818101838201600160208906026000811115615a1757615a168160018503615995565b5b615a218284615965565b5050505050505b505050565b68010000000000000000821115615a4757615a46614964565b5b615a508161588e565b828255615a5e8382846159d0565b505050565b600082905092915050565b60008135615a7b81614b3a565b80915050919050565b6000819050919050565b600060088302615a9f60ff826158c4565b615aa986836158c4565b95508019841693508086168417925050509392505050565b6000819050919050565b615ad58383615a63565b67ffffffffffffffff811115615aee57615aed614964565b5b615af88183615a2d565b615b0183615a84565b615b0a836158af565b6020830460005b81811015615b6d576000805b6020811015615b5b57615b2f86615a6e565b615b3881615ac1565b615b46818460010286615a8e565b93506020880197505050600181019050615b1d565b50808285015550600181019050615b11565b506020810284036000811115615bc6576000805b82811015615bbe57615b9286615a6e565b615b9b81615ac1565b615ba9818460010286615a8e565b93506020880197505050600181019050615b81565b508083850155505b5050505050505050565b615bdb838383615acb565b505050565b60008135615bed816152ff565b80915050919050565b600060ff615c03846157f0565b9350801983169250808416831791505092915050565b6000615c2482614e68565b9050919050565b6000819050919050565b615c3e82615c19565b615c51615c4a82615c2b565b8354615bf6565b8255505050565b600081016000830180615c6a816157da565b9050615c76818461586b565b5050506001810160208301615c8b8185615351565b615c96818386615bd0565b50505050600281016040830180615cac81615be0565b9050615cb88184615c35565b5050505050565b615cc98282615c58565b5050565b6000604082019050615ce26000830185614dbb565b615cef6020830184614dbb565b9392505050565b6000604082019050615d0b6000830185614ec5565b615d186020830184614dbb565b9392505050565b6000615d2a82614b03565b915060ff8203615d3d57615d3c6151c5565b5b600182019050919050565b7f416c72656164792066696c6c6564000000000000000000000000000000000000600082015250565b6000615d7e600e836153b4565b9150615d8982615d48565b602082019050919050565b60006020820190508181036000830152615dad81615d71565b9050919050565b6000615dbf826148b5565b9150615dca836148b5565b925082615dda57615dd9615165565b5b828206905092915050565b600081519050615df481614d4f565b92915050565b600060208284031215615e1057615e0f6148ab565b5b6000615e1e84828501615de5565b91505092915050565b615e3081614918565b82525050565b602082016000820151615e4c6000850182615e27565b50505050565b6000602082019050615e676000830184615e36565b92915050565b600063ffffffff82169050919050565b615e8681615e6d565b82525050565b6000604082019050615ea16000830185615e7d565b615eae6020830184615e7d565b9392505050565b600061ffff82169050919050565b615ecc81615eb5565b82525050565b600081519050919050565b600082825260208201905092915050565b60005b83811015615f0c578082015181840152602081019050615ef1565b60008484015250505050565b6000615f2382615ed2565b615f2d8185615edd565b9350615f3d818560208601615eee565b615f4681614953565b840191505092915050565b6000608082019050615f666000830187615e7d565b615f736020830186615ec3565b615f806040830185615e7d565b8181036060830152615f928184615f18565b90509594505050505056fea2646970667358221220bd844273eb1f2cd244de035c8c79640c22b8c33b86a750528f5458c37ac41fcd64736f6c634300081b0033",
          "opcodes": "PUSH1 0x80 PUSH1 0x40 MSTORE CALLVALUE DUP1 ISZERO PUSH2 0x10 JUMPI PUSH1 0x0 DUP1 REVERT JUMPDEST POP PUSH2 0x1F PUSH2 0x24 PUSH1 0x20 SHL PUSH1 0x20 SHR JUMP JUMPDEST PUSH2 0x18E JUMP JUMPDEST PUSH1 0x0 PUSH2 0x34 PUSH2 0x128 PUSH1 0x20 SHL PUSH1 0x20 SHR JUMP JUMPDEST SWAP1 POP DUP1 PUSH1 0x0 ADD PUSH1 0x8 SWAP1 SLOAD SWAP1 PUSH2 0x100 EXP SWAP1 DIV PUSH1 0xFF AND ISZERO PUSH2 0x7F JUMPI PUSH1 0x40 MLOAD PUSH32 0xF92EE8A900000000000000000000000000000000000000000000000000000000 DUP2 MSTORE PUSH1 0x4 ADD PUSH1 0x40 MLOAD DUP1 SWAP2 SUB SWAP1 REVERT JUMPDEST PUSH8 0xFFFFFFFFFFFFFFFF DUP1 AND DUP2 PUSH1 0x0 ADD PUSH1 0x0 SWAP1 SLOAD SWAP1 PUSH2 0x100 EXP SWAP1 DIV PUSH8 0xFFFFFFFFFFFFFFFF AND PUSH8 0xFFFFFFFFFFFFFFFF AND EQ PUSH2 0x125 JUMPI PUSH8 0xFFFFFFFFFFFFFFFF DUP2 PUSH1 0x0 ADD PUSH1 0x0 PUSH2 0x100 EXP DUP2 SLOAD DUP2 PUSH8 0xFFFFFFFFFFFFFFFF MUL NOT AND SWAP1 DUP4 PUSH8 0xFFFFFFFFFFFFFFFF AND MUL OR SWAP1 SSTORE POP PUSH32 0xC7F505B2F371AE2175EE4913F4499E1F2633A7B5936321EED1CDAEB6115181D2 PUSH8 0xFFFFFFFFFFFFFFFF PUSH1 0x40 MLOAD PUSH2 0x11C SWAP2 SWAP1 PUSH2 0x173 JUMP JUMPDEST PUSH1 0x40 MLOAD DUP1 SWAP2 SUB SWAP1 LOG1 JUMPDEST POP JUMP JUMPDEST PUSH1 0x0 PUSH32 0xF0C57E16840DF040F15088DC2F81FE391C3923BEC73E23A9662EFC9C229C6A00 SWAP1 POP SWAP1 JUMP JUMPDEST PUSH1 0x0 PUSH8 0xFFFFFFFFFFFFFFFF DUP3 AND SWAP1 POP SWAP2 SWAP1 POP JUMP JUMPDEST PUSH2 0x16D DUP2 PUSH2 0x150 JUMP JUMPDEST DUP3 MSTORE POP POP JUMP JUMPDEST PUSH1 0x0 PUSH1 0x20 DUP3 ADD SWAP1 POP PUSH2 0x188 PUSH1 0x0 DUP4 ADD DUP5 PUSH2 0x164 JUMP JUMPDEST SWAP3 SWAP2 POP POP JUMP JUMPDEST PUSH2 0x5FD3 DUP1 PUSH2 0x19D PUSH1 0x0 CODECOPY PUSH1 0x0 RETURN INVALID PUSH1 0x80 PUSH1 0x40 MSTORE PUSH1 0x4 CALLDATASIZE LT PUSH2 0x144 JUMPI PUSH1 0x0 CALLDATALOAD PUSH1 0xE0 SHR DUP1 PUSH4 0x7D5E45D5 GT PUSH2 0xB6 JUMPI DUP1 PUSH4 0xC1075329 GT PUSH2 0x6F JUMPI DUP1 PUSH4 0xC1075329 EQ PUSH2 0x4AB JUMPI DUP1 PUSH4 0xE4F8CEEA EQ PUSH2 0x4D4 JUMPI DUP1 PUSH4 0xE941FA78 EQ PUSH2 0x511 JUMPI DUP1 PUSH4 0xF2FDE38B EQ PUSH2 0x528 JUMPI DUP1 PUSH4 0xFBA4D7BF EQ PUSH2 0x551 JUMPI DUP1 PUSH4 0xFC0C546A EQ PUSH2 0x58E JUMPI PUSH2 0x145 JUMP JUMPDEST DUP1 PUSH4 0x7D5E45D5 EQ PUSH2 0x361 JUMPI DUP1 PUSH4 0x83CD7980 EQ PUSH2 0x39E JUMPI DUP1 PUSH4 0x88F2C720 EQ PUSH2 0x3DB JUMPI DUP1 PUSH4 0x8DA5CB5B EQ PUSH2 0x418 JUMPI DUP1 PUSH4 0x9ED0868D EQ PUSH2 0x443 JUMPI DUP1 PUSH4 0xA285AD79 EQ PUSH2 0x46E JUMPI PUSH2 0x145 JUMP JUMPDEST DUP1 PUSH4 0x47AA1A10 GT PUSH2 0x108 JUMPI DUP1 PUSH4 0x47AA1A10 EQ PUSH2 0x23E JUMPI DUP1 PUSH4 0x485CC955 EQ PUSH2 0x27B JUMPI DUP1 PUSH4 0x69E15404 EQ PUSH2 0x2A4 JUMPI DUP1 PUSH4 0x6A09F6BE EQ PUSH2 0x2CF JUMPI DUP1 PUSH4 0x715018A6 EQ PUSH2 0x30D JUMPI DUP1 PUSH4 0x768D2689 EQ PUSH2 0x324 JUMPI PUSH2 0x145 JUMP JUMPDEST DUP1 PUSH4 0x1BC404D6 EQ PUSH2 0x147 JUMPI DUP1 PUSH4 0x1FE543E3 EQ PUSH2 0x184 JUMPI DUP1 PUSH4 0x24A9D853 EQ PUSH2 0x1AD JUMPI DUP1 PUSH4 0x2EDD6797 EQ PUSH2 0x1D8 JUMPI DUP1 PUSH4 0x3F9E06C9 EQ PUSH2 0x201 JUMPI PUSH2 0x145 JUMP JUMPDEST JUMPDEST STOP JUMPDEST CALLVALUE DUP1 ISZERO PUSH2 0x153 JUMPI PUSH1 0x0 DUP1 REVERT JUMPDEST POP PUSH2 0x16E PUSH1 0x4 DUP1 CALLDATASIZE SUB DUP2 ADD SWAP1 PUSH2 0x169 SWAP2 SWAP1 PUSH2 0x48EB JUMP JUMPDEST PUSH2 0x5B9 JUMP JUMPDEST PUSH1 0x40 MLOAD PUSH2 0x17B SWAP2 SWAP1 PUSH2 0x4933 JUMP JUMPDEST PUSH1 0x40 MLOAD DUP1 SWAP2 SUB SWAP1 RETURN JUMPDEST CALLVALUE DUP1 ISZERO PUSH2 0x190 JUMPI PUSH1 0x0 DUP1 REVERT JUMPDEST POP PUSH2 0x1AB PUSH1 0x4 DUP1 CALLDATASIZE SUB DUP2 ADD SWAP1 PUSH2 0x1A6 SWAP2 SWAP1 PUSH2 0x4AA7 JUMP JUMPDEST PUSH2 0x5D9 JUMP JUMPDEST STOP JUMPDEST CALLVALUE DUP1 ISZERO PUSH2 0x1B9 JUMPI PUSH1 0x0 DUP1 REVERT JUMPDEST POP PUSH2 0x1C2 PUSH2 0x681 JUMP JUMPDEST PUSH1 0x40 MLOAD PUSH2 0x1CF SWAP2 SWAP1 PUSH2 0x4B1F JUMP JUMPDEST PUSH1 0x40 MLOAD DUP1 SWAP2 SUB SWAP1 RETURN JUMPDEST CALLVALUE DUP1 ISZERO PUSH2 0x1E4 JUMPI PUSH1 0x0 DUP1 REVERT JUMPDEST POP PUSH2 0x1FF PUSH1 0x4 DUP1 CALLDATASIZE SUB DUP2 ADD SWAP1 PUSH2 0x1FA SWAP2 SWAP1 PUSH2 0x4B66 JUMP JUMPDEST PUSH2 0x694 JUMP JUMPDEST STOP JUMPDEST CALLVALUE DUP1 ISZERO PUSH2 0x20D JUMPI PUSH1 0x0 DUP1 REVERT JUMPDEST POP PUSH2 0x228 PUSH1 0x4 DUP1 CALLDATASIZE SUB DUP2 ADD SWAP1 PUSH2 0x223 SWAP2 SWAP1 PUSH2 0x4C56 JUMP JUMPDEST PUSH2 0x6F1 JUMP JUMPDEST PUSH1 0x40 MLOAD PUSH2 0x235 SWAP2 SWAP1 PUSH2 0x4933 JUMP JUMPDEST PUSH1 0x40 MLOAD DUP1 SWAP2 SUB SWAP1 RETURN JUMPDEST CALLVALUE DUP1 ISZERO PUSH2 0x24A JUMPI PUSH1 0x0 DUP1 REVERT JUMPDEST POP PUSH2 0x265 PUSH1 0x4 DUP1 CALLDATASIZE SUB DUP2 ADD SWAP1 PUSH2 0x260 SWAP2 SWAP1 PUSH2 0x4C9F JUMP JUMPDEST PUSH2 0x96C JUMP JUMPDEST PUSH1 0x40 MLOAD PUSH2 0x272 SWAP2 SWAP1 PUSH2 0x4933 JUMP JUMPDEST PUSH1 0x40 MLOAD DUP1 SWAP2 SUB SWAP1 RETURN JUMPDEST CALLVALUE DUP1 ISZERO PUSH2 0x287 JUMPI PUSH1 0x0 DUP1 REVERT JUMPDEST POP PUSH2 0x2A2 PUSH1 0x4 DUP1 CALLDATASIZE SUB DUP2 ADD SWAP1 PUSH2 0x29D SWAP2 SWAP1 PUSH2 0x4D7B JUMP JUMPDEST PUSH2 0xA2F JUMP JUMPDEST STOP JUMPDEST CALLVALUE DUP1 ISZERO PUSH2 0x2B0 JUMPI PUSH1 0x0 DUP1 REVERT JUMPDEST POP PUSH2 0x2B9 PUSH2 0xBC0 JUMP JUMPDEST PUSH1 0x40 MLOAD PUSH2 0x2C6 SWAP2 SWAP1 PUSH2 0x4DCA JUMP JUMPDEST PUSH1 0x40 MLOAD DUP1 SWAP2 SUB SWAP1 RETURN JUMPDEST CALLVALUE DUP1 ISZERO PUSH2 0x2DB JUMPI PUSH1 0x0 DUP1 REVERT JUMPDEST POP PUSH2 0x2F6 PUSH1 0x4 DUP1 CALLDATASIZE SUB DUP2 ADD SWAP1 PUSH2 0x2F1 SWAP2 SWAP1 PUSH2 0x4DE5 JUMP JUMPDEST PUSH2 0xBC6 JUMP JUMPDEST PUSH1 0x40 MLOAD PUSH2 0x304 SWAP3 SWAP2 SWAP1 PUSH2 0x4E9C JUMP JUMPDEST PUSH1 0x40 MLOAD DUP1 SWAP2 SUB SWAP1 RETURN JUMPDEST CALLVALUE DUP1 ISZERO PUSH2 0x319 JUMPI PUSH1 0x0 DUP1 REVERT JUMPDEST POP PUSH2 0x322 PUSH2 0xC14 JUMP JUMPDEST STOP JUMPDEST CALLVALUE DUP1 ISZERO PUSH2 0x330 JUMPI PUSH1 0x0 DUP1 REVERT JUMPDEST POP PUSH2 0x34B PUSH1 0x4 DUP1 CALLDATASIZE SUB DUP2 ADD SWAP1 PUSH2 0x346 SWAP2 SWAP1 PUSH2 0x48EB JUMP JUMPDEST PUSH2 0xC28 JUMP JUMPDEST PUSH1 0x40 MLOAD PUSH2 0x358 SWAP2 SWAP1 PUSH2 0x4B1F JUMP JUMPDEST PUSH1 0x40 MLOAD DUP1 SWAP2 SUB SWAP1 RETURN JUMPDEST CALLVALUE DUP1 ISZERO PUSH2 0x36D JUMPI PUSH1 0x0 DUP1 REVERT JUMPDEST POP PUSH2 0x388 PUSH1 0x4 DUP1 CALLDATASIZE SUB DUP2 ADD SWAP1 PUSH2 0x383 SWAP2 SWAP1 PUSH2 0x4C56 JUMP JUMPDEST PUSH2 0xC52 JUMP JUMPDEST PUSH1 0x40 MLOAD PUSH2 0x395 SWAP2 SWAP1 PUSH2 0x4933 JUMP JUMPDEST PUSH1 0x40 MLOAD DUP1 SWAP2 SUB SWAP1 RETURN JUMPDEST CALLVALUE DUP1 ISZERO PUSH2 0x3AA JUMPI PUSH1 0x0 DUP1 REVERT JUMPDEST POP PUSH2 0x3C5 PUSH1 0x4 DUP1 CALLDATASIZE SUB DUP2 ADD SWAP1 PUSH2 0x3C0 SWAP2 SWAP1 PUSH2 0x48EB JUMP JUMPDEST PUSH2 0xDC8 JUMP JUMPDEST PUSH1 0x40 MLOAD PUSH2 0x3D2 SWAP2 SWAP1 PUSH2 0x4B1F JUMP JUMPDEST PUSH1 0x40 MLOAD DUP1 SWAP2 SUB SWAP1 RETURN JUMPDEST CALLVALUE DUP1 ISZERO PUSH2 0x3E7 JUMPI PUSH1 0x0 DUP1 REVERT JUMPDEST POP PUSH2 0x402 PUSH1 0x4 DUP1 CALLDATASIZE SUB DUP2 ADD SWAP1 PUSH2 0x3FD SWAP2 SWAP1 PUSH2 0x4DE5 JUMP JUMPDEST PUSH2 0xDF2 JUMP JUMPDEST PUSH1 0x40 MLOAD PUSH2 0x40F SWAP2 SWAP1 PUSH2 0x4B1F JUMP JUMPDEST PUSH1 0x40 MLOAD DUP1 SWAP2 SUB SWAP1 RETURN JUMPDEST CALLVALUE DUP1 ISZERO PUSH2 0x424 JUMPI PUSH1 0x0 DUP1 REVERT JUMPDEST POP PUSH2 0x42D PUSH2 0xE37 JUMP JUMPDEST PUSH1 0x40 MLOAD PUSH2 0x43A SWAP2 SWAP1 PUSH2 0x4ED4 JUMP JUMPDEST PUSH1 0x40 MLOAD DUP1 SWAP2 SUB SWAP1 RETURN JUMPDEST CALLVALUE DUP1 ISZERO PUSH2 0x44F JUMPI PUSH1 0x0 DUP1 REVERT JUMPDEST POP PUSH2 0x458 PUSH2 0xE6F JUMP JUMPDEST PUSH1 0x40 MLOAD PUSH2 0x465 SWAP2 SWAP1 PUSH2 0x4F4E JUMP JUMPDEST PUSH1 0x40 MLOAD DUP1 SWAP2 SUB SWAP1 RETURN JUMPDEST CALLVALUE DUP1 ISZERO PUSH2 0x47A JUMPI PUSH1 0x0 DUP1 REVERT JUMPDEST POP PUSH2 0x495 PUSH1 0x4 DUP1 CALLDATASIZE SUB DUP2 ADD SWAP1 PUSH2 0x490 SWAP2 SWAP1 PUSH2 0x4FC4 JUMP JUMPDEST PUSH2 0xE95 JUMP JUMPDEST PUSH1 0x40 MLOAD PUSH2 0x4A2 SWAP2 SWAP1 PUSH2 0x4DCA JUMP JUMPDEST PUSH1 0x40 MLOAD DUP1 SWAP2 SUB SWAP1 RETURN JUMPDEST CALLVALUE DUP1 ISZERO PUSH2 0x4B7 JUMPI PUSH1 0x0 DUP1 REVERT JUMPDEST POP PUSH2 0x4D2 PUSH1 0x4 DUP1 CALLDATASIZE SUB DUP2 ADD SWAP1 PUSH2 0x4CD SWAP2 SWAP1 PUSH2 0x5011 JUMP JUMPDEST PUSH2 0x22D5 JUMP JUMPDEST STOP JUMPDEST CALLVALUE DUP1 ISZERO PUSH2 0x4E0 JUMPI PUSH1 0x0 DUP1 REVERT JUMPDEST POP PUSH2 0x4FB PUSH1 0x4 DUP1 CALLDATASIZE SUB DUP2 ADD SWAP1 PUSH2 0x4F6 SWAP2 SWAP1 PUSH2 0x5051 JUMP JUMPDEST PUSH2 0x242A JUMP JUMPDEST PUSH1 0x40 MLOAD PUSH2 0x508 SWAP2 SWAP1 PUSH2 0x4933 JUMP JUMPDEST PUSH1 0x40 MLOAD DUP1 SWAP2 SUB SWAP1 RETURN JUMPDEST CALLVALUE DUP1 ISZERO PUSH2 0x51D JUMPI PUSH1 0x0 DUP1 REVERT JUMPDEST POP PUSH2 0x526 PUSH2 0x2AB8 JUMP JUMPDEST STOP JUMPDEST CALLVALUE DUP1 ISZERO PUSH2 0x534 JUMPI PUSH1 0x0 DUP1 REVERT JUMPDEST POP PUSH2 0x54F PUSH1 0x4 DUP1 CALLDATASIZE SUB DUP2 ADD SWAP1 PUSH2 0x54A SWAP2 SWAP1 PUSH2 0x50A4 JUMP JUMPDEST PUSH2 0x2BB3 JUMP JUMPDEST STOP JUMPDEST CALLVALUE DUP1 ISZERO PUSH2 0x55D JUMPI PUSH1 0x0 DUP1 REVERT JUMPDEST POP PUSH2 0x578 PUSH1 0x4 DUP1 CALLDATASIZE SUB DUP2 ADD SWAP1 PUSH2 0x573 SWAP2 SWAP1 PUSH2 0x48EB JUMP JUMPDEST PUSH2 0x2C39 JUMP JUMPDEST PUSH1 0x40 MLOAD PUSH2 0x585 SWAP2 SWAP1 PUSH2 0x4ED4 JUMP JUMPDEST PUSH1 0x40 MLOAD DUP1 SWAP2 SUB SWAP1 RETURN JUMPDEST CALLVALUE DUP1 ISZERO PUSH2 0x59A JUMPI PUSH1 0x0 DUP1 REVERT JUMPDEST POP PUSH2 0x5A3 PUSH2 0x2C6C JUMP JUMPDEST PUSH1 0x40 MLOAD PUSH2 0x5B0 SWAP2 SWAP1 PUSH2 0x50F2 JUMP JUMPDEST PUSH1 0x40 MLOAD DUP1 SWAP2 SUB SWAP1 RETURN JUMPDEST PUSH1 0x8 PUSH1 0x20 MSTORE DUP1 PUSH1 0x0 MSTORE PUSH1 0x40 PUSH1 0x0 KECCAK256 PUSH1 0x0 SWAP2 POP SLOAD SWAP1 PUSH2 0x100 EXP SWAP1 DIV PUSH1 0xFF AND DUP2 JUMP JUMPDEST PUSH1 0x0 PUSH1 0x1 PUSH1 0x0 SWAP1 SLOAD SWAP1 PUSH2 0x100 EXP SWAP1 DIV PUSH20 0xFFFFFFFFFFFFFFFFFFFFFFFFFFFFFFFFFFFFFFFF AND SWAP1 POP DUP1 PUSH20 0xFFFFFFFFFFFFFFFFFFFFFFFFFFFFFFFFFFFFFFFF AND CALLER PUSH20 0xFFFFFFFFFFFFFFFFFFFFFFFFFFFFFFFFFFFFFFFF AND EQ PUSH2 0x672 JUMPI CALLER DUP2 PUSH1 0x40 MLOAD PUSH32 0x8BA9316E00000000000000000000000000000000000000000000000000000000 DUP2 MSTORE PUSH1 0x4 ADD PUSH2 0x669 SWAP3 SWAP2 SWAP1 PUSH2 0x510D JUMP JUMPDEST PUSH1 0x40 MLOAD DUP1 SWAP2 SUB SWAP1 REVERT JUMPDEST PUSH2 0x67C DUP4 DUP4 PUSH2 0x2C92 JUMP JUMPDEST POP POP POP JUMP JUMPDEST PUSH1 0x2 PUSH1 0x14 SWAP1 SLOAD SWAP1 PUSH2 0x100 EXP SWAP1 DIV PUSH1 0xFF AND DUP2 JUMP JUMPDEST PUSH2 0x69C PUSH2 0x2F76 JUMP JUMPDEST DUP1 PUSH1 0x2 PUSH1 0x14 PUSH2 0x100 EXP DUP2 SLOAD DUP2 PUSH1 0xFF MUL NOT AND SWAP1 DUP4 PUSH1 0xFF AND MUL OR SWAP1 SSTORE POP PUSH32 0x8B3C6011CF1540F834B7142FF37E905118131EC885ED9C7D34FB314BA864F815 DUP2 PUSH1 0x40 MLOAD PUSH2 0x6E6 SWAP2 SWAP1 PUSH2 0x4B1F JUMP JUMPDEST PUSH1 0x40 MLOAD DUP1 SWAP2 SUB SWAP1 LOG1 POP JUMP JUMPDEST PUSH1 0x0 DUP1 PUSH2 0x7A4 DUP4 PUSH1 0x0 DUP2 MLOAD DUP2 LT PUSH2 0x70B JUMPI PUSH2 0x70A PUSH2 0x5136 JUMP JUMPDEST JUMPDEST PUSH1 0x20 MUL PUSH1 0x20 ADD ADD MLOAD DUP5 PUSH1 0x1 DUP2 MLOAD DUP2 LT PUSH2 0x727 JUMPI PUSH2 0x726 PUSH2 0x5136 JUMP JUMPDEST JUMPDEST PUSH1 0x20 MUL PUSH1 0x20 ADD ADD MLOAD DUP6 PUSH1 0x2 DUP2 MLOAD DUP2 LT PUSH2 0x743 JUMPI PUSH2 0x742 PUSH2 0x5136 JUMP JUMPDEST JUMPDEST PUSH1 0x20 MUL PUSH1 0x20 ADD ADD MLOAD DUP7 PUSH1 0x3 DUP2 MLOAD DUP2 LT PUSH2 0x75F JUMPI PUSH2 0x75E PUSH2 0x5136 JUMP JUMPDEST JUMPDEST PUSH1 0x20 MUL PUSH1 0x20 ADD ADD MLOAD DUP8 PUSH1 0x4 DUP2 MLOAD DUP2 LT PUSH2 0x77B JUMPI PUSH2 0x77A PUSH2 0x5136 JUMP JUMPDEST JUMPDEST PUSH1 0x20 MUL PUSH1 0x20 ADD ADD MLOAD DUP9 PUSH1 0x5 DUP2 MLOAD DUP2 LT PUSH2 0x797 JUMPI PUSH2 0x796 PUSH2 0x5136 JUMP JUMPDEST JUMPDEST PUSH1 0x20 MUL PUSH1 0x20 ADD ADD MLOAD PUSH2 0x2FFD JUMP JUMPDEST SWAP1 POP PUSH1 0x1 PUSH1 0x3 DUP3 PUSH1 0x0 PUSH1 0x6 DUP2 LT PUSH2 0x7BE JUMPI PUSH2 0x7BD PUSH2 0x5136 JUMP JUMPDEST JUMPDEST PUSH1 0x20 MUL ADD MLOAD PUSH2 0x7CD SWAP2 SWAP1 PUSH2 0x5194 JUMP JUMPDEST PUSH1 0xFF AND EQ DUP1 ISZERO PUSH2 0x81E JUMPI POP PUSH1 0x1 DUP2 PUSH1 0x0 PUSH1 0x6 DUP2 LT PUSH2 0x7EE JUMPI PUSH2 0x7ED PUSH2 0x5136 JUMP JUMPDEST JUMPDEST PUSH1 0x20 MUL ADD MLOAD PUSH2 0x7FD SWAP2 SWAP1 PUSH2 0x51F4 JUMP JUMPDEST PUSH1 0xFF AND DUP2 PUSH1 0x1 PUSH1 0x6 DUP2 LT PUSH2 0x814 JUMPI PUSH2 0x813 PUSH2 0x5136 JUMP JUMPDEST JUMPDEST PUSH1 0x20 MUL ADD MLOAD PUSH1 0xFF AND EQ JUMPDEST DUP1 ISZERO PUSH2 0x86B JUMPI POP PUSH1 0x2 DUP2 PUSH1 0x0 PUSH1 0x6 DUP2 LT PUSH2 0x83B JUMPI PUSH2 0x83A PUSH2 0x5136 JUMP JUMPDEST JUMPDEST PUSH1 0x20 MUL ADD MLOAD PUSH2 0x84A SWAP2 SWAP1 PUSH2 0x51F4 JUMP JUMPDEST PUSH1 0xFF AND DUP2 PUSH1 0x2 PUSH1 0x6 DUP2 LT PUSH2 0x861 JUMPI PUSH2 0x860 PUSH2 0x5136 JUMP JUMPDEST JUMPDEST PUSH1 0x20 MUL ADD MLOAD PUSH1 0xFF AND EQ JUMPDEST DUP1 ISZERO PUSH2 0x8B8 JUMPI POP PUSH1 0x3 DUP2 PUSH1 0x0 PUSH1 0x6 DUP2 LT PUSH2 0x888 JUMPI PUSH2 0x887 PUSH2 0x5136 JUMP JUMPDEST JUMPDEST PUSH1 0x20 MUL ADD MLOAD PUSH2 0x897 SWAP2 SWAP1 PUSH2 0x51F4 JUMP JUMPDEST PUSH1 0xFF AND DUP2 PUSH1 0x3 PUSH1 0x6 DUP2 LT PUSH2 0x8AE JUMPI PUSH2 0x8AD PUSH2 0x5136 JUMP JUMPDEST JUMPDEST PUSH1 0x20 MUL ADD MLOAD PUSH1 0xFF AND EQ JUMPDEST DUP1 ISZERO PUSH2 0x905 JUMPI POP PUSH1 0x4 DUP2 PUSH1 0x0 PUSH1 0x6 DUP2 LT PUSH2 0x8D5 JUMPI PUSH2 0x8D4 PUSH2 0x5136 JUMP JUMPDEST JUMPDEST PUSH1 0x20 MUL ADD MLOAD PUSH2 0x8E4 SWAP2 SWAP1 PUSH2 0x51F4 JUMP JUMPDEST PUSH1 0xFF AND DUP2 PUSH1 0x4 PUSH1 0x6 DUP2 LT PUSH2 0x8FB JUMPI PUSH2 0x8FA PUSH2 0x5136 JUMP JUMPDEST JUMPDEST PUSH1 0x20 MUL ADD MLOAD PUSH1 0xFF AND EQ JUMPDEST DUP1 ISZERO PUSH2 0x952 JUMPI POP PUSH1 0x5 DUP2 PUSH1 0x0 PUSH1 0x6 DUP2 LT PUSH2 0x922 JUMPI PUSH2 0x921 PUSH2 0x5136 JUMP JUMPDEST JUMPDEST PUSH1 0x20 MUL ADD MLOAD PUSH2 0x931 SWAP2 SWAP1 PUSH2 0x51F4 JUMP JUMPDEST PUSH1 0xFF AND DUP2 PUSH1 0x5 PUSH1 0x6 DUP2 LT PUSH2 0x948 JUMPI PUSH2 0x947 PUSH2 0x5136 JUMP JUMPDEST JUMPDEST PUSH1 0x20 MUL ADD MLOAD PUSH1 0xFF AND EQ JUMPDEST ISZERO PUSH2 0x961 JUMPI PUSH1 0x1 SWAP2 POP POP PUSH2 0x967 JUMP JUMPDEST PUSH1 0x0 SWAP2 POP POP JUMPDEST SWAP2 SWAP1 POP JUMP JUMPDEST PUSH1 0x0 PUSH1 0x1 DUP3 PUSH2 0x97B SWAP2 SWAP1 PUSH2 0x5229 JUMP JUMPDEST PUSH1 0xFF AND DUP4 PUSH1 0xFF AND EQ DUP1 ISZERO PUSH2 0x99F JUMPI POP PUSH1 0x0 PUSH1 0x3 DUP5 PUSH2 0x999 SWAP2 SWAP1 PUSH2 0x5194 JUMP JUMPDEST PUSH1 0xFF AND EQ ISZERO JUMPDEST DUP1 PUSH2 0x9D7 JUMPI POP PUSH1 0x1 DUP4 PUSH2 0x9B2 SWAP2 SWAP1 PUSH2 0x5229 JUMP JUMPDEST PUSH1 0xFF AND DUP3 PUSH1 0xFF AND EQ DUP1 ISZERO PUSH2 0x9D6 JUMPI POP PUSH1 0x0 PUSH1 0x3 DUP4 PUSH2 0x9D0 SWAP2 SWAP1 PUSH2 0x5194 JUMP JUMPDEST PUSH1 0xFF AND EQ ISZERO JUMPDEST JUMPDEST ISZERO PUSH2 0x9E5 JUMPI PUSH1 0x1 SWAP1 POP PUSH2 0xA29 JUMP JUMPDEST PUSH1 0x3 DUP3 PUSH2 0x9F2 SWAP2 SWAP1 PUSH2 0x5229 JUMP JUMPDEST PUSH1 0xFF AND DUP4 PUSH1 0xFF AND EQ DUP1 PUSH2 0xA16 JUMPI POP PUSH1 0x3 DUP4 PUSH2 0xA0D SWAP2 SWAP1 PUSH2 0x5229 JUMP JUMPDEST PUSH1 0xFF AND DUP3 PUSH1 0xFF AND EQ JUMPDEST ISZERO PUSH2 0xA24 JUMPI PUSH1 0x1 SWAP1 POP PUSH2 0xA29 JUMP JUMPDEST PUSH1 0x0 SWAP1 POP JUMPDEST SWAP3 SWAP2 POP POP JUMP JUMPDEST PUSH1 0x0 PUSH2 0xA39 PUSH2 0x317E JUMP JUMPDEST SWAP1 POP PUSH1 0x0 DUP2 PUSH1 0x0 ADD PUSH1 0x8 SWAP1 SLOAD SWAP1 PUSH2 0x100 EXP SWAP1 DIV PUSH1 0xFF AND ISZERO SWAP1 POP PUSH1 0x0 DUP3 PUSH1 0x0 ADD PUSH1 0x0 SWAP1 SLOAD SWAP1 PUSH2 0x100 EXP SWAP1 DIV PUSH8 0xFFFFFFFFFFFFFFFF AND SWAP1 POP PUSH1 0x0 DUP1 DUP3 PUSH8 0xFFFFFFFFFFFFFFFF AND EQ DUP1 ISZERO PUSH2 0xA87 JUMPI POP DUP3 JUMPDEST SWAP1 POP PUSH1 0x0 PUSH1 0x1 DUP4 PUSH8 0xFFFFFFFFFFFFFFFF AND EQ DUP1 ISZERO PUSH2 0xABC JUMPI POP PUSH1 0x0 ADDRESS PUSH20 0xFFFFFFFFFFFFFFFFFFFFFFFFFFFFFFFFFFFFFFFF AND EXTCODESIZE EQ JUMPDEST SWAP1 POP DUP2 ISZERO DUP1 ISZERO PUSH2 0xACA JUMPI POP DUP1 ISZERO JUMPDEST ISZERO PUSH2 0xB01 JUMPI PUSH1 0x40 MLOAD PUSH32 0xF92EE8A900000000000000000000000000000000000000000000000000000000 DUP2 MSTORE PUSH1 0x4 ADD PUSH1 0x40 MLOAD DUP1 SWAP2 SUB SWAP1 REVERT JUMPDEST PUSH1 0x1 DUP6 PUSH1 0x0 ADD PUSH1 0x0 PUSH2 0x100 EXP DUP2 SLOAD DUP2 PUSH8 0xFFFFFFFFFFFFFFFF MUL NOT AND SWAP1 DUP4 PUSH8 0xFFFFFFFFFFFFFFFF AND MUL OR SWAP1 SSTORE POP DUP4 ISZERO PUSH2 0xB51 JUMPI PUSH1 0x1 DUP6 PUSH1 0x0 ADD PUSH1 0x8 PUSH2 0x100 EXP DUP2 SLOAD DUP2 PUSH1 0xFF MUL NOT AND SWAP1 DUP4 ISZERO ISZERO MUL OR SWAP1 SSTORE POP JUMPDEST PUSH2 0xB5B DUP8 DUP8 PUSH2 0x31A6 JUMP JUMPDEST DUP4 ISZERO PUSH2 0xBB7 JUMPI PUSH1 0x0 DUP6 PUSH1 0x0 ADD PUSH1 0x8 PUSH2 0x100 EXP DUP2 SLOAD DUP2 PUSH1 0xFF MUL NOT AND SWAP1 DUP4 ISZERO ISZERO MUL OR SWAP1 SSTORE POP PUSH32 0xC7F505B2F371AE2175EE4913F4499E1F2633A7B5936321EED1CDAEB6115181D2 PUSH1 0x1 PUSH1 0x40 MLOAD PUSH2 0xBAE SWAP2 SWAP1 PUSH2 0x52AD JUMP JUMPDEST PUSH1 0x40 MLOAD DUP1 SWAP2 SUB SWAP1 LOG1 JUMPDEST POP POP POP POP POP POP POP JUMP JUMPDEST PUSH1 0x9 SLOAD DUP2 JUMP JUMPDEST PUSH1 0x6 PUSH1 0x20 MSTORE DUP2 PUSH1 0x0 MSTORE PUSH1 0x40 PUSH1 0x0 KECCAK256 DUP2 DUP2 SLOAD DUP2 LT PUSH2 0xBE2 JUMPI PUSH1 0x0 DUP1 REVERT JUMPDEST SWAP1 PUSH1 0x0 MSTORE PUSH1 0x20 PUSH1 0x0 KECCAK256 SWAP1 PUSH1 0x3 MUL ADD PUSH1 0x0 SWAP2 POP SWAP2 POP POP DUP1 PUSH1 0x0 ADD SLOAD SWAP1 DUP1 PUSH1 0x2 ADD PUSH1 0x0 SWAP1 SLOAD SWAP1 PUSH2 0x100 EXP SWAP1 DIV PUSH1 0xFF AND SWAP1 POP DUP3 JUMP JUMPDEST PUSH2 0xC1C PUSH2 0x2F76 JUMP JUMPDEST PUSH2 0xC26 PUSH1 0x0 PUSH2 0x36D6 JUMP JUMPDEST JUMP JUMPDEST PUSH1 0x4 DUP2 PUSH1 0x12 DUP2 LT PUSH2 0xC38 JUMPI PUSH1 0x0 DUP1 REVERT JUMPDEST PUSH1 0x20 SWAP2 DUP3 DUP3 DIV ADD SWAP2 SWAP1 MOD SWAP2 POP SLOAD SWAP1 PUSH2 0x100 EXP SWAP1 DIV PUSH1 0xFF AND DUP2 JUMP JUMPDEST PUSH1 0x0 DUP1 PUSH2 0xCCD DUP4 PUSH1 0x0 DUP2 MLOAD DUP2 LT PUSH2 0xC6C JUMPI PUSH2 0xC6B PUSH2 0x5136 JUMP JUMPDEST JUMPDEST PUSH1 0x20 MUL PUSH1 0x20 ADD ADD MLOAD DUP5 PUSH1 0x1 DUP2 MLOAD DUP2 LT PUSH2 0xC88 JUMPI PUSH2 0xC87 PUSH2 0x5136 JUMP JUMPDEST JUMPDEST PUSH1 0x20 MUL PUSH1 0x20 ADD ADD MLOAD DUP6 PUSH1 0x2 DUP2 MLOAD DUP2 LT PUSH2 0xCA4 JUMPI PUSH2 0xCA3 PUSH2 0x5136 JUMP JUMPDEST JUMPDEST PUSH1 0x20 MUL PUSH1 0x20 ADD ADD MLOAD DUP7 PUSH1 0x3 DUP2 MLOAD DUP2 LT PUSH2 0xCC0 JUMPI PUSH2 0xCBF PUSH2 0x5136 JUMP JUMPDEST JUMPDEST PUSH1 0x20 MUL PUSH1 0x20 ADD ADD MLOAD PUSH2 0x37AD JUMP JUMPDEST SWAP1 POP PUSH1 0x1 DUP2 PUSH1 0x0 PUSH1 0x4 DUP2 LT PUSH2 0xCE5 JUMPI PUSH2 0xCE4 PUSH2 0x5136 JUMP JUMPDEST JUMPDEST PUSH1 0x20 MUL ADD MLOAD PUSH2 0xCF4 SWAP2 SWAP1 PUSH2 0x51F4 JUMP JUMPDEST PUSH1 0xFF AND DUP2 PUSH1 0x1 PUSH1 0x4 DUP2 LT PUSH2 0xD0B JUMPI PUSH2 0xD0A PUSH2 0x5136 JUMP JUMPDEST JUMPDEST PUSH1 0x20 MUL ADD MLOAD PUSH1 0xFF AND EQ DUP1 ISZERO PUSH2 0xD61 JUMPI POP PUSH1 0x3 DUP2 PUSH1 0x0 PUSH1 0x4 DUP2 LT PUSH2 0xD31 JUMPI PUSH2 0xD30 PUSH2 0x5136 JUMP JUMPDEST JUMPDEST PUSH1 0x20 MUL ADD MLOAD PUSH2 0xD40 SWAP2 SWAP1 PUSH2 0x51F4 JUMP JUMPDEST PUSH1 0xFF AND DUP2 PUSH1 0x2 PUSH1 0x4 DUP2 LT PUSH2 0xD57 JUMPI PUSH2 0xD56 PUSH2 0x5136 JUMP JUMPDEST JUMPDEST PUSH1 0x20 MUL ADD MLOAD PUSH1 0xFF AND EQ JUMPDEST DUP1 ISZERO PUSH2 0xDAE JUMPI POP PUSH1 0x4 DUP2 PUSH1 0x0 PUSH1 0x4 DUP2 LT PUSH2 0xD7E JUMPI PUSH2 0xD7D PUSH2 0x5136 JUMP JUMPDEST JUMPDEST PUSH1 0x20 MUL ADD MLOAD PUSH2 0xD8D SWAP2 SWAP1 PUSH2 0x51F4 JUMP JUMPDEST PUSH1 0xFF AND DUP2 PUSH1 0x3 PUSH1 0x4 DUP2 LT PUSH2 0xDA4 JUMPI PUSH2 0xDA3 PUSH2 0x5136 JUMP JUMPDEST JUMPDEST PUSH1 0x20 MUL ADD MLOAD PUSH1 0xFF AND EQ JUMPDEST ISZERO PUSH2 0xDBD JUMPI PUSH1 0x1 SWAP2 POP POP PUSH2 0xDC3 JUMP JUMPDEST PUSH1 0x0 SWAP2 POP POP JUMPDEST SWAP2 SWAP1 POP JUMP JUMPDEST PUSH1 0x5 DUP2 PUSH1 0x12 DUP2 LT PUSH2 0xDD8 JUMPI PUSH1 0x0 DUP1 REVERT JUMPDEST PUSH1 0x20 SWAP2 DUP3 DUP3 DIV ADD SWAP2 SWAP1 MOD SWAP2 POP SLOAD SWAP1 PUSH2 0x100 EXP SWAP1 DIV PUSH1 0xFF AND DUP2 JUMP JUMPDEST PUSH1 0x3 DUP3 DUP2 SLOAD DUP2 LT PUSH2 0xE02 JUMPI PUSH1 0x0 DUP1 REVERT JUMPDEST SWAP1 PUSH1 0x0 MSTORE PUSH1 0x20 PUSH1 0x0 KECCAK256 ADD DUP2 PUSH1 0x3 DUP2 LT PUSH2 0xE1A JUMPI PUSH1 0x0 DUP1 REVERT JUMPDEST PUSH1 0x20 SWAP2 DUP3 DUP3 DIV ADD SWAP2 SWAP1 MOD SWAP2 POP SWAP2 POP SWAP1 SLOAD SWAP1 PUSH2 0x100 EXP SWAP1 DIV PUSH1 0xFF AND DUP2 JUMP JUMPDEST PUSH1 0x0 DUP1 PUSH2 0xE42 PUSH2 0x3914 JUMP JUMPDEST SWAP1 POP DUP1 PUSH1 0x0 ADD PUSH1 0x0 SWAP1 SLOAD SWAP1 PUSH2 0x100 EXP SWAP1 DIV PUSH20 0xFFFFFFFFFFFFFFFFFFFFFFFFFFFFFFFFFFFFFFFF AND SWAP2 POP POP SWAP1 JUMP JUMPDEST PUSH1 0x1 PUSH1 0x0 SWAP1 SLOAD SWAP1 PUSH2 0x100 EXP SWAP1 DIV PUSH20 0xFFFFFFFFFFFFFFFFFFFFFFFFFFFFFFFFFFFFFFFF AND DUP2 JUMP JUMPDEST PUSH1 0x0 DUP1 PUSH1 0x0 SWAP1 POP PUSH1 0x0 JUMPDEST DUP5 DUP5 SWAP1 POP DUP2 LT ISZERO PUSH2 0x1F5D JUMPI PUSH1 0x0 PUSH1 0x14 DUP2 GT ISZERO PUSH2 0xEBE JUMPI PUSH2 0xEBD PUSH2 0x4E25 JUMP JUMPDEST JUMPDEST DUP6 DUP6 DUP4 DUP2 DUP2 LT PUSH2 0xED1 JUMPI PUSH2 0xED0 PUSH2 0x5136 JUMP JUMPDEST JUMPDEST SWAP1 POP PUSH1 0x20 MUL DUP2 ADD SWAP1 PUSH2 0xEE3 SWAP2 SWAP1 PUSH2 0x52D7 JUMP JUMPDEST PUSH1 0x40 ADD PUSH1 0x20 DUP2 ADD SWAP1 PUSH2 0xEF5 SWAP2 SWAP1 PUSH2 0x5324 JUMP JUMPDEST PUSH1 0x14 DUP2 GT ISZERO PUSH2 0xF07 JUMPI PUSH2 0xF06 PUSH2 0x4E25 JUMP JUMPDEST JUMPDEST EQ DUP1 PUSH2 0xF6D JUMPI POP PUSH1 0x1 PUSH1 0x14 DUP2 GT ISZERO PUSH2 0xF22 JUMPI PUSH2 0xF21 PUSH2 0x4E25 JUMP JUMPDEST JUMPDEST DUP6 DUP6 DUP4 DUP2 DUP2 LT PUSH2 0xF35 JUMPI PUSH2 0xF34 PUSH2 0x5136 JUMP JUMPDEST JUMPDEST SWAP1 POP PUSH1 0x20 MUL DUP2 ADD SWAP1 PUSH2 0xF47 SWAP2 SWAP1 PUSH2 0x52D7 JUMP JUMPDEST PUSH1 0x40 ADD PUSH1 0x20 DUP2 ADD SWAP1 PUSH2 0xF59 SWAP2 SWAP1 PUSH2 0x5324 JUMP JUMPDEST PUSH1 0x14 DUP2 GT ISZERO PUSH2 0xF6B JUMPI PUSH2 0xF6A PUSH2 0x4E25 JUMP JUMPDEST JUMPDEST EQ JUMPDEST DUP1 PUSH2 0xFD2 JUMPI POP PUSH1 0x9 PUSH1 0x14 DUP2 GT ISZERO PUSH2 0xF87 JUMPI PUSH2 0xF86 PUSH2 0x4E25 JUMP JUMPDEST JUMPDEST DUP6 DUP6 DUP4 DUP2 DUP2 LT PUSH2 0xF9A JUMPI PUSH2 0xF99 PUSH2 0x5136 JUMP JUMPDEST JUMPDEST SWAP1 POP PUSH1 0x20 MUL DUP2 ADD SWAP1 PUSH2 0xFAC SWAP2 SWAP1 PUSH2 0x52D7 JUMP JUMPDEST PUSH1 0x40 ADD PUSH1 0x20 DUP2 ADD SWAP1 PUSH2 0xFBE SWAP2 SWAP1 PUSH2 0x5324 JUMP JUMPDEST PUSH1 0x14 DUP2 GT ISZERO PUSH2 0xFD0 JUMPI PUSH2 0xFCF PUSH2 0x4E25 JUMP JUMPDEST JUMPDEST EQ JUMPDEST DUP1 PUSH2 0x1037 JUMPI POP PUSH1 0xA PUSH1 0x14 DUP2 GT ISZERO PUSH2 0xFEC JUMPI PUSH2 0xFEB PUSH2 0x4E25 JUMP JUMPDEST JUMPDEST DUP6 DUP6 DUP4 DUP2 DUP2 LT PUSH2 0xFFF JUMPI PUSH2 0xFFE PUSH2 0x5136 JUMP JUMPDEST JUMPDEST SWAP1 POP PUSH1 0x20 MUL DUP2 ADD SWAP1 PUSH2 0x1011 SWAP2 SWAP1 PUSH2 0x52D7 JUMP JUMPDEST PUSH1 0x40 ADD PUSH1 0x20 DUP2 ADD SWAP1 PUSH2 0x1023 SWAP2 SWAP1 PUSH2 0x5324 JUMP JUMPDEST PUSH1 0x14 DUP2 GT ISZERO PUSH2 0x1035 JUMPI PUSH2 0x1034 PUSH2 0x4E25 JUMP JUMPDEST JUMPDEST EQ JUMPDEST DUP1 PUSH2 0x109C JUMPI POP PUSH1 0xB PUSH1 0x14 DUP2 GT ISZERO PUSH2 0x1051 JUMPI PUSH2 0x1050 PUSH2 0x4E25 JUMP JUMPDEST JUMPDEST DUP6 DUP6 DUP4 DUP2 DUP2 LT PUSH2 0x1064 JUMPI PUSH2 0x1063 PUSH2 0x5136 JUMP JUMPDEST JUMPDEST SWAP1 POP PUSH1 0x20 MUL DUP2 ADD SWAP1 PUSH2 0x1076 SWAP2 SWAP1 PUSH2 0x52D7 JUMP JUMPDEST PUSH1 0x40 ADD PUSH1 0x20 DUP2 ADD SWAP1 PUSH2 0x1088 SWAP2 SWAP1 PUSH2 0x5324 JUMP JUMPDEST PUSH1 0x14 DUP2 GT ISZERO PUSH2 0x109A JUMPI PUSH2 0x1099 PUSH2 0x4E25 JUMP JUMPDEST JUMPDEST EQ JUMPDEST DUP1 PUSH2 0x1101 JUMPI POP PUSH1 0xC PUSH1 0x14 DUP2 GT ISZERO PUSH2 0x10B6 JUMPI PUSH2 0x10B5 PUSH2 0x4E25 JUMP JUMPDEST JUMPDEST DUP6 DUP6 DUP4 DUP2 DUP2 LT PUSH2 0x10C9 JUMPI PUSH2 0x10C8 PUSH2 0x5136 JUMP JUMPDEST JUMPDEST SWAP1 POP PUSH1 0x20 MUL DUP2 ADD SWAP1 PUSH2 0x10DB SWAP2 SWAP1 PUSH2 0x52D7 JUMP JUMPDEST PUSH1 0x40 ADD PUSH1 0x20 DUP2 ADD SWAP1 PUSH2 0x10ED SWAP2 SWAP1 PUSH2 0x5324 JUMP JUMPDEST PUSH1 0x14 DUP2 GT ISZERO PUSH2 0x10FF JUMPI PUSH2 0x10FE PUSH2 0x4E25 JUMP JUMPDEST JUMPDEST EQ JUMPDEST DUP1 PUSH2 0x1166 JUMPI POP PUSH1 0xD PUSH1 0x14 DUP2 GT ISZERO PUSH2 0x111B JUMPI PUSH2 0x111A PUSH2 0x4E25 JUMP JUMPDEST JUMPDEST DUP6 DUP6 DUP4 DUP2 DUP2 LT PUSH2 0x112E JUMPI PUSH2 0x112D PUSH2 0x5136 JUMP JUMPDEST JUMPDEST SWAP1 POP PUSH1 0x20 MUL DUP2 ADD SWAP1 PUSH2 0x1140 SWAP2 SWAP1 PUSH2 0x52D7 JUMP JUMPDEST PUSH1 0x40 ADD PUSH1 0x20 DUP2 ADD SWAP1 PUSH2 0x1152 SWAP2 SWAP1 PUSH2 0x5324 JUMP JUMPDEST PUSH1 0x14 DUP2 GT ISZERO PUSH2 0x1164 JUMPI PUSH2 0x1163 PUSH2 0x4E25 JUMP JUMPDEST JUMPDEST EQ JUMPDEST DUP1 PUSH2 0x11CB JUMPI POP PUSH1 0xE PUSH1 0x14 DUP2 GT ISZERO PUSH2 0x1180 JUMPI PUSH2 0x117F PUSH2 0x4E25 JUMP JUMPDEST JUMPDEST DUP6 DUP6 DUP4 DUP2 DUP2 LT PUSH2 0x1193 JUMPI PUSH2 0x1192 PUSH2 0x5136 JUMP JUMPDEST JUMPDEST SWAP1 POP PUSH1 0x20 MUL DUP2 ADD SWAP1 PUSH2 0x11A5 SWAP2 SWAP1 PUSH2 0x52D7 JUMP JUMPDEST PUSH1 0x40 ADD PUSH1 0x20 DUP2 ADD SWAP1 PUSH2 0x11B7 SWAP2 SWAP1 PUSH2 0x5324 JUMP JUMPDEST PUSH1 0x14 DUP2 GT ISZERO PUSH2 0x11C9 JUMPI PUSH2 0x11C8 PUSH2 0x4E25 JUMP JUMPDEST JUMPDEST EQ JUMPDEST DUP1 PUSH2 0x1230 JUMPI POP PUSH1 0xF PUSH1 0x14 DUP2 GT ISZERO PUSH2 0x11E5 JUMPI PUSH2 0x11E4 PUSH2 0x4E25 JUMP JUMPDEST JUMPDEST DUP6 DUP6 DUP4 DUP2 DUP2 LT PUSH2 0x11F8 JUMPI PUSH2 0x11F7 PUSH2 0x5136 JUMP JUMPDEST JUMPDEST SWAP1 POP PUSH1 0x20 MUL DUP2 ADD SWAP1 PUSH2 0x120A SWAP2 SWAP1 PUSH2 0x52D7 JUMP JUMPDEST PUSH1 0x40 ADD PUSH1 0x20 DUP2 ADD SWAP1 PUSH2 0x121C SWAP2 SWAP1 PUSH2 0x5324 JUMP JUMPDEST PUSH1 0x14 DUP2 GT ISZERO PUSH2 0x122E JUMPI PUSH2 0x122D PUSH2 0x4E25 JUMP JUMPDEST JUMPDEST EQ JUMPDEST DUP1 PUSH2 0x1295 JUMPI POP PUSH1 0x10 PUSH1 0x14 DUP2 GT ISZERO PUSH2 0x124A JUMPI PUSH2 0x1249 PUSH2 0x4E25 JUMP JUMPDEST JUMPDEST DUP6 DUP6 DUP4 DUP2 DUP2 LT PUSH2 0x125D JUMPI PUSH2 0x125C PUSH2 0x5136 JUMP JUMPDEST JUMPDEST SWAP1 POP PUSH1 0x20 MUL DUP2 ADD SWAP1 PUSH2 0x126F SWAP2 SWAP1 PUSH2 0x52D7 JUMP JUMPDEST PUSH1 0x40 ADD PUSH1 0x20 DUP2 ADD SWAP1 PUSH2 0x1281 SWAP2 SWAP1 PUSH2 0x5324 JUMP JUMPDEST PUSH1 0x14 DUP2 GT ISZERO PUSH2 0x1293 JUMPI PUSH2 0x1292 PUSH2 0x4E25 JUMP JUMPDEST JUMPDEST EQ JUMPDEST DUP1 PUSH2 0x12FA JUMPI POP PUSH1 0x11 PUSH1 0x14 DUP2 GT ISZERO PUSH2 0x12AF JUMPI PUSH2 0x12AE PUSH2 0x4E25 JUMP JUMPDEST JUMPDEST DUP6 DUP6 DUP4 DUP2 DUP2 LT PUSH2 0x12C2 JUMPI PUSH2 0x12C1 PUSH2 0x5136 JUMP JUMPDEST JUMPDEST SWAP1 POP PUSH1 0x20 MUL DUP2 ADD SWAP1 PUSH2 0x12D4 SWAP2 SWAP1 PUSH2 0x52D7 JUMP JUMPDEST PUSH1 0x40 ADD PUSH1 0x20 DUP2 ADD SWAP1 PUSH2 0x12E6 SWAP2 SWAP1 PUSH2 0x5324 JUMP JUMPDEST PUSH1 0x14 DUP2 GT ISZERO PUSH2 0x12F8 JUMPI PUSH2 0x12F7 PUSH2 0x4E25 JUMP JUMPDEST JUMPDEST EQ JUMPDEST DUP1 PUSH2 0x135F JUMPI POP PUSH1 0x12 PUSH1 0x14 DUP2 GT ISZERO PUSH2 0x1314 JUMPI PUSH2 0x1313 PUSH2 0x4E25 JUMP JUMPDEST JUMPDEST DUP6 DUP6 DUP4 DUP2 DUP2 LT PUSH2 0x1327 JUMPI PUSH2 0x1326 PUSH2 0x5136 JUMP JUMPDEST JUMPDEST SWAP1 POP PUSH1 0x20 MUL DUP2 ADD SWAP1 PUSH2 0x1339 SWAP2 SWAP1 PUSH2 0x52D7 JUMP JUMPDEST PUSH1 0x40 ADD PUSH1 0x20 DUP2 ADD SWAP1 PUSH2 0x134B SWAP2 SWAP1 PUSH2 0x5324 JUMP JUMPDEST PUSH1 0x14 DUP2 GT ISZERO PUSH2 0x135D JUMPI PUSH2 0x135C PUSH2 0x4E25 JUMP JUMPDEST JUMPDEST EQ JUMPDEST DUP1 PUSH2 0x13C4 JUMPI POP PUSH1 0x13 PUSH1 0x14 DUP2 GT ISZERO PUSH2 0x1379 JUMPI PUSH2 0x1378 PUSH2 0x4E25 JUMP JUMPDEST JUMPDEST DUP6 DUP6 DUP4 DUP2 DUP2 LT PUSH2 0x138C JUMPI PUSH2 0x138B PUSH2 0x5136 JUMP JUMPDEST JUMPDEST SWAP1 POP PUSH1 0x20 MUL DUP2 ADD SWAP1 PUSH2 0x139E SWAP2 SWAP1 PUSH2 0x52D7 JUMP JUMPDEST PUSH1 0x40 ADD PUSH1 0x20 DUP2 ADD SWAP1 PUSH2 0x13B0 SWAP2 SWAP1 PUSH2 0x5324 JUMP JUMPDEST PUSH1 0x14 DUP2 GT ISZERO PUSH2 0x13C2 JUMPI PUSH2 0x13C1 PUSH2 0x4E25 JUMP JUMPDEST JUMPDEST EQ JUMPDEST DUP1 PUSH2 0x1428 JUMPI POP PUSH1 0x14 DUP1 DUP2 GT ISZERO PUSH2 0x13DD JUMPI PUSH2 0x13DC PUSH2 0x4E25 JUMP JUMPDEST JUMPDEST DUP6 DUP6 DUP4 DUP2 DUP2 LT PUSH2 0x13F0 JUMPI PUSH2 0x13EF PUSH2 0x5136 JUMP JUMPDEST JUMPDEST SWAP1 POP PUSH1 0x20 MUL DUP2 ADD SWAP1 PUSH2 0x1402 SWAP2 SWAP1 PUSH2 0x52D7 JUMP JUMPDEST PUSH1 0x40 ADD PUSH1 0x20 DUP2 ADD SWAP1 PUSH2 0x1414 SWAP2 SWAP1 PUSH2 0x5324 JUMP JUMPDEST PUSH1 0x14 DUP2 GT ISZERO PUSH2 0x1426 JUMPI PUSH2 0x1425 PUSH2 0x4E25 JUMP JUMPDEST JUMPDEST EQ JUMPDEST ISZERO PUSH2 0x14A6 JUMPI PUSH1 0x0 DUP6 DUP6 DUP4 DUP2 DUP2 LT PUSH2 0x1442 JUMPI PUSH2 0x1441 PUSH2 0x5136 JUMP JUMPDEST JUMPDEST SWAP1 POP PUSH1 0x20 MUL DUP2 ADD SWAP1 PUSH2 0x1454 SWAP2 SWAP1 PUSH2 0x52D7 JUMP JUMPDEST DUP1 PUSH1 0x20 ADD SWAP1 PUSH2 0x1463 SWAP2 SWAP1 PUSH2 0x5351 JUMP JUMPDEST SWAP1 POP EQ PUSH2 0x14A5 JUMPI PUSH1 0x40 MLOAD PUSH32 0x8C379A000000000000000000000000000000000000000000000000000000000 DUP2 MSTORE PUSH1 0x4 ADD PUSH2 0x149C SWAP1 PUSH2 0x5437 JUMP JUMPDEST PUSH1 0x40 MLOAD DUP1 SWAP2 SUB SWAP1 REVERT JUMPDEST JUMPDEST PUSH1 0x2 PUSH1 0x14 DUP2 GT ISZERO PUSH2 0x14BA JUMPI PUSH2 0x14B9 PUSH2 0x4E25 JUMP JUMPDEST JUMPDEST DUP6 DUP6 DUP4 DUP2 DUP2 LT PUSH2 0x14CD JUMPI PUSH2 0x14CC PUSH2 0x5136 JUMP JUMPDEST JUMPDEST SWAP1 POP PUSH1 0x20 MUL DUP2 ADD SWAP1 PUSH2 0x14DF SWAP2 SWAP1 PUSH2 0x52D7 JUMP JUMPDEST PUSH1 0x40 ADD PUSH1 0x20 DUP2 ADD SWAP1 PUSH2 0x14F1 SWAP2 SWAP1 PUSH2 0x5324 JUMP JUMPDEST PUSH1 0x14 DUP2 GT ISZERO PUSH2 0x1503 JUMPI PUSH2 0x1502 PUSH2 0x4E25 JUMP JUMPDEST JUMPDEST SUB PUSH2 0x16E0 JUMPI PUSH1 0x3 DUP6 DUP6 DUP4 DUP2 DUP2 LT PUSH2 0x151D JUMPI PUSH2 0x151C PUSH2 0x5136 JUMP JUMPDEST JUMPDEST SWAP1 POP PUSH1 0x20 MUL DUP2 ADD SWAP1 PUSH2 0x152F SWAP2 SWAP1 PUSH2 0x52D7 JUMP JUMPDEST DUP1 PUSH1 0x20 ADD SWAP1 PUSH2 0x153E SWAP2 SWAP1 PUSH2 0x5351 JUMP JUMPDEST SWAP1 POP EQ PUSH2 0x1580 JUMPI PUSH1 0x40 MLOAD PUSH32 0x8C379A000000000000000000000000000000000000000000000000000000000 DUP2 MSTORE PUSH1 0x4 ADD PUSH2 0x1577 SWAP1 PUSH2 0x54A3 JUMP JUMPDEST PUSH1 0x40 MLOAD DUP1 SWAP2 SUB SWAP1 REVERT JUMPDEST PUSH1 0x1 ISZERO ISZERO PUSH2 0x169D DUP7 DUP7 DUP5 DUP2 DUP2 LT PUSH2 0x159A JUMPI PUSH2 0x1599 PUSH2 0x5136 JUMP JUMPDEST JUMPDEST SWAP1 POP PUSH1 0x20 MUL DUP2 ADD SWAP1 PUSH2 0x15AC SWAP2 SWAP1 PUSH2 0x52D7 JUMP JUMPDEST DUP1 PUSH1 0x20 ADD SWAP1 PUSH2 0x15BB SWAP2 SWAP1 PUSH2 0x5351 JUMP JUMPDEST PUSH1 0x0 DUP2 DUP2 LT PUSH2 0x15CD JUMPI PUSH2 0x15CC PUSH2 0x5136 JUMP JUMPDEST JUMPDEST SWAP1 POP PUSH1 0x20 MUL ADD PUSH1 0x20 DUP2 ADD SWAP1 PUSH2 0x15E2 SWAP2 SWAP1 PUSH2 0x4B66 JUMP JUMPDEST DUP8 DUP8 DUP6 DUP2 DUP2 LT PUSH2 0x15F5 JUMPI PUSH2 0x15F4 PUSH2 0x5136 JUMP JUMPDEST JUMPDEST SWAP1 POP PUSH1 0x20 MUL DUP2 ADD SWAP1 PUSH2 0x1607 SWAP2 SWAP1 PUSH2 0x52D7 JUMP JUMPDEST DUP1 PUSH1 0x20 ADD SWAP1 PUSH2 0x1616 SWAP2 SWAP1 PUSH2 0x5351 JUMP JUMPDEST PUSH1 0x1 DUP2 DUP2 LT PUSH2 0x1628 JUMPI PUSH2 0x1627 PUSH2 0x5136 JUMP JUMPDEST JUMPDEST SWAP1 POP PUSH1 0x20 MUL ADD PUSH1 0x20 DUP2 ADD SWAP1 PUSH2 0x163D SWAP2 SWAP1 PUSH2 0x4B66 JUMP JUMPDEST DUP9 DUP9 DUP7 DUP2 DUP2 LT PUSH2 0x1650 JUMPI PUSH2 0x164F PUSH2 0x5136 JUMP JUMPDEST JUMPDEST SWAP1 POP PUSH1 0x20 MUL DUP2 ADD SWAP1 PUSH2 0x1662 SWAP2 SWAP1 PUSH2 0x52D7 JUMP JUMPDEST DUP1 PUSH1 0x20 ADD SWAP1 PUSH2 0x1671 SWAP2 SWAP1 PUSH2 0x5351 JUMP JUMPDEST PUSH1 0x2 DUP2 DUP2 LT PUSH2 0x1683 JUMPI PUSH2 0x1682 PUSH2 0x5136 JUMP JUMPDEST JUMPDEST SWAP1 POP PUSH1 0x20 MUL ADD PUSH1 0x20 DUP2 ADD SWAP1 PUSH2 0x1698 SWAP2 SWAP1 PUSH2 0x4B66 JUMP JUMPDEST PUSH2 0x242A JUMP JUMPDEST ISZERO ISZERO EQ PUSH2 0x16DF JUMPI PUSH1 0x40 MLOAD PUSH32 0x8C379A000000000000000000000000000000000000000000000000000000000 DUP2 MSTORE PUSH1 0x4 ADD PUSH2 0x16D6 SWAP1 PUSH2 0x550F JUMP JUMPDEST PUSH1 0x40 MLOAD DUP1 SWAP2 SUB SWAP1 REVERT JUMPDEST JUMPDEST PUSH1 0x3 PUSH1 0x14 DUP2 GT ISZERO PUSH2 0x16F4 JUMPI PUSH2 0x16F3 PUSH2 0x4E25 JUMP JUMPDEST JUMPDEST DUP6 DUP6 DUP4 DUP2 DUP2 LT PUSH2 0x1707 JUMPI PUSH2 0x1706 PUSH2 0x5136 JUMP JUMPDEST JUMPDEST SWAP1 POP PUSH1 0x20 MUL DUP2 ADD SWAP1 PUSH2 0x1719 SWAP2 SWAP1 PUSH2 0x52D7 JUMP JUMPDEST PUSH1 0x40 ADD PUSH1 0x20 DUP2 ADD SWAP1 PUSH2 0x172B SWAP2 SWAP1 PUSH2 0x5324 JUMP JUMPDEST PUSH1 0x14 DUP2 GT ISZERO PUSH2 0x173D JUMPI PUSH2 0x173C PUSH2 0x4E25 JUMP JUMPDEST JUMPDEST SUB PUSH2 0x1803 JUMPI PUSH1 0xC DUP6 DUP6 DUP4 DUP2 DUP2 LT PUSH2 0x1757 JUMPI PUSH2 0x1756 PUSH2 0x5136 JUMP JUMPDEST JUMPDEST SWAP1 POP PUSH1 0x20 MUL DUP2 ADD SWAP1 PUSH2 0x1769 SWAP2 SWAP1 PUSH2 0x52D7 JUMP JUMPDEST DUP1 PUSH1 0x20 ADD SWAP1 PUSH2 0x1778 SWAP2 SWAP1 PUSH2 0x5351 JUMP JUMPDEST SWAP1 POP EQ PUSH2 0x17BA JUMPI PUSH1 0x40 MLOAD PUSH32 0x8C379A000000000000000000000000000000000000000000000000000000000 DUP2 MSTORE PUSH1 0x4 ADD PUSH2 0x17B1 SWAP1 PUSH2 0x54A3 JUMP JUMPDEST PUSH1 0x40 MLOAD DUP1 SWAP2 SUB SWAP1 REVERT JUMPDEST PUSH1 0x0 ISZERO ISZERO PUSH1 0x1 ISZERO ISZERO EQ PUSH2 0x1802 JUMPI PUSH1 0x40 MLOAD PUSH32 0x8C379A000000000000000000000000000000000000000000000000000000000 DUP2 MSTORE PUSH1 0x4 ADD PUSH2 0x17F9 SWAP1 PUSH2 0x557B JUMP JUMPDEST PUSH1 0x40 MLOAD DUP1 SWAP2 SUB SWAP1 REVERT JUMPDEST JUMPDEST PUSH1 0x4 PUSH1 0x14 DUP2 GT ISZERO PUSH2 0x1817 JUMPI PUSH2 0x1816 PUSH2 0x4E25 JUMP JUMPDEST JUMPDEST DUP6 DUP6 DUP4 DUP2 DUP2 LT PUSH2 0x182A JUMPI PUSH2 0x1829 PUSH2 0x5136 JUMP JUMPDEST JUMPDEST SWAP1 POP PUSH1 0x20 MUL DUP2 ADD SWAP1 PUSH2 0x183C SWAP2 SWAP1 PUSH2 0x52D7 JUMP JUMPDEST PUSH1 0x40 ADD PUSH1 0x20 DUP2 ADD SWAP1 PUSH2 0x184E SWAP2 SWAP1 PUSH2 0x5324 JUMP JUMPDEST PUSH1 0x14 DUP2 GT ISZERO PUSH2 0x1860 JUMPI PUSH2 0x185F PUSH2 0x4E25 JUMP JUMPDEST JUMPDEST SUB PUSH2 0x1926 JUMPI PUSH1 0x5 DUP6 DUP6 DUP4 DUP2 DUP2 LT PUSH2 0x187A JUMPI PUSH2 0x1879 PUSH2 0x5136 JUMP JUMPDEST JUMPDEST SWAP1 POP PUSH1 0x20 MUL DUP2 ADD SWAP1 PUSH2 0x188C SWAP2 SWAP1 PUSH2 0x52D7 JUMP JUMPDEST DUP1 PUSH1 0x20 ADD SWAP1 PUSH2 0x189B SWAP2 SWAP1 PUSH2 0x5351 JUMP JUMPDEST SWAP1 POP EQ PUSH2 0x18DD JUMPI PUSH1 0x40 MLOAD PUSH32 0x8C379A000000000000000000000000000000000000000000000000000000000 DUP2 MSTORE PUSH1 0x4 ADD PUSH2 0x18D4 SWAP1 PUSH2 0x54A3 JUMP JUMPDEST PUSH1 0x40 MLOAD DUP1 SWAP2 SUB SWAP1 REVERT JUMPDEST PUSH1 0x0 ISZERO ISZERO PUSH1 0x1 ISZERO ISZERO EQ PUSH2 0x1925 JUMPI PUSH1 0x40 MLOAD PUSH32 0x8C379A000000000000000000000000000000000000000000000000000000000 DUP2 MSTORE PUSH1 0x4 ADD PUSH2 0x191C SWAP1 PUSH2 0x557B JUMP JUMPDEST PUSH1 0x40 MLOAD DUP1 SWAP2 SUB SWAP1 REVERT JUMPDEST JUMPDEST PUSH1 0x5 PUSH1 0x14 DUP2 GT ISZERO PUSH2 0x193A JUMPI PUSH2 0x1939 PUSH2 0x4E25 JUMP JUMPDEST JUMPDEST DUP6 DUP6 DUP4 DUP2 DUP2 LT PUSH2 0x194D JUMPI PUSH2 0x194C PUSH2 0x5136 JUMP JUMPDEST JUMPDEST SWAP1 POP PUSH1 0x20 MUL DUP2 ADD SWAP1 PUSH2 0x195F SWAP2 SWAP1 PUSH2 0x52D7 JUMP JUMPDEST PUSH1 0x40 ADD PUSH1 0x20 DUP2 ADD SWAP1 PUSH2 0x1971 SWAP2 SWAP1 PUSH2 0x5324 JUMP JUMPDEST PUSH1 0x14 DUP2 GT ISZERO PUSH2 0x1983 JUMPI PUSH2 0x1982 PUSH2 0x4E25 JUMP JUMPDEST JUMPDEST SUB PUSH2 0x1B05 JUMPI PUSH1 0x2 DUP6 DUP6 DUP4 DUP2 DUP2 LT PUSH2 0x199D JUMPI PUSH2 0x199C PUSH2 0x5136 JUMP JUMPDEST JUMPDEST SWAP1 POP PUSH1 0x20 MUL DUP2 ADD SWAP1 PUSH2 0x19AF SWAP2 SWAP1 PUSH2 0x52D7 JUMP JUMPDEST DUP1 PUSH1 0x20 ADD SWAP1 PUSH2 0x19BE SWAP2 SWAP1 PUSH2 0x5351 JUMP JUMPDEST SWAP1 POP EQ PUSH2 0x1A00 JUMPI PUSH1 0x40 MLOAD PUSH32 0x8C379A000000000000000000000000000000000000000000000000000000000 DUP2 MSTORE PUSH1 0x4 ADD PUSH2 0x19F7 SWAP1 PUSH2 0x54A3 JUMP JUMPDEST PUSH1 0x40 MLOAD DUP1 SWAP2 SUB SWAP1 REVERT JUMPDEST PUSH1 0x1 ISZERO ISZERO PUSH2 0x1AC2 DUP7 DUP7 DUP5 DUP2 DUP2 LT PUSH2 0x1A1A JUMPI PUSH2 0x1A19 PUSH2 0x5136 JUMP JUMPDEST JUMPDEST SWAP1 POP PUSH1 0x20 MUL DUP2 ADD SWAP1 PUSH2 0x1A2C SWAP2 SWAP1 PUSH2 0x52D7 JUMP JUMPDEST DUP1 PUSH1 0x20 ADD SWAP1 PUSH2 0x1A3B SWAP2 SWAP1 PUSH2 0x5351 JUMP JUMPDEST PUSH1 0x0 DUP2 DUP2 LT PUSH2 0x1A4D JUMPI PUSH2 0x1A4C PUSH2 0x5136 JUMP JUMPDEST JUMPDEST SWAP1 POP PUSH1 0x20 MUL ADD PUSH1 0x20 DUP2 ADD SWAP1 PUSH2 0x1A62 SWAP2 SWAP1 PUSH2 0x4B66 JUMP JUMPDEST DUP8 DUP8 DUP6 DUP2 DUP2 LT PUSH2 0x1A75 JUMPI PUSH2 0x1A74 PUSH2 0x5136 JUMP JUMPDEST JUMPDEST SWAP1 POP PUSH1 0x20 MUL DUP2 ADD SWAP1 PUSH2 0x1A87 SWAP2 SWAP1 PUSH2 0x52D7 JUMP JUMPDEST DUP1 PUSH1 0x20 ADD SWAP1 PUSH2 0x1A96 SWAP2 SWAP1 PUSH2 0x5351 JUMP JUMPDEST PUSH1 0x1 DUP2 DUP2 LT PUSH2 0x1AA8 JUMPI PUSH2 0x1AA7 PUSH2 0x5136 JUMP JUMPDEST JUMPDEST SWAP1 POP PUSH1 0x20 MUL ADD PUSH1 0x20 DUP2 ADD SWAP1 PUSH2 0x1ABD SWAP2 SWAP1 PUSH2 0x4B66 JUMP JUMPDEST PUSH2 0x96C JUMP JUMPDEST ISZERO ISZERO EQ PUSH2 0x1B04 JUMPI PUSH1 0x40 MLOAD PUSH32 0x8C379A000000000000000000000000000000000000000000000000000000000 DUP2 MSTORE PUSH1 0x4 ADD PUSH2 0x1AFB SWAP1 PUSH2 0x550F JUMP JUMPDEST PUSH1 0x40 MLOAD DUP1 SWAP2 SUB SWAP1 REVERT JUMPDEST JUMPDEST PUSH1 0x6 PUSH1 0x14 DUP2 GT ISZERO PUSH2 0x1B19 JUMPI PUSH2 0x1B18 PUSH2 0x4E25 JUMP JUMPDEST JUMPDEST DUP6 DUP6 DUP4 DUP2 DUP2 LT PUSH2 0x1B2C JUMPI PUSH2 0x1B2B PUSH2 0x5136 JUMP JUMPDEST JUMPDEST SWAP1 POP PUSH1 0x20 MUL DUP2 ADD SWAP1 PUSH2 0x1B3E SWAP2 SWAP1 PUSH2 0x52D7 JUMP JUMPDEST PUSH1 0x40 ADD PUSH1 0x20 DUP2 ADD SWAP1 PUSH2 0x1B50 SWAP2 SWAP1 PUSH2 0x5324 JUMP JUMPDEST PUSH1 0x14 DUP2 GT ISZERO PUSH2 0x1B62 JUMPI PUSH2 0x1B61 PUSH2 0x4E25 JUMP JUMPDEST JUMPDEST SUB PUSH2 0x1CA2 JUMPI PUSH1 0x4 DUP6 DUP6 DUP4 DUP2 DUP2 LT PUSH2 0x1B7C JUMPI PUSH2 0x1B7B PUSH2 0x5136 JUMP JUMPDEST JUMPDEST SWAP1 POP PUSH1 0x20 MUL DUP2 ADD SWAP1 PUSH2 0x1B8E SWAP2 SWAP1 PUSH2 0x52D7 JUMP JUMPDEST DUP1 PUSH1 0x20 ADD SWAP1 PUSH2 0x1B9D SWAP2 SWAP1 PUSH2 0x5351 JUMP JUMPDEST SWAP1 POP EQ PUSH2 0x1BDF JUMPI PUSH1 0x40 MLOAD PUSH32 0x8C379A000000000000000000000000000000000000000000000000000000000 DUP2 MSTORE PUSH1 0x4 ADD PUSH2 0x1BD6 SWAP1 PUSH2 0x54A3 JUMP JUMPDEST PUSH1 0x40 MLOAD DUP1 SWAP2 SUB SWAP1 REVERT JUMPDEST PUSH1 0x1 ISZERO ISZERO PUSH2 0x1C5F DUP7 DUP7 DUP5 DUP2 DUP2 LT PUSH2 0x1BF9 JUMPI PUSH2 0x1BF8 PUSH2 0x5136 JUMP JUMPDEST JUMPDEST SWAP1 POP PUSH1 0x20 MUL DUP2 ADD SWAP1 PUSH2 0x1C0B SWAP2 SWAP1 PUSH2 0x52D7 JUMP JUMPDEST DUP1 PUSH1 0x20 ADD SWAP1 PUSH2 0x1C1A SWAP2 SWAP1 PUSH2 0x5351 JUMP JUMPDEST DUP1 DUP1 PUSH1 0x20 MUL PUSH1 0x20 ADD PUSH1 0x40 MLOAD SWAP1 DUP2 ADD PUSH1 0x40 MSTORE DUP1 SWAP4 SWAP3 SWAP2 SWAP1 DUP2 DUP2 MSTORE PUSH1 0x20 ADD DUP4 DUP4 PUSH1 0x20 MUL DUP1 DUP3 DUP5 CALLDATACOPY PUSH1 0x0 DUP2 DUP5 ADD MSTORE PUSH1 0x1F NOT PUSH1 0x1F DUP3 ADD AND SWAP1 POP DUP1 DUP4 ADD SWAP3 POP POP POP POP POP POP POP PUSH2 0xC52 JUMP JUMPDEST ISZERO ISZERO EQ PUSH2 0x1CA1 JUMPI PUSH1 0x40 MLOAD PUSH32 0x8C379A000000000000000000000000000000000000000000000000000000000 DUP2 MSTORE PUSH1 0x4 ADD PUSH2 0x1C98 SWAP1 PUSH2 0x550F JUMP JUMPDEST PUSH1 0x40 MLOAD DUP1 SWAP2 SUB SWAP1 REVERT JUMPDEST JUMPDEST PUSH1 0x7 PUSH1 0x14 DUP2 GT ISZERO PUSH2 0x1CB6 JUMPI PUSH2 0x1CB5 PUSH2 0x4E25 JUMP JUMPDEST JUMPDEST DUP6 DUP6 DUP4 DUP2 DUP2 LT PUSH2 0x1CC9 JUMPI PUSH2 0x1CC8 PUSH2 0x5136 JUMP JUMPDEST JUMPDEST SWAP1 POP PUSH1 0x20 MUL DUP2 ADD SWAP1 PUSH2 0x1CDB SWAP2 SWAP1 PUSH2 0x52D7 JUMP JUMPDEST PUSH1 0x40 ADD PUSH1 0x20 DUP2 ADD SWAP1 PUSH2 0x1CED SWAP2 SWAP1 PUSH2 0x5324 JUMP JUMPDEST PUSH1 0x14 DUP2 GT ISZERO PUSH2 0x1CFF JUMPI PUSH2 0x1CFE PUSH2 0x4E25 JUMP JUMPDEST JUMPDEST SUB PUSH2 0x1E3F JUMPI PUSH1 0x6 DUP6 DUP6 DUP4 DUP2 DUP2 LT PUSH2 0x1D19 JUMPI PUSH2 0x1D18 PUSH2 0x5136 JUMP JUMPDEST JUMPDEST SWAP1 POP PUSH1 0x20 MUL DUP2 ADD SWAP1 PUSH2 0x1D2B SWAP2 SWAP1 PUSH2 0x52D7 JUMP JUMPDEST DUP1 PUSH1 0x20 ADD SWAP1 PUSH2 0x1D3A SWAP2 SWAP1 PUSH2 0x5351 JUMP JUMPDEST SWAP1 POP EQ PUSH2 0x1D7C JUMPI PUSH1 0x40 MLOAD PUSH32 0x8C379A000000000000000000000000000000000000000000000000000000000 DUP2 MSTORE PUSH1 0x4 ADD PUSH2 0x1D73 SWAP1 PUSH2 0x54A3 JUMP JUMPDEST PUSH1 0x40 MLOAD DUP1 SWAP2 SUB SWAP1 REVERT JUMPDEST PUSH1 0x1 ISZERO ISZERO PUSH2 0x1DFC DUP7 DUP7 DUP5 DUP2 DUP2 LT PUSH2 0x1D96 JUMPI PUSH2 0x1D95 PUSH2 0x5136 JUMP JUMPDEST JUMPDEST SWAP1 POP PUSH1 0x20 MUL DUP2 ADD SWAP1 PUSH2 0x1DA8 SWAP2 SWAP1 PUSH2 0x52D7 JUMP JUMPDEST DUP1 PUSH1 0x20 ADD SWAP1 PUSH2 0x1DB7 SWAP2 SWAP1 PUSH2 0x5351 JUMP JUMPDEST DUP1 DUP1 PUSH1 0x20 MUL PUSH1 0x20 ADD PUSH1 0x40 MLOAD SWAP1 DUP2 ADD PUSH1 0x40 MSTORE DUP1 SWAP4 SWAP3 SWAP2 SWAP1 DUP2 DUP2 MSTORE PUSH1 0x20 ADD DUP4 DUP4 PUSH1 0x20 MUL DUP1 DUP3 DUP5 CALLDATACOPY PUSH1 0x0 DUP2 DUP5 ADD MSTORE PUSH1 0x1F NOT PUSH1 0x1F DUP3 ADD AND SWAP1 POP DUP1 DUP4 ADD SWAP3 POP POP POP POP POP POP POP PUSH2 0x6F1 JUMP JUMPDEST ISZERO ISZERO EQ PUSH2 0x1E3E JUMPI PUSH1 0x40 MLOAD PUSH32 0x8C379A000000000000000000000000000000000000000000000000000000000 DUP2 MSTORE PUSH1 0x4 ADD PUSH2 0x1E35 SWAP1 PUSH2 0x550F JUMP JUMPDEST PUSH1 0x40 MLOAD DUP1 SWAP2 SUB SWAP1 REVERT JUMPDEST JUMPDEST PUSH1 0x8 PUSH1 0x14 DUP2 GT ISZERO PUSH2 0x1E53 JUMPI PUSH2 0x1E52 PUSH2 0x4E25 JUMP JUMPDEST JUMPDEST DUP6 DUP6 DUP4 DUP2 DUP2 LT PUSH2 0x1E66 JUMPI PUSH2 0x1E65 PUSH2 0x5136 JUMP JUMPDEST JUMPDEST SWAP1 POP PUSH1 0x20 MUL DUP2 ADD SWAP1 PUSH2 0x1E78 SWAP2 SWAP1 PUSH2 0x52D7 JUMP JUMPDEST PUSH1 0x40 ADD PUSH1 0x20 DUP2 ADD SWAP1 PUSH2 0x1E8A SWAP2 SWAP1 PUSH2 0x5324 JUMP JUMPDEST PUSH1 0x14 DUP2 GT ISZERO PUSH2 0x1E9C JUMPI PUSH2 0x1E9B PUSH2 0x4E25 JUMP JUMPDEST JUMPDEST SUB PUSH2 0x1F1A JUMPI PUSH1 0x1 DUP6 DUP6 DUP4 DUP2 DUP2 LT PUSH2 0x1EB6 JUMPI PUSH2 0x1EB5 PUSH2 0x5136 JUMP JUMPDEST JUMPDEST SWAP1 POP PUSH1 0x20 MUL DUP2 ADD SWAP1 PUSH2 0x1EC8 SWAP2 SWAP1 PUSH2 0x52D7 JUMP JUMPDEST DUP1 PUSH1 0x20 ADD SWAP1 PUSH2 0x1ED7 SWAP2 SWAP1 PUSH2 0x5351 JUMP JUMPDEST SWAP1 POP EQ PUSH2 0x1F19 JUMPI PUSH1 0x40 MLOAD PUSH32 0x8C379A000000000000000000000000000000000000000000000000000000000 DUP2 MSTORE PUSH1 0x4 ADD PUSH2 0x1F10 SWAP1 PUSH2 0x54A3 JUMP JUMPDEST PUSH1 0x40 MLOAD DUP1 SWAP2 SUB SWAP1 REVERT JUMPDEST JUMPDEST DUP5 DUP5 DUP3 DUP2 DUP2 LT PUSH2 0x1F2D JUMPI PUSH2 0x1F2C PUSH2 0x5136 JUMP JUMPDEST JUMPDEST SWAP1 POP PUSH1 0x20 MUL DUP2 ADD SWAP1 PUSH2 0x1F3F SWAP2 SWAP1 PUSH2 0x52D7 JUMP JUMPDEST PUSH1 0x0 ADD CALLDATALOAD DUP3 PUSH2 0x1F4E SWAP2 SWAP1 PUSH2 0x559B JUMP JUMPDEST SWAP2 POP DUP1 DUP1 PUSH1 0x1 ADD SWAP2 POP POP PUSH2 0xE9F JUMP JUMPDEST POP PUSH1 0x0 PUSH2 0x2710 PUSH1 0x2 PUSH1 0x14 SWAP1 SLOAD SWAP1 PUSH2 0x100 EXP SWAP1 DIV PUSH1 0xFF AND PUSH1 0xFF AND DUP4 PUSH2 0x1F81 SWAP2 SWAP1 PUSH2 0x55CF JUMP JUMPDEST PUSH2 0x1F8B SWAP2 SWAP1 PUSH2 0x5611 JUMP JUMPDEST SWAP1 POP DUP1 PUSH1 0x9 PUSH1 0x0 DUP3 DUP3 SLOAD PUSH2 0x1F9F SWAP2 SWAP1 PUSH2 0x559B JUMP JUMPDEST SWAP3 POP POP DUP2 SWAP1 SSTORE POP PUSH1 0x24 DUP3 PUSH2 0x1FB3 SWAP2 SWAP1 PUSH2 0x55CF JUMP JUMPDEST PUSH1 0x9 SLOAD PUSH1 0x2 PUSH1 0x0 SWAP1 SLOAD SWAP1 PUSH2 0x100 EXP SWAP1 DIV PUSH20 0xFFFFFFFFFFFFFFFFFFFFFFFFFFFFFFFFFFFFFFFF AND PUSH20 0xFFFFFFFFFFFFFFFFFFFFFFFFFFFFFFFFFFFFFFFF AND PUSH4 0x70A08231 ADDRESS PUSH1 0x40 MLOAD DUP3 PUSH4 0xFFFFFFFF AND PUSH1 0xE0 SHL DUP2 MSTORE PUSH1 0x4 ADD PUSH2 0x2011 SWAP2 SWAP1 PUSH2 0x4ED4 JUMP JUMPDEST PUSH1 0x20 PUSH1 0x40 MLOAD DUP1 DUP4 SUB DUP2 DUP7 GAS STATICCALL ISZERO DUP1 ISZERO PUSH2 0x202E JUMPI RETURNDATASIZE PUSH1 0x0 DUP1 RETURNDATACOPY RETURNDATASIZE PUSH1 0x0 REVERT JUMPDEST POP POP POP POP PUSH1 0x40 MLOAD RETURNDATASIZE PUSH1 0x1F NOT PUSH1 0x1F DUP3 ADD AND DUP3 ADD DUP1 PUSH1 0x40 MSTORE POP DUP2 ADD SWAP1 PUSH2 0x2052 SWAP2 SWAP1 PUSH2 0x5657 JUMP JUMPDEST PUSH2 0x205C SWAP2 SWAP1 PUSH2 0x5684 JUMP JUMPDEST LT ISZERO PUSH2 0x209D JUMPI PUSH1 0x40 MLOAD PUSH32 0x8C379A000000000000000000000000000000000000000000000000000000000 DUP2 MSTORE PUSH1 0x4 ADD PUSH2 0x2094 SWAP1 PUSH2 0x572A JUMP JUMPDEST PUSH1 0x40 MLOAD DUP1 SWAP2 SUB SWAP1 REVERT JUMPDEST PUSH1 0x2 PUSH1 0x0 SWAP1 SLOAD SWAP1 PUSH2 0x100 EXP SWAP1 DIV PUSH20 0xFFFFFFFFFFFFFFFFFFFFFFFFFFFFFFFFFFFFFFFF AND PUSH20 0xFFFFFFFFFFFFFFFFFFFFFFFFFFFFFFFFFFFFFFFF AND PUSH4 0x23B872DD CALLER ADDRESS DUP6 PUSH1 0x40 MLOAD DUP5 PUSH4 0xFFFFFFFF AND PUSH1 0xE0 SHL DUP2 MSTORE PUSH1 0x4 ADD PUSH2 0x20FC SWAP4 SWAP3 SWAP2 SWAP1 PUSH2 0x574A JUMP JUMPDEST PUSH1 0x20 PUSH1 0x40 MLOAD DUP1 DUP4 SUB DUP2 PUSH1 0x0 DUP8 GAS CALL ISZERO DUP1 ISZERO PUSH2 0x211B JUMPI RETURNDATASIZE PUSH1 0x0 DUP1 RETURNDATACOPY RETURNDATASIZE PUSH1 0x0 REVERT JUMPDEST POP POP POP POP PUSH1 0x40 MLOAD RETURNDATASIZE PUSH1 0x1F NOT PUSH1 0x1F DUP3 ADD AND DUP3 ADD DUP1 PUSH1 0x40 MSTORE POP DUP2 ADD SWAP1 PUSH2 0x213F SWAP2 SWAP1 PUSH2 0x57AD JUMP JUMPDEST POP PUSH1 0x0 PUSH2 0x215C PUSH1 0x40 MLOAD DUP1 PUSH1 0x20 ADD PUSH1 0x40 MSTORE DUP1 PUSH1 0x1 ISZERO ISZERO DUP2 MSTORE POP PUSH2 0x393C JUMP JUMPDEST SWAP1 POP PUSH1 0x0 DUP1 PUSH2 0x2172 PUSH3 0x186A0 PUSH1 0x3 PUSH1 0x1 DUP7 PUSH2 0x39D4 JUMP JUMPDEST DUP1 SWAP3 POP DUP2 SWAP4 POP POP POP PUSH1 0x0 JUMPDEST DUP9 DUP9 SWAP1 POP DUP2 LT ISZERO PUSH2 0x2204 JUMPI PUSH1 0x6 PUSH1 0x0 DUP5 DUP2 MSTORE PUSH1 0x20 ADD SWAP1 DUP2 MSTORE PUSH1 0x20 ADD PUSH1 0x0 KECCAK256 DUP10 DUP10 DUP4 DUP2 DUP2 LT PUSH2 0x21AE JUMPI PUSH2 0x21AD PUSH2 0x5136 JUMP JUMPDEST JUMPDEST SWAP1 POP PUSH1 0x20 MUL DUP2 ADD SWAP1 PUSH2 0x21C0 SWAP2 SWAP1 PUSH2 0x52D7 JUMP JUMPDEST SWAP1 DUP1 PUSH1 0x1 DUP2 SLOAD ADD DUP1 DUP3 SSTORE DUP1 SWAP2 POP POP PUSH1 0x1 SWAP1 SUB SWAP1 PUSH1 0x0 MSTORE PUSH1 0x20 PUSH1 0x0 KECCAK256 SWAP1 PUSH1 0x3 MUL ADD PUSH1 0x0 SWAP1 SWAP2 SWAP1 SWAP2 SWAP1 SWAP2 POP DUP2 DUP2 PUSH2 0x21F5 SWAP2 SWAP1 PUSH2 0x5CBF JUMP JUMPDEST POP POP DUP1 DUP1 PUSH1 0x1 ADD SWAP2 POP POP PUSH2 0x217D JUMP JUMPDEST POP CALLER PUSH1 0x7 PUSH1 0x0 DUP5 DUP2 MSTORE PUSH1 0x20 ADD SWAP1 DUP2 MSTORE PUSH1 0x20 ADD PUSH1 0x0 KECCAK256 PUSH1 0x0 PUSH2 0x100 EXP DUP2 SLOAD DUP2 PUSH20 0xFFFFFFFFFFFFFFFFFFFFFFFFFFFFFFFFFFFFFFFF MUL NOT AND SWAP1 DUP4 PUSH20 0xFFFFFFFFFFFFFFFFFFFFFFFFFFFFFFFFFFFFFFFF AND MUL OR SWAP1 SSTORE POP PUSH32 0xA1E65B062E40809F80439A4691BE6294420CAC1C300E5430FA259AAD2A0D53FC DUP3 DUP3 PUSH1 0x40 MLOAD PUSH2 0x2288 SWAP3 SWAP2 SWAP1 PUSH2 0x5CCD JUMP JUMPDEST PUSH1 0x40 MLOAD DUP1 SWAP2 SUB SWAP1 LOG1 PUSH32 0x77444CD969F2B804EA091B5F3C08BB5A20D3C97ED9C8660CFA9B1EA050FF6E1A DUP5 PUSH1 0x40 MLOAD PUSH2 0x22BF SWAP2 SWAP1 PUSH2 0x4DCA JUMP JUMPDEST PUSH1 0x40 MLOAD DUP1 SWAP2 SUB SWAP1 LOG1 DUP2 SWAP6 POP POP POP POP POP POP SWAP3 SWAP2 POP POP JUMP JUMPDEST PUSH2 0x22DD PUSH2 0x2F76 JUMP JUMPDEST PUSH32 0x457E4FE0C9F161A0C6F3BFB8D7809A4AC19F6291BD81B03B86B0D00F9AF3717B CALLER DUP4 DUP4 PUSH1 0x40 MLOAD PUSH2 0x2310 SWAP4 SWAP3 SWAP2 SWAP1 PUSH2 0x574A JUMP JUMPDEST PUSH1 0x40 MLOAD DUP1 SWAP2 SUB SWAP1 LOG1 PUSH1 0x0 PUSH20 0xFFFFFFFFFFFFFFFFFFFFFFFFFFFFFFFFFFFFFFFF AND DUP3 PUSH20 0xFFFFFFFFFFFFFFFFFFFFFFFFFFFFFFFFFFFFFFFF AND SUB PUSH2 0x239F JUMPI PUSH2 0x2354 PUSH2 0xE37 JUMP JUMPDEST PUSH20 0xFFFFFFFFFFFFFFFFFFFFFFFFFFFFFFFFFFFFFFFF AND PUSH2 0x8FC DUP3 SWAP1 DUP2 ISZERO MUL SWAP1 PUSH1 0x40 MLOAD PUSH1 0x0 PUSH1 0x40 MLOAD DUP1 DUP4 SUB DUP2 DUP6 DUP9 DUP9 CALL SWAP4 POP POP POP POP ISZERO DUP1 ISZERO PUSH2 0x2399 JUMPI RETURNDATASIZE PUSH1 0x0 DUP1 RETURNDATACOPY RETURNDATASIZE PUSH1 0x0 REVERT JUMPDEST POP PUSH2 0x2426 JUMP JUMPDEST DUP2 PUSH20 0xFFFFFFFFFFFFFFFFFFFFFFFFFFFFFFFFFFFFFFFF AND PUSH4 0xA9059CBB PUSH2 0x23C3 PUSH2 0xE37 JUMP JUMPDEST DUP4 PUSH1 0x40 MLOAD DUP4 PUSH4 0xFFFFFFFF AND PUSH1 0xE0 SHL DUP2 MSTORE PUSH1 0x4 ADD PUSH2 0x23E1 SWAP3 SWAP2 SWAP1 PUSH2 0x5CF6 JUMP JUMPDEST PUSH1 0x20 PUSH1 0x40 MLOAD DUP1 DUP4 SUB DUP2 PUSH1 0x0 DUP8 GAS CALL ISZERO DUP1 ISZERO PUSH2 0x2400 JUMPI RETURNDATASIZE PUSH1 0x0 DUP1 RETURNDATACOPY RETURNDATASIZE PUSH1 0x0 REVERT JUMPDEST POP POP POP POP PUSH1 0x40 MLOAD RETURNDATASIZE PUSH1 0x1F NOT PUSH1 0x1F DUP3 ADD AND DUP3 ADD DUP1 PUSH1 0x40 MSTORE POP DUP2 ADD SWAP1 PUSH2 0x2424 SWAP2 SWAP1 PUSH2 0x57AD JUMP JUMPDEST POP JUMPDEST POP POP JUMP JUMPDEST PUSH1 0x0 DUP1 PUSH1 0x0 SWAP1 POP JUMPDEST PUSH1 0x3 DUP1 SLOAD SWAP1 POP DUP2 PUSH1 0xFF AND LT ISZERO PUSH2 0x2AAB JUMPI PUSH1 0x3 DUP2 PUSH1 0xFF AND DUP2 SLOAD DUP2 LT PUSH2 0x2459 JUMPI PUSH2 0x2458 PUSH2 0x5136 JUMP JUMPDEST JUMPDEST SWAP1 PUSH1 0x0 MSTORE PUSH1 0x20 PUSH1 0x0 KECCAK256 ADD PUSH1 0x0 PUSH1 0x3 DUP2 LT PUSH2 0x2476 JUMPI PUSH2 0x2475 PUSH2 0x5136 JUMP JUMPDEST JUMPDEST PUSH1 0x20 SWAP2 DUP3 DUP3 DIV ADD SWAP2 SWAP1 MOD SWAP1 SLOAD SWAP1 PUSH2 0x100 EXP SWAP1 DIV PUSH1 0xFF AND PUSH1 0xFF AND DUP6 PUSH1 0xFF AND EQ DUP1 ISZERO PUSH2 0x24EE JUMPI POP PUSH1 0x3 DUP2 PUSH1 0xFF AND DUP2 SLOAD DUP2 LT PUSH2 0x24B2 JUMPI PUSH2 0x24B1 PUSH2 0x5136 JUMP JUMPDEST JUMPDEST SWAP1 PUSH1 0x0 MSTORE PUSH1 0x20 PUSH1 0x0 KECCAK256 ADD PUSH1 0x1 PUSH1 0x3 DUP2 LT PUSH2 0x24CF JUMPI PUSH2 0x24CE PUSH2 0x5136 JUMP JUMPDEST JUMPDEST PUSH1 0x20 SWAP2 DUP3 DUP3 DIV ADD SWAP2 SWAP1 MOD SWAP1 SLOAD SWAP1 PUSH2 0x100 EXP SWAP1 DIV PUSH1 0xFF AND PUSH1 0xFF AND DUP5 PUSH1 0xFF AND EQ JUMPDEST DUP1 ISZERO PUSH2 0x2548 JUMPI POP PUSH1 0x3 DUP2 PUSH1 0xFF AND DUP2 SLOAD DUP2 LT PUSH2 0x250C JUMPI PUSH2 0x250B PUSH2 0x5136 JUMP JUMPDEST JUMPDEST SWAP1 PUSH1 0x0 MSTORE PUSH1 0x20 PUSH1 0x0 KECCAK256 ADD PUSH1 0x2 PUSH1 0x3 DUP2 LT PUSH2 0x2529 JUMPI PUSH2 0x2528 PUSH2 0x5136 JUMP JUMPDEST JUMPDEST PUSH1 0x20 SWAP2 DUP3 DUP3 DIV ADD SWAP2 SWAP1 MOD SWAP1 SLOAD SWAP1 PUSH2 0x100 EXP SWAP1 DIV PUSH1 0xFF AND PUSH1 0xFF AND DUP4 PUSH1 0xFF AND EQ JUMPDEST DUP1 PUSH2 0x2655 JUMPI POP PUSH1 0x3 DUP2 PUSH1 0xFF AND DUP2 SLOAD DUP2 LT PUSH2 0x2565 JUMPI PUSH2 0x2564 PUSH2 0x5136 JUMP JUMPDEST JUMPDEST SWAP1 PUSH1 0x0 MSTORE PUSH1 0x20 PUSH1 0x0 KECCAK256 ADD PUSH1 0x0 PUSH1 0x3 DUP2 LT PUSH2 0x2582 JUMPI PUSH2 0x2581 PUSH2 0x5136 JUMP JUMPDEST JUMPDEST PUSH1 0x20 SWAP2 DUP3 DUP3 DIV ADD SWAP2 SWAP1 MOD SWAP1 SLOAD SWAP1 PUSH2 0x100 EXP SWAP1 DIV PUSH1 0xFF AND PUSH1 0xFF AND DUP6 PUSH1 0xFF AND EQ DUP1 ISZERO PUSH2 0x25FA JUMPI POP PUSH1 0x3 DUP2 PUSH1 0xFF AND DUP2 SLOAD DUP2 LT PUSH2 0x25BE JUMPI PUSH2 0x25BD PUSH2 0x5136 JUMP JUMPDEST JUMPDEST SWAP1 PUSH1 0x0 MSTORE PUSH1 0x20 PUSH1 0x0 KECCAK256 ADD PUSH1 0x1 PUSH1 0x3 DUP2 LT PUSH2 0x25DB JUMPI PUSH2 0x25DA PUSH2 0x5136 JUMP JUMPDEST JUMPDEST PUSH1 0x20 SWAP2 DUP3 DUP3 DIV ADD SWAP2 SWAP1 MOD SWAP1 SLOAD SWAP1 PUSH2 0x100 EXP SWAP1 DIV PUSH1 0xFF AND PUSH1 0xFF AND DUP4 PUSH1 0xFF AND EQ JUMPDEST DUP1 ISZERO PUSH2 0x2654 JUMPI POP PUSH1 0x3 DUP2 PUSH1 0xFF AND DUP2 SLOAD DUP2 LT PUSH2 0x2618 JUMPI PUSH2 0x2617 PUSH2 0x5136 JUMP JUMPDEST JUMPDEST SWAP1 PUSH1 0x0 MSTORE PUSH1 0x20 PUSH1 0x0 KECCAK256 ADD PUSH1 0x2 PUSH1 0x3 DUP2 LT PUSH2 0x2635 JUMPI PUSH2 0x2634 PUSH2 0x5136 JUMP JUMPDEST JUMPDEST PUSH1 0x20 SWAP2 DUP3 DUP3 DIV ADD SWAP2 SWAP1 MOD SWAP1 SLOAD SWAP1 PUSH2 0x100 EXP SWAP1 DIV PUSH1 0xFF AND PUSH1 0xFF AND DUP5 PUSH1 0xFF AND EQ JUMPDEST JUMPDEST DUP1 PUSH2 0x2762 JUMPI POP PUSH1 0x3 DUP2 PUSH1 0xFF AND DUP2 SLOAD DUP2 LT PUSH2 0x2672 JUMPI PUSH2 0x2671 PUSH2 0x5136 JUMP JUMPDEST JUMPDEST SWAP1 PUSH1 0x0 MSTORE PUSH1 0x20 PUSH1 0x0 KECCAK256 ADD PUSH1 0x0 PUSH1 0x3 DUP2 LT PUSH2 0x268F JUMPI PUSH2 0x268E PUSH2 0x5136 JUMP JUMPDEST JUMPDEST PUSH1 0x20 SWAP2 DUP3 DUP3 DIV ADD SWAP2 SWAP1 MOD SWAP1 SLOAD SWAP1 PUSH2 0x100 EXP SWAP1 DIV PUSH1 0xFF AND PUSH1 0xFF AND DUP5 PUSH1 0xFF AND EQ DUP1 ISZERO PUSH2 0x2707 JUMPI POP PUSH1 0x3 DUP2 PUSH1 0xFF AND DUP2 SLOAD DUP2 LT PUSH2 0x26CB JUMPI PUSH2 0x26CA PUSH2 0x5136 JUMP JUMPDEST JUMPDEST SWAP1 PUSH1 0x0 MSTORE PUSH1 0x20 PUSH1 0x0 KECCAK256 ADD PUSH1 0x1 PUSH1 0x3 DUP2 LT PUSH2 0x26E8 JUMPI PUSH2 0x26E7 PUSH2 0x5136 JUMP JUMPDEST JUMPDEST PUSH1 0x20 SWAP2 DUP3 DUP3 DIV ADD SWAP2 SWAP1 MOD SWAP1 SLOAD SWAP1 PUSH2 0x100 EXP SWAP1 DIV PUSH1 0xFF AND PUSH1 0xFF AND DUP6 PUSH1 0xFF AND EQ JUMPDEST DUP1 ISZERO PUSH2 0x2761 JUMPI POP PUSH1 0x3 DUP2 PUSH1 0xFF AND DUP2 SLOAD DUP2 LT PUSH2 0x2725 JUMPI PUSH2 0x2724 PUSH2 0x5136 JUMP JUMPDEST JUMPDEST SWAP1 PUSH1 0x0 MSTORE PUSH1 0x20 PUSH1 0x0 KECCAK256 ADD PUSH1 0x2 PUSH1 0x3 DUP2 LT PUSH2 0x2742 JUMPI PUSH2 0x2741 PUSH2 0x5136 JUMP JUMPDEST JUMPDEST PUSH1 0x20 SWAP2 DUP3 DUP3 DIV ADD SWAP2 SWAP1 MOD SWAP1 SLOAD SWAP1 PUSH2 0x100 EXP SWAP1 DIV PUSH1 0xFF AND PUSH1 0xFF AND DUP4 PUSH1 0xFF AND EQ JUMPDEST JUMPDEST DUP1 PUSH2 0x286F JUMPI POP PUSH1 0x3 DUP2 PUSH1 0xFF AND DUP2 SLOAD DUP2 LT PUSH2 0x277F JUMPI PUSH2 0x277E PUSH2 0x5136 JUMP JUMPDEST JUMPDEST SWAP1 PUSH1 0x0 MSTORE PUSH1 0x20 PUSH1 0x0 KECCAK256 ADD PUSH1 0x0 PUSH1 0x3 DUP2 LT PUSH2 0x279C JUMPI PUSH2 0x279B PUSH2 0x5136 JUMP JUMPDEST JUMPDEST PUSH1 0x20 SWAP2 DUP3 DUP3 DIV ADD SWAP2 SWAP1 MOD SWAP1 SLOAD SWAP1 PUSH2 0x100 EXP SWAP1 DIV PUSH1 0xFF AND PUSH1 0xFF AND DUP5 PUSH1 0xFF AND EQ DUP1 ISZERO PUSH2 0x2814 JUMPI POP PUSH1 0x3 DUP2 PUSH1 0xFF AND DUP2 SLOAD DUP2 LT PUSH2 0x27D8 JUMPI PUSH2 0x27D7 PUSH2 0x5136 JUMP JUMPDEST JUMPDEST SWAP1 PUSH1 0x0 MSTORE PUSH1 0x20 PUSH1 0x0 KECCAK256 ADD PUSH1 0x1 PUSH1 0x3 DUP2 LT PUSH2 0x27F5 JUMPI PUSH2 0x27F4 PUSH2 0x5136 JUMP JUMPDEST JUMPDEST PUSH1 0x20 SWAP2 DUP3 DUP3 DIV ADD SWAP2 SWAP1 MOD SWAP1 SLOAD SWAP1 PUSH2 0x100 EXP SWAP1 DIV PUSH1 0xFF AND PUSH1 0xFF AND DUP4 PUSH1 0xFF AND EQ JUMPDEST DUP1 ISZERO PUSH2 0x286E JUMPI POP PUSH1 0x3 DUP2 PUSH1 0xFF AND DUP2 SLOAD DUP2 LT PUSH2 0x2832 JUMPI PUSH2 0x2831 PUSH2 0x5136 JUMP JUMPDEST JUMPDEST SWAP1 PUSH1 0x0 MSTORE PUSH1 0x20 PUSH1 0x0 KECCAK256 ADD PUSH1 0x2 PUSH1 0x3 DUP2 LT PUSH2 0x284F JUMPI PUSH2 0x284E PUSH2 0x5136 JUMP JUMPDEST JUMPDEST PUSH1 0x20 SWAP2 DUP3 DUP3 DIV ADD SWAP2 SWAP1 MOD SWAP1 SLOAD SWAP1 PUSH2 0x100 EXP SWAP1 DIV PUSH1 0xFF AND PUSH1 0xFF AND DUP6 PUSH1 0xFF AND EQ JUMPDEST JUMPDEST DUP1 PUSH2 0x297C JUMPI POP PUSH1 0x3 DUP2 PUSH1 0xFF AND DUP2 SLOAD DUP2 LT PUSH2 0x288C JUMPI PUSH2 0x288B PUSH2 0x5136 JUMP JUMPDEST JUMPDEST SWAP1 PUSH1 0x0 MSTORE PUSH1 0x20 PUSH1 0x0 KECCAK256 ADD PUSH1 0x0 PUSH1 0x3 DUP2 LT PUSH2 0x28A9 JUMPI PUSH2 0x28A8 PUSH2 0x5136 JUMP JUMPDEST JUMPDEST PUSH1 0x20 SWAP2 DUP3 DUP3 DIV ADD SWAP2 SWAP1 MOD SWAP1 SLOAD SWAP1 PUSH2 0x100 EXP SWAP1 DIV PUSH1 0xFF AND PUSH1 0xFF AND DUP4 PUSH1 0xFF AND EQ DUP1 ISZERO PUSH2 0x2921 JUMPI POP PUSH1 0x3 DUP2 PUSH1 0xFF AND DUP2 SLOAD DUP2 LT PUSH2 0x28E5 JUMPI PUSH2 0x28E4 PUSH2 0x5136 JUMP JUMPDEST JUMPDEST SWAP1 PUSH1 0x0 MSTORE PUSH1 0x20 PUSH1 0x0 KECCAK256 ADD PUSH1 0x1 PUSH1 0x3 DUP2 LT PUSH2 0x2902 JUMPI PUSH2 0x2901 PUSH2 0x5136 JUMP JUMPDEST JUMPDEST PUSH1 0x20 SWAP2 DUP3 DUP3 DIV ADD SWAP2 SWAP1 MOD SWAP1 SLOAD SWAP1 PUSH2 0x100 EXP SWAP1 DIV PUSH1 0xFF AND PUSH1 0xFF AND DUP6 PUSH1 0xFF AND EQ JUMPDEST DUP1 ISZERO PUSH2 0x297B JUMPI POP PUSH1 0x3 DUP2 PUSH1 0xFF AND DUP2 SLOAD DUP2 LT PUSH2 0x293F JUMPI PUSH2 0x293E PUSH2 0x5136 JUMP JUMPDEST JUMPDEST SWAP1 PUSH1 0x0 MSTORE PUSH1 0x20 PUSH1 0x0 KECCAK256 ADD PUSH1 0x2 PUSH1 0x3 DUP2 LT PUSH2 0x295C JUMPI PUSH2 0x295B PUSH2 0x5136 JUMP JUMPDEST JUMPDEST PUSH1 0x20 SWAP2 DUP3 DUP3 DIV ADD SWAP2 SWAP1 MOD SWAP1 SLOAD SWAP1 PUSH2 0x100 EXP SWAP1 DIV PUSH1 0xFF AND PUSH1 0xFF AND DUP5 PUSH1 0xFF AND EQ JUMPDEST JUMPDEST DUP1 PUSH2 0x2A89 JUMPI POP PUSH1 0x3 DUP2 PUSH1 0xFF AND DUP2 SLOAD DUP2 LT PUSH2 0x2999 JUMPI PUSH2 0x2998 PUSH2 0x5136 JUMP JUMPDEST JUMPDEST SWAP1 PUSH1 0x0 MSTORE PUSH1 0x20 PUSH1 0x0 KECCAK256 ADD PUSH1 0x0 PUSH1 0x3 DUP2 LT PUSH2 0x29B6 JUMPI PUSH2 0x29B5 PUSH2 0x5136 JUMP JUMPDEST JUMPDEST PUSH1 0x20 SWAP2 DUP3 DUP3 DIV ADD SWAP2 SWAP1 MOD SWAP1 SLOAD SWAP1 PUSH2 0x100 EXP SWAP1 DIV PUSH1 0xFF AND PUSH1 0xFF AND DUP4 PUSH1 0xFF AND EQ DUP1 ISZERO PUSH2 0x2A2E JUMPI POP PUSH1 0x3 DUP2 PUSH1 0xFF AND DUP2 SLOAD DUP2 LT PUSH2 0x29F2 JUMPI PUSH2 0x29F1 PUSH2 0x5136 JUMP JUMPDEST JUMPDEST SWAP1 PUSH1 0x0 MSTORE PUSH1 0x20 PUSH1 0x0 KECCAK256 ADD PUSH1 0x1 PUSH1 0x3 DUP2 LT PUSH2 0x2A0F JUMPI PUSH2 0x2A0E PUSH2 0x5136 JUMP JUMPDEST JUMPDEST PUSH1 0x20 SWAP2 DUP3 DUP3 DIV ADD SWAP2 SWAP1 MOD SWAP1 SLOAD SWAP1 PUSH2 0x100 EXP SWAP1 DIV PUSH1 0xFF AND PUSH1 0xFF AND DUP5 PUSH1 0xFF AND EQ JUMPDEST DUP1 ISZERO PUSH2 0x2A88 JUMPI POP PUSH1 0x3 DUP2 PUSH1 0xFF AND DUP2 SLOAD DUP2 LT PUSH2 0x2A4C JUMPI PUSH2 0x2A4B PUSH2 0x5136 JUMP JUMPDEST JUMPDEST SWAP1 PUSH1 0x0 MSTORE PUSH1 0x20 PUSH1 0x0 KECCAK256 ADD PUSH1 0x2 PUSH1 0x3 DUP2 LT PUSH2 0x2A69 JUMPI PUSH2 0x2A68 PUSH2 0x5136 JUMP JUMPDEST JUMPDEST PUSH1 0x20 SWAP2 DUP3 DUP3 DIV ADD SWAP2 SWAP1 MOD SWAP1 SLOAD SWAP1 PUSH2 0x100 EXP SWAP1 DIV PUSH1 0xFF AND PUSH1 0xFF AND DUP6 PUSH1 0xFF AND EQ JUMPDEST JUMPDEST ISZERO PUSH2 0x2A98 JUMPI PUSH1 0x1 SWAP2 POP POP PUSH2 0x2AB1 JUMP JUMPDEST DUP1 DUP1 PUSH2 0x2AA3 SWAP1 PUSH2 0x5D1F JUMP JUMPDEST SWAP2 POP POP PUSH2 0x2432 JUMP JUMPDEST POP PUSH1 0x0 SWAP1 POP JUMPDEST SWAP4 SWAP3 POP POP POP JUMP JUMPDEST PUSH2 0x2AC0 PUSH2 0x2F76 JUMP JUMPDEST PUSH1 0x0 PUSH1 0x9 SLOAD SWAP1 POP PUSH1 0x0 PUSH1 0x9 DUP2 SWAP1 SSTORE POP PUSH32 0x78473F3F373F7673597F4F0FA5873CB4D375FEA6D4339AD6B56DBD411513CB3F CALLER DUP3 PUSH1 0x40 MLOAD PUSH2 0x2B00 SWAP3 SWAP2 SWAP1 PUSH2 0x5CF6 JUMP JUMPDEST PUSH1 0x40 MLOAD DUP1 SWAP2 SUB SWAP1 LOG1 PUSH1 0x2 PUSH1 0x0 SWAP1 SLOAD SWAP1 PUSH2 0x100 EXP SWAP1 DIV PUSH20 0xFFFFFFFFFFFFFFFFFFFFFFFFFFFFFFFFFFFFFFFF AND PUSH20 0xFFFFFFFFFFFFFFFFFFFFFFFFFFFFFFFFFFFFFFFF AND PUSH4 0xA9059CBB PUSH2 0x2B4E PUSH2 0xE37 JUMP JUMPDEST DUP4 PUSH1 0x40 MLOAD DUP4 PUSH4 0xFFFFFFFF AND PUSH1 0xE0 SHL DUP2 MSTORE PUSH1 0x4 ADD PUSH2 0x2B6C SWAP3 SWAP2 SWAP1 PUSH2 0x5CF6 JUMP JUMPDEST PUSH1 0x20 PUSH1 0x40 MLOAD DUP1 DUP4 SUB DUP2 PUSH1 0x0 DUP8 GAS CALL ISZERO DUP1 ISZERO PUSH2 0x2B8B JUMPI RETURNDATASIZE PUSH1 0x0 DUP1 RETURNDATACOPY RETURNDATASIZE PUSH1 0x0 REVERT JUMPDEST POP POP POP POP PUSH1 0x40 MLOAD RETURNDATASIZE PUSH1 0x1F NOT PUSH1 0x1F DUP3 ADD AND DUP3 ADD DUP1 PUSH1 0x40 MSTORE POP DUP2 ADD SWAP1 PUSH2 0x2BAF SWAP2 SWAP1 PUSH2 0x57AD JUMP JUMPDEST POP POP JUMP JUMPDEST PUSH2 0x2BBB PUSH2 0x2F76 JUMP JUMPDEST PUSH1 0x0 PUSH20 0xFFFFFFFFFFFFFFFFFFFFFFFFFFFFFFFFFFFFFFFF AND DUP2 PUSH20 0xFFFFFFFFFFFFFFFFFFFFFFFFFFFFFFFFFFFFFFFF AND SUB PUSH2 0x2C2D JUMPI PUSH1 0x0 PUSH1 0x40 MLOAD PUSH32 0x1E4FBDF700000000000000000000000000000000000000000000000000000000 DUP2 MSTORE PUSH1 0x4 ADD PUSH2 0x2C24 SWAP2 SWAP1 PUSH2 0x4ED4 JUMP JUMPDEST PUSH1 0x40 MLOAD DUP1 SWAP2 SUB SWAP1 REVERT JUMPDEST PUSH2 0x2C36 DUP2 PUSH2 0x36D6 JUMP JUMPDEST POP JUMP JUMPDEST PUSH1 0x7 PUSH1 0x20 MSTORE DUP1 PUSH1 0x0 MSTORE PUSH1 0x40 PUSH1 0x0 KECCAK256 PUSH1 0x0 SWAP2 POP SLOAD SWAP1 PUSH2 0x100 EXP SWAP1 DIV PUSH20 0xFFFFFFFFFFFFFFFFFFFFFFFFFFFFFFFFFFFFFFFF AND DUP2 JUMP JUMPDEST PUSH1 0x2 PUSH1 0x0 SWAP1 SLOAD SWAP1 PUSH2 0x100 EXP SWAP1 DIV PUSH20 0xFFFFFFFFFFFFFFFFFFFFFFFFFFFFFFFFFFFFFFFF AND DUP2 JUMP JUMPDEST PUSH1 0x8 PUSH1 0x0 DUP4 DUP2 MSTORE PUSH1 0x20 ADD SWAP1 DUP2 MSTORE PUSH1 0x20 ADD PUSH1 0x0 KECCAK256 PUSH1 0x0 SWAP1 SLOAD SWAP1 PUSH2 0x100 EXP SWAP1 DIV PUSH1 0xFF AND ISZERO PUSH2 0x2CF3 JUMPI PUSH1 0x40 MLOAD PUSH32 0x8C379A000000000000000000000000000000000000000000000000000000000 DUP2 MSTORE PUSH1 0x4 ADD PUSH2 0x2CEA SWAP1 PUSH2 0x5D94 JUMP JUMPDEST PUSH1 0x40 MLOAD DUP1 SWAP2 SUB SWAP1 REVERT JUMPDEST PUSH1 0x0 PUSH1 0x26 DUP3 PUSH1 0x0 DUP2 MLOAD DUP2 LT PUSH2 0x2D0B JUMPI PUSH2 0x2D0A PUSH2 0x5136 JUMP JUMPDEST JUMPDEST PUSH1 0x20 MUL PUSH1 0x20 ADD ADD MLOAD PUSH2 0x2D1D SWAP2 SWAP1 PUSH2 0x5DB4 JUMP JUMPDEST SWAP1 POP PUSH1 0x1 PUSH1 0x8 PUSH1 0x0 DUP6 DUP2 MSTORE PUSH1 0x20 ADD SWAP1 DUP2 MSTORE PUSH1 0x20 ADD PUSH1 0x0 KECCAK256 PUSH1 0x0 PUSH2 0x100 EXP DUP2 SLOAD DUP2 PUSH1 0xFF MUL NOT AND SWAP1 DUP4 ISZERO ISZERO MUL OR SWAP1 SSTORE POP PUSH1 0x0 DUP1 JUMPDEST PUSH1 0x6 PUSH1 0x0 DUP7 DUP2 MSTORE PUSH1 0x20 ADD SWAP1 DUP2 MSTORE PUSH1 0x20 ADD PUSH1 0x0 KECCAK256 DUP1 SLOAD SWAP1 POP DUP2 LT ISZERO PUSH2 0x2E91 JUMPI PUSH2 0x2E77 PUSH1 0x6 PUSH1 0x0 DUP8 DUP2 MSTORE PUSH1 0x20 ADD SWAP1 DUP2 MSTORE PUSH1 0x20 ADD PUSH1 0x0 KECCAK256 DUP3 DUP2 SLOAD DUP2 LT PUSH2 0x2D95 JUMPI PUSH2 0x2D94 PUSH2 0x5136 JUMP JUMPDEST JUMPDEST SWAP1 PUSH1 0x0 MSTORE PUSH1 0x20 PUSH1 0x0 KECCAK256 SWAP1 PUSH1 0x3 MUL ADD PUSH1 0x40 MLOAD DUP1 PUSH1 0x60 ADD PUSH1 0x40 MSTORE SWAP1 DUP2 PUSH1 0x0 DUP3 ADD SLOAD DUP2 MSTORE PUSH1 0x20 ADD PUSH1 0x1 DUP3 ADD DUP1 SLOAD DUP1 PUSH1 0x20 MUL PUSH1 0x20 ADD PUSH1 0x40 MLOAD SWAP1 DUP2 ADD PUSH1 0x40 MSTORE DUP1 SWAP3 SWAP2 SWAP1 DUP2 DUP2 MSTORE PUSH1 0x20 ADD DUP3 DUP1 SLOAD DUP1 ISZERO PUSH2 0x2E2D JUMPI PUSH1 0x20 MUL DUP3 ADD SWAP2 SWAP1 PUSH1 0x0 MSTORE PUSH1 0x20 PUSH1 0x0 KECCAK256 SWAP1 PUSH1 0x0 SWAP1 JUMPDEST DUP3 DUP3 SWAP1 SLOAD SWAP1 PUSH2 0x100 EXP SWAP1 DIV PUSH1 0xFF AND PUSH1 0xFF AND DUP2 MSTORE PUSH1 0x20 ADD SWAP1 PUSH1 0x1 ADD SWAP1 PUSH1 0x20 DUP3 PUSH1 0x0 ADD DIV SWAP3 DUP4 ADD SWAP3 PUSH1 0x1 SUB DUP3 MUL SWAP2 POP DUP1 DUP5 GT PUSH2 0x2DF6 JUMPI SWAP1 POP JUMPDEST POP POP POP POP POP DUP2 MSTORE PUSH1 0x20 ADD PUSH1 0x2 DUP3 ADD PUSH1 0x0 SWAP1 SLOAD SWAP1 PUSH2 0x100 EXP SWAP1 DIV PUSH1 0xFF AND PUSH1 0x14 DUP2 GT ISZERO PUSH2 0x2E5B JUMPI PUSH2 0x2E5A PUSH2 0x4E25 JUMP JUMPDEST JUMPDEST PUSH1 0x14 DUP2 GT ISZERO PUSH2 0x2E6D JUMPI PUSH2 0x2E6C PUSH2 0x4E25 JUMP JUMPDEST JUMPDEST DUP2 MSTORE POP POP DUP5 PUSH2 0x3B27 JUMP JUMPDEST DUP3 PUSH2 0x2E82 SWAP2 SWAP1 PUSH2 0x559B JUMP JUMPDEST SWAP2 POP DUP1 DUP1 PUSH1 0x1 ADD SWAP2 POP POP PUSH2 0x2D4F JUMP JUMPDEST POP PUSH1 0x0 DUP2 GT ISZERO PUSH2 0x2F70 JUMPI PUSH1 0x2 PUSH1 0x0 SWAP1 SLOAD SWAP1 PUSH2 0x100 EXP SWAP1 DIV PUSH20 0xFFFFFFFFFFFFFFFFFFFFFFFFFFFFFFFFFFFFFFFF AND PUSH20 0xFFFFFFFFFFFFFFFFFFFFFFFFFFFFFFFFFFFFFFFF AND PUSH4 0xA9059CBB PUSH1 0x7 PUSH1 0x0 DUP8 DUP2 MSTORE PUSH1 0x20 ADD SWAP1 DUP2 MSTORE PUSH1 0x20 ADD PUSH1 0x0 KECCAK256 PUSH1 0x0 SWAP1 SLOAD SWAP1 PUSH2 0x100 EXP SWAP1 DIV PUSH20 0xFFFFFFFFFFFFFFFFFFFFFFFFFFFFFFFFFFFFFFFF AND DUP4 PUSH1 0x40 MLOAD DUP4 PUSH4 0xFFFFFFFF AND PUSH1 0xE0 SHL DUP2 MSTORE PUSH1 0x4 ADD PUSH2 0x2F2B SWAP3 SWAP2 SWAP1 PUSH2 0x5CF6 JUMP JUMPDEST PUSH1 0x20 PUSH1 0x40 MLOAD DUP1 DUP4 SUB DUP2 PUSH1 0x0 DUP8 GAS CALL ISZERO DUP1 ISZERO PUSH2 0x2F4A JUMPI RETURNDATASIZE PUSH1 0x0 DUP1 RETURNDATACOPY RETURNDATASIZE PUSH1 0x0 REVERT JUMPDEST POP POP POP POP PUSH1 0x40 MLOAD RETURNDATASIZE PUSH1 0x1F NOT PUSH1 0x1F DUP3 ADD AND DUP3 ADD DUP1 PUSH1 0x40 MSTORE POP DUP2 ADD SWAP1 PUSH2 0x2F6E SWAP2 SWAP1 PUSH2 0x57AD JUMP JUMPDEST POP JUMPDEST POP POP POP POP JUMP JUMPDEST PUSH2 0x2F7E PUSH2 0x4584 JUMP JUMPDEST PUSH20 0xFFFFFFFFFFFFFFFFFFFFFFFFFFFFFFFFFFFFFFFF AND PUSH2 0x2F9C PUSH2 0xE37 JUMP JUMPDEST PUSH20 0xFFFFFFFFFFFFFFFFFFFFFFFFFFFFFFFFFFFFFFFF AND EQ PUSH2 0x2FFB JUMPI PUSH2 0x2FBF PUSH2 0x4584 JUMP JUMPDEST PUSH1 0x40 MLOAD PUSH32 0x118CDAA700000000000000000000000000000000000000000000000000000000 DUP2 MSTORE PUSH1 0x4 ADD PUSH2 0x2FF2 SWAP2 SWAP1 PUSH2 0x4ED4 JUMP JUMPDEST PUSH1 0x40 MLOAD DUP1 SWAP2 SUB SWAP1 REVERT JUMPDEST JUMP JUMPDEST PUSH2 0x3005 PUSH2 0x4686 JUMP JUMPDEST PUSH1 0x0 PUSH1 0x40 MLOAD DUP1 PUSH1 0xC0 ADD PUSH1 0x40 MSTORE DUP1 DUP10 PUSH1 0xFF AND PUSH1 0xFF AND DUP2 MSTORE PUSH1 0x20 ADD DUP9 PUSH1 0xFF AND PUSH1 0xFF AND DUP2 MSTORE PUSH1 0x20 ADD DUP8 PUSH1 0xFF AND PUSH1 0xFF AND DUP2 MSTORE PUSH1 0x20 ADD DUP7 PUSH1 0xFF AND PUSH1 0xFF AND DUP2 MSTORE PUSH1 0x20 ADD DUP6 PUSH1 0xFF AND PUSH1 0xFF AND DUP2 MSTORE PUSH1 0x20 ADD DUP5 PUSH1 0xFF AND PUSH1 0xFF AND DUP2 MSTORE POP SWAP1 POP PUSH1 0x0 JUMPDEST PUSH1 0x6 DUP2 PUSH1 0xFF AND LT ISZERO PUSH2 0x316F JUMPI PUSH1 0x0 PUSH1 0x1 DUP3 PUSH2 0x3078 SWAP2 SWAP1 PUSH2 0x51F4 JUMP JUMPDEST SWAP1 POP JUMPDEST PUSH1 0x6 DUP2 PUSH1 0xFF AND LT ISZERO PUSH2 0x3161 JUMPI DUP3 DUP2 PUSH1 0xFF AND PUSH1 0x6 DUP2 LT PUSH2 0x309D JUMPI PUSH2 0x309C PUSH2 0x5136 JUMP JUMPDEST JUMPDEST PUSH1 0x20 MUL ADD MLOAD PUSH1 0xFF AND DUP4 DUP4 PUSH1 0xFF AND PUSH1 0x6 DUP2 LT PUSH2 0x30BB JUMPI PUSH2 0x30BA PUSH2 0x5136 JUMP JUMPDEST JUMPDEST PUSH1 0x20 MUL ADD MLOAD PUSH1 0xFF AND GT ISZERO PUSH2 0x3154 JUMPI PUSH1 0x0 DUP4 DUP4 PUSH1 0xFF AND PUSH1 0x6 DUP2 LT PUSH2 0x30E1 JUMPI PUSH2 0x30E0 PUSH2 0x5136 JUMP JUMPDEST JUMPDEST PUSH1 0x20 MUL ADD MLOAD SWAP1 POP DUP4 DUP3 PUSH1 0xFF AND PUSH1 0x6 DUP2 LT PUSH2 0x30FE JUMPI PUSH2 0x30FD PUSH2 0x5136 JUMP JUMPDEST JUMPDEST PUSH1 0x20 MUL ADD MLOAD DUP5 DUP5 PUSH1 0xFF AND PUSH1 0x6 DUP2 LT PUSH2 0x3119 JUMPI PUSH2 0x3118 PUSH2 0x5136 JUMP JUMPDEST JUMPDEST PUSH1 0x20 MUL ADD SWAP1 PUSH1 0xFF AND SWAP1 DUP2 PUSH1 0xFF AND DUP2 MSTORE POP POP DUP1 DUP5 DUP4 PUSH1 0xFF AND PUSH1 0x6 DUP2 LT PUSH2 0x3141 JUMPI PUSH2 0x3140 PUSH2 0x5136 JUMP JUMPDEST JUMPDEST PUSH1 0x20 MUL ADD SWAP1 PUSH1 0xFF AND SWAP1 DUP2 PUSH1 0xFF AND DUP2 MSTORE POP POP POP JUMPDEST DUP1 DUP1 PUSH1 0x1 ADD SWAP2 POP POP PUSH2 0x307B JUMP JUMPDEST POP DUP1 DUP1 PUSH1 0x1 ADD SWAP2 POP POP PUSH2 0x305D JUMP JUMPDEST POP DUP1 SWAP2 POP POP SWAP7 SWAP6 POP POP POP POP POP POP JUMP JUMPDEST PUSH1 0x0 PUSH32 0xF0C57E16840DF040F15088DC2F81FE391C3923BEC73E23A9662EFC9C229C6A00 SWAP1 POP SWAP1 JUMP JUMPDEST DUP2 PUSH1 0x2 PUSH1 0x0 PUSH2 0x100 EXP DUP2 SLOAD DUP2 PUSH20 0xFFFFFFFFFFFFFFFFFFFFFFFFFFFFFFFFFFFFFFFF MUL NOT AND SWAP1 DUP4 PUSH20 0xFFFFFFFFFFFFFFFFFFFFFFFFFFFFFFFFFFFFFFFF AND MUL OR SWAP1 SSTORE POP PUSH1 0x0 DUP2 SWAP1 POP PUSH1 0x0 PUSH1 0x9 DUP2 SWAP1 SSTORE POP PUSH1 0x0 PUSH1 0x2 PUSH1 0x14 PUSH2 0x100 EXP DUP2 SLOAD DUP2 PUSH1 0xFF MUL NOT AND SWAP1 DUP4 PUSH1 0xFF AND MUL OR SWAP1 SSTORE POP DUP1 PUSH20 0xFFFFFFFFFFFFFFFFFFFFFFFFFFFFFFFFFFFFFFFF AND PUSH4 0x1C4695F4 PUSH1 0x40 MLOAD DUP2 PUSH4 0xFFFFFFFF AND PUSH1 0xE0 SHL DUP2 MSTORE PUSH1 0x4 ADD PUSH1 0x20 PUSH1 0x40 MLOAD DUP1 DUP4 SUB DUP2 DUP7 GAS STATICCALL ISZERO DUP1 ISZERO PUSH2 0x325B JUMPI RETURNDATASIZE PUSH1 0x0 DUP1 RETURNDATACOPY RETURNDATASIZE PUSH1 0x0 REVERT JUMPDEST POP POP POP POP PUSH1 0x40 MLOAD RETURNDATASIZE PUSH1 0x1F NOT PUSH1 0x1F DUP3 ADD AND DUP3 ADD DUP1 PUSH1 0x40 MSTORE POP DUP2 ADD SWAP1 PUSH2 0x327F SWAP2 SWAP1 PUSH2 0x5DFA JUMP JUMPDEST PUSH1 0x0 DUP1 PUSH2 0x100 EXP DUP2 SLOAD DUP2 PUSH20 0xFFFFFFFFFFFFFFFFFFFFFFFFFFFFFFFFFFFFFFFF MUL NOT AND SWAP1 DUP4 PUSH20 0xFFFFFFFFFFFFFFFFFFFFFFFFFFFFFFFFFFFFFFFF AND MUL OR SWAP1 SSTORE POP DUP1 PUSH1 0x1 PUSH1 0x0 PUSH2 0x100 EXP DUP2 SLOAD DUP2 PUSH20 0xFFFFFFFFFFFFFFFFFFFFFFFFFFFFFFFFFFFFFFFF MUL NOT AND SWAP1 DUP4 PUSH20 0xFFFFFFFFFFFFFFFFFFFFFFFFFFFFFFFFFFFFFFFF AND MUL OR SWAP1 SSTORE POP PUSH2 0x3308 CALLER PUSH2 0x458C JUMP JUMPDEST PUSH1 0x40 MLOAD DUP1 PUSH2 0x180 ADD PUSH1 0x40 MSTORE DUP1 PUSH1 0x40 MLOAD DUP1 PUSH1 0x60 ADD PUSH1 0x40 MSTORE DUP1 PUSH1 0x1 PUSH1 0xFF AND DUP2 MSTORE PUSH1 0x20 ADD PUSH1 0x2 PUSH1 0xFF AND DUP2 MSTORE PUSH1 0x20 ADD PUSH1 0x3 PUSH1 0xFF AND DUP2 MSTORE POP DUP2 MSTORE PUSH1 0x20 ADD PUSH1 0x40 MLOAD DUP1 PUSH1 0x60 ADD PUSH1 0x40 MSTORE DUP1 PUSH1 0x4 PUSH1 0xFF AND DUP2 MSTORE PUSH1 0x20 ADD PUSH1 0x5 PUSH1 0xFF AND DUP2 MSTORE PUSH1 0x20 ADD PUSH1 0x6 PUSH1 0xFF AND DUP2 MSTORE POP DUP2 MSTORE PUSH1 0x20 ADD PUSH1 0x40 MLOAD DUP1 PUSH1 0x60 ADD PUSH1 0x40 MSTORE DUP1 PUSH1 0x7 PUSH1 0xFF AND DUP2 MSTORE PUSH1 0x20 ADD PUSH1 0x8 PUSH1 0xFF AND DUP2 MSTORE PUSH1 0x20 ADD PUSH1 0x9 PUSH1 0xFF AND DUP2 MSTORE POP DUP2 MSTORE PUSH1 0x20 ADD PUSH1 0x40 MLOAD DUP1 PUSH1 0x60 ADD PUSH1 0x40 MSTORE DUP1 PUSH1 0xA PUSH1 0xFF AND DUP2 MSTORE PUSH1 0x20 ADD PUSH1 0xB PUSH1 0xFF AND DUP2 MSTORE PUSH1 0x20 ADD PUSH1 0xC PUSH1 0xFF AND DUP2 MSTORE POP DUP2 MSTORE PUSH1 0x20 ADD PUSH1 0x40 MLOAD DUP1 PUSH1 0x60 ADD PUSH1 0x40 MSTORE DUP1 PUSH1 0xD PUSH1 0xFF AND DUP2 MSTORE PUSH1 0x20 ADD PUSH1 0xE PUSH1 0xFF AND DUP2 MSTORE PUSH1 0x20 ADD PUSH1 0xF PUSH1 0xFF AND DUP2 MSTORE POP DUP2 MSTORE PUSH1 0x20 ADD PUSH1 0x40 MLOAD DUP1 PUSH1 0x60 ADD PUSH1 0x40 MSTORE DUP1 PUSH1 0x10 PUSH1 0xFF AND DUP2 MSTORE PUSH1 0x20 ADD PUSH1 0x11 PUSH1 0xFF AND DUP2 MSTORE PUSH1 0x20 ADD PUSH1 0x12 PUSH1 0xFF AND DUP2 MSTORE POP DUP2 MSTORE PUSH1 0x20 ADD PUSH1 0x40 MLOAD DUP1 PUSH1 0x60 ADD PUSH1 0x40 MSTORE DUP1 PUSH1 0x13 PUSH1 0xFF AND DUP2 MSTORE PUSH1 0x20 ADD PUSH1 0x14 PUSH1 0xFF AND DUP2 MSTORE PUSH1 0x20 ADD PUSH1 0x15 PUSH1 0xFF AND DUP2 MSTORE POP DUP2 MSTORE PUSH1 0x20 ADD PUSH1 0x40 MLOAD DUP1 PUSH1 0x60 ADD PUSH1 0x40 MSTORE DUP1 PUSH1 0x16 PUSH1 0xFF AND DUP2 MSTORE PUSH1 0x20 ADD PUSH1 0x17 PUSH1 0xFF AND DUP2 MSTORE PUSH1 0x20 ADD PUSH1 0x18 PUSH1 0xFF AND DUP2 MSTORE POP DUP2 MSTORE PUSH1 0x20 ADD PUSH1 0x40 MLOAD DUP1 PUSH1 0x60 ADD PUSH1 0x40 MSTORE DUP1 PUSH1 0x19 PUSH1 0xFF AND DUP2 MSTORE PUSH1 0x20 ADD PUSH1 0x1A PUSH1 0xFF AND DUP2 MSTORE PUSH1 0x20 ADD PUSH1 0x1B PUSH1 0xFF AND DUP2 MSTORE POP DUP2 MSTORE PUSH1 0x20 ADD PUSH1 0x40 MLOAD DUP1 PUSH1 0x60 ADD PUSH1 0x40 MSTORE DUP1 PUSH1 0x1C PUSH1 0xFF AND DUP2 MSTORE PUSH1 0x20 ADD PUSH1 0x1D PUSH1 0xFF AND DUP2 MSTORE PUSH1 0x20 ADD PUSH1 0x1E PUSH1 0xFF AND DUP2 MSTORE POP DUP2 MSTORE PUSH1 0x20 ADD PUSH1 0x40 MLOAD DUP1 PUSH1 0x60 ADD PUSH1 0x40 MSTORE DUP1 PUSH1 0x1F PUSH1 0xFF AND DUP2 MSTORE PUSH1 0x20 ADD PUSH1 0x20 PUSH1 0xFF AND DUP2 MSTORE PUSH1 0x20 ADD PUSH1 0x21 PUSH1 0xFF AND DUP2 MSTORE POP DUP2 MSTORE PUSH1 0x20 ADD PUSH1 0x40 MLOAD DUP1 PUSH1 0x60 ADD PUSH1 0x40 MSTORE DUP1 PUSH1 0x22 PUSH1 0xFF AND DUP2 MSTORE PUSH1 0x20 ADD PUSH1 0x23 PUSH1 0xFF AND DUP2 MSTORE PUSH1 0x20 ADD PUSH1 0x24 PUSH1 0xFF AND DUP2 MSTORE POP DUP2 MSTORE POP PUSH1 0x3 SWAP1 PUSH1 0xC PUSH2 0x3532 SWAP3 SWAP2 SWAP1 PUSH2 0x46A8 JUMP JUMPDEST POP PUSH1 0x40 MLOAD DUP1 PUSH2 0x240 ADD PUSH1 0x40 MSTORE DUP1 PUSH1 0x1 PUSH1 0xFF AND DUP2 MSTORE PUSH1 0x20 ADD PUSH1 0x3 PUSH1 0xFF AND DUP2 MSTORE PUSH1 0x20 ADD PUSH1 0x5 PUSH1 0xFF AND DUP2 MSTORE PUSH1 0x20 ADD PUSH1 0x7 PUSH1 0xFF AND DUP2 MSTORE PUSH1 0x20 ADD PUSH1 0x9 PUSH1 0xFF AND DUP2 MSTORE PUSH1 0x20 ADD PUSH1 0xC PUSH1 0xFF AND DUP2 MSTORE PUSH1 0x20 ADD PUSH1 0xE PUSH1 0xFF AND DUP2 MSTORE PUSH1 0x20 ADD PUSH1 0x10 PUSH1 0xFF AND DUP2 MSTORE PUSH1 0x20 ADD PUSH1 0x12 PUSH1 0xFF AND DUP2 MSTORE PUSH1 0x20 ADD PUSH1 0x13 PUSH1 0xFF AND DUP2 MSTORE PUSH1 0x20 ADD PUSH1 0x15 PUSH1 0xFF AND DUP2 MSTORE PUSH1 0x20 ADD PUSH1 0x17 PUSH1 0xFF AND DUP2 MSTORE PUSH1 0x20 ADD PUSH1 0x19 PUSH1 0xFF AND DUP2 MSTORE PUSH1 0x20 ADD PUSH1 0x1B PUSH1 0xFF AND DUP2 MSTORE PUSH1 0x20 ADD PUSH1 0x1E PUSH1 0xFF AND DUP2 MSTORE PUSH1 0x20 ADD PUSH1 0x20 PUSH1 0xFF AND DUP2 MSTORE PUSH1 0x20 ADD PUSH1 0x22 PUSH1 0xFF AND DUP2 MSTORE PUSH1 0x20 ADD PUSH1 0x24 PUSH1 0xFF AND DUP2 MSTORE POP PUSH1 0x4 SWAP1 PUSH1 0x12 PUSH2 0x3601 SWAP3 SWAP2 SWAP1 PUSH2 0x4703 JUMP JUMPDEST POP PUSH1 0x40 MLOAD DUP1 PUSH2 0x240 ADD PUSH1 0x40 MSTORE DUP1 PUSH1 0x2 PUSH1 0xFF AND DUP2 MSTORE PUSH1 0x20 ADD PUSH1 0x4 PUSH1 0xFF AND DUP2 MSTORE PUSH1 0x20 ADD PUSH1 0x6 PUSH1 0xFF AND DUP2 MSTORE PUSH1 0x20 ADD PUSH1 0x8 PUSH1 0xFF AND DUP2 MSTORE PUSH1 0x20 ADD PUSH1 0xA PUSH1 0xFF AND DUP2 MSTORE PUSH1 0x20 ADD PUSH1 0xB PUSH1 0xFF AND DUP2 MSTORE PUSH1 0x20 ADD PUSH1 0xD PUSH1 0xFF AND DUP2 MSTORE PUSH1 0x20 ADD PUSH1 0xF PUSH1 0xFF AND DUP2 MSTORE PUSH1 0x20 ADD PUSH1 0x11 PUSH1 0xFF AND DUP2 MSTORE PUSH1 0x20 ADD PUSH1 0x14 PUSH1 0xFF AND DUP2 MSTORE PUSH1 0x20 ADD PUSH1 0x16 PUSH1 0xFF AND DUP2 MSTORE PUSH1 0x20 ADD PUSH1 0x18 PUSH1 0xFF AND DUP2 MSTORE PUSH1 0x20 ADD PUSH1 0x1A PUSH1 0xFF AND DUP2 MSTORE PUSH1 0x20 ADD PUSH1 0x1C PUSH1 0xFF AND DUP2 MSTORE PUSH1 0x20 ADD PUSH1 0x1D PUSH1 0xFF AND DUP2 MSTORE PUSH1 0x20 ADD PUSH1 0x1F PUSH1 0xFF AND DUP2 MSTORE PUSH1 0x20 ADD PUSH1 0x21 PUSH1 0xFF AND DUP2 MSTORE PUSH1 0x20 ADD PUSH1 0x23 PUSH1 0xFF AND DUP2 MSTORE POP PUSH1 0x5 SWAP1 PUSH1 0x12 PUSH2 0x36D0 SWAP3 SWAP2 SWAP1 PUSH2 0x4703 JUMP JUMPDEST POP POP POP POP JUMP JUMPDEST PUSH1 0x0 PUSH2 0x36E0 PUSH2 0x3914 JUMP JUMPDEST SWAP1 POP PUSH1 0x0 DUP2 PUSH1 0x0 ADD PUSH1 0x0 SWAP1 SLOAD SWAP1 PUSH2 0x100 EXP SWAP1 DIV PUSH20 0xFFFFFFFFFFFFFFFFFFFFFFFFFFFFFFFFFFFFFFFF AND SWAP1 POP DUP3 DUP3 PUSH1 0x0 ADD PUSH1 0x0 PUSH2 0x100 EXP DUP2 SLOAD DUP2 PUSH20 0xFFFFFFFFFFFFFFFFFFFFFFFFFFFFFFFFFFFFFFFF MUL NOT AND SWAP1 DUP4 PUSH20 0xFFFFFFFFFFFFFFFFFFFFFFFFFFFFFFFFFFFFFFFF AND MUL OR SWAP1 SSTORE POP DUP3 PUSH20 0xFFFFFFFFFFFFFFFFFFFFFFFFFFFFFFFFFFFFFFFF AND DUP2 PUSH20 0xFFFFFFFFFFFFFFFFFFFFFFFFFFFFFFFFFFFFFFFF AND PUSH32 0x8BE0079C531659141344CD1FD0A4F28419497F9722A3DAAFE3B4186F6B6457E0 PUSH1 0x40 MLOAD PUSH1 0x40 MLOAD DUP1 SWAP2 SUB SWAP1 LOG3 POP POP POP JUMP JUMPDEST PUSH2 0x37B5 PUSH2 0x479D JUMP JUMPDEST PUSH1 0x0 PUSH1 0x40 MLOAD DUP1 PUSH1 0x80 ADD PUSH1 0x40 MSTORE DUP1 DUP8 PUSH1 0xFF AND PUSH1 0xFF AND DUP2 MSTORE PUSH1 0x20 ADD DUP7 PUSH1 0xFF AND PUSH1 0xFF AND DUP2 MSTORE PUSH1 0x20 ADD DUP6 PUSH1 0xFF AND PUSH1 0xFF AND DUP2 MSTORE PUSH1 0x20 ADD DUP5 PUSH1 0xFF AND PUSH1 0xFF AND DUP2 MSTORE POP SWAP1 POP PUSH1 0x0 JUMPDEST PUSH1 0x4 DUP2 PUSH1 0xFF AND LT ISZERO PUSH2 0x3907 JUMPI PUSH1 0x0 PUSH1 0x1 DUP3 PUSH2 0x3810 SWAP2 SWAP1 PUSH2 0x51F4 JUMP JUMPDEST SWAP1 POP JUMPDEST PUSH1 0x4 DUP2 PUSH1 0xFF AND LT ISZERO PUSH2 0x38F9 JUMPI DUP3 DUP2 PUSH1 0xFF AND PUSH1 0x4 DUP2 LT PUSH2 0x3835 JUMPI PUSH2 0x3834 PUSH2 0x5136 JUMP JUMPDEST JUMPDEST PUSH1 0x20 MUL ADD MLOAD PUSH1 0xFF AND DUP4 DUP4 PUSH1 0xFF AND PUSH1 0x4 DUP2 LT PUSH2 0x3853 JUMPI PUSH2 0x3852 PUSH2 0x5136 JUMP JUMPDEST JUMPDEST PUSH1 0x20 MUL ADD MLOAD PUSH1 0xFF AND GT ISZERO PUSH2 0x38EC JUMPI PUSH1 0x0 DUP4 DUP4 PUSH1 0xFF AND PUSH1 0x4 DUP2 LT PUSH2 0x3879 JUMPI PUSH2 0x3878 PUSH2 0x5136 JUMP JUMPDEST JUMPDEST PUSH1 0x20 MUL ADD MLOAD SWAP1 POP DUP4 DUP3 PUSH1 0xFF AND PUSH1 0x4 DUP2 LT PUSH2 0x3896 JUMPI PUSH2 0x3895 PUSH2 0x5136 JUMP JUMPDEST JUMPDEST PUSH1 0x20 MUL ADD MLOAD DUP5 DUP5 PUSH1 0xFF AND PUSH1 0x4 DUP2 LT PUSH2 0x38B1 JUMPI PUSH2 0x38B0 PUSH2 0x5136 JUMP JUMPDEST JUMPDEST PUSH1 0x20 MUL ADD SWAP1 PUSH1 0xFF AND SWAP1 DUP2 PUSH1 0xFF AND DUP2 MSTORE POP POP DUP1 DUP5 DUP4 PUSH1 0xFF AND PUSH1 0x4 DUP2 LT PUSH2 0x38D9 JUMPI PUSH2 0x38D8 PUSH2 0x5136 JUMP JUMPDEST JUMPDEST PUSH1 0x20 MUL ADD SWAP1 PUSH1 0xFF AND SWAP1 DUP2 PUSH1 0xFF AND DUP2 MSTORE POP POP POP JUMPDEST DUP1 DUP1 PUSH1 0x1 ADD SWAP2 POP POP PUSH2 0x3813 JUMP JUMPDEST POP DUP1 DUP1 PUSH1 0x1 ADD SWAP2 POP POP PUSH2 0x37F5 JUMP JUMPDEST POP DUP1 SWAP2 POP POP SWAP5 SWAP4 POP POP POP POP JUMP JUMPDEST PUSH1 0x0 PUSH32 0x9016D09D72D40FDAE2FD8CEAC6B6234C7706214FD39C1CD1E609A0528C199300 SWAP1 POP SWAP1 JUMP JUMPDEST PUSH1 0x60 PUSH32 0x92FD13387C7FE7BEFBC38D303D6468778FB9731BC4583F17D92989C6FCFDEAAA DUP3 PUSH1 0x40 MLOAD PUSH1 0x24 ADD PUSH2 0x3970 SWAP2 SWAP1 PUSH2 0x5E52 JUMP JUMPDEST PUSH1 0x40 MLOAD PUSH1 0x20 DUP2 DUP4 SUB SUB DUP2 MSTORE SWAP1 PUSH1 0x40 MSTORE SWAP1 PUSH28 0xFFFFFFFFFFFFFFFFFFFFFFFFFFFFFFFFFFFFFFFFFFFFFFFFFFFFFFFF NOT AND PUSH1 0x20 DUP3 ADD DUP1 MLOAD PUSH28 0xFFFFFFFFFFFFFFFFFFFFFFFFFFFFFFFFFFFFFFFFFFFFFFFFFFFFFFFF DUP4 DUP2 DUP4 AND OR DUP4 MSTORE POP POP POP POP SWAP1 POP SWAP2 SWAP1 POP JUMP JUMPDEST PUSH1 0x0 DUP1 PUSH1 0x1 PUSH1 0x0 SWAP1 SLOAD SWAP1 PUSH2 0x100 EXP SWAP1 DIV PUSH20 0xFFFFFFFFFFFFFFFFFFFFFFFFFFFFFFFFFFFFFFFF AND PUSH20 0xFFFFFFFFFFFFFFFFFFFFFFFFFFFFFFFFFFFFFFFF AND PUSH4 0x13C34B7F DUP8 DUP7 PUSH1 0x40 MLOAD DUP4 PUSH4 0xFFFFFFFF AND PUSH1 0xE0 SHL DUP2 MSTORE PUSH1 0x4 ADD PUSH2 0x3A34 SWAP3 SWAP2 SWAP1 PUSH2 0x5E8C JUMP JUMPDEST PUSH1 0x20 PUSH1 0x40 MLOAD DUP1 DUP4 SUB DUP2 DUP7 GAS STATICCALL ISZERO DUP1 ISZERO PUSH2 0x3A51 JUMPI RETURNDATASIZE PUSH1 0x0 DUP1 RETURNDATACOPY RETURNDATASIZE PUSH1 0x0 REVERT JUMPDEST POP POP POP POP PUSH1 0x40 MLOAD RETURNDATASIZE PUSH1 0x1F NOT PUSH1 0x1F DUP3 ADD AND DUP3 ADD DUP1 PUSH1 0x40 MSTORE POP DUP2 ADD SWAP1 PUSH2 0x3A75 SWAP2 SWAP1 PUSH2 0x5657 JUMP JUMPDEST SWAP1 POP PUSH1 0x1 PUSH1 0x0 SWAP1 SLOAD SWAP1 PUSH2 0x100 EXP SWAP1 DIV PUSH20 0xFFFFFFFFFFFFFFFFFFFFFFFFFFFFFFFFFFFFFFFF AND PUSH20 0xFFFFFFFFFFFFFFFFFFFFFFFFFFFFFFFFFFFFFFFF AND PUSH4 0x9CFC058E DUP3 DUP9 DUP9 DUP9 DUP9 PUSH1 0x40 MLOAD DUP7 PUSH4 0xFFFFFFFF AND PUSH1 0xE0 SHL DUP2 MSTORE PUSH1 0x4 ADD PUSH2 0x3AD9 SWAP5 SWAP4 SWAP3 SWAP2 SWAP1 PUSH2 0x5F51 JUMP JUMPDEST PUSH1 0x20 PUSH1 0x40 MLOAD DUP1 DUP4 SUB DUP2 DUP6 DUP9 GAS CALL ISZERO DUP1 ISZERO PUSH2 0x3AF7 JUMPI RETURNDATASIZE PUSH1 0x0 DUP1 RETURNDATACOPY RETURNDATASIZE PUSH1 0x0 REVERT JUMPDEST POP POP POP POP POP PUSH1 0x40 MLOAD RETURNDATASIZE PUSH1 0x1F NOT PUSH1 0x1F DUP3 ADD AND DUP3 ADD DUP1 PUSH1 0x40 MSTORE POP DUP2 ADD SWAP1 PUSH2 0x3B1C SWAP2 SWAP1 PUSH2 0x5657 JUMP JUMPDEST SWAP2 POP SWAP5 POP SWAP5 SWAP3 POP POP POP JUMP JUMPDEST PUSH1 0x0 DUP1 PUSH1 0x14 DUP2 GT ISZERO PUSH2 0x3B3C JUMPI PUSH2 0x3B3B PUSH2 0x4E25 JUMP JUMPDEST JUMPDEST DUP4 PUSH1 0x40 ADD MLOAD PUSH1 0x14 DUP2 GT ISZERO PUSH2 0x3B53 JUMPI PUSH2 0x3B52 PUSH2 0x4E25 JUMP JUMPDEST JUMPDEST SUB PUSH2 0x3B78 JUMPI PUSH1 0x0 DUP3 PUSH1 0xFF AND SUB PUSH2 0x3B77 JUMPI PUSH1 0x24 DUP4 PUSH1 0x0 ADD MLOAD PUSH2 0x3B74 SWAP2 SWAP1 PUSH2 0x55CF JUMP JUMPDEST SWAP1 POP JUMPDEST JUMPDEST PUSH1 0x1 PUSH1 0x14 DUP2 GT ISZERO PUSH2 0x3B8C JUMPI PUSH2 0x3B8B PUSH2 0x4E25 JUMP JUMPDEST JUMPDEST DUP4 PUSH1 0x40 ADD MLOAD PUSH1 0x14 DUP2 GT ISZERO PUSH2 0x3BA3 JUMPI PUSH2 0x3BA2 PUSH2 0x4E25 JUMP JUMPDEST JUMPDEST SUB PUSH2 0x3BC8 JUMPI PUSH1 0x25 DUP3 PUSH1 0xFF AND SUB PUSH2 0x3BC7 JUMPI PUSH1 0x24 DUP4 PUSH1 0x0 ADD MLOAD PUSH2 0x3BC4 SWAP2 SWAP1 PUSH2 0x55CF JUMP JUMPDEST SWAP1 POP JUMPDEST JUMPDEST PUSH1 0x2 PUSH1 0x14 DUP2 GT ISZERO PUSH2 0x3BDC JUMPI PUSH2 0x3BDB PUSH2 0x4E25 JUMP JUMPDEST JUMPDEST DUP4 PUSH1 0x40 ADD MLOAD PUSH1 0x14 DUP2 GT ISZERO PUSH2 0x3BF3 JUMPI PUSH2 0x3BF2 PUSH2 0x4E25 JUMP JUMPDEST JUMPDEST SUB PUSH2 0x3C5A JUMPI PUSH1 0x0 JUMPDEST DUP4 PUSH1 0x20 ADD MLOAD MLOAD DUP2 LT ISZERO PUSH2 0x3C58 JUMPI DUP3 PUSH1 0xFF AND DUP5 PUSH1 0x20 ADD MLOAD DUP3 DUP2 MLOAD DUP2 LT PUSH2 0x3C23 JUMPI PUSH2 0x3C22 PUSH2 0x5136 JUMP JUMPDEST JUMPDEST PUSH1 0x20 MUL PUSH1 0x20 ADD ADD MLOAD PUSH1 0xFF AND SUB PUSH2 0x3C4B JUMPI PUSH1 0xC DUP5 PUSH1 0x0 ADD MLOAD PUSH2 0x3C44 SWAP2 SWAP1 PUSH2 0x55CF JUMP JUMPDEST SWAP2 POP PUSH2 0x3C58 JUMP JUMPDEST DUP1 DUP1 PUSH1 0x1 ADD SWAP2 POP POP PUSH2 0x3BFB JUMP JUMPDEST POP JUMPDEST PUSH1 0x5 PUSH1 0x14 DUP2 GT ISZERO PUSH2 0x3C6E JUMPI PUSH2 0x3C6D PUSH2 0x4E25 JUMP JUMPDEST JUMPDEST DUP4 PUSH1 0x40 ADD MLOAD PUSH1 0x14 DUP2 GT ISZERO PUSH2 0x3C85 JUMPI PUSH2 0x3C84 PUSH2 0x4E25 JUMP JUMPDEST JUMPDEST SUB PUSH2 0x3CEC JUMPI PUSH1 0x0 JUMPDEST DUP4 PUSH1 0x20 ADD MLOAD MLOAD DUP2 LT ISZERO PUSH2 0x3CEA JUMPI DUP3 PUSH1 0xFF AND DUP5 PUSH1 0x20 ADD MLOAD DUP3 DUP2 MLOAD DUP2 LT PUSH2 0x3CB5 JUMPI PUSH2 0x3CB4 PUSH2 0x5136 JUMP JUMPDEST JUMPDEST PUSH1 0x20 MUL PUSH1 0x20 ADD ADD MLOAD PUSH1 0xFF AND SUB PUSH2 0x3CDD JUMPI PUSH1 0x12 DUP5 PUSH1 0x0 ADD MLOAD PUSH2 0x3CD6 SWAP2 SWAP1 PUSH2 0x55CF JUMP JUMPDEST SWAP2 POP PUSH2 0x3CEA JUMP JUMPDEST DUP1 DUP1 PUSH1 0x1 ADD SWAP2 POP POP PUSH2 0x3C8D JUMP JUMPDEST POP JUMPDEST PUSH1 0x6 PUSH1 0x14 DUP2 GT ISZERO PUSH2 0x3D00 JUMPI PUSH2 0x3CFF PUSH2 0x4E25 JUMP JUMPDEST JUMPDEST DUP4 PUSH1 0x40 ADD MLOAD PUSH1 0x14 DUP2 GT ISZERO PUSH2 0x3D17 JUMPI PUSH2 0x3D16 PUSH2 0x4E25 JUMP JUMPDEST JUMPDEST SUB PUSH2 0x3D7E JUMPI PUSH1 0x0 JUMPDEST DUP4 PUSH1 0x20 ADD MLOAD MLOAD DUP2 LT ISZERO PUSH2 0x3D7C JUMPI DUP3 PUSH1 0xFF AND DUP5 PUSH1 0x20 ADD MLOAD DUP3 DUP2 MLOAD DUP2 LT PUSH2 0x3D47 JUMPI PUSH2 0x3D46 PUSH2 0x5136 JUMP JUMPDEST JUMPDEST PUSH1 0x20 MUL PUSH1 0x20 ADD ADD MLOAD PUSH1 0xFF AND SUB PUSH2 0x3D6F JUMPI PUSH1 0x9 DUP5 PUSH1 0x0 ADD MLOAD PUSH2 0x3D68 SWAP2 SWAP1 PUSH2 0x55CF JUMP JUMPDEST SWAP2 POP PUSH2 0x3D7C JUMP JUMPDEST DUP1 DUP1 PUSH1 0x1 ADD SWAP2 POP POP PUSH2 0x3D1F JUMP JUMPDEST POP JUMPDEST PUSH1 0x7 PUSH1 0x14 DUP2 GT ISZERO PUSH2 0x3D92 JUMPI PUSH2 0x3D91 PUSH2 0x4E25 JUMP JUMPDEST JUMPDEST DUP4 PUSH1 0x40 ADD MLOAD PUSH1 0x14 DUP2 GT ISZERO PUSH2 0x3DA9 JUMPI PUSH2 0x3DA8 PUSH2 0x4E25 JUMP JUMPDEST JUMPDEST SUB PUSH2 0x3E10 JUMPI PUSH1 0x0 JUMPDEST DUP4 PUSH1 0x20 ADD MLOAD MLOAD DUP2 LT ISZERO PUSH2 0x3E0E JUMPI DUP3 PUSH1 0xFF AND DUP5 PUSH1 0x20 ADD MLOAD DUP3 DUP2 MLOAD DUP2 LT PUSH2 0x3DD9 JUMPI PUSH2 0x3DD8 PUSH2 0x5136 JUMP JUMPDEST JUMPDEST PUSH1 0x20 MUL PUSH1 0x20 ADD ADD MLOAD PUSH1 0xFF AND SUB PUSH2 0x3E01 JUMPI PUSH1 0x6 DUP5 PUSH1 0x0 ADD MLOAD PUSH2 0x3DFA SWAP2 SWAP1 PUSH2 0x55CF JUMP JUMPDEST SWAP2 POP PUSH2 0x3E0E JUMP JUMPDEST DUP1 DUP1 PUSH1 0x1 ADD SWAP2 POP POP PUSH2 0x3DB1 JUMP JUMPDEST POP JUMPDEST PUSH1 0x8 PUSH1 0x14 DUP2 GT ISZERO PUSH2 0x3E24 JUMPI PUSH2 0x3E23 PUSH2 0x4E25 JUMP JUMPDEST JUMPDEST DUP4 PUSH1 0x40 ADD MLOAD PUSH1 0x14 DUP2 GT ISZERO PUSH2 0x3E3B JUMPI PUSH2 0x3E3A PUSH2 0x4E25 JUMP JUMPDEST JUMPDEST SUB PUSH2 0x3E81 JUMPI DUP2 PUSH1 0xFF AND DUP4 PUSH1 0x20 ADD MLOAD PUSH1 0x0 DUP2 MLOAD DUP2 LT PUSH2 0x3E5C JUMPI PUSH2 0x3E5B PUSH2 0x5136 JUMP JUMPDEST JUMPDEST PUSH1 0x20 MUL PUSH1 0x20 ADD ADD MLOAD PUSH1 0xFF AND SUB PUSH2 0x3E80 JUMPI PUSH1 0x24 DUP4 PUSH1 0x0 ADD MLOAD PUSH2 0x3E7D SWAP2 SWAP1 PUSH2 0x55CF JUMP JUMPDEST SWAP1 POP JUMPDEST JUMPDEST PUSH1 0x9 PUSH1 0x14 DUP2 GT ISZERO PUSH2 0x3E95 JUMPI PUSH2 0x3E94 PUSH2 0x4E25 JUMP JUMPDEST JUMPDEST DUP4 PUSH1 0x40 ADD MLOAD PUSH1 0x14 DUP2 GT ISZERO PUSH2 0x3EAC JUMPI PUSH2 0x3EAB PUSH2 0x4E25 JUMP JUMPDEST JUMPDEST SUB PUSH2 0x3F8F JUMPI PUSH1 0x0 PUSH1 0x40 MLOAD DUP1 PUSH2 0x180 ADD PUSH1 0x40 MSTORE DUP1 PUSH1 0x1 PUSH1 0xFF AND DUP2 MSTORE PUSH1 0x20 ADD PUSH1 0x4 PUSH1 0xFF AND DUP2 MSTORE PUSH1 0x20 ADD PUSH1 0x7 PUSH1 0xFF AND DUP2 MSTORE PUSH1 0x20 ADD PUSH1 0xA PUSH1 0xFF AND DUP2 MSTORE PUSH1 0x20 ADD PUSH1 0xD PUSH1 0xFF AND DUP2 MSTORE PUSH1 0x20 ADD PUSH1 0x10 PUSH1 0xFF AND DUP2 MSTORE PUSH1 0x20 ADD PUSH1 0x13 PUSH1 0xFF AND DUP2 MSTORE PUSH1 0x20 ADD PUSH1 0x16 PUSH1 0xFF AND DUP2 MSTORE PUSH1 0x20 ADD PUSH1 0x19 PUSH1 0xFF AND DUP2 MSTORE PUSH1 0x20 ADD PUSH1 0x1C PUSH1 0xFF AND DUP2 MSTORE PUSH1 0x20 ADD PUSH1 0x1F PUSH1 0xFF AND DUP2 MSTORE PUSH1 0x20 ADD PUSH1 0x22 PUSH1 0xFF AND DUP2 MSTORE POP SWAP1 POP PUSH1 0x0 JUMPDEST PUSH1 0xC DUP2 LT ISZERO PUSH2 0x3F8C JUMPI DUP4 PUSH1 0xFF AND DUP3 DUP3 PUSH1 0xC DUP2 LT PUSH2 0x3F5A JUMPI PUSH2 0x3F59 PUSH2 0x5136 JUMP JUMPDEST JUMPDEST PUSH1 0x20 MUL ADD MLOAD PUSH1 0xFF AND SUB PUSH2 0x3F7F JUMPI PUSH1 0x3 DUP6 PUSH1 0x0 ADD MLOAD PUSH2 0x3F78 SWAP2 SWAP1 PUSH2 0x55CF JUMP JUMPDEST SWAP3 POP PUSH2 0x3F8C JUMP JUMPDEST DUP1 DUP1 PUSH1 0x1 ADD SWAP2 POP POP PUSH2 0x3F3A JUMP JUMPDEST POP POP JUMPDEST PUSH1 0xA PUSH1 0x14 DUP2 GT ISZERO PUSH2 0x3FA3 JUMPI PUSH2 0x3FA2 PUSH2 0x4E25 JUMP JUMPDEST JUMPDEST DUP4 PUSH1 0x40 ADD MLOAD PUSH1 0x14 DUP2 GT ISZERO PUSH2 0x3FBA JUMPI PUSH2 0x3FB9 PUSH2 0x4E25 JUMP JUMPDEST JUMPDEST SUB PUSH2 0x409D JUMPI PUSH1 0x0 PUSH1 0x40 MLOAD DUP1 PUSH2 0x180 ADD PUSH1 0x40 MSTORE DUP1 PUSH1 0x2 PUSH1 0xFF AND DUP2 MSTORE PUSH1 0x20 ADD PUSH1 0x5 PUSH1 0xFF AND DUP2 MSTORE PUSH1 0x20 ADD PUSH1 0x8 PUSH1 0xFF AND DUP2 MSTORE PUSH1 0x20 ADD PUSH1 0xB PUSH1 0xFF AND DUP2 MSTORE PUSH1 0x20 ADD PUSH1 0xE PUSH1 0xFF AND DUP2 MSTORE PUSH1 0x20 ADD PUSH1 0x11 PUSH1 0xFF AND DUP2 MSTORE PUSH1 0x20 ADD PUSH1 0x14 PUSH1 0xFF AND DUP2 MSTORE PUSH1 0x20 ADD PUSH1 0x17 PUSH1 0xFF AND DUP2 MSTORE PUSH1 0x20 ADD PUSH1 0x1A PUSH1 0xFF AND DUP2 MSTORE PUSH1 0x20 ADD PUSH1 0x1D PUSH1 0xFF AND DUP2 MSTORE PUSH1 0x20 ADD PUSH1 0x20 PUSH1 0xFF AND DUP2 MSTORE PUSH1 0x20 ADD PUSH1 0x23 PUSH1 0xFF AND DUP2 MSTORE POP SWAP1 POP PUSH1 0x0 JUMPDEST PUSH1 0xC DUP2 LT ISZERO PUSH2 0x409A JUMPI DUP4 PUSH1 0xFF AND DUP3 DUP3 PUSH1 0xC DUP2 LT PUSH2 0x4068 JUMPI PUSH2 0x4067 PUSH2 0x5136 JUMP JUMPDEST JUMPDEST PUSH1 0x20 MUL ADD MLOAD PUSH1 0xFF AND SUB PUSH2 0x408D JUMPI PUSH1 0x3 DUP6 PUSH1 0x0 ADD MLOAD PUSH2 0x4086 SWAP2 SWAP1 PUSH2 0x55CF JUMP JUMPDEST SWAP3 POP PUSH2 0x409A JUMP JUMPDEST DUP1 DUP1 PUSH1 0x1 ADD SWAP2 POP POP PUSH2 0x4048 JUMP JUMPDEST POP POP JUMPDEST PUSH1 0xB PUSH1 0x14 DUP2 GT ISZERO PUSH2 0x40B1 JUMPI PUSH2 0x40B0 PUSH2 0x4E25 JUMP JUMPDEST JUMPDEST DUP4 PUSH1 0x40 ADD MLOAD PUSH1 0x14 DUP2 GT ISZERO PUSH2 0x40C8 JUMPI PUSH2 0x40C7 PUSH2 0x4E25 JUMP JUMPDEST JUMPDEST SUB PUSH2 0x41AB JUMPI PUSH1 0x0 PUSH1 0x40 MLOAD DUP1 PUSH2 0x180 ADD PUSH1 0x40 MSTORE DUP1 PUSH1 0x3 PUSH1 0xFF AND DUP2 MSTORE PUSH1 0x20 ADD PUSH1 0x6 PUSH1 0xFF AND DUP2 MSTORE PUSH1 0x20 ADD PUSH1 0x9 PUSH1 0xFF AND DUP2 MSTORE PUSH1 0x20 ADD PUSH1 0xC PUSH1 0xFF AND DUP2 MSTORE PUSH1 0x20 ADD PUSH1 0xF PUSH1 0xFF AND DUP2 MSTORE PUSH1 0x20 ADD PUSH1 0x12 PUSH1 0xFF AND DUP2 MSTORE PUSH1 0x20 ADD PUSH1 0x15 PUSH1 0xFF AND DUP2 MSTORE PUSH1 0x20 ADD PUSH1 0x18 PUSH1 0xFF AND DUP2 MSTORE PUSH1 0x20 ADD PUSH1 0x1B PUSH1 0xFF AND DUP2 MSTORE PUSH1 0x20 ADD PUSH1 0x1E PUSH1 0xFF AND DUP2 MSTORE PUSH1 0x20 ADD PUSH1 0x21 PUSH1 0xFF AND DUP2 MSTORE PUSH1 0x20 ADD PUSH1 0x24 PUSH1 0xFF AND DUP2 MSTORE POP SWAP1 POP PUSH1 0x0 JUMPDEST PUSH1 0xC DUP2 LT ISZERO PUSH2 0x41A8 JUMPI DUP4 PUSH1 0xFF AND DUP3 DUP3 PUSH1 0xC DUP2 LT PUSH2 0x4176 JUMPI PUSH2 0x4175 PUSH2 0x5136 JUMP JUMPDEST JUMPDEST PUSH1 0x20 MUL ADD MLOAD PUSH1 0xFF AND SUB PUSH2 0x419B JUMPI PUSH1 0x3 DUP6 PUSH1 0x0 ADD MLOAD PUSH2 0x4194 SWAP2 SWAP1 PUSH2 0x55CF JUMP JUMPDEST SWAP3 POP PUSH2 0x41A8 JUMP JUMPDEST DUP1 DUP1 PUSH1 0x1 ADD SWAP2 POP POP PUSH2 0x4156 JUMP JUMPDEST POP POP JUMPDEST PUSH1 0xC PUSH1 0x14 DUP2 GT ISZERO PUSH2 0x41BF JUMPI PUSH2 0x41BE PUSH2 0x4E25 JUMP JUMPDEST JUMPDEST DUP4 PUSH1 0x40 ADD MLOAD PUSH1 0x14 DUP2 GT ISZERO PUSH2 0x41D6 JUMPI PUSH2 0x41D5 PUSH2 0x4E25 JUMP JUMPDEST JUMPDEST SUB PUSH2 0x420D JUMPI PUSH1 0x1 DUP3 PUSH1 0xFF AND LT ISZERO DUP1 ISZERO PUSH2 0x41F3 JUMPI POP PUSH1 0xC DUP3 PUSH1 0xFF AND GT ISZERO JUMPDEST ISZERO PUSH2 0x420C JUMPI PUSH1 0x3 DUP4 PUSH1 0x0 ADD MLOAD PUSH2 0x4209 SWAP2 SWAP1 PUSH2 0x55CF JUMP JUMPDEST SWAP1 POP JUMPDEST JUMPDEST PUSH1 0xD PUSH1 0x14 DUP2 GT ISZERO PUSH2 0x4221 JUMPI PUSH2 0x4220 PUSH2 0x4E25 JUMP JUMPDEST JUMPDEST DUP4 PUSH1 0x40 ADD MLOAD PUSH1 0x14 DUP2 GT ISZERO PUSH2 0x4238 JUMPI PUSH2 0x4237 PUSH2 0x4E25 JUMP JUMPDEST JUMPDEST SUB PUSH2 0x426F JUMPI PUSH1 0xD DUP3 PUSH1 0xFF AND LT ISZERO DUP1 ISZERO PUSH2 0x4255 JUMPI POP PUSH1 0x18 DUP3 PUSH1 0xFF AND GT ISZERO JUMPDEST ISZERO PUSH2 0x426E JUMPI PUSH1 0x3 DUP4 PUSH1 0x0 ADD MLOAD PUSH2 0x426B SWAP2 SWAP1 PUSH2 0x55CF JUMP JUMPDEST SWAP1 POP JUMPDEST JUMPDEST PUSH1 0xE PUSH1 0x14 DUP2 GT ISZERO PUSH2 0x4283 JUMPI PUSH2 0x4282 PUSH2 0x4E25 JUMP JUMPDEST JUMPDEST DUP4 PUSH1 0x40 ADD MLOAD PUSH1 0x14 DUP2 GT ISZERO PUSH2 0x429A JUMPI PUSH2 0x4299 PUSH2 0x4E25 JUMP JUMPDEST JUMPDEST SUB PUSH2 0x42D1 JUMPI PUSH1 0x19 DUP3 PUSH1 0xFF AND LT ISZERO DUP1 ISZERO PUSH2 0x42B7 JUMPI POP PUSH1 0x24 DUP3 PUSH1 0xFF AND GT ISZERO JUMPDEST ISZERO PUSH2 0x42D0 JUMPI PUSH1 0x3 DUP4 PUSH1 0x0 ADD MLOAD PUSH2 0x42CD SWAP2 SWAP1 PUSH2 0x55CF JUMP JUMPDEST SWAP1 POP JUMPDEST JUMPDEST PUSH1 0xF PUSH1 0x14 DUP2 GT ISZERO PUSH2 0x42E5 JUMPI PUSH2 0x42E4 PUSH2 0x4E25 JUMP JUMPDEST JUMPDEST DUP4 PUSH1 0x40 ADD MLOAD PUSH1 0x14 DUP2 GT ISZERO PUSH2 0x42FC JUMPI PUSH2 0x42FB PUSH2 0x4E25 JUMP JUMPDEST JUMPDEST SUB PUSH2 0x4333 JUMPI PUSH1 0x1 DUP3 PUSH1 0xFF AND LT ISZERO DUP1 ISZERO PUSH2 0x4319 JUMPI POP PUSH1 0x12 DUP3 PUSH1 0xFF AND GT ISZERO JUMPDEST ISZERO PUSH2 0x4332 JUMPI PUSH1 0x2 DUP4 PUSH1 0x0 ADD MLOAD PUSH2 0x432F SWAP2 SWAP1 PUSH2 0x55CF JUMP JUMPDEST SWAP1 POP JUMPDEST JUMPDEST PUSH1 0x10 PUSH1 0x14 DUP2 GT ISZERO PUSH2 0x4347 JUMPI PUSH2 0x4346 PUSH2 0x4E25 JUMP JUMPDEST JUMPDEST DUP4 PUSH1 0x40 ADD MLOAD PUSH1 0x14 DUP2 GT ISZERO PUSH2 0x435E JUMPI PUSH2 0x435D PUSH2 0x4E25 JUMP JUMPDEST JUMPDEST SUB PUSH2 0x4395 JUMPI PUSH1 0x13 DUP3 PUSH1 0xFF AND LT ISZERO DUP1 ISZERO PUSH2 0x437B JUMPI POP PUSH1 0x24 DUP3 PUSH1 0xFF AND GT ISZERO JUMPDEST ISZERO PUSH2 0x4394 JUMPI PUSH1 0x2 DUP4 PUSH1 0x0 ADD MLOAD PUSH2 0x4391 SWAP2 SWAP1 PUSH2 0x55CF JUMP JUMPDEST SWAP1 POP JUMPDEST JUMPDEST PUSH1 0x11 PUSH1 0x14 DUP2 GT ISZERO PUSH2 0x43A9 JUMPI PUSH2 0x43A8 PUSH2 0x4E25 JUMP JUMPDEST JUMPDEST DUP4 PUSH1 0x40 ADD MLOAD PUSH1 0x14 DUP2 GT ISZERO PUSH2 0x43C0 JUMPI PUSH2 0x43BF PUSH2 0x4E25 JUMP JUMPDEST JUMPDEST SUB PUSH2 0x43F1 JUMPI PUSH1 0x0 PUSH1 0x2 DUP4 PUSH2 0x43D4 SWAP2 SWAP1 PUSH2 0x5194 JUMP JUMPDEST PUSH1 0xFF AND SUB PUSH2 0x43F0 JUMPI PUSH1 0x2 DUP4 PUSH1 0x0 ADD MLOAD PUSH2 0x43ED SWAP2 SWAP1 PUSH2 0x55CF JUMP JUMPDEST SWAP1 POP JUMPDEST JUMPDEST PUSH1 0x12 PUSH1 0x14 DUP2 GT ISZERO PUSH2 0x4405 JUMPI PUSH2 0x4404 PUSH2 0x4E25 JUMP JUMPDEST JUMPDEST DUP4 PUSH1 0x40 ADD MLOAD PUSH1 0x14 DUP2 GT ISZERO PUSH2 0x441C JUMPI PUSH2 0x441B PUSH2 0x4E25 JUMP JUMPDEST JUMPDEST SUB PUSH2 0x444D JUMPI PUSH1 0x1 PUSH1 0x2 DUP4 PUSH2 0x4430 SWAP2 SWAP1 PUSH2 0x5194 JUMP JUMPDEST PUSH1 0xFF AND SUB PUSH2 0x444C JUMPI PUSH1 0x2 DUP4 PUSH1 0x0 ADD MLOAD PUSH2 0x4449 SWAP2 SWAP1 PUSH2 0x55CF JUMP JUMPDEST SWAP1 POP JUMPDEST JUMPDEST PUSH1 0x13 PUSH1 0x14 DUP2 GT ISZERO PUSH2 0x4461 JUMPI PUSH2 0x4460 PUSH2 0x4E25 JUMP JUMPDEST JUMPDEST DUP4 PUSH1 0x40 ADD MLOAD PUSH1 0x14 DUP2 GT ISZERO PUSH2 0x4478 JUMPI PUSH2 0x4477 PUSH2 0x4E25 JUMP JUMPDEST JUMPDEST SUB PUSH2 0x44E6 JUMPI PUSH1 0x0 JUMPDEST PUSH1 0x12 DUP2 LT ISZERO PUSH2 0x44E4 JUMPI DUP3 PUSH1 0xFF AND PUSH1 0x4 DUP3 PUSH1 0x12 DUP2 LT PUSH2 0x44A1 JUMPI PUSH2 0x44A0 PUSH2 0x5136 JUMP JUMPDEST JUMPDEST PUSH1 0x20 SWAP2 DUP3 DUP3 DIV ADD SWAP2 SWAP1 MOD SWAP1 SLOAD SWAP1 PUSH2 0x100 EXP SWAP1 DIV PUSH1 0xFF AND PUSH1 0xFF AND SUB PUSH2 0x44D7 JUMPI PUSH1 0x2 DUP5 PUSH1 0x0 ADD MLOAD PUSH2 0x44D0 SWAP2 SWAP1 PUSH2 0x55CF JUMP JUMPDEST SWAP2 POP PUSH2 0x44E4 JUMP JUMPDEST DUP1 DUP1 PUSH1 0x1 ADD SWAP2 POP POP PUSH2 0x4480 JUMP JUMPDEST POP JUMPDEST PUSH1 0x14 DUP1 DUP2 GT ISZERO PUSH2 0x44F9 JUMPI PUSH2 0x44F8 PUSH2 0x4E25 JUMP JUMPDEST JUMPDEST DUP4 PUSH1 0x40 ADD MLOAD PUSH1 0x14 DUP2 GT ISZERO PUSH2 0x4510 JUMPI PUSH2 0x450F PUSH2 0x4E25 JUMP JUMPDEST JUMPDEST SUB PUSH2 0x457E JUMPI PUSH1 0x0 JUMPDEST PUSH1 0x12 DUP2 LT ISZERO PUSH2 0x457C JUMPI DUP3 PUSH1 0xFF AND PUSH1 0x5 DUP3 PUSH1 0x12 DUP2 LT PUSH2 0x4539 JUMPI PUSH2 0x4538 PUSH2 0x5136 JUMP JUMPDEST JUMPDEST PUSH1 0x20 SWAP2 DUP3 DUP3 DIV ADD SWAP2 SWAP1 MOD SWAP1 SLOAD SWAP1 PUSH2 0x100 EXP SWAP1 DIV PUSH1 0xFF AND PUSH1 0xFF AND SUB PUSH2 0x456F JUMPI PUSH1 0x2 DUP5 PUSH1 0x0 ADD MLOAD PUSH2 0x4568 SWAP2 SWAP1 PUSH2 0x55CF JUMP JUMPDEST SWAP2 POP PUSH2 0x457C JUMP JUMPDEST DUP1 DUP1 PUSH1 0x1 ADD SWAP2 POP POP PUSH2 0x4518 JUMP JUMPDEST POP JUMPDEST SWAP3 SWAP2 POP POP JUMP JUMPDEST PUSH1 0x0 CALLER SWAP1 POP SWAP1 JUMP JUMPDEST PUSH2 0x4594 PUSH2 0x45A0 JUMP JUMPDEST PUSH2 0x459D DUP2 PUSH2 0x45E0 JUMP JUMPDEST POP JUMP JUMPDEST PUSH2 0x45A8 PUSH2 0x4666 JUMP JUMPDEST PUSH2 0x45DE JUMPI PUSH1 0x40 MLOAD PUSH32 0xD7E6BCF800000000000000000000000000000000000000000000000000000000 DUP2 MSTORE PUSH1 0x4 ADD PUSH1 0x40 MLOAD DUP1 SWAP2 SUB SWAP1 REVERT JUMPDEST JUMP JUMPDEST PUSH2 0x45E8 PUSH2 0x45A0 JUMP JUMPDEST PUSH1 0x0 PUSH20 0xFFFFFFFFFFFFFFFFFFFFFFFFFFFFFFFFFFFFFFFF AND DUP2 PUSH20 0xFFFFFFFFFFFFFFFFFFFFFFFFFFFFFFFFFFFFFFFF AND SUB PUSH2 0x465A JUMPI PUSH1 0x0 PUSH1 0x40 MLOAD PUSH32 0x1E4FBDF700000000000000000000000000000000000000000000000000000000 DUP2 MSTORE PUSH1 0x4 ADD PUSH2 0x4651 SWAP2 SWAP1 PUSH2 0x4ED4 JUMP JUMPDEST PUSH1 0x40 MLOAD DUP1 SWAP2 SUB SWAP1 REVERT JUMPDEST PUSH2 0x4663 DUP2 PUSH2 0x36D6 JUMP JUMPDEST POP JUMP JUMPDEST PUSH1 0x0 PUSH2 0x4670 PUSH2 0x317E JUMP JUMPDEST PUSH1 0x0 ADD PUSH1 0x8 SWAP1 SLOAD SWAP1 PUSH2 0x100 EXP SWAP1 DIV PUSH1 0xFF AND SWAP1 POP SWAP1 JUMP JUMPDEST PUSH1 0x40 MLOAD DUP1 PUSH1 0xC0 ADD PUSH1 0x40 MSTORE DUP1 PUSH1 0x6 SWAP1 PUSH1 0x20 DUP3 MUL DUP1 CALLDATASIZE DUP4 CALLDATACOPY DUP1 DUP3 ADD SWAP2 POP POP SWAP1 POP POP SWAP1 JUMP JUMPDEST DUP3 DUP1 SLOAD DUP3 DUP3 SSTORE SWAP1 PUSH1 0x0 MSTORE PUSH1 0x20 PUSH1 0x0 KECCAK256 SWAP1 DUP2 ADD SWAP3 DUP3 ISZERO PUSH2 0x46F2 JUMPI SWAP2 PUSH1 0x20 MUL DUP3 ADD JUMPDEST DUP3 DUP2 GT ISZERO PUSH2 0x46F1 JUMPI DUP3 MLOAD DUP3 SWAP1 PUSH1 0x3 PUSH2 0x46E1 SWAP3 SWAP2 SWAP1 PUSH2 0x47BF JUMP JUMPDEST POP SWAP2 PUSH1 0x20 ADD SWAP2 SWAP1 PUSH1 0x1 ADD SWAP1 PUSH2 0x46C8 JUMP JUMPDEST JUMPDEST POP SWAP1 POP PUSH2 0x46FF SWAP2 SWAP1 PUSH2 0x4859 JUMP JUMPDEST POP SWAP1 JUMP JUMPDEST DUP3 PUSH1 0x12 PUSH1 0x1F ADD PUSH1 0x20 SWAP1 DIV DUP2 ADD SWAP3 DUP3 ISZERO PUSH2 0x478C JUMPI SWAP2 PUSH1 0x20 MUL DUP3 ADD PUSH1 0x0 JUMPDEST DUP4 DUP3 GT ISZERO PUSH2 0x475D JUMPI DUP4 MLOAD DUP4 DUP3 PUSH2 0x100 EXP DUP2 SLOAD DUP2 PUSH1 0xFF MUL NOT AND SWAP1 DUP4 PUSH1 0xFF AND MUL OR SWAP1 SSTORE POP SWAP3 PUSH1 0x20 ADD SWAP3 PUSH1 0x1 ADD PUSH1 0x20 DUP2 PUSH1 0x0 ADD DIV SWAP3 DUP4 ADD SWAP3 PUSH1 0x1 SUB MUL PUSH2 0x471F JUMP JUMPDEST DUP1 ISZERO PUSH2 0x478A JUMPI DUP3 DUP2 PUSH2 0x100 EXP DUP2 SLOAD SWAP1 PUSH1 0xFF MUL NOT AND SWAP1 SSTORE PUSH1 0x1 ADD PUSH1 0x20 DUP2 PUSH1 0x0 ADD DIV SWAP3 DUP4 ADD SWAP3 PUSH1 0x1 SUB MUL PUSH2 0x475D JUMP JUMPDEST POP JUMPDEST POP SWAP1 POP PUSH2 0x4799 SWAP2 SWAP1 PUSH2 0x487D JUMP JUMPDEST POP SWAP1 JUMP JUMPDEST PUSH1 0x40 MLOAD DUP1 PUSH1 0x80 ADD PUSH1 0x40 MSTORE DUP1 PUSH1 0x4 SWAP1 PUSH1 0x20 DUP3 MUL DUP1 CALLDATASIZE DUP4 CALLDATACOPY DUP1 DUP3 ADD SWAP2 POP POP SWAP1 POP POP SWAP1 JUMP JUMPDEST DUP3 PUSH1 0x3 PUSH1 0x1F ADD PUSH1 0x20 SWAP1 DIV DUP2 ADD SWAP3 DUP3 ISZERO PUSH2 0x4848 JUMPI SWAP2 PUSH1 0x20 MUL DUP3 ADD PUSH1 0x0 JUMPDEST DUP4 DUP3 GT ISZERO PUSH2 0x4819 JUMPI DUP4 MLOAD DUP4 DUP3 PUSH2 0x100 EXP DUP2 SLOAD DUP2 PUSH1 0xFF MUL NOT AND SWAP1 DUP4 PUSH1 0xFF AND MUL OR SWAP1 SSTORE POP SWAP3 PUSH1 0x20 ADD SWAP3 PUSH1 0x1 ADD PUSH1 0x20 DUP2 PUSH1 0x0 ADD DIV SWAP3 DUP4 ADD SWAP3 PUSH1 0x1 SUB MUL PUSH2 0x47DB JUMP JUMPDEST DUP1 ISZERO PUSH2 0x4846 JUMPI DUP3 DUP2 PUSH2 0x100 EXP DUP2 SLOAD SWAP1 PUSH1 0xFF MUL NOT AND SWAP1 SSTORE PUSH1 0x1 ADD PUSH1 0x20 DUP2 PUSH1 0x0 ADD DIV SWAP3 DUP4 ADD SWAP3 PUSH1 0x1 SUB MUL PUSH2 0x4819 JUMP JUMPDEST POP JUMPDEST POP SWAP1 POP PUSH2 0x4855 SWAP2 SWAP1 PUSH2 0x487D JUMP JUMPDEST POP SWAP1 JUMP JUMPDEST JUMPDEST DUP1 DUP3 GT ISZERO PUSH2 0x4879 JUMPI PUSH1 0x0 DUP2 DUP2 PUSH2 0x4870 SWAP2 SWAP1 PUSH2 0x489A JUMP JUMPDEST POP PUSH1 0x1 ADD PUSH2 0x485A JUMP JUMPDEST POP SWAP1 JUMP JUMPDEST JUMPDEST DUP1 DUP3 GT ISZERO PUSH2 0x4896 JUMPI PUSH1 0x0 DUP2 PUSH1 0x0 SWAP1 SSTORE POP PUSH1 0x1 ADD PUSH2 0x487E JUMP JUMPDEST POP SWAP1 JUMP JUMPDEST POP PUSH1 0x0 SWAP1 SSTORE JUMP JUMPDEST PUSH1 0x0 PUSH1 0x40 MLOAD SWAP1 POP SWAP1 JUMP JUMPDEST PUSH1 0x0 DUP1 REVERT JUMPDEST PUSH1 0x0 DUP1 REVERT JUMPDEST PUSH1 0x0 DUP2 SWAP1 POP SWAP2 SWAP1 POP JUMP JUMPDEST PUSH2 0x48C8 DUP2 PUSH2 0x48B5 JUMP JUMPDEST DUP2 EQ PUSH2 0x48D3 JUMPI PUSH1 0x0 DUP1 REVERT JUMPDEST POP JUMP JUMPDEST PUSH1 0x0 DUP2 CALLDATALOAD SWAP1 POP PUSH2 0x48E5 DUP2 PUSH2 0x48BF JUMP JUMPDEST SWAP3 SWAP2 POP POP JUMP JUMPDEST PUSH1 0x0 PUSH1 0x20 DUP3 DUP5 SUB SLT ISZERO PUSH2 0x4901 JUMPI PUSH2 0x4900 PUSH2 0x48AB JUMP JUMPDEST JUMPDEST PUSH1 0x0 PUSH2 0x490F DUP5 DUP3 DUP6 ADD PUSH2 0x48D6 JUMP JUMPDEST SWAP2 POP POP SWAP3 SWAP2 POP POP JUMP JUMPDEST PUSH1 0x0 DUP2 ISZERO ISZERO SWAP1 POP SWAP2 SWAP1 POP JUMP JUMPDEST PUSH2 0x492D DUP2 PUSH2 0x4918 JUMP JUMPDEST DUP3 MSTORE POP POP JUMP JUMPDEST PUSH1 0x0 PUSH1 0x20 DUP3 ADD SWAP1 POP PUSH2 0x4948 PUSH1 0x0 DUP4 ADD DUP5 PUSH2 0x4924 JUMP JUMPDEST SWAP3 SWAP2 POP POP JUMP JUMPDEST PUSH1 0x0 DUP1 REVERT JUMPDEST PUSH1 0x0 PUSH1 0x1F NOT PUSH1 0x1F DUP4 ADD AND SWAP1 POP SWAP2 SWAP1 POP JUMP JUMPDEST PUSH32 0x4E487B7100000000000000000000000000000000000000000000000000000000 PUSH1 0x0 MSTORE PUSH1 0x41 PUSH1 0x4 MSTORE PUSH1 0x24 PUSH1 0x0 REVERT JUMPDEST PUSH2 0x499C DUP3 PUSH2 0x4953 JUMP JUMPDEST DUP2 ADD DUP2 DUP2 LT PUSH8 0xFFFFFFFFFFFFFFFF DUP3 GT OR ISZERO PUSH2 0x49BB JUMPI PUSH2 0x49BA PUSH2 0x4964 JUMP JUMPDEST JUMPDEST DUP1 PUSH1 0x40 MSTORE POP POP POP JUMP JUMPDEST PUSH1 0x0 PUSH2 0x49CE PUSH2 0x48A1 JUMP JUMPDEST SWAP1 POP PUSH2 0x49DA DUP3 DUP3 PUSH2 0x4993 JUMP JUMPDEST SWAP2 SWAP1 POP JUMP JUMPDEST PUSH1 0x0 PUSH8 0xFFFFFFFFFFFFFFFF DUP3 GT ISZERO PUSH2 0x49FA JUMPI PUSH2 0x49F9 PUSH2 0x4964 JUMP JUMPDEST JUMPDEST PUSH1 0x20 DUP3 MUL SWAP1 POP PUSH1 0x20 DUP2 ADD SWAP1 POP SWAP2 SWAP1 POP JUMP JUMPDEST PUSH1 0x0 DUP1 REVERT JUMPDEST PUSH1 0x0 PUSH2 0x4A23 PUSH2 0x4A1E DUP5 PUSH2 0x49DF JUMP JUMPDEST PUSH2 0x49C4 JUMP JUMPDEST SWAP1 POP DUP1 DUP4 DUP3 MSTORE PUSH1 0x20 DUP3 ADD SWAP1 POP PUSH1 0x20 DUP5 MUL DUP4 ADD DUP6 DUP2 GT ISZERO PUSH2 0x4A46 JUMPI PUSH2 0x4A45 PUSH2 0x4A0B JUMP JUMPDEST JUMPDEST DUP4 JUMPDEST DUP2 DUP2 LT ISZERO PUSH2 0x4A6F JUMPI DUP1 PUSH2 0x4A5B DUP9 DUP3 PUSH2 0x48D6 JUMP JUMPDEST DUP5 MSTORE PUSH1 0x20 DUP5 ADD SWAP4 POP POP PUSH1 0x20 DUP2 ADD SWAP1 POP PUSH2 0x4A48 JUMP JUMPDEST POP POP POP SWAP4 SWAP3 POP POP POP JUMP JUMPDEST PUSH1 0x0 DUP3 PUSH1 0x1F DUP4 ADD SLT PUSH2 0x4A8E JUMPI PUSH2 0x4A8D PUSH2 0x494E JUMP JUMPDEST JUMPDEST DUP2 CALLDATALOAD PUSH2 0x4A9E DUP5 DUP3 PUSH1 0x20 DUP7 ADD PUSH2 0x4A10 JUMP JUMPDEST SWAP2 POP POP SWAP3 SWAP2 POP POP JUMP JUMPDEST PUSH1 0x0 DUP1 PUSH1 0x40 DUP4 DUP6 SUB SLT ISZERO PUSH2 0x4ABE JUMPI PUSH2 0x4ABD PUSH2 0x48AB JUMP JUMPDEST JUMPDEST PUSH1 0x0 PUSH2 0x4ACC DUP6 DUP3 DUP7 ADD PUSH2 0x48D6 JUMP JUMPDEST SWAP3 POP POP PUSH1 0x20 DUP4 ADD CALLDATALOAD PUSH8 0xFFFFFFFFFFFFFFFF DUP2 GT ISZERO PUSH2 0x4AED JUMPI PUSH2 0x4AEC PUSH2 0x48B0 JUMP JUMPDEST JUMPDEST PUSH2 0x4AF9 DUP6 DUP3 DUP7 ADD PUSH2 0x4A79 JUMP JUMPDEST SWAP2 POP POP SWAP3 POP SWAP3 SWAP1 POP JUMP JUMPDEST PUSH1 0x0 PUSH1 0xFF DUP3 AND SWAP1 POP SWAP2 SWAP1 POP JUMP JUMPDEST PUSH2 0x4B19 DUP2 PUSH2 0x4B03 JUMP JUMPDEST DUP3 MSTORE POP POP JUMP JUMPDEST PUSH1 0x0 PUSH1 0x20 DUP3 ADD SWAP1 POP PUSH2 0x4B34 PUSH1 0x0 DUP4 ADD DUP5 PUSH2 0x4B10 JUMP JUMPDEST SWAP3 SWAP2 POP POP JUMP JUMPDEST PUSH2 0x4B43 DUP2 PUSH2 0x4B03 JUMP JUMPDEST DUP2 EQ PUSH2 0x4B4E JUMPI PUSH1 0x0 DUP1 REVERT JUMPDEST POP JUMP JUMPDEST PUSH1 0x0 DUP2 CALLDATALOAD SWAP1 POP PUSH2 0x4B60 DUP2 PUSH2 0x4B3A JUMP JUMPDEST SWAP3 SWAP2 POP POP JUMP JUMPDEST PUSH1 0x0 PUSH1 0x20 DUP3 DUP5 SUB SLT ISZERO PUSH2 0x4B7C JUMPI PUSH2 0x4B7B PUSH2 0x48AB JUMP JUMPDEST JUMPDEST PUSH1 0x0 PUSH2 0x4B8A DUP5 DUP3 DUP6 ADD PUSH2 0x4B51 JUMP JUMPDEST SWAP2 POP POP SWAP3 SWAP2 POP POP JUMP JUMPDEST PUSH1 0x0 PUSH8 0xFFFFFFFFFFFFFFFF DUP3 GT ISZERO PUSH2 0x4BAE JUMPI PUSH2 0x4BAD PUSH2 0x4964 JUMP JUMPDEST JUMPDEST PUSH1 0x20 DUP3 MUL SWAP1 POP PUSH1 0x20 DUP2 ADD SWAP1 POP SWAP2 SWAP1 POP JUMP JUMPDEST PUSH1 0x0 PUSH2 0x4BD2 PUSH2 0x4BCD DUP5 PUSH2 0x4B93 JUMP JUMPDEST PUSH2 0x49C4 JUMP JUMPDEST SWAP1 POP DUP1 DUP4 DUP3 MSTORE PUSH1 0x20 DUP3 ADD SWAP1 POP PUSH1 0x20 DUP5 MUL DUP4 ADD DUP6 DUP2 GT ISZERO PUSH2 0x4BF5 JUMPI PUSH2 0x4BF4 PUSH2 0x4A0B JUMP JUMPDEST JUMPDEST DUP4 JUMPDEST DUP2 DUP2 LT ISZERO PUSH2 0x4C1E JUMPI DUP1 PUSH2 0x4C0A DUP9 DUP3 PUSH2 0x4B51 JUMP JUMPDEST DUP5 MSTORE PUSH1 0x20 DUP5 ADD SWAP4 POP POP PUSH1 0x20 DUP2 ADD SWAP1 POP PUSH2 0x4BF7 JUMP JUMPDEST POP POP POP SWAP4 SWAP3 POP POP POP JUMP JUMPDEST PUSH1 0x0 DUP3 PUSH1 0x1F DUP4 ADD SLT PUSH2 0x4C3D JUMPI PUSH2 0x4C3C PUSH2 0x494E JUMP JUMPDEST JUMPDEST DUP2 CALLDATALOAD PUSH2 0x4C4D DUP5 DUP3 PUSH1 0x20 DUP7 ADD PUSH2 0x4BBF JUMP JUMPDEST SWAP2 POP POP SWAP3 SWAP2 POP POP JUMP JUMPDEST PUSH1 0x0 PUSH1 0x20 DUP3 DUP5 SUB SLT ISZERO PUSH2 0x4C6C JUMPI PUSH2 0x4C6B PUSH2 0x48AB JUMP JUMPDEST JUMPDEST PUSH1 0x0 DUP3 ADD CALLDATALOAD PUSH8 0xFFFFFFFFFFFFFFFF DUP2 GT ISZERO PUSH2 0x4C8A JUMPI PUSH2 0x4C89 PUSH2 0x48B0 JUMP JUMPDEST JUMPDEST PUSH2 0x4C96 DUP5 DUP3 DUP6 ADD PUSH2 0x4C28 JUMP JUMPDEST SWAP2 POP POP SWAP3 SWAP2 POP POP JUMP JUMPDEST PUSH1 0x0 DUP1 PUSH1 0x40 DUP4 DUP6 SUB SLT ISZERO PUSH2 0x4CB6 JUMPI PUSH2 0x4CB5 PUSH2 0x48AB JUMP JUMPDEST JUMPDEST PUSH1 0x0 PUSH2 0x4CC4 DUP6 DUP3 DUP7 ADD PUSH2 0x4B51 JUMP JUMPDEST SWAP3 POP POP PUSH1 0x20 PUSH2 0x4CD5 DUP6 DUP3 DUP7 ADD PUSH2 0x4B51 JUMP JUMPDEST SWAP2 POP POP SWAP3 POP SWAP3 SWAP1 POP JUMP JUMPDEST PUSH1 0x0 PUSH20 0xFFFFFFFFFFFFFFFFFFFFFFFFFFFFFFFFFFFFFFFF DUP3 AND SWAP1 POP SWAP2 SWAP1 POP JUMP JUMPDEST PUSH1 0x0 PUSH2 0x4D0A DUP3 PUSH2 0x4CDF JUMP JUMPDEST SWAP1 POP SWAP2 SWAP1 POP JUMP JUMPDEST PUSH1 0x0 PUSH2 0x4D1C DUP3 PUSH2 0x4CFF JUMP JUMPDEST SWAP1 POP SWAP2 SWAP1 POP JUMP JUMPDEST PUSH2 0x4D2C DUP2 PUSH2 0x4D11 JUMP JUMPDEST DUP2 EQ PUSH2 0x4D37 JUMPI PUSH1 0x0 DUP1 REVERT JUMPDEST POP JUMP JUMPDEST PUSH1 0x0 DUP2 CALLDATALOAD SWAP1 POP PUSH2 0x4D49 DUP2 PUSH2 0x4D23 JUMP JUMPDEST SWAP3 SWAP2 POP POP JUMP JUMPDEST PUSH2 0x4D58 DUP2 PUSH2 0x4CFF JUMP JUMPDEST DUP2 EQ PUSH2 0x4D63 JUMPI PUSH1 0x0 DUP1 REVERT JUMPDEST POP JUMP JUMPDEST PUSH1 0x0 DUP2 CALLDATALOAD SWAP1 POP PUSH2 0x4D75 DUP2 PUSH2 0x4D4F JUMP JUMPDEST SWAP3 SWAP2 POP POP JUMP JUMPDEST PUSH1 0x0 DUP1 PUSH1 0x40 DUP4 DUP6 SUB SLT ISZERO PUSH2 0x4D92 JUMPI PUSH2 0x4D91 PUSH2 0x48AB JUMP JUMPDEST JUMPDEST PUSH1 0x0 PUSH2 0x4DA0 DUP6 DUP3 DUP7 ADD PUSH2 0x4D3A JUMP JUMPDEST SWAP3 POP POP PUSH1 0x20 PUSH2 0x4DB1 DUP6 DUP3 DUP7 ADD PUSH2 0x4D66 JUMP JUMPDEST SWAP2 POP POP SWAP3 POP SWAP3 SWAP1 POP JUMP JUMPDEST PUSH2 0x4DC4 DUP2 PUSH2 0x48B5 JUMP JUMPDEST DUP3 MSTORE POP POP JUMP JUMPDEST PUSH1 0x0 PUSH1 0x20 DUP3 ADD SWAP1 POP PUSH2 0x4DDF PUSH1 0x0 DUP4 ADD DUP5 PUSH2 0x4DBB JUMP JUMPDEST SWAP3 SWAP2 POP POP JUMP JUMPDEST PUSH1 0x0 DUP1 PUSH1 0x40 DUP4 DUP6 SUB SLT ISZERO PUSH2 0x4DFC JUMPI PUSH2 0x4DFB PUSH2 0x48AB JUMP JUMPDEST JUMPDEST PUSH1 0x0 PUSH2 0x4E0A DUP6 DUP3 DUP7 ADD PUSH2 0x48D6 JUMP JUMPDEST SWAP3 POP POP PUSH1 0x20 PUSH2 0x4E1B DUP6 DUP3 DUP7 ADD PUSH2 0x48D6 JUMP JUMPDEST SWAP2 POP POP SWAP3 POP SWAP3 SWAP1 POP JUMP JUMPDEST PUSH32 0x4E487B7100000000000000000000000000000000000000000000000000000000 PUSH1 0x0 MSTORE PUSH1 0x21 PUSH1 0x4 MSTORE PUSH1 0x24 PUSH1 0x0 REVERT JUMPDEST PUSH1 0x15 DUP2 LT PUSH2 0x4E65 JUMPI PUSH2 0x4E64 PUSH2 0x4E25 JUMP JUMPDEST JUMPDEST POP JUMP JUMPDEST PUSH1 0x0 DUP2 SWAP1 POP PUSH2 0x4E76 DUP3 PUSH2 0x4E54 JUMP JUMPDEST SWAP2 SWAP1 POP JUMP JUMPDEST PUSH1 0x0 PUSH2 0x4E86 DUP3 PUSH2 0x4E68 JUMP JUMPDEST SWAP1 POP SWAP2 SWAP1 POP JUMP JUMPDEST PUSH2 0x4E96 DUP2 PUSH2 0x4E7B JUMP JUMPDEST DUP3 MSTORE POP POP JUMP JUMPDEST PUSH1 0x0 PUSH1 0x40 DUP3 ADD SWAP1 POP PUSH2 0x4EB1 PUSH1 0x0 DUP4 ADD DUP6 PUSH2 0x4DBB JUMP JUMPDEST PUSH2 0x4EBE PUSH1 0x20 DUP4 ADD DUP5 PUSH2 0x4E8D JUMP JUMPDEST SWAP4 SWAP3 POP POP POP JUMP JUMPDEST PUSH2 0x4ECE DUP2 PUSH2 0x4CFF JUMP JUMPDEST DUP3 MSTORE POP POP JUMP JUMPDEST PUSH1 0x0 PUSH1 0x20 DUP3 ADD SWAP1 POP PUSH2 0x4EE9 PUSH1 0x0 DUP4 ADD DUP5 PUSH2 0x4EC5 JUMP JUMPDEST SWAP3 SWAP2 POP POP JUMP JUMPDEST PUSH1 0x0 DUP2 SWAP1 POP SWAP2 SWAP1 POP JUMP JUMPDEST PUSH1 0x0 PUSH2 0x4F14 PUSH2 0x4F0F PUSH2 0x4F0A DUP5 PUSH2 0x4CDF JUMP JUMPDEST PUSH2 0x4EEF JUMP JUMPDEST PUSH2 0x4CDF JUMP JUMPDEST SWAP1 POP SWAP2 SWAP1 POP JUMP JUMPDEST PUSH1 0x0 PUSH2 0x4F26 DUP3 PUSH2 0x4EF9 JUMP JUMPDEST SWAP1 POP SWAP2 SWAP1 POP JUMP JUMPDEST PUSH1 0x0 PUSH2 0x4F38 DUP3 PUSH2 0x4F1B JUMP JUMPDEST SWAP1 POP SWAP2 SWAP1 POP JUMP JUMPDEST PUSH2 0x4F48 DUP2 PUSH2 0x4F2D JUMP JUMPDEST DUP3 MSTORE POP POP JUMP JUMPDEST PUSH1 0x0 PUSH1 0x20 DUP3 ADD SWAP1 POP PUSH2 0x4F63 PUSH1 0x0 DUP4 ADD DUP5 PUSH2 0x4F3F JUMP JUMPDEST SWAP3 SWAP2 POP POP JUMP JUMPDEST PUSH1 0x0 DUP1 REVERT JUMPDEST PUSH1 0x0 DUP1 DUP4 PUSH1 0x1F DUP5 ADD SLT PUSH2 0x4F84 JUMPI PUSH2 0x4F83 PUSH2 0x494E JUMP JUMPDEST JUMPDEST DUP3 CALLDATALOAD SWAP1 POP PUSH8 0xFFFFFFFFFFFFFFFF DUP2 GT ISZERO PUSH2 0x4FA1 JUMPI PUSH2 0x4FA0 PUSH2 0x4F69 JUMP JUMPDEST JUMPDEST PUSH1 0x20 DUP4 ADD SWAP2 POP DUP4 PUSH1 0x20 DUP3 MUL DUP4 ADD GT ISZERO PUSH2 0x4FBD JUMPI PUSH2 0x4FBC PUSH2 0x4A0B JUMP JUMPDEST JUMPDEST SWAP3 POP SWAP3 SWAP1 POP JUMP JUMPDEST PUSH1 0x0 DUP1 PUSH1 0x20 DUP4 DUP6 SUB SLT ISZERO PUSH2 0x4FDB JUMPI PUSH2 0x4FDA PUSH2 0x48AB JUMP JUMPDEST JUMPDEST PUSH1 0x0 DUP4 ADD CALLDATALOAD PUSH8 0xFFFFFFFFFFFFFFFF DUP2 GT ISZERO PUSH2 0x4FF9 JUMPI PUSH2 0x4FF8 PUSH2 0x48B0 JUMP JUMPDEST JUMPDEST PUSH2 0x5005 DUP6 DUP3 DUP7 ADD PUSH2 0x4F6E JUMP JUMPDEST SWAP3 POP SWAP3 POP POP SWAP3 POP SWAP3 SWAP1 POP JUMP JUMPDEST PUSH1 0x0 DUP1 PUSH1 0x40 DUP4 DUP6 SUB SLT ISZERO PUSH2 0x5028 JUMPI PUSH2 0x5027 PUSH2 0x48AB JUMP JUMPDEST JUMPDEST PUSH1 0x0 PUSH2 0x5036 DUP6 DUP3 DUP7 ADD PUSH2 0x4D66 JUMP JUMPDEST SWAP3 POP POP PUSH1 0x20 PUSH2 0x5047 DUP6 DUP3 DUP7 ADD PUSH2 0x48D6 JUMP JUMPDEST SWAP2 POP POP SWAP3 POP SWAP3 SWAP1 POP JUMP JUMPDEST PUSH1 0x0 DUP1 PUSH1 0x0 PUSH1 0x60 DUP5 DUP7 SUB SLT ISZERO PUSH2 0x506A JUMPI PUSH2 0x5069 PUSH2 0x48AB JUMP JUMPDEST JUMPDEST PUSH1 0x0 PUSH2 0x5078 DUP7 DUP3 DUP8 ADD PUSH2 0x4B51 JUMP JUMPDEST SWAP4 POP POP PUSH1 0x20 PUSH2 0x5089 DUP7 DUP3 DUP8 ADD PUSH2 0x4B51 JUMP JUMPDEST SWAP3 POP POP PUSH1 0x40 PUSH2 0x509A DUP7 DUP3 DUP8 ADD PUSH2 0x4B51 JUMP JUMPDEST SWAP2 POP POP SWAP3 POP SWAP3 POP SWAP3 JUMP JUMPDEST PUSH1 0x0 PUSH1 0x20 DUP3 DUP5 SUB SLT ISZERO PUSH2 0x50BA JUMPI PUSH2 0x50B9 PUSH2 0x48AB JUMP JUMPDEST JUMPDEST PUSH1 0x0 PUSH2 0x50C8 DUP5 DUP3 DUP6 ADD PUSH2 0x4D66 JUMP JUMPDEST SWAP2 POP POP SWAP3 SWAP2 POP POP JUMP JUMPDEST PUSH1 0x0 PUSH2 0x50DC DUP3 PUSH2 0x4F1B JUMP JUMPDEST SWAP1 POP SWAP2 SWAP1 POP JUMP JUMPDEST PUSH2 0x50EC DUP2 PUSH2 0x50D1 JUMP JUMPDEST DUP3 MSTORE POP POP JUMP JUMPDEST PUSH1 0x0 PUSH1 0x20 DUP3 ADD SWAP1 POP PUSH2 0x5107 PUSH1 0x0 DUP4 ADD DUP5 PUSH2 0x50E3 JUMP JUMPDEST SWAP3 SWAP2 POP POP JUMP JUMPDEST PUSH1 0x0 PUSH1 0x40 DUP3 ADD SWAP1 POP PUSH2 0x5122 PUSH1 0x0 DUP4 ADD DUP6 PUSH2 0x4EC5 JUMP JUMPDEST PUSH2 0x512F PUSH1 0x20 DUP4 ADD DUP5 PUSH2 0x4EC5 JUMP JUMPDEST SWAP4 SWAP3 POP POP POP JUMP JUMPDEST PUSH32 0x4E487B7100000000000000000000000000000000000000000000000000000000 PUSH1 0x0 MSTORE PUSH1 0x32 PUSH1 0x4 MSTORE PUSH1 0x24 PUSH1 0x0 REVERT JUMPDEST PUSH32 0x4E487B7100000000000000000000000000000000000000000000000000000000 PUSH1 0x0 MSTORE PUSH1 0x12 PUSH1 0x4 MSTORE PUSH1 0x24 PUSH1 0x0 REVERT JUMPDEST PUSH1 0x0 PUSH2 0x519F DUP3 PUSH2 0x4B03 JUMP JUMPDEST SWAP2 POP PUSH2 0x51AA DUP4 PUSH2 0x4B03 JUMP JUMPDEST SWAP3 POP DUP3 PUSH2 0x51BA JUMPI PUSH2 0x51B9 PUSH2 0x5165 JUMP JUMPDEST JUMPDEST DUP3 DUP3 MOD SWAP1 POP SWAP3 SWAP2 POP POP JUMP JUMPDEST PUSH32 0x4E487B7100000000000000000000000000000000000000000000000000000000 PUSH1 0x0 MSTORE PUSH1 0x11 PUSH1 0x4 MSTORE PUSH1 0x24 PUSH1 0x0 REVERT JUMPDEST PUSH1 0x0 PUSH2 0x51FF DUP3 PUSH2 0x4B03 JUMP JUMPDEST SWAP2 POP PUSH2 0x520A DUP4 PUSH2 0x4B03 JUMP JUMPDEST SWAP3 POP DUP3 DUP3 ADD SWAP1 POP PUSH1 0xFF DUP2 GT ISZERO PUSH2 0x5223 JUMPI PUSH2 0x5222 PUSH2 0x51C5 JUMP JUMPDEST JUMPDEST SWAP3 SWAP2 POP POP JUMP JUMPDEST PUSH1 0x0 PUSH2 0x5234 DUP3 PUSH2 0x4B03 JUMP JUMPDEST SWAP2 POP PUSH2 0x523F DUP4 PUSH2 0x4B03 JUMP JUMPDEST SWAP3 POP DUP3 DUP3 SUB SWAP1 POP PUSH1 0xFF DUP2 GT ISZERO PUSH2 0x5258 JUMPI PUSH2 0x5257 PUSH2 0x51C5 JUMP JUMPDEST JUMPDEST SWAP3 SWAP2 POP POP JUMP JUMPDEST PUSH1 0x0 DUP2 SWAP1 POP SWAP2 SWAP1 POP JUMP JUMPDEST PUSH1 0x0 PUSH8 0xFFFFFFFFFFFFFFFF DUP3 AND SWAP1 POP SWAP2 SWAP1 POP JUMP JUMPDEST PUSH1 0x0 PUSH2 0x5297 PUSH2 0x5292 PUSH2 0x528D DUP5 PUSH2 0x525E JUMP JUMPDEST PUSH2 0x4EEF JUMP JUMPDEST PUSH2 0x5268 JUMP JUMPDEST SWAP1 POP SWAP2 SWAP1 POP JUMP JUMPDEST PUSH2 0x52A7 DUP2 PUSH2 0x527C JUMP JUMPDEST DUP3 MSTORE POP POP JUMP JUMPDEST PUSH1 0x0 PUSH1 0x20 DUP3 ADD SWAP1 POP PUSH2 0x52C2 PUSH1 0x0 DUP4 ADD DUP5 PUSH2 0x529E JUMP JUMPDEST SWAP3 SWAP2 POP POP JUMP JUMPDEST PUSH1 0x0 DUP1 REVERT JUMPDEST PUSH1 0x0 DUP1 REVERT JUMPDEST PUSH1 0x0 DUP1 REVERT JUMPDEST PUSH1 0x0 DUP3 CALLDATALOAD PUSH1 0x1 PUSH1 0x60 SUB DUP4 CALLDATASIZE SUB SUB DUP2 SLT PUSH2 0x52F3 JUMPI PUSH2 0x52F2 PUSH2 0x52C8 JUMP JUMPDEST JUMPDEST DUP1 DUP4 ADD SWAP2 POP POP SWAP3 SWAP2 POP POP JUMP JUMPDEST PUSH1 0x15 DUP2 LT PUSH2 0x530C JUMPI PUSH1 0x0 DUP1 REVERT JUMPDEST POP JUMP JUMPDEST PUSH1 0x0 DUP2 CALLDATALOAD SWAP1 POP PUSH2 0x531E DUP2 PUSH2 0x52FF JUMP JUMPDEST SWAP3 SWAP2 POP POP JUMP JUMPDEST PUSH1 0x0 PUSH1 0x20 DUP3 DUP5 SUB SLT ISZERO PUSH2 0x533A JUMPI PUSH2 0x5339 PUSH2 0x48AB JUMP JUMPDEST JUMPDEST PUSH1 0x0 PUSH2 0x5348 DUP5 DUP3 DUP6 ADD PUSH2 0x530F JUMP JUMPDEST SWAP2 POP POP SWAP3 SWAP2 POP POP JUMP JUMPDEST PUSH1 0x0 DUP1 DUP4 CALLDATALOAD PUSH1 0x1 PUSH1 0x20 SUB DUP5 CALLDATASIZE SUB SUB DUP2 SLT PUSH2 0x536E JUMPI PUSH2 0x536D PUSH2 0x52C8 JUMP JUMPDEST JUMPDEST DUP1 DUP5 ADD SWAP3 POP DUP3 CALLDATALOAD SWAP2 POP PUSH8 0xFFFFFFFFFFFFFFFF DUP3 GT ISZERO PUSH2 0x5390 JUMPI PUSH2 0x538F PUSH2 0x52CD JUMP JUMPDEST JUMPDEST PUSH1 0x20 DUP4 ADD SWAP3 POP PUSH1 0x20 DUP3 MUL CALLDATASIZE SUB DUP4 SGT ISZERO PUSH2 0x53AC JUMPI PUSH2 0x53AB PUSH2 0x52D2 JUMP JUMPDEST JUMPDEST POP SWAP3 POP SWAP3 SWAP1 POP JUMP JUMPDEST PUSH1 0x0 DUP3 DUP3 MSTORE PUSH1 0x20 DUP3 ADD SWAP1 POP SWAP3 SWAP2 POP POP JUMP JUMPDEST PUSH32 0x4E756D62657273206E6F7420726571756972656420666F722074686973207479 PUSH1 0x0 DUP3 ADD MSTORE PUSH32 0x7065000000000000000000000000000000000000000000000000000000000000 PUSH1 0x20 DUP3 ADD MSTORE POP JUMP JUMPDEST PUSH1 0x0 PUSH2 0x5421 PUSH1 0x22 DUP4 PUSH2 0x53B4 JUMP JUMPDEST SWAP2 POP PUSH2 0x542C DUP3 PUSH2 0x53C5 JUMP JUMPDEST PUSH1 0x40 DUP3 ADD SWAP1 POP SWAP2 SWAP1 POP JUMP JUMPDEST PUSH1 0x0 PUSH1 0x20 DUP3 ADD SWAP1 POP DUP2 DUP2 SUB PUSH1 0x0 DUP4 ADD MSTORE PUSH2 0x5450 DUP2 PUSH2 0x5414 JUMP JUMPDEST SWAP1 POP SWAP2 SWAP1 POP JUMP JUMPDEST PUSH32 0x496E76616C6964206E756D62657273206C656E67746800000000000000000000 PUSH1 0x0 DUP3 ADD MSTORE POP JUMP JUMPDEST PUSH1 0x0 PUSH2 0x548D PUSH1 0x16 DUP4 PUSH2 0x53B4 JUMP JUMPDEST SWAP2 POP PUSH2 0x5498 DUP3 PUSH2 0x5457 JUMP JUMPDEST PUSH1 0x20 DUP3 ADD SWAP1 POP SWAP2 SWAP1 POP JUMP JUMPDEST PUSH1 0x0 PUSH1 0x20 DUP3 ADD SWAP1 POP DUP2 DUP2 SUB PUSH1 0x0 DUP4 ADD MSTORE PUSH2 0x54BC DUP2 PUSH2 0x5480 JUMP JUMPDEST SWAP1 POP SWAP2 SWAP1 POP JUMP JUMPDEST PUSH32 0x496E76616C696420636F6D62696E6174696F6E00000000000000000000000000 PUSH1 0x0 DUP3 ADD MSTORE POP JUMP JUMPDEST PUSH1 0x0 PUSH2 0x54F9 PUSH1 0x13 DUP4 PUSH2 0x53B4 JUMP JUMPDEST SWAP2 POP PUSH2 0x5504 DUP3 PUSH2 0x54C3 JUMP JUMPDEST PUSH1 0x20 DUP3 ADD SWAP1 POP SWAP2 SWAP1 POP JUMP JUMPDEST PUSH1 0x0 PUSH1 0x20 DUP3 ADD SWAP1 POP DUP2 DUP2 SUB PUSH1 0x0 DUP4 ADD MSTORE PUSH2 0x5528 DUP2 PUSH2 0x54EC JUMP JUMPDEST SWAP1 POP SWAP2 SWAP1 POP JUMP JUMPDEST PUSH32 0x4E6F7420696D706C656D656E7465640000000000000000000000000000000000 PUSH1 0x0 DUP3 ADD MSTORE POP JUMP JUMPDEST PUSH1 0x0 PUSH2 0x5565 PUSH1 0xF DUP4 PUSH2 0x53B4 JUMP JUMPDEST SWAP2 POP PUSH2 0x5570 DUP3 PUSH2 0x552F JUMP JUMPDEST PUSH1 0x20 DUP3 ADD SWAP1 POP SWAP2 SWAP1 POP JUMP JUMPDEST PUSH1 0x0 PUSH1 0x20 DUP3 ADD SWAP1 POP DUP2 DUP2 SUB PUSH1 0x0 DUP4 ADD MSTORE PUSH2 0x5594 DUP2 PUSH2 0x5558 JUMP JUMPDEST SWAP1 POP SWAP2 SWAP1 POP JUMP JUMPDEST PUSH1 0x0 PUSH2 0x55A6 DUP3 PUSH2 0x48B5 JUMP JUMPDEST SWAP2 POP PUSH2 0x55B1 DUP4 PUSH2 0x48B5 JUMP JUMPDEST SWAP3 POP DUP3 DUP3 ADD SWAP1 POP DUP1 DUP3 GT ISZERO PUSH2 0x55C9 JUMPI PUSH2 0x55C8 PUSH2 0x51C5 JUMP JUMPDEST JUMPDEST SWAP3 SWAP2 POP POP JUMP JUMPDEST PUSH1 0x0 PUSH2 0x55DA DUP3 PUSH2 0x48B5 JUMP JUMPDEST SWAP2 POP PUSH2 0x55E5 DUP4 PUSH2 0x48B5 JUMP JUMPDEST SWAP3 POP DUP3 DUP3 MUL PUSH2 0x55F3 DUP2 PUSH2 0x48B5 JUMP JUMPDEST SWAP2 POP DUP3 DUP3 DIV DUP5 EQ DUP4 ISZERO OR PUSH2 0x560A JUMPI PUSH2 0x5609 PUSH2 0x51C5 JUMP JUMPDEST JUMPDEST POP SWAP3 SWAP2 POP POP JUMP JUMPDEST PUSH1 0x0 PUSH2 0x561C DUP3 PUSH2 0x48B5 JUMP JUMPDEST SWAP2 POP PUSH2 0x5627 DUP4 PUSH2 0x48B5 JUMP JUMPDEST SWAP3 POP DUP3 PUSH2 0x5637 JUMPI PUSH2 0x5636 PUSH2 0x5165 JUMP JUMPDEST JUMPDEST DUP3 DUP3 DIV SWAP1 POP SWAP3 SWAP2 POP POP JUMP JUMPDEST PUSH1 0x0 DUP2 MLOAD SWAP1 POP PUSH2 0x5651 DUP2 PUSH2 0x48BF JUMP JUMPDEST SWAP3 SWAP2 POP POP JUMP JUMPDEST PUSH1 0x0 PUSH1 0x20 DUP3 DUP5 SUB SLT ISZERO PUSH2 0x566D JUMPI PUSH2 0x566C PUSH2 0x48AB JUMP JUMPDEST JUMPDEST PUSH1 0x0 PUSH2 0x567B DUP5 DUP3 DUP6 ADD PUSH2 0x5642 JUMP JUMPDEST SWAP2 POP POP SWAP3 SWAP2 POP POP JUMP JUMPDEST PUSH1 0x0 PUSH2 0x568F DUP3 PUSH2 0x48B5 JUMP JUMPDEST SWAP2 POP PUSH2 0x569A DUP4 PUSH2 0x48B5 JUMP JUMPDEST SWAP3 POP DUP3 DUP3 SUB SWAP1 POP DUP2 DUP2 GT ISZERO PUSH2 0x56B2 JUMPI PUSH2 0x56B1 PUSH2 0x51C5 JUMP JUMPDEST JUMPDEST SWAP3 SWAP2 POP POP JUMP JUMPDEST PUSH32 0x546F6F20686967682073756D206F66206269647320746F207769746864726177 PUSH1 0x0 DUP3 ADD MSTORE PUSH32 0x2072657761726473000000000000000000000000000000000000000000000000 PUSH1 0x20 DUP3 ADD MSTORE POP JUMP JUMPDEST PUSH1 0x0 PUSH2 0x5714 PUSH1 0x28 DUP4 PUSH2 0x53B4 JUMP JUMPDEST SWAP2 POP PUSH2 0x571F DUP3 PUSH2 0x56B8 JUMP JUMPDEST PUSH1 0x40 DUP3 ADD SWAP1 POP SWAP2 SWAP1 POP JUMP JUMPDEST PUSH1 0x0 PUSH1 0x20 DUP3 ADD SWAP1 POP DUP2 DUP2 SUB PUSH1 0x0 DUP4 ADD MSTORE PUSH2 0x5743 DUP2 PUSH2 0x5707 JUMP JUMPDEST SWAP1 POP SWAP2 SWAP1 POP JUMP JUMPDEST PUSH1 0x0 PUSH1 0x60 DUP3 ADD SWAP1 POP PUSH2 0x575F PUSH1 0x0 DUP4 ADD DUP7 PUSH2 0x4EC5 JUMP JUMPDEST PUSH2 0x576C PUSH1 0x20 DUP4 ADD DUP6 PUSH2 0x4EC5 JUMP JUMPDEST PUSH2 0x5779 PUSH1 0x40 DUP4 ADD DUP5 PUSH2 0x4DBB JUMP JUMPDEST SWAP5 SWAP4 POP POP POP POP JUMP JUMPDEST PUSH2 0x578A DUP2 PUSH2 0x4918 JUMP JUMPDEST DUP2 EQ PUSH2 0x5795 JUMPI PUSH1 0x0 DUP1 REVERT JUMPDEST POP JUMP JUMPDEST PUSH1 0x0 DUP2 MLOAD SWAP1 POP PUSH2 0x57A7 DUP2 PUSH2 0x5781 JUMP JUMPDEST SWAP3 SWAP2 POP POP JUMP JUMPDEST PUSH1 0x0 PUSH1 0x20 DUP3 DUP5 SUB SLT ISZERO PUSH2 0x57C3 JUMPI PUSH2 0x57C2 PUSH2 0x48AB JUMP JUMPDEST JUMPDEST PUSH1 0x0 PUSH2 0x57D1 DUP5 DUP3 DUP6 ADD PUSH2 0x5798 JUMP JUMPDEST SWAP2 POP POP SWAP3 SWAP2 POP POP JUMP JUMPDEST PUSH1 0x0 DUP2 CALLDATALOAD PUSH2 0x57E7 DUP2 PUSH2 0x48BF JUMP JUMPDEST DUP1 SWAP2 POP POP SWAP2 SWAP1 POP JUMP JUMPDEST PUSH1 0x0 DUP2 PUSH1 0x0 SHL SWAP1 POP SWAP2 SWAP1 POP JUMP JUMPDEST PUSH1 0x0 PUSH32 0xFFFFFFFFFFFFFFFFFFFFFFFFFFFFFFFFFFFFFFFFFFFFFFFFFFFFFFFFFFFFFFFF PUSH2 0x5829 DUP5 PUSH2 0x57F0 JUMP JUMPDEST SWAP4 POP DUP1 NOT DUP4 AND SWAP3 POP DUP1 DUP5 AND DUP4 OR SWAP2 POP POP SWAP3 SWAP2 POP POP JUMP JUMPDEST PUSH1 0x0 PUSH2 0x585A PUSH2 0x5855 PUSH2 0x5850 DUP5 PUSH2 0x48B5 JUMP JUMPDEST PUSH2 0x4EEF JUMP JUMPDEST PUSH2 0x48B5 JUMP JUMPDEST SWAP1 POP SWAP2 SWAP1 POP JUMP JUMPDEST PUSH1 0x0 DUP2 SWAP1 POP SWAP2 SWAP1 POP JUMP JUMPDEST PUSH2 0x5874 DUP3 PUSH2 0x583F JUMP JUMPDEST PUSH2 0x5887 PUSH2 0x5880 DUP3 PUSH2 0x5861 JUMP JUMPDEST DUP4 SLOAD PUSH2 0x57FD JUMP JUMPDEST DUP3 SSTORE POP POP POP JUMP JUMPDEST PUSH1 0x0 DUP2 SLOAD SWAP1 POP SWAP2 SWAP1 POP JUMP JUMPDEST PUSH1 0x0 DUP2 SWAP1 POP PUSH1 0x20 PUSH1 0x1 PUSH1 0x20 SUB DUP4 ADD DIV SWAP1 POP SWAP2 SWAP1 POP JUMP JUMPDEST PUSH1 0x0 DUP2 SWAP1 POP DUP2 PUSH1 0x0 MSTORE PUSH1 0x20 PUSH1 0x0 KECCAK256 SWAP1 POP SWAP2 SWAP1 POP JUMP JUMPDEST PUSH1 0x0 DUP3 DUP3 SHL SWAP1 POP SWAP3 SWAP2 POP POP JUMP JUMPDEST PUSH1 0x0 PUSH1 0x8 DUP4 MUL PUSH2 0x5901 PUSH32 0xFFFFFFFFFFFFFFFFFFFFFFFFFFFFFFFFFFFFFFFFFFFFFFFFFFFFFFFFFFFFFFFF DUP3 PUSH2 0x58C4 JUMP JUMPDEST PUSH2 0x590B DUP7 DUP4 PUSH2 0x58C4 JUMP JUMPDEST SWAP6 POP DUP1 NOT DUP5 AND SWAP4 POP DUP1 DUP7 AND DUP5 OR SWAP3 POP POP POP SWAP4 SWAP3 POP POP POP JUMP JUMPDEST PUSH2 0x592C DUP4 PUSH2 0x583F JUMP JUMPDEST PUSH2 0x5940 PUSH2 0x5938 DUP3 PUSH2 0x5861 JUMP JUMPDEST DUP5 DUP5 SLOAD PUSH2 0x58D1 JUMP JUMPDEST DUP3 SSTORE POP POP POP POP JUMP JUMPDEST PUSH1 0x0 SWAP1 JUMP JUMPDEST PUSH2 0x5955 PUSH2 0x5948 JUMP JUMPDEST PUSH2 0x5960 DUP2 DUP5 DUP5 PUSH2 0x5923 JUMP JUMPDEST POP POP POP JUMP JUMPDEST JUMPDEST DUP2 DUP2 LT ISZERO PUSH2 0x5984 JUMPI PUSH2 0x5979 PUSH1 0x0 DUP3 PUSH2 0x594D JUMP JUMPDEST PUSH1 0x1 DUP2 ADD SWAP1 POP PUSH2 0x5966 JUMP JUMPDEST POP POP JUMP JUMPDEST PUSH1 0x0 DUP3 DUP3 SHR SWAP1 POP SWAP3 SWAP2 POP POP JUMP JUMPDEST PUSH2 0x59C5 PUSH32 0xFFFFFFFFFFFFFFFFFFFFFFFFFFFFFFFFFFFFFFFFFFFFFFFFFFFFFFFFFFFFFFFF DUP4 PUSH1 0x20 SUB PUSH1 0x8 MUL PUSH2 0x5988 JUMP JUMPDEST DUP2 SLOAD DUP2 AND DUP3 SSTORE POP POP POP JUMP JUMPDEST DUP2 DUP4 LT ISZERO PUSH2 0x5A28 JUMPI PUSH2 0x59E1 DUP3 PUSH2 0x5899 JUMP JUMPDEST PUSH2 0x59EA DUP5 PUSH2 0x5899 JUMP JUMPDEST PUSH2 0x59F3 DUP4 PUSH2 0x58AF JUMP JUMPDEST DUP2 DUP2 ADD DUP4 DUP3 ADD PUSH1 0x1 PUSH1 0x20 DUP10 MOD MUL PUSH1 0x0 DUP2 GT ISZERO PUSH2 0x5A17 JUMPI PUSH2 0x5A16 DUP2 PUSH1 0x1 DUP6 SUB PUSH2 0x5995 JUMP JUMPDEST JUMPDEST PUSH2 0x5A21 DUP3 DUP5 PUSH2 0x5965 JUMP JUMPDEST POP POP POP POP POP POP JUMPDEST POP POP POP JUMP JUMPDEST PUSH9 0x10000000000000000 DUP3 GT ISZERO PUSH2 0x5A47 JUMPI PUSH2 0x5A46 PUSH2 0x4964 JUMP JUMPDEST JUMPDEST PUSH2 0x5A50 DUP2 PUSH2 0x588E JUMP JUMPDEST DUP3 DUP3 SSTORE PUSH2 0x5A5E DUP4 DUP3 DUP5 PUSH2 0x59D0 JUMP JUMPDEST POP POP POP JUMP JUMPDEST PUSH1 0x0 DUP3 SWAP1 POP SWAP3 SWAP2 POP POP JUMP JUMPDEST PUSH1 0x0 DUP2 CALLDATALOAD PUSH2 0x5A7B DUP2 PUSH2 0x4B3A JUMP JUMPDEST DUP1 SWAP2 POP POP SWAP2 SWAP1 POP JUMP JUMPDEST PUSH1 0x0 DUP2 SWAP1 POP SWAP2 SWAP1 POP JUMP JUMPDEST PUSH1 0x0 PUSH1 0x8 DUP4 MUL PUSH2 0x5A9F PUSH1 0xFF DUP3 PUSH2 0x58C4 JUMP JUMPDEST PUSH2 0x5AA9 DUP7 DUP4 PUSH2 0x58C4 JUMP JUMPDEST SWAP6 POP DUP1 NOT DUP5 AND SWAP4 POP DUP1 DUP7 AND DUP5 OR SWAP3 POP POP POP SWAP4 SWAP3 POP POP POP JUMP JUMPDEST PUSH1 0x0 DUP2 SWAP1 POP SWAP2 SWAP1 POP JUMP JUMPDEST PUSH2 0x5AD5 DUP4 DUP4 PUSH2 0x5A63 JUMP JUMPDEST PUSH8 0xFFFFFFFFFFFFFFFF DUP2 GT ISZERO PUSH2 0x5AEE JUMPI PUSH2 0x5AED PUSH2 0x4964 JUMP JUMPDEST JUMPDEST PUSH2 0x5AF8 DUP2 DUP4 PUSH2 0x5A2D JUMP JUMPDEST PUSH2 0x5B01 DUP4 PUSH2 0x5A84 JUMP JUMPDEST PUSH2 0x5B0A DUP4 PUSH2 0x58AF JUMP JUMPDEST PUSH1 0x20 DUP4 DIV PUSH1 0x0 JUMPDEST DUP2 DUP2 LT ISZERO PUSH2 0x5B6D JUMPI PUSH1 0x0 DUP1 JUMPDEST PUSH1 0x20 DUP2 LT ISZERO PUSH2 0x5B5B JUMPI PUSH2 0x5B2F DUP7 PUSH2 0x5A6E JUMP JUMPDEST PUSH2 0x5B38 DUP2 PUSH2 0x5AC1 JUMP JUMPDEST PUSH2 0x5B46 DUP2 DUP5 PUSH1 0x1 MUL DUP7 PUSH2 0x5A8E JUMP JUMPDEST SWAP4 POP PUSH1 0x20 DUP9 ADD SWAP8 POP POP POP PUSH1 0x1 DUP2 ADD SWAP1 POP PUSH2 0x5B1D JUMP JUMPDEST POP DUP1 DUP3 DUP6 ADD SSTORE POP PUSH1 0x1 DUP2 ADD SWAP1 POP PUSH2 0x5B11 JUMP JUMPDEST POP PUSH1 0x20 DUP2 MUL DUP5 SUB PUSH1 0x0 DUP2 GT ISZERO PUSH2 0x5BC6 JUMPI PUSH1 0x0 DUP1 JUMPDEST DUP3 DUP2 LT ISZERO PUSH2 0x5BBE JUMPI PUSH2 0x5B92 DUP7 PUSH2 0x5A6E JUMP JUMPDEST PUSH2 0x5B9B DUP2 PUSH2 0x5AC1 JUMP JUMPDEST PUSH2 0x5BA9 DUP2 DUP5 PUSH1 0x1 MUL DUP7 PUSH2 0x5A8E JUMP JUMPDEST SWAP4 POP PUSH1 0x20 DUP9 ADD SWAP8 POP POP POP PUSH1 0x1 DUP2 ADD SWAP1 POP PUSH2 0x5B81 JUMP JUMPDEST POP DUP1 DUP4 DUP6 ADD SSTORE POP JUMPDEST POP POP POP POP POP POP POP POP JUMP JUMPDEST PUSH2 0x5BDB DUP4 DUP4 DUP4 PUSH2 0x5ACB JUMP JUMPDEST POP POP POP JUMP JUMPDEST PUSH1 0x0 DUP2 CALLDATALOAD PUSH2 0x5BED DUP2 PUSH2 0x52FF JUMP JUMPDEST DUP1 SWAP2 POP POP SWAP2 SWAP1 POP JUMP JUMPDEST PUSH1 0x0 PUSH1 0xFF PUSH2 0x5C03 DUP5 PUSH2 0x57F0 JUMP JUMPDEST SWAP4 POP DUP1 NOT DUP4 AND SWAP3 POP DUP1 DUP5 AND DUP4 OR SWAP2 POP POP SWAP3 SWAP2 POP POP JUMP JUMPDEST PUSH1 0x0 PUSH2 0x5C24 DUP3 PUSH2 0x4E68 JUMP JUMPDEST SWAP1 POP SWAP2 SWAP1 POP JUMP JUMPDEST PUSH1 0x0 DUP2 SWAP1 POP SWAP2 SWAP1 POP JUMP JUMPDEST PUSH2 0x5C3E DUP3 PUSH2 0x5C19 JUMP JUMPDEST PUSH2 0x5C51 PUSH2 0x5C4A DUP3 PUSH2 0x5C2B JUMP JUMPDEST DUP4 SLOAD PUSH2 0x5BF6 JUMP JUMPDEST DUP3 SSTORE POP POP POP JUMP JUMPDEST PUSH1 0x0 DUP2 ADD PUSH1 0x0 DUP4 ADD DUP1 PUSH2 0x5C6A DUP2 PUSH2 0x57DA JUMP JUMPDEST SWAP1 POP PUSH2 0x5C76 DUP2 DUP5 PUSH2 0x586B JUMP JUMPDEST POP POP POP PUSH1 0x1 DUP2 ADD PUSH1 0x20 DUP4 ADD PUSH2 0x5C8B DUP2 DUP6 PUSH2 0x5351 JUMP JUMPDEST PUSH2 0x5C96 DUP2 DUP4 DUP7 PUSH2 0x5BD0 JUMP JUMPDEST POP POP POP POP PUSH1 0x2 DUP2 ADD PUSH1 0x40 DUP4 ADD DUP1 PUSH2 0x5CAC DUP2 PUSH2 0x5BE0 JUMP JUMPDEST SWAP1 POP PUSH2 0x5CB8 DUP2 DUP5 PUSH2 0x5C35 JUMP JUMPDEST POP POP POP POP POP JUMP JUMPDEST PUSH2 0x5CC9 DUP3 DUP3 PUSH2 0x5C58 JUMP JUMPDEST POP POP JUMP JUMPDEST PUSH1 0x0 PUSH1 0x40 DUP3 ADD SWAP1 POP PUSH2 0x5CE2 PUSH1 0x0 DUP4 ADD DUP6 PUSH2 0x4DBB JUMP JUMPDEST PUSH2 0x5CEF PUSH1 0x20 DUP4 ADD DUP5 PUSH2 0x4DBB JUMP JUMPDEST SWAP4 SWAP3 POP POP POP JUMP JUMPDEST PUSH1 0x0 PUSH1 0x40 DUP3 ADD SWAP1 POP PUSH2 0x5D0B PUSH1 0x0 DUP4 ADD DUP6 PUSH2 0x4EC5 JUMP JUMPDEST PUSH2 0x5D18 PUSH1 0x20 DUP4 ADD DUP5 PUSH2 0x4DBB JUMP JUMPDEST SWAP4 SWAP3 POP POP POP JUMP JUMPDEST PUSH1 0x0 PUSH2 0x5D2A DUP3 PUSH2 0x4B03 JUMP JUMPDEST SWAP2 POP PUSH1 0xFF DUP3 SUB PUSH2 0x5D3D JUMPI PUSH2 0x5D3C PUSH2 0x51C5 JUMP JUMPDEST JUMPDEST PUSH1 0x1 DUP3 ADD SWAP1 POP SWAP2 SWAP1 POP JUMP JUMPDEST PUSH32 0x416C72656164792066696C6C6564000000000000000000000000000000000000 PUSH1 0x0 DUP3 ADD MSTORE POP JUMP JUMPDEST PUSH1 0x0 PUSH2 0x5D7E PUSH1 0xE DUP4 PUSH2 0x53B4 JUMP JUMPDEST SWAP2 POP PUSH2 0x5D89 DUP3 PUSH2 0x5D48 JUMP JUMPDEST PUSH1 0x20 DUP3 ADD SWAP1 POP SWAP2 SWAP1 POP JUMP JUMPDEST PUSH1 0x0 PUSH1 0x20 DUP3 ADD SWAP1 POP DUP2 DUP2 SUB PUSH1 0x0 DUP4 ADD MSTORE PUSH2 0x5DAD DUP2 PUSH2 0x5D71 JUMP JUMPDEST SWAP1 POP SWAP2 SWAP1 POP JUMP JUMPDEST PUSH1 0x0 PUSH2 0x5DBF DUP3 PUSH2 0x48B5 JUMP JUMPDEST SWAP2 POP PUSH2 0x5DCA DUP4 PUSH2 0x48B5 JUMP JUMPDEST SWAP3 POP DUP3 PUSH2 0x5DDA JUMPI PUSH2 0x5DD9 PUSH2 0x5165 JUMP JUMPDEST JUMPDEST DUP3 DUP3 MOD SWAP1 POP SWAP3 SWAP2 POP POP JUMP JUMPDEST PUSH1 0x0 DUP2 MLOAD SWAP1 POP PUSH2 0x5DF4 DUP2 PUSH2 0x4D4F JUMP JUMPDEST SWAP3 SWAP2 POP POP JUMP JUMPDEST PUSH1 0x0 PUSH1 0x20 DUP3 DUP5 SUB SLT ISZERO PUSH2 0x5E10 JUMPI PUSH2 0x5E0F PUSH2 0x48AB JUMP JUMPDEST JUMPDEST PUSH1 0x0 PUSH2 0x5E1E DUP5 DUP3 DUP6 ADD PUSH2 0x5DE5 JUMP JUMPDEST SWAP2 POP POP SWAP3 SWAP2 POP POP JUMP JUMPDEST PUSH2 0x5E30 DUP2 PUSH2 0x4918 JUMP JUMPDEST DUP3 MSTORE POP POP JUMP JUMPDEST PUSH1 0x20 DUP3 ADD PUSH1 0x0 DUP3 ADD MLOAD PUSH2 0x5E4C PUSH1 0x0 DUP6 ADD DUP3 PUSH2 0x5E27 JUMP JUMPDEST POP POP POP POP JUMP JUMPDEST PUSH1 0x0 PUSH1 0x20 DUP3 ADD SWAP1 POP PUSH2 0x5E67 PUSH1 0x0 DUP4 ADD DUP5 PUSH2 0x5E36 JUMP JUMPDEST SWAP3 SWAP2 POP POP JUMP JUMPDEST PUSH1 0x0 PUSH4 0xFFFFFFFF DUP3 AND SWAP1 POP SWAP2 SWAP1 POP JUMP JUMPDEST PUSH2 0x5E86 DUP2 PUSH2 0x5E6D JUMP JUMPDEST DUP3 MSTORE POP POP JUMP JUMPDEST PUSH1 0x0 PUSH1 0x40 DUP3 ADD SWAP1 POP PUSH2 0x5EA1 PUSH1 0x0 DUP4 ADD DUP6 PUSH2 0x5E7D JUMP JUMPDEST PUSH2 0x5EAE PUSH1 0x20 DUP4 ADD DUP5 PUSH2 0x5E7D JUMP JUMPDEST SWAP4 SWAP3 POP POP POP JUMP JUMPDEST PUSH1 0x0 PUSH2 0xFFFF DUP3 AND SWAP1 POP SWAP2 SWAP1 POP JUMP JUMPDEST PUSH2 0x5ECC DUP2 PUSH2 0x5EB5 JUMP JUMPDEST DUP3 MSTORE POP POP JUMP JUMPDEST PUSH1 0x0 DUP2 MLOAD SWAP1 POP SWAP2 SWAP1 POP JUMP JUMPDEST PUSH1 0x0 DUP3 DUP3 MSTORE PUSH1 0x20 DUP3 ADD SWAP1 POP SWAP3 SWAP2 POP POP JUMP JUMPDEST PUSH1 0x0 JUMPDEST DUP4 DUP2 LT ISZERO PUSH2 0x5F0C JUMPI DUP1 DUP3 ADD MLOAD DUP2 DUP5 ADD MSTORE PUSH1 0x20 DUP2 ADD SWAP1 POP PUSH2 0x5EF1 JUMP JUMPDEST PUSH1 0x0 DUP5 DUP5 ADD MSTORE POP POP POP POP JUMP JUMPDEST PUSH1 0x0 PUSH2 0x5F23 DUP3 PUSH2 0x5ED2 JUMP JUMPDEST PUSH2 0x5F2D DUP2 DUP6 PUSH2 0x5EDD JUMP JUMPDEST SWAP4 POP PUSH2 0x5F3D DUP2 DUP6 PUSH1 0x20 DUP7 ADD PUSH2 0x5EEE JUMP JUMPDEST PUSH2 0x5F46 DUP2 PUSH2 0x4953 JUMP JUMPDEST DUP5 ADD SWAP2 POP POP SWAP3 SWAP2 POP POP JUMP JUMPDEST PUSH1 0x0 PUSH1 0x80 DUP3 ADD SWAP1 POP PUSH2 0x5F66 PUSH1 0x0 DUP4 ADD DUP8 PUSH2 0x5E7D JUMP JUMPDEST PUSH2 0x5F73 PUSH1 0x20 DUP4 ADD DUP7 PUSH2 0x5EC3 JUMP JUMPDEST PUSH2 0x5F80 PUSH1 0x40 DUP4 ADD DUP6 PUSH2 0x5E7D JUMP JUMPDEST DUP2 DUP2 SUB PUSH1 0x60 DUP4 ADD MSTORE PUSH2 0x5F92 DUP2 DUP5 PUSH2 0x5F18 JUMP JUMPDEST SWAP1 POP SWAP6 SWAP5 POP POP POP POP POP JUMP INVALID LOG2 PUSH5 0x6970667358 0x22 SLT KECCAK256 0xBD DUP5 TIMESTAMP PUSH20 0xEB1F2CD244DE035C8C79640C22B8C33B86A75052 DUP16 SLOAD PC 0xC3 PUSH27 0xC41FCD64736F6C634300081B003300000000000000000000000000 "
        },
        "methodIdentifiers": {
          "bets(uint256,uint256)": "6a09f6be",
          "betsOwner(uint256)": "fba4d7bf",
          "black(uint256)": "83cd7980",
          "changeFeeBps(uint8)": "2edd6797",
          "feeAmount()": "69e15404",
          "feeBps()": "24a9d853",
          "fulfilled(uint256)": "1bc404d6",
          "i_vrfV2PlusWrapper()": "9ed0868d",
          "initialize(address,address)": "485cc955",
          "isCornerBet(uint8[])": "7d5e45d5",
          "isDoubleStreetBet(uint8[])": "3f9e06c9",
          "isSplitBet(uint8,uint8)": "47aa1a10",
          "isStreetBet(uint8,uint8,uint8)": "e4f8ceea",
          "newBet((uint256,uint8[],uint8)[])": "a285ad79",
          "owner()": "8da5cb5b",
          "rawFulfillRandomWords(uint256,uint256[])": "1fe543e3",
          "red(uint256)": "768d2689",
          "renounceOwnership()": "715018a6",
          "streets(uint256,uint256)": "88f2c720",
          "token()": "fc0c546a",
          "transferOwnership(address)": "f2fde38b",
          "withdrawFee()": "e941fa78",
          "withdrawFunds(address,uint256)": "c1075329"
        }
      },
      "storageLayout": {
        "storage": [
          {
            "astId": 810,
            "contract": "contracts/Roulette.sol:Roulette",
            "label": "i_linkToken",
            "offset": 0,
            "slot": "0",
            "type": "t_contract(LinkTokenInterface)94"
          },
          {
            "astId": 813,
            "contract": "contracts/Roulette.sol:Roulette",
            "label": "i_vrfV2PlusWrapper",
            "offset": 0,
            "slot": "1",
            "type": "t_contract(IVRFV2PlusWrapper)171"
          },
          {
            "astId": 816,
            "contract": "contracts/Roulette.sol:Roulette",
            "label": "token",
            "offset": 0,
            "slot": "2",
            "type": "t_contract(IERC20)786"
          },
          {
            "astId": 818,
            "contract": "contracts/Roulette.sol:Roulette",
            "label": "feeBps",
            "offset": 20,
            "slot": "2",
            "type": "t_uint8"
          },
          {
            "astId": 823,
            "contract": "contracts/Roulette.sol:Roulette",
            "label": "streets",
            "offset": 0,
            "slot": "3",
            "type": "t_array(t_array(t_uint8)3_storage)dyn_storage"
          },
          {
            "astId": 827,
            "contract": "contracts/Roulette.sol:Roulette",
            "label": "red",
            "offset": 0,
            "slot": "4",
            "type": "t_array(t_uint8)18_storage"
          },
          {
            "astId": 831,
            "contract": "contracts/Roulette.sol:Roulette",
            "label": "black",
            "offset": 0,
            "slot": "5",
            "type": "t_array(t_uint8)18_storage"
          },
          {
            "astId": 905,
            "contract": "contracts/Roulette.sol:Roulette",
            "label": "bets",
            "offset": 0,
            "slot": "6",
            "type": "t_mapping(t_uint256,t_array(t_struct(Bet)862_storage)dyn_storage)"
          },
          {
            "astId": 909,
            "contract": "contracts/Roulette.sol:Roulette",
            "label": "betsOwner",
            "offset": 0,
            "slot": "7",
            "type": "t_mapping(t_uint256,t_address)"
          },
          {
            "astId": 913,
            "contract": "contracts/Roulette.sol:Roulette",
            "label": "fulfilled",
            "offset": 0,
            "slot": "8",
            "type": "t_mapping(t_uint256,t_bool)"
          },
          {
            "astId": 915,
            "contract": "contracts/Roulette.sol:Roulette",
            "label": "feeAmount",
            "offset": 0,
            "slot": "9",
            "type": "t_uint256"
          }
        ],
        "types": {
          "t_address": {
            "encoding": "inplace",
            "label": "address",
            "numberOfBytes": "20"
          },
          "t_array(t_array(t_uint8)3_storage)dyn_storage": {
            "base": "t_array(t_uint8)3_storage",
            "encoding": "dynamic_array",
            "label": "uint8[3][]",
            "numberOfBytes": "32"
          },
          "t_array(t_struct(Bet)862_storage)dyn_storage": {
            "base": "t_struct(Bet)862_storage",
            "encoding": "dynamic_array",
            "label": "struct Roulette.Bet[]",
            "numberOfBytes": "32"
          },
          "t_array(t_uint8)18_storage": {
            "base": "t_uint8",
            "encoding": "inplace",
            "label": "uint8[18]",
            "numberOfBytes": "32"
          },
          "t_array(t_uint8)3_storage": {
            "base": "t_uint8",
            "encoding": "inplace",
            "label": "uint8[3]",
            "numberOfBytes": "32"
          },
          "t_array(t_uint8)dyn_storage": {
            "base": "t_uint8",
            "encoding": "dynamic_array",
            "label": "uint8[]",
            "numberOfBytes": "32"
          },
          "t_bool": {
            "encoding": "inplace",
            "label": "bool",
            "numberOfBytes": "1"
          },
          "t_contract(IERC20)786": {
            "encoding": "inplace",
            "label": "contract IERC20",
            "numberOfBytes": "20"
          },
          "t_contract(IVRFV2PlusWrapper)171": {
            "encoding": "inplace",
            "label": "contract IVRFV2PlusWrapper",
            "numberOfBytes": "20"
          },
          "t_contract(LinkTokenInterface)94": {
            "encoding": "inplace",
            "label": "contract LinkTokenInterface",
            "numberOfBytes": "20"
          },
          "t_enum(BetType)853": {
            "encoding": "inplace",
            "label": "enum Roulette.BetType",
            "numberOfBytes": "1"
          },
          "t_mapping(t_uint256,t_address)": {
            "encoding": "mapping",
            "key": "t_uint256",
            "label": "mapping(uint256 => address)",
            "numberOfBytes": "32",
            "value": "t_address"
          },
          "t_mapping(t_uint256,t_array(t_struct(Bet)862_storage)dyn_storage)": {
            "encoding": "mapping",
            "key": "t_uint256",
            "label": "mapping(uint256 => struct Roulette.Bet[])",
            "numberOfBytes": "32",
            "value": "t_array(t_struct(Bet)862_storage)dyn_storage"
          },
          "t_mapping(t_uint256,t_bool)": {
            "encoding": "mapping",
            "key": "t_uint256",
            "label": "mapping(uint256 => bool)",
            "numberOfBytes": "32",
            "value": "t_bool"
          },
          "t_struct(Bet)862_storage": {
            "encoding": "inplace",
            "label": "struct Roulette.Bet",
            "members": [
              {
                "astId": 855,
                "contract": "contracts/Roulette.sol:Roulette",
                "label": "amount",
                "offset": 0,
                "slot": "0",
                "type": "t_uint256"
              },
              {
                "astId": 858,
                "contract": "contracts/Roulette.sol:Roulette",
                "label": "numbers",
                "offset": 0,
                "slot": "1",
                "type": "t_array(t_uint8)dyn_storage"
              },
              {
                "astId": 861,
                "contract": "contracts/Roulette.sol:Roulette",
                "label": "betType",
                "offset": 0,
                "slot": "2",
                "type": "t_enum(BetType)853"
              }
            ],
            "numberOfBytes": "96"
          },
          "t_uint256": {
            "encoding": "inplace",
            "label": "uint256",
            "numberOfBytes": "32"
          },
          "t_uint8": {
            "encoding": "inplace",
            "label": "uint8",
            "numberOfBytes": "1"
          }
        }
      }
    }
  }
}